{
  "_format": "hh-sol-artifact-1",
  "contractName": "SaleMock",
  "sourceName": "contracts/test/SaleMock.sol",
  "abi": [
    {
      "inputs": [
        {
          "internalType": "address",
          "name": "to",
          "type": "address"
        },
        {
          "internalType": "uint256",
          "name": "amount",
          "type": "uint256"
        }
      ],
      "name": "mintToken",
      "outputs": [],
      "stateMutability": "nonpayable",
      "type": "function"
    },
    {
      "inputs": [
        {
          "internalType": "address",
          "name": "_token",
          "type": "address"
        }
      ],
      "name": "setToken",
      "outputs": [],
      "stateMutability": "nonpayable",
      "type": "function"
    },
    {
      "inputs": [],
      "name": "token",
      "outputs": [
        {
          "internalType": "contract SAToken",
          "name": "",
          "type": "address"
        }
      ],
      "stateMutability": "view",
      "type": "function"
    }
  ],
  "bytecode": "0x608060405234801561001057600080fd5b506103b7806100206000396000f3fe608060405234801561001057600080fd5b50600436106100415760003560e01c8063144fa6d71461004657806379c6506814610062578063fc0c546a1461007e575b600080fd5b610060600480360381019061005b91906101c4565b61009c565b005b61007c600480360381019061007791906101ed565b6100df565b005b610086610176565b60405161009391906102aa565b60405180910390f35b806000806101000a81548173ffffffffffffffffffffffffffffffffffffffff021916908373ffffffffffffffffffffffffffffffffffffffff16021790555050565b60008054906101000a900473ffffffffffffffffffffffffffffffffffffffff1673ffffffffffffffffffffffffffffffffffffffff1663f4c959ab8360008460006040518563ffffffff1660e01b81526004016101409493929190610265565b600060405180830381600087803b15801561015a57600080fd5b505af115801561016e573d6000803e3d6000fd5b505050505050565b60008054906101000a900473ffffffffffffffffffffffffffffffffffffffff1681565b6000813590506101a981610353565b92915050565b6000813590506101be8161036a565b92915050565b6000602082840312156101d657600080fd5b60006101e48482850161019a565b91505092915050565b6000806040838503121561020057600080fd5b600061020e8582860161019a565b925050602061021f858286016101af565b9150509250929050565b610232816102c5565b82525050565b6102418161031d565b82525050565b61025081610341565b82525050565b61025f81610313565b82525050565b600060808201905061027a6000830187610229565b6102876020830186610229565b6102946040830185610256565b6102a16060830184610247565b95945050505050565b60006020820190506102bf6000830184610238565b92915050565b60006102d0826102f3565b9050919050565b60006fffffffffffffffffffffffffffffffff82169050919050565b600073ffffffffffffffffffffffffffffffffffffffff82169050919050565b6000819050919050565b60006103288261032f565b9050919050565b600061033a826102f3565b9050919050565b600061034c826102d7565b9050919050565b61035c816102c5565b811461036757600080fd5b50565b61037381610313565b811461037e57600080fd5b5056fea26469706673582212209c3d63f33cdb0081ab45163987e5f0bda4f13bd49d030fcf6eead8ce0e31ddab64736f6c63430008030033",
  "linkReferences": {},
  "deployedLinkReferences": {}
}