{
  "_format": "hh-sol-artifact-1",
  "contractName": "SAStorage",
  "sourceName": "contracts/nft/SAStorage.sol",
  "abi": [
    {
      "anonymous": false,
      "inputs": [
        {
          "indexed": false,
          "internalType": "uint256",
          "name": "bundleId",
          "type": "uint256"
        }
      ],
      "name": "BundleCreated",
      "type": "event"
    },
    {
      "anonymous": false,
      "inputs": [
        {
          "indexed": false,
          "internalType": "uint256",
          "name": "bundleId",
          "type": "uint256"
        }
      ],
      "name": "BundleDeleted",
      "type": "event"
    },
    {
      "anonymous": false,
      "inputs": [
        {
          "indexed": false,
          "internalType": "uint256",
          "name": "level",
          "type": "uint256"
        },
        {
          "indexed": false,
          "internalType": "address",
          "name": "account",
          "type": "address"
        },
        {
          "indexed": false,
          "internalType": "address",
          "name": "setter",
          "type": "address"
        }
      ],
      "name": "LevelSet",
      "type": "event"
    },
    {
      "inputs": [],
      "name": "MANAGER_LEVEL",
      "outputs": [
        {
          "internalType": "uint256",
          "name": "",
          "type": "uint256"
        }
      ],
      "stateMutability": "view",
      "type": "function"
    },
    {
      "inputs": [],
      "name": "OWNER_LEVEL",
      "outputs": [
        {
          "internalType": "uint256",
          "name": "",
          "type": "uint256"
        }
      ],
      "stateMutability": "view",
      "type": "function"
    },
    {
      "inputs": [
        {
          "internalType": "uint256",
          "name": "tokenId",
          "type": "uint256"
        },
        {
          "components": [
            {
              "internalType": "address",
              "name": "sale",
              "type": "address"
            },
            {
              "internalType": "uint256",
              "name": "remainingAmount",
              "type": "uint256"
            },
            {
              "internalType": "uint128",
              "name": "vestedPercentage",
              "type": "uint128"
            }
          ],
          "internalType": "struct ISAStorage.SA",
          "name": "newSA",
          "type": "tuple"
        }
      ],
      "name": "addSAToBundle",
      "outputs": [],
      "stateMutability": "nonpayable",
      "type": "function"
    },
    {
      "inputs": [
        {
          "internalType": "uint256",
          "name": "tokenId",
          "type": "uint256"
        }
      ],
      "name": "getBundle",
      "outputs": [
        {
          "components": [
            {
              "components": [
                {
                  "internalType": "address",
                  "name": "sale",
                  "type": "address"
                },
                {
                  "internalType": "uint256",
                  "name": "remainingAmount",
                  "type": "uint256"
                },
                {
                  "internalType": "uint128",
                  "name": "vestedPercentage",
                  "type": "uint128"
                }
              ],
              "internalType": "struct ISAStorage.SA[]",
              "name": "sas",
              "type": "tuple[]"
            },
            {
              "internalType": "uint32",
              "name": "creationTime",
              "type": "uint32"
            },
            {
              "internalType": "uint32",
              "name": "acquisitionTime",
              "type": "uint32"
            }
          ],
          "internalType": "struct ISAStorage.Bundle",
          "name": "",
          "type": "tuple"
        }
      ],
      "stateMutability": "view",
      "type": "function"
    },
    {
      "inputs": [
        {
          "internalType": "uint256",
          "name": "level",
          "type": "uint256"
        },
        {
          "internalType": "address",
          "name": "addr",
          "type": "address"
        }
      ],
      "name": "grantLevel",
      "outputs": [],
      "stateMutability": "nonpayable",
      "type": "function"
    },
    {
      "inputs": [
        {
          "internalType": "uint256",
          "name": "tokenId",
          "type": "uint256"
        },
        {
          "internalType": "uint256",
          "name": "saIndex",
          "type": "uint256"
        },
        {
          "internalType": "uint256",
          "name": "diff",
          "type": "uint256"
        }
      ],
      "name": "increaseAmountInSA",
      "outputs": [],
      "stateMutability": "nonpayable",
      "type": "function"
    },
    {
      "inputs": [
        {
          "internalType": "address",
          "name": "",
          "type": "address"
        }
      ],
      "name": "levels",
      "outputs": [
        {
          "internalType": "uint256",
          "name": "",
          "type": "uint256"
        }
      ],
      "stateMutability": "view",
      "type": "function"
    },
    {
      "inputs": [
        {
          "internalType": "address",
          "name": "addr",
          "type": "address"
        }
      ],
      "name": "revokeLevel",
      "outputs": [],
      "stateMutability": "nonpayable",
      "type": "function"
    }
  ],
  "bytecode": "0x60806040523480156200001157600080fd5b5060016000803373ffffffffffffffffffffffffffffffffffffffff1673ffffffffffffffffffffffffffffffffffffffff168152602001908152602001600020819055507f30113ad733c78bfd7b2fd05fa6982d156dda72dd2739fdc5ffbd71ecfc3124d260013360006040516200008d93929190620000bd565b60405180910390a162000138565b620000a681620000fa565b82525050565b620000b7816200012e565b82525050565b6000606082019050620000d46000830186620000ac565b620000e360208301856200009b565b620000f260408301846200009b565b949350505050565b600062000107826200010e565b9050919050565b600073ffffffffffffffffffffffffffffffffffffffff82169050919050565b6000819050919050565b61103080620001486000396000f3fe608060405234801561001057600080fd5b50600436106100885760003560e01c806347082db31161005b57806347082db3146101155780638a553da214610145578063f25ec21314610161578063f78687241461017d57610088565b80631ce705811461008d5780632d0821b7146100ab5780632edc555f146100db5780633011b3f0146100f9575b600080fd5b610095610199565b6040516100a29190610d0c565b60405180910390f35b6100c560048036038101906100c091906109cc565b61019e565b6040516100d29190610cea565b60405180910390f35b6100e3610320565b6040516100f09190610d0c565b60405180910390f35b610113600480360381019061010e9190610a31565b610325565b005b61012f600480360381019061012a91906109a3565b6103b6565b60405161013c9190610d0c565b60405180910390f35b61015f600480360381019061015a91906109a3565b6103ce565b005b61017b600480360381019061017691906109f5565b6104d2565b005b61019760048036038101906101929190610a6d565b6105d7565b005b600181565b6101a66108d7565b6001600083815260200190815260200160002060405180606001604052908160008201805480602002602001604051908101604052809291908181526020016000905b828210156102c557838290600052602060002090600302016040518060600160405290816000820160009054906101000a900473ffffffffffffffffffffffffffffffffffffffff1673ffffffffffffffffffffffffffffffffffffffff1673ffffffffffffffffffffffffffffffffffffffff168152602001600182015481526020016002820160009054906101000a90046fffffffffffffffffffffffffffffffff166fffffffffffffffffffffffffffffffff166fffffffffffffffffffffffffffffffff1681525050815260200190600101906101e9565b5050505081526020016001820160009054906101000a900463ffffffff1663ffffffff1663ffffffff1681526020016001820160049054906101000a900463ffffffff1663ffffffff1663ffffffff16815250509050919050565b600181565b6001806000803373ffffffffffffffffffffffffffffffffffffffff1673ffffffffffffffffffffffffffffffffffffffff16815260200190815260200160002054146103a7576040517f08c379a000000000000000000000000000000000000000000000000000000000815260040161039e90610caa565b60405180910390fd5b6103b1838361066a565b505050565b60006020528060005260406000206000915090505481565b6001806000803373ffffffffffffffffffffffffffffffffffffffff1673ffffffffffffffffffffffffffffffffffffffff1681526020019081526020016000205414610450576040517f08c379a000000000000000000000000000000000000000000000000000000000815260040161044790610caa565b60405180910390fd5b6000808373ffffffffffffffffffffffffffffffffffffffff1673ffffffffffffffffffffffffffffffffffffffff168152602001908152602001600020600090557f30113ad733c78bfd7b2fd05fa6982d156dda72dd2739fdc5ffbd71ecfc3124d2600083336040516104c693929190610c73565b60405180910390a15050565b6001806000803373ffffffffffffffffffffffffffffffffffffffff1673ffffffffffffffffffffffffffffffffffffffff1681526020019081526020016000205414610554576040517f08c379a000000000000000000000000000000000000000000000000000000000815260040161054b90610caa565b60405180910390fd5b826000808473ffffffffffffffffffffffffffffffffffffffff1673ffffffffffffffffffffffffffffffffffffffff168152602001908152602001600020819055507f30113ad733c78bfd7b2fd05fa6982d156dda72dd2739fdc5ffbd71ecfc3124d28383336040516105ca93929190610d27565b60405180910390a1505050565b6001806000803373ffffffffffffffffffffffffffffffffffffffff1673ffffffffffffffffffffffffffffffffffffffff1681526020019081526020016000205414610659576040517f08c379a000000000000000000000000000000000000000000000000000000000815260040161065090610caa565b60405180910390fd5b6106648484846107e7565b50505050565b8160006001600083815260200190815260200160002060010160009054906101000a900463ffffffff1663ffffffff1614156106db576040517f08c379a00000000000000000000000000000000000000000000000000000000081526004016106d290610cca565b60405180910390fd5b6001600084815260200190815260200160002060000182908060018154018082558091505060019003906000526020600020906003020160009091909190915060008201518160000160006101000a81548173ffffffffffffffffffffffffffffffffffffffff021916908373ffffffffffffffffffffffffffffffffffffffff1602179055506020820151816001015560408201518160020160006101000a8154816fffffffffffffffffffffffffffffffff02191690836fffffffffffffffffffffffffffffffff1602179055505050426001600085815260200190815260200160002060010160046101000a81548163ffffffff021916908363ffffffff160217905550505050565b61085981600160008681526020019081526020016000206000018481548110610839577f4e487b7100000000000000000000000000000000000000000000000000000000600052603260045260246000fd5b9060005260206000209060030201600101546108c190919063ffffffff16565b6001600085815260200190815260200160002060000183815481106108a7577f4e487b7100000000000000000000000000000000000000000000000000000000600052603260045260246000fd5b906000526020600020906003020160010181905550505050565b600081836108cf9190610dcd565b905092915050565b604051806060016040528060608152602001600063ffffffff168152602001600063ffffffff1681525090565b60008135905061091381610fb5565b92915050565b60006060828403121561092b57600080fd5b6109356060610d5e565b9050600061094584828501610904565b60008301525060206109598482850161098e565b602083015250604061096d84828501610979565b60408301525092915050565b60008135905061098881610fcc565b92915050565b60008135905061099d81610fe3565b92915050565b6000602082840312156109b557600080fd5b60006109c384828501610904565b91505092915050565b6000602082840312156109de57600080fd5b60006109ec8482850161098e565b91505092915050565b60008060408385031215610a0857600080fd5b6000610a168582860161098e565b9250506020610a2785828601610904565b9150509250929050565b60008060808385031215610a4457600080fd5b6000610a528582860161098e565b9250506020610a6385828601610919565b9150509250929050565b600080600060608486031215610a8257600080fd5b6000610a908682870161098e565b9350506020610aa18682870161098e565b9250506040610ab28682870161098e565b9150509250925092565b6000610ac88383610bf5565b60608301905092915050565b610add81610e23565b82525050565b610aec81610e23565b82525050565b6000610afd82610d93565b610b078185610dab565b9350610b1283610d83565b8060005b83811015610b43578151610b2a8882610abc565b9750610b3583610d9e565b925050600181019050610b16565b5085935050505092915050565b610b5981610e8b565b82525050565b6000610b6c602383610dbc565b9150610b7782610f3d565b604082019050919050565b6000610b8f602083610dbc565b9150610b9a82610f8c565b602082019050919050565b60006060830160008301518482036000860152610bc28282610af2565b9150506020830151610bd76020860182610c64565b506040830151610bea6040860182610c64565b508091505092915050565b606082016000820151610c0b6000850182610ad4565b506020820151610c1e6020850182610c46565b506040820151610c316040850182610c37565b50505050565b610c4081610e35565b82525050565b610c4f81610e71565b82525050565b610c5e81610e71565b82525050565b610c6d81610e7b565b82525050565b6000606082019050610c886000830186610b50565b610c956020830185610ae3565b610ca26040830184610ae3565b949350505050565b60006020820190508181036000830152610cc381610b5f565b9050919050565b60006020820190508181036000830152610ce381610b82565b9050919050565b60006020820190508181036000830152610d048184610ba5565b905092915050565b6000602082019050610d216000830184610c55565b92915050565b6000606082019050610d3c6000830186610c55565b610d496020830185610ae3565b610d566040830184610ae3565b949350505050565b6000610d68610d79565b9050610d748282610e9d565b919050565b6000604051905090565b6000819050602082019050919050565b600081519050919050565b6000602082019050919050565b600082825260208201905092915050565b600082825260208201905092915050565b6000610dd882610e71565b9150610de383610e71565b9250827fffffffffffffffffffffffffffffffffffffffffffffffffffffffffffffffff03821115610e1857610e17610ece565b5b828201905092915050565b6000610e2e82610e51565b9050919050565b60006fffffffffffffffffffffffffffffffff82169050919050565b600073ffffffffffffffffffffffffffffffffffffffff82169050919050565b6000819050919050565b600063ffffffff82169050919050565b6000610e9682610e71565b9050919050565b610ea682610f2c565b810181811067ffffffffffffffff82111715610ec557610ec4610efd565b5b80604052505050565b7f4e487b7100000000000000000000000000000000000000000000000000000000600052601160045260246000fd5b7f4e487b7100000000000000000000000000000000000000000000000000000000600052604160045260246000fd5b6000601f19601f8301169050919050565b7f4c6576656c4163636573733a2063616c6c6572206e6f7420617574686f72697a60008201527f65642e0000000000000000000000000000000000000000000000000000000000602082015250565b7f534153746f726167653a2042756e646c6520646f6573206e6f74206578697374600082015250565b610fbe81610e23565b8114610fc957600080fd5b50565b610fd581610e35565b8114610fe057600080fd5b50565b610fec81610e71565b8114610ff757600080fd5b5056fea2646970667358221220881d320b131b2e87c80a4c4592abedeba0cfee5c7bb15f3ced8b25dbf72fc31264736f6c63430008030033",
  "linkReferences": {},
  "deployedLinkReferences": {}
}