{
  "_format": "hh-sol-artifact-1",
  "contractName": "SAToken",
  "sourceName": "contracts/nft/SAToken.sol",
  "abi": [
    {
      "inputs": [
        {
          "internalType": "address",
          "name": "factoryAddress",
          "type": "address"
        },
        {
          "internalType": "address",
          "name": "extrasAddress",
          "type": "address"
        }
      ],
      "stateMutability": "nonpayable",
      "type": "constructor"
    },
    {
      "anonymous": false,
      "inputs": [
        {
          "indexed": true,
          "internalType": "address",
          "name": "owner",
          "type": "address"
        },
        {
          "indexed": true,
          "internalType": "address",
          "name": "approved",
          "type": "address"
        },
        {
          "indexed": true,
          "internalType": "uint256",
          "name": "tokenId",
          "type": "uint256"
        }
      ],
      "name": "Approval",
      "type": "event"
    },
    {
      "anonymous": false,
      "inputs": [
        {
          "indexed": true,
          "internalType": "address",
          "name": "owner",
          "type": "address"
        },
        {
          "indexed": true,
          "internalType": "address",
          "name": "operator",
          "type": "address"
        },
        {
          "indexed": false,
          "internalType": "bool",
          "name": "approved",
          "type": "bool"
        }
      ],
      "name": "ApprovalForAll",
      "type": "event"
    },
    {
      "anonymous": false,
      "inputs": [
        {
          "indexed": false,
          "internalType": "uint256",
          "name": "bundleId",
          "type": "uint256"
        }
      ],
      "name": "BundleCreated",
      "type": "event"
    },
    {
      "anonymous": false,
      "inputs": [
        {
          "indexed": false,
          "internalType": "uint256",
          "name": "bundleId",
          "type": "uint256"
        }
      ],
      "name": "BundleDeleted",
      "type": "event"
    },
    {
      "anonymous": false,
      "inputs": [
        {
          "indexed": false,
          "internalType": "uint256",
          "name": "level",
          "type": "uint256"
        },
        {
          "indexed": false,
          "internalType": "address",
          "name": "account",
          "type": "address"
        },
        {
          "indexed": false,
          "internalType": "address",
          "name": "setter",
          "type": "address"
        }
      ],
      "name": "LevelSet",
      "type": "event"
    },
    {
      "anonymous": false,
      "inputs": [
        {
          "indexed": true,
          "internalType": "address",
          "name": "from",
          "type": "address"
        },
        {
          "indexed": true,
          "internalType": "address",
          "name": "to",
          "type": "address"
        },
        {
          "indexed": true,
          "internalType": "uint256",
          "name": "tokenId",
          "type": "uint256"
        }
      ],
      "name": "Transfer",
      "type": "event"
    },
    {
      "inputs": [],
      "name": "MANAGER_LEVEL",
      "outputs": [
        {
          "internalType": "uint256",
          "name": "",
          "type": "uint256"
        }
      ],
      "stateMutability": "view",
      "type": "function"
    },
    {
      "inputs": [],
      "name": "OWNER_LEVEL",
      "outputs": [
        {
          "internalType": "uint256",
          "name": "",
          "type": "uint256"
        }
      ],
      "stateMutability": "view",
      "type": "function"
    },
    {
      "inputs": [
        {
          "internalType": "uint256",
          "name": "tokenId",
          "type": "uint256"
        },
        {
          "components": [
            {
              "internalType": "address",
              "name": "sale",
              "type": "address"
            },
            {
              "internalType": "uint256",
              "name": "remainingAmount",
              "type": "uint256"
            },
            {
              "internalType": "uint128",
              "name": "vestedPercentage",
              "type": "uint128"
            }
          ],
          "internalType": "struct ISAStorage.SA",
          "name": "newSA",
          "type": "tuple"
        }
      ],
      "name": "addSAToBundle",
      "outputs": [],
      "stateMutability": "nonpayable",
      "type": "function"
    },
    {
      "inputs": [],
      "name": "apeWallet",
      "outputs": [
        {
          "internalType": "address",
          "name": "",
          "type": "address"
        }
      ],
      "stateMutability": "view",
      "type": "function"
    },
    {
      "inputs": [
        {
          "internalType": "address",
          "name": "to",
          "type": "address"
        },
        {
          "internalType": "uint256",
          "name": "tokenId",
          "type": "uint256"
        }
      ],
      "name": "approve",
      "outputs": [],
      "stateMutability": "nonpayable",
      "type": "function"
    },
    {
      "inputs": [
        {
          "internalType": "address",
          "name": "owner",
          "type": "address"
        }
      ],
      "name": "balanceOf",
      "outputs": [
        {
          "internalType": "uint256",
          "name": "",
          "type": "uint256"
        }
      ],
      "stateMutability": "view",
      "type": "function"
    },
    {
      "inputs": [
        {
          "internalType": "uint256",
          "name": "tokenId",
          "type": "uint256"
        }
      ],
      "name": "burn",
      "outputs": [],
      "stateMutability": "nonpayable",
      "type": "function"
    },
    {
      "inputs": [],
      "name": "factory",
      "outputs": [
        {
          "internalType": "contract ISaleFactory",
          "name": "",
          "type": "address"
        }
      ],
      "stateMutability": "view",
      "type": "function"
    },
    {
      "inputs": [],
      "name": "feeAmount",
      "outputs": [
        {
          "internalType": "uint256",
          "name": "",
          "type": "uint256"
        }
      ],
      "stateMutability": "view",
      "type": "function"
    },
    {
      "inputs": [
        {
          "internalType": "uint256",
          "name": "tokenId",
          "type": "uint256"
        }
      ],
      "name": "getApproved",
      "outputs": [
        {
          "internalType": "address",
          "name": "",
          "type": "address"
        }
      ],
      "stateMutability": "view",
      "type": "function"
    },
    {
      "inputs": [
        {
          "internalType": "uint256",
          "name": "tokenId",
          "type": "uint256"
        }
      ],
      "name": "getBundle",
      "outputs": [
        {
          "components": [
            {
              "components": [
                {
                  "internalType": "address",
                  "name": "sale",
                  "type": "address"
                },
                {
                  "internalType": "uint256",
                  "name": "remainingAmount",
                  "type": "uint256"
                },
                {
                  "internalType": "uint128",
                  "name": "vestedPercentage",
                  "type": "uint128"
                }
              ],
              "internalType": "struct ISAStorage.SA[]",
              "name": "sas",
              "type": "tuple[]"
            },
            {
              "internalType": "uint32",
              "name": "creationTime",
              "type": "uint32"
            },
            {
              "internalType": "uint32",
              "name": "acquisitionTime",
              "type": "uint32"
            }
          ],
          "internalType": "struct ISAStorage.Bundle",
          "name": "",
          "type": "tuple"
        }
      ],
      "stateMutability": "view",
      "type": "function"
    },
    {
      "inputs": [],
      "name": "getTokenExtras",
      "outputs": [
        {
          "internalType": "address",
          "name": "",
          "type": "address"
        }
      ],
      "stateMutability": "view",
      "type": "function"
    },
    {
      "inputs": [
        {
          "internalType": "uint256",
          "name": "level",
          "type": "uint256"
        },
        {
          "internalType": "address",
          "name": "addr",
          "type": "address"
        }
      ],
      "name": "grantLevel",
      "outputs": [],
      "stateMutability": "nonpayable",
      "type": "function"
    },
    {
      "inputs": [
        {
          "internalType": "uint256",
          "name": "tokenId",
          "type": "uint256"
        },
        {
          "internalType": "uint256",
          "name": "saIndex",
          "type": "uint256"
        },
        {
          "internalType": "uint256",
          "name": "diff",
          "type": "uint256"
        }
      ],
      "name": "increaseAmountInSA",
      "outputs": [],
      "stateMutability": "nonpayable",
      "type": "function"
    },
    {
      "inputs": [
        {
          "internalType": "address",
          "name": "owner",
          "type": "address"
        },
        {
          "internalType": "address",
          "name": "operator",
          "type": "address"
        }
      ],
      "name": "isApprovedForAll",
      "outputs": [
        {
          "internalType": "bool",
          "name": "",
          "type": "bool"
        }
      ],
      "stateMutability": "view",
      "type": "function"
    },
    {
      "inputs": [
        {
          "internalType": "address",
          "name": "",
          "type": "address"
        }
      ],
      "name": "levels",
      "outputs": [
        {
          "internalType": "uint256",
          "name": "",
          "type": "uint256"
        }
      ],
      "stateMutability": "view",
      "type": "function"
    },
    {
      "inputs": [
        {
          "internalType": "uint256[]",
          "name": "tokenIds",
          "type": "uint256[]"
        }
      ],
      "name": "merge",
      "outputs": [],
      "stateMutability": "nonpayable",
      "type": "function"
    },
    {
      "inputs": [
        {
          "internalType": "address",
          "name": "to",
          "type": "address"
        },
        {
          "internalType": "address",
          "name": "sale",
          "type": "address"
        },
        {
          "internalType": "uint256",
          "name": "amount",
          "type": "uint256"
        },
        {
          "internalType": "uint128",
          "name": "vestedPercentage",
          "type": "uint128"
        }
      ],
      "name": "mint",
      "outputs": [],
      "stateMutability": "nonpayable",
      "type": "function"
    },
    {
      "inputs": [],
      "name": "name",
      "outputs": [
        {
          "internalType": "string",
          "name": "",
          "type": "string"
        }
      ],
      "stateMutability": "view",
      "type": "function"
    },
    {
      "inputs": [],
      "name": "nextTokenId",
      "outputs": [
        {
          "internalType": "uint256",
          "name": "",
          "type": "uint256"
        }
      ],
      "stateMutability": "view",
      "type": "function"
    },
    {
      "inputs": [
        {
          "internalType": "uint256",
          "name": "tokenId",
          "type": "uint256"
        }
      ],
      "name": "ownerOf",
      "outputs": [
        {
          "internalType": "address",
          "name": "",
          "type": "address"
        }
      ],
      "stateMutability": "view",
      "type": "function"
    },
    {
      "inputs": [
        {
          "internalType": "address",
          "name": "addr",
          "type": "address"
        }
      ],
      "name": "revokeLevel",
      "outputs": [],
      "stateMutability": "nonpayable",
      "type": "function"
    },
    {
      "inputs": [
        {
          "internalType": "address",
          "name": "from",
          "type": "address"
        },
        {
          "internalType": "address",
          "name": "to",
          "type": "address"
        },
        {
          "internalType": "uint256",
          "name": "tokenId",
          "type": "uint256"
        }
      ],
      "name": "safeTransferFrom",
      "outputs": [],
      "stateMutability": "nonpayable",
      "type": "function"
    },
    {
      "inputs": [
        {
          "internalType": "address",
          "name": "from",
          "type": "address"
        },
        {
          "internalType": "address",
          "name": "to",
          "type": "address"
        },
        {
          "internalType": "uint256",
          "name": "tokenId",
          "type": "uint256"
        },
        {
          "internalType": "bytes",
          "name": "_data",
          "type": "bytes"
        }
      ],
      "name": "safeTransferFrom",
      "outputs": [],
      "stateMutability": "nonpayable",
      "type": "function"
    },
    {
      "inputs": [
        {
          "internalType": "address",
          "name": "operator",
          "type": "address"
        },
        {
          "internalType": "bool",
          "name": "approved",
          "type": "bool"
        }
      ],
      "name": "setApprovalForAll",
      "outputs": [],
      "stateMutability": "nonpayable",
      "type": "function"
    },
    {
      "inputs": [
        {
          "internalType": "address",
          "name": "feeToken",
          "type": "address"
        },
        {
          "internalType": "uint256",
          "name": "feeAmount_",
          "type": "uint256"
        },
        {
          "internalType": "address",
          "name": "apeWallet_",
          "type": "address"
        }
      ],
      "name": "setupUpPayments",
      "outputs": [],
      "stateMutability": "nonpayable",
      "type": "function"
    },
    {
      "inputs": [
        {
          "internalType": "uint256",
          "name": "tokenId",
          "type": "uint256"
        },
        {
          "internalType": "uint256[]",
          "name": "keptAmounts",
          "type": "uint256[]"
        }
      ],
      "name": "split",
      "outputs": [],
      "stateMutability": "nonpayable",
      "type": "function"
    },
    {
      "inputs": [
        {
          "internalType": "bytes4",
          "name": "interfaceId",
          "type": "bytes4"
        }
      ],
      "name": "supportsInterface",
      "outputs": [
        {
          "internalType": "bool",
          "name": "",
          "type": "bool"
        }
      ],
      "stateMutability": "view",
      "type": "function"
    },
    {
      "inputs": [],
      "name": "symbol",
      "outputs": [
        {
          "internalType": "string",
          "name": "",
          "type": "string"
        }
      ],
      "stateMutability": "view",
      "type": "function"
    },
    {
      "inputs": [
        {
          "internalType": "uint256",
          "name": "index",
          "type": "uint256"
        }
      ],
      "name": "tokenByIndex",
      "outputs": [
        {
          "internalType": "uint256",
          "name": "",
          "type": "uint256"
        }
      ],
      "stateMutability": "view",
      "type": "function"
    },
    {
      "inputs": [
        {
          "internalType": "address",
          "name": "owner",
          "type": "address"
        },
        {
          "internalType": "uint256",
          "name": "index",
          "type": "uint256"
        }
      ],
      "name": "tokenOfOwnerByIndex",
      "outputs": [
        {
          "internalType": "uint256",
          "name": "",
          "type": "uint256"
        }
      ],
      "stateMutability": "view",
      "type": "function"
    },
    {
      "inputs": [
        {
          "internalType": "uint256",
          "name": "tokenId",
          "type": "uint256"
        }
      ],
      "name": "tokenURI",
      "outputs": [
        {
          "internalType": "string",
          "name": "",
          "type": "string"
        }
      ],
      "stateMutability": "view",
      "type": "function"
    },
    {
      "inputs": [],
      "name": "totalSupply",
      "outputs": [
        {
          "internalType": "uint256",
          "name": "",
          "type": "uint256"
        }
      ],
      "stateMutability": "view",
      "type": "function"
    },
    {
      "inputs": [
        {
          "internalType": "address",
          "name": "from",
          "type": "address"
        },
        {
          "internalType": "address",
          "name": "to",
          "type": "address"
        },
        {
          "internalType": "uint256",
          "name": "tokenId",
          "type": "uint256"
        }
      ],
      "name": "transferFrom",
      "outputs": [],
      "stateMutability": "nonpayable",
      "type": "function"
    },
    {
      "inputs": [
        {
          "internalType": "address",
          "name": "factoryAddress",
          "type": "address"
        }
      ],
      "name": "updateFactory",
      "outputs": [],
      "stateMutability": "nonpayable",
      "type": "function"
    },
    {
      "inputs": [
        {
          "internalType": "uint256",
          "name": "tokenId",
          "type": "uint256"
        }
      ],
      "name": "vest",
      "outputs": [
        {
          "internalType": "bool",
          "name": "",
          "type": "bool"
        }
      ],
      "stateMutability": "nonpayable",
      "type": "function"
    }
  ],
  "bytecode": "0x60806040523480156200001157600080fd5b5060405162006028380380620060288339818101604052810190620000379190620003c8565b6040518060400160405280600c81526020017f5341204e465420546f6b656e00000000000000000000000000000000000000008152506040518060400160405280600581526020017f53414e465400000000000000000000000000000000000000000000000000000081525060016000803373ffffffffffffffffffffffffffffffffffffffff1673ffffffffffffffffffffffffffffffffffffffff168152602001908152602001600020819055507f30113ad733c78bfd7b2fd05fa6982d156dda72dd2739fdc5ffbd71ecfc3124d260013360006040516200011e9392919062000474565b60405180910390a181600290805190602001906200013e92919062000301565b5080600390805190602001906200015792919062000301565b50505081600d60006101000a81548173ffffffffffffffffffffffffffffffffffffffff021916908373ffffffffffffffffffffffffffffffffffffffff16021790555080600e60006101000a81548173ffffffffffffffffffffffffffffffffffffffff021916908373ffffffffffffffffffffffffffffffffffffffff160217905550620001ef600182620001f760201b60201c565b5050620005ce565b6001806000803373ffffffffffffffffffffffffffffffffffffffff1673ffffffffffffffffffffffffffffffffffffffff16815260200190815260200160002054146200027c576040517f08c379a0000000000000000000000000000000000000000000000000000000008152600401620002739062000452565b60405180910390fd5b826000808473ffffffffffffffffffffffffffffffffffffffff1673ffffffffffffffffffffffffffffffffffffffff168152602001908152602001600020819055507f30113ad733c78bfd7b2fd05fa6982d156dda72dd2739fdc5ffbd71ecfc3124d2838333604051620002f49392919062000474565b60405180910390a1505050565b8280546200030f9062000500565b90600052602060002090601f0160209004810192826200033357600085556200037f565b82601f106200034e57805160ff19168380011785556200037f565b828001600101855582156200037f579182015b828111156200037e57825182559160200191906001019062000361565b5b5090506200038e919062000392565b5090565b5b80821115620003ad57600081600090555060010162000393565b5090565b600081519050620003c281620005b4565b92915050565b60008060408385031215620003dc57600080fd5b6000620003ec85828601620003b1565b9250506020620003ff85828601620003b1565b9150509250929050565b6200041481620004c2565b82525050565b600062000429602383620004b1565b9150620004368262000565565b604082019050919050565b6200044c81620004f6565b82525050565b600060208201905081810360008301526200046d816200041a565b9050919050565b60006060820190506200048b600083018662000441565b6200049a602083018562000409565b620004a9604083018462000409565b949350505050565b600082825260208201905092915050565b6000620004cf82620004d6565b9050919050565b600073ffffffffffffffffffffffffffffffffffffffff82169050919050565b6000819050919050565b600060028204905060018216806200051957607f821691505b6020821081141562000530576200052f62000536565b5b50919050565b7f4e487b7100000000000000000000000000000000000000000000000000000000600052602260045260246000fd5b7f4c6576656c4163636573733a2063616c6c6572206e6f7420617574686f72697a60008201527f65642e0000000000000000000000000000000000000000000000000000000000602082015250565b620005bf81620004c2565b8114620005cb57600080fd5b50565b615a4a80620005de6000396000f3fe608060405234801561001057600080fd5b506004361061021c5760003560e01c806369c6724711610125578063c45a0155116100ad578063de62d8421161007c578063de62d84214610661578063e985e9c51461067d578063f25ec213146106ad578063f4c959ab146106c9578063f7868724146106e55761021c565b8063c45a0155146105db578063c87b56dd146105f9578063d679f47214610629578063d9f165dc146106455761021c565b806375794a3c116100f457806375794a3c1461054b5780638a553da21461056957806395d89b4114610585578063a22cb465146105a3578063b88d4fde146105bf5761021c565b806369c67247146104b157806369e15404146104cd5780636a760b80146104eb57806370a082311461051b5761021c565b80632ea03f2f116101a857806342842e0e1161017757806342842e0e146103e957806342966c681461040557806347082db3146104215780634f6ccce7146104515780636352211e146104815761021c565b80632ea03f2f146103615780632edc555f1461037f5780632f745c591461039d5780633011b3f0146103cd5761021c565b806315060314116101ef57806315060314146102bb57806318160ddd146102d95780631ce70581146102f757806323b872dd146103155780632d0821b7146103315761021c565b806301ffc9a71461022157806306fdde0314610251578063081812fc1461026f578063095ea7b31461029f575b600080fd5b61023b60048036038101906102369190613f85565b610701565b6040516102489190614818565b60405180910390f35b610259610713565b6040516102669190614885565b60405180910390f35b61028960048036038101906102849190613fd7565b6107a5565b6040516102969190614758565b60405180910390f35b6102b960048036038101906102b49190613e90565b61082a565b005b6102c3610942565b6040516102d09190614758565b60405180910390f35b6102e161096c565b6040516102ee9190614bc9565b60405180910390f35b6102ff610979565b60405161030c9190614bc9565b60405180910390f35b61032f600480360381019061032a9190613d27565b61097e565b005b61034b60048036038101906103469190613fd7565b6109de565b6040516103589190614ba7565b60405180910390f35b610369610b60565b6040516103769190614758565b60405180910390f35b610387610b86565b6040516103949190614bc9565b60405180910390f35b6103b760048036038101906103b29190613e90565b610b8b565b6040516103c49190614bc9565b60405180910390f35b6103e760048036038101906103e29190614090565b610c30565b005b61040360048036038101906103fe9190613d27565b610cc1565b005b61041f600480360381019061041a9190613fd7565b610ce1565b005b61043b60048036038101906104369190613cc2565b610d70565b6040516104489190614bc9565b60405180910390f35b61046b60048036038101906104669190613fd7565b610d88565b6040516104789190614bc9565b60405180910390f35b61049b60048036038101906104969190613fd7565b610e1f565b6040516104a89190614758565b60405180910390f35b6104cb60048036038101906104c6919061403c565b610ed1565b005b6104d5611176565b6040516104e29190614bc9565b60405180910390f35b61050560048036038101906105009190613fd7565b61117c565b6040516105129190614818565b60405180910390f35b61053560048036038101906105309190613cc2565b6112a8565b6040516105429190614bc9565b60405180910390f35b610553611360565b6040516105609190614bc9565b60405180910390f35b610583600480360381019061057e9190613cc2565b611371565b005b61058d611475565b60405161059a9190614885565b60405180910390f35b6105bd60048036038101906105b89190613e54565b611507565b005b6105d960048036038101906105d49190613d76565b611688565b005b6105e36116ea565b6040516105f09190614833565b60405180910390f35b610613600480360381019061060e9190613fd7565b611710565b6040516106209190614885565b60405180910390f35b610643600480360381019061063e9190613ecc565b6117b7565b005b61065f600480360381019061065a9190613cc2565b6118c8565b005b61067b60048036038101906106769190613f1b565b61198f565b005b61069760048036038101906106929190613ceb565b611c91565b6040516106a49190614818565b60405180910390f35b6106c760048036038101906106c29190614000565b611d25565b005b6106e360048036038101906106de9190613df1565b611e2a565b005b6106ff60048036038101906106fa91906140cc565b61209e565b005b600061070c82612131565b9050919050565b6060600280546107229061512d565b80601f016020809104026020016040519081016040528092919081815260200182805461074e9061512d565b801561079b5780601f106107705761010080835404028352916020019161079b565b820191906000526020600020905b81548152906001019060200180831161077e57829003601f168201915b5050505050905090565b60006107b0826121ab565b6107ef576040517f08c379a00000000000000000000000000000000000000000000000000000000081526004016107e690614a87565b60405180910390fd5b6006600083815260200190815260200160002060009054906101000a900473ffffffffffffffffffffffffffffffffffffffff169050919050565b600061083582610e1f565b90508073ffffffffffffffffffffffffffffffffffffffff168373ffffffffffffffffffffffffffffffffffffffff1614156108a6576040517f08c379a000000000000000000000000000000000000000000000000000000000815260040161089d90614b07565b60405180910390fd5b8073ffffffffffffffffffffffffffffffffffffffff166108c5612217565b73ffffffffffffffffffffffffffffffffffffffff1614806108f457506108f3816108ee612217565b611c91565b5b610933576040517f08c379a000000000000000000000000000000000000000000000000000000000815260040161092a906149c7565b60405180910390fd5b61093d838361221f565b505050565b6000600e60009054906101000a900473ffffffffffffffffffffffffffffffffffffffff16905090565b6000600a80549050905090565b600181565b61098f610989612217565b826122d8565b6109ce576040517f08c379a00000000000000000000000000000000000000000000000000000000081526004016109c590614b27565b60405180910390fd5b6109d98383836123b6565b505050565b6109e6613a02565b6001600083815260200190815260200160002060405180606001604052908160008201805480602002602001604051908101604052809291908181526020016000905b82821015610b0557838290600052602060002090600302016040518060600160405290816000820160009054906101000a900473ffffffffffffffffffffffffffffffffffffffff1673ffffffffffffffffffffffffffffffffffffffff1673ffffffffffffffffffffffffffffffffffffffff168152602001600182015481526020016002820160009054906101000a90046fffffffffffffffffffffffffffffffff166fffffffffffffffffffffffffffffffff166fffffffffffffffffffffffffffffffff168152505081526020019060010190610a29565b5050505081526020016001820160009054906101000a900463ffffffff1663ffffffff1663ffffffff1681526020016001820160049054906101000a900463ffffffff1663ffffffff1663ffffffff16815250509050919050565b600f60009054906101000a900473ffffffffffffffffffffffffffffffffffffffff1681565b600181565b6000610b96836112a8565b8210610bd7576040517f08c379a0000000000000000000000000000000000000000000000000000000008152600401610bce906148a7565b60405180910390fd5b600860008473ffffffffffffffffffffffffffffffffffffffff1673ffffffffffffffffffffffffffffffffffffffff168152602001908152602001600020600083815260200190815260200160002054905092915050565b6001806000803373ffffffffffffffffffffffffffffffffffffffff1673ffffffffffffffffffffffffffffffffffffffff1681526020019081526020016000205414610cb2576040517f08c379a0000000000000000000000000000000000000000000000000000000008152600401610ca990614b47565b60405180910390fd5b610cbc8383612612565b505050565b610cdc83838360405180602001604052806000815250611688565b505050565b6001806000803373ffffffffffffffffffffffffffffffffffffffff1673ffffffffffffffffffffffffffffffffffffffff1681526020019081526020016000205414610d63576040517f08c379a0000000000000000000000000000000000000000000000000000000008152600401610d5a90614b47565b60405180910390fd5b610d6c8261278f565b5050565b60006020528060005260406000206000915090505481565b6000610d9261096c565b8210610dd3576040517f08c379a0000000000000000000000000000000000000000000000000000000008152600401610dca90614b67565b60405180910390fd5b600a8281548110610e0d577f4e487b7100000000000000000000000000000000000000000000000000000000600052603260045260246000fd5b90600052602060002001549050919050565b6000806004600084815260200190815260200160002060009054906101000a900473ffffffffffffffffffffffffffffffffffffffff169050600073ffffffffffffffffffffffffffffffffffffffff168173ffffffffffffffffffffffffffffffffffffffff161415610ec8576040517f08c379a0000000000000000000000000000000000000000000000000000000008152600401610ebf90614a27565b60405180910390fd5b80915050919050565b6000601060009054906101000a900473ffffffffffffffffffffffffffffffffffffffff1673ffffffffffffffffffffffffffffffffffffffff1663313ce5676040518163ffffffff1660e01b815260040160206040518083038186803b158015610f3b57600080fd5b505afa158015610f4f573d6000803e3d6000fd5b505050506040513d601f19601f82011682018060405250810190610f73919061411b565b60ff169050601060009054906101000a900473ffffffffffffffffffffffffffffffffffffffff1673ffffffffffffffffffffffffffffffffffffffff166323b872dd33600f60009054906101000a900473ffffffffffffffffffffffffffffffffffffffff16610ffb85600a610fea9190614e5c565b6011546127a490919063ffffffff16565b6040518463ffffffff1660e01b815260040161101993929190614773565b602060405180830381600087803b15801561103357600080fd5b505af1158015611047573d6000803e3d6000fd5b505050506040513d601f19601f8201168201806040525081019061106b9190613f5c565b503373ffffffffffffffffffffffffffffffffffffffff1661108c84610e1f565b73ffffffffffffffffffffffffffffffffffffffff16146110e2576040517f08c379a00000000000000000000000000000000000000000000000000000000081526004016110d9906149a7565b60405180910390fd5b600e60009054906101000a900473ffffffffffffffffffffffffffffffffffffffff1673ffffffffffffffffffffffffffffffffffffffff166369c6724784846040518363ffffffff1660e01b815260040161113f929190614c1b565b600060405180830381600087803b15801561115957600080fd5b505af115801561116d573d6000803e3d6000fd5b50505050505050565b60115481565b60003373ffffffffffffffffffffffffffffffffffffffff1661119e83610e1f565b73ffffffffffffffffffffffffffffffffffffffff16146111f4576040517f08c379a00000000000000000000000000000000000000000000000000000000081526004016111eb90614987565b60405180910390fd5b600e60009054906101000a900473ffffffffffffffffffffffffffffffffffffffff1673ffffffffffffffffffffffffffffffffffffffff16636a760b80836040518263ffffffff1660e01b815260040161124f9190614bc9565b602060405180830381600087803b15801561126957600080fd5b505af115801561127d573d6000803e3d6000fd5b505050506040513d601f19601f820116820180604052508101906112a19190613f5c565b9050919050565b60008073ffffffffffffffffffffffffffffffffffffffff168273ffffffffffffffffffffffffffffffffffffffff161415611319576040517f08c379a000000000000000000000000000000000000000000000000000000000815260040161131090614a07565b60405180910390fd5b600560008373ffffffffffffffffffffffffffffffffffffffff1673ffffffffffffffffffffffffffffffffffffffff168152602001908152602001600020549050919050565b600061136c600c6127ba565b905090565b6001806000803373ffffffffffffffffffffffffffffffffffffffff1673ffffffffffffffffffffffffffffffffffffffff16815260200190815260200160002054146113f3576040517f08c379a00000000000000000000000000000000000000000000000000000000081526004016113ea90614b47565b60405180910390fd5b6000808373ffffffffffffffffffffffffffffffffffffffff1673ffffffffffffffffffffffffffffffffffffffff168152602001908152602001600020600090557f30113ad733c78bfd7b2fd05fa6982d156dda72dd2739fdc5ffbd71ecfc3124d2600083336040516114699392919061484e565b60405180910390a15050565b6060600380546114849061512d565b80601f01602080910402602001604051908101604052809291908181526020018280546114b09061512d565b80156114fd5780601f106114d2576101008083540402835291602001916114fd565b820191906000526020600020905b8154815290600101906020018083116114e057829003601f168201915b5050505050905090565b61150f612217565b73ffffffffffffffffffffffffffffffffffffffff168273ffffffffffffffffffffffffffffffffffffffff16141561157d576040517f08c379a000000000000000000000000000000000000000000000000000000000815260040161157490614947565b60405180910390fd5b806007600061158a612217565b73ffffffffffffffffffffffffffffffffffffffff1673ffffffffffffffffffffffffffffffffffffffff16815260200190815260200160002060008473ffffffffffffffffffffffffffffffffffffffff1673ffffffffffffffffffffffffffffffffffffffff16815260200190815260200160002060006101000a81548160ff0219169083151502179055508173ffffffffffffffffffffffffffffffffffffffff16611637612217565b73ffffffffffffffffffffffffffffffffffffffff167f17307eab39ab6107e8899845ad3d59bd9653f200f220920489ca2b5937696c318360405161167c9190614818565b60405180910390a35050565b611699611693612217565b836122d8565b6116d8576040517f08c379a00000000000000000000000000000000000000000000000000000000081526004016116cf90614b27565b60405180910390fd5b6116e4848484846127c8565b50505050565b600d60009054906101000a900473ffffffffffffffffffffffffffffffffffffffff1681565b606061171b826121ab565b61175a576040517f08c379a000000000000000000000000000000000000000000000000000000000815260040161175190614ae7565b60405180910390fd5b6000611764612824565b9050600081511161178457604051806020016040528060008152506117af565b8061178e84612844565b60405160200161179f929190614734565b6040516020818303038152906040525b915050919050565b6001806000803373ffffffffffffffffffffffffffffffffffffffff1673ffffffffffffffffffffffffffffffffffffffff1681526020019081526020016000205414611839576040517f08c379a000000000000000000000000000000000000000000000000000000000815260040161183090614b47565b60405180910390fd5b83601060006101000a81548173ffffffffffffffffffffffffffffffffffffffff021916908373ffffffffffffffffffffffffffffffffffffffff1602179055508260118190555081600f60006101000a81548173ffffffffffffffffffffffffffffffffffffffff021916908373ffffffffffffffffffffffffffffffffffffffff16021790555050505050565b6001806000803373ffffffffffffffffffffffffffffffffffffffff1673ffffffffffffffffffffffffffffffffffffffff168152602001908152602001600020541461194a576040517f08c379a000000000000000000000000000000000000000000000000000000000815260040161194190614b47565b60405180910390fd5b81600d60006101000a81548173ffffffffffffffffffffffffffffffffffffffff021916908373ffffffffffffffffffffffffffffffffffffffff1602179055505050565b6000601060009054906101000a900473ffffffffffffffffffffffffffffffffffffffff1673ffffffffffffffffffffffffffffffffffffffff1663313ce5676040518163ffffffff1660e01b815260040160206040518083038186803b1580156119f957600080fd5b505afa158015611a0d573d6000803e3d6000fd5b505050506040513d601f19601f82011682018060405250810190611a31919061411b565b60ff169050601060009054906101000a900473ffffffffffffffffffffffffffffffffffffffff1673ffffffffffffffffffffffffffffffffffffffff166323b872dd33600f60009054906101000a900473ffffffffffffffffffffffffffffffffffffffff16611ab985600a611aa89190614e5c565b6011546127a490919063ffffffff16565b6040518463ffffffff1660e01b8152600401611ad793929190614773565b602060405180830381600087803b158015611af157600080fd5b505af1158015611b05573d6000803e3d6000fd5b505050506040513d601f19601f82011682018060405250810190611b299190613f5c565b5060005b8251811015611bff573373ffffffffffffffffffffffffffffffffffffffff16611b96848381518110611b89577f4e487b7100000000000000000000000000000000000000000000000000000000600052603260045260246000fd5b6020026020010151610e1f565b73ffffffffffffffffffffffffffffffffffffffff1614611bec576040517f08c379a0000000000000000000000000000000000000000000000000000000008152600401611be3906148e7565b60405180910390fd5b8080611bf790615190565b915050611b2d565b50600e60009054906101000a900473ffffffffffffffffffffffffffffffffffffffff1673ffffffffffffffffffffffffffffffffffffffff1663de62d842836040518263ffffffff1660e01b8152600401611c5b91906147f6565b600060405180830381600087803b158015611c7557600080fd5b505af1158015611c89573d6000803e3d6000fd5b505050505050565b6000600760008473ffffffffffffffffffffffffffffffffffffffff1673ffffffffffffffffffffffffffffffffffffffff16815260200190815260200160002060008373ffffffffffffffffffffffffffffffffffffffff1673ffffffffffffffffffffffffffffffffffffffff16815260200190815260200160002060009054906101000a900460ff16905092915050565b6001806000803373ffffffffffffffffffffffffffffffffffffffff1673ffffffffffffffffffffffffffffffffffffffff1681526020019081526020016000205414611da7576040517f08c379a0000000000000000000000000000000000000000000000000000000008152600401611d9e90614b47565b60405180910390fd5b826000808473ffffffffffffffffffffffffffffffffffffffff1673ffffffffffffffffffffffffffffffffffffffff168152602001908152602001600020819055507f30113ad733c78bfd7b2fd05fa6982d156dda72dd2739fdc5ffbd71ecfc3124d2838333604051611e1d93929190614be4565b60405180910390a1505050565b6000839050600073ffffffffffffffffffffffffffffffffffffffff168473ffffffffffffffffffffffffffffffffffffffff16141561200957600e60009054906101000a900473ffffffffffffffffffffffffffffffffffffffff1673ffffffffffffffffffffffffffffffffffffffff166316279055336040518263ffffffff1660e01b8152600401611ebf9190614758565b60206040518083038186803b158015611ed757600080fd5b505afa158015611eeb573d6000803e3d6000fd5b505050506040513d601f19601f82011682018060405250810190611f0f9190613f5c565b8015611fc25750600d60009054906101000a900473ffffffffffffffffffffffffffffffffffffffff1673ffffffffffffffffffffffffffffffffffffffff166374efb799336040518263ffffffff1660e01b8152600401611f719190614758565b60206040518083038186803b158015611f8957600080fd5b505afa158015611f9d573d6000803e3d6000fd5b505050506040513d601f19601f82011682018060405250810190611fc19190613f5c565b5b612001576040517f08c379a0000000000000000000000000000000000000000000000000000000008152600401611ff890614a47565b60405180910390fd5b33905061208b565b60016000803373ffffffffffffffffffffffffffffffffffffffff1673ffffffffffffffffffffffffffffffffffffffff168152602001908152602001600020541461208a576040517f08c379a000000000000000000000000000000000000000000000000000000000815260040161208190614aa7565b60405180910390fd5b5b612097858285856129f1565b5050505050565b6001806000803373ffffffffffffffffffffffffffffffffffffffff1673ffffffffffffffffffffffffffffffffffffffff1681526020019081526020016000205414612120576040517f08c379a000000000000000000000000000000000000000000000000000000000815260040161211790614b47565b60405180910390fd5b61212b848484612a29565b50505050565b60007f780e9d63000000000000000000000000000000000000000000000000000000007bffffffffffffffffffffffffffffffffffffffffffffffffffffffff1916827bffffffffffffffffffffffffffffffffffffffffffffffffffffffff191614806121a457506121a382612b03565b5b9050919050565b60008073ffffffffffffffffffffffffffffffffffffffff166004600084815260200190815260200160002060009054906101000a900473ffffffffffffffffffffffffffffffffffffffff1673ffffffffffffffffffffffffffffffffffffffff1614159050919050565b600033905090565b816006600083815260200190815260200160002060006101000a81548173ffffffffffffffffffffffffffffffffffffffff021916908373ffffffffffffffffffffffffffffffffffffffff160217905550808273ffffffffffffffffffffffffffffffffffffffff1661229283610e1f565b73ffffffffffffffffffffffffffffffffffffffff167f8c5be1e5ebec7d5bd14f71427d1e84f3dd0314c0f7b2291e5b200ac8c7c3b92560405160405180910390a45050565b60006122e3826121ab565b612322576040517f08c379a000000000000000000000000000000000000000000000000000000000815260040161231990614967565b60405180910390fd5b600061232d83610e1f565b90508073ffffffffffffffffffffffffffffffffffffffff168473ffffffffffffffffffffffffffffffffffffffff16148061239c57508373ffffffffffffffffffffffffffffffffffffffff16612384846107a5565b73ffffffffffffffffffffffffffffffffffffffff16145b806123ad57506123ac8185611c91565b5b91505092915050565b8273ffffffffffffffffffffffffffffffffffffffff166123d682610e1f565b73ffffffffffffffffffffffffffffffffffffffff161461242c576040517f08c379a000000000000000000000000000000000000000000000000000000000815260040161242390614ac7565b60405180910390fd5b600073ffffffffffffffffffffffffffffffffffffffff168273ffffffffffffffffffffffffffffffffffffffff16141561249c576040517f08c379a000000000000000000000000000000000000000000000000000000000815260040161249390614927565b60405180910390fd5b6124a7838383612be5565b6124b260008261221f565b6001600560008573ffffffffffffffffffffffffffffffffffffffff1673ffffffffffffffffffffffffffffffffffffffff16815260200190815260200160002060008282546125029190614fd4565b925050819055506001600560008473ffffffffffffffffffffffffffffffffffffffff1673ffffffffffffffffffffffffffffffffffffffff16815260200190815260200160002060008282546125599190614d82565b92505081905550816004600083815260200190815260200160002060006101000a81548173ffffffffffffffffffffffffffffffffffffffff021916908373ffffffffffffffffffffffffffffffffffffffff160217905550808273ffffffffffffffffffffffffffffffffffffffff168473ffffffffffffffffffffffffffffffffffffffff167fddf252ad1be2c89b69c2b068fc378daa952ba7f163c4a11628f55a4df523b3ef60405160405180910390a4505050565b8160006001600083815260200190815260200160002060010160009054906101000a900463ffffffff1663ffffffff161415612683576040517f08c379a000000000000000000000000000000000000000000000000000000000815260040161267a90614b87565b60405180910390fd5b6001600084815260200190815260200160002060000182908060018154018082558091505060019003906000526020600020906003020160009091909190915060008201518160000160006101000a81548173ffffffffffffffffffffffffffffffffffffffff021916908373ffffffffffffffffffffffffffffffffffffffff1602179055506020820151816001015560408201518160020160006101000a8154816fffffffffffffffffffffffffffffffff02191690836fffffffffffffffffffffffffffffffff1602179055505050426001600085815260200190815260200160002060010160046101000a81548163ffffffff021916908363ffffffff160217905550505050565b61279881612cf6565b6127a181612e07565b50565b600081836127b29190614f7a565b905092915050565b600081600001549050919050565b6127d38484846123b6565b6127df84848484612f07565b61281e576040517f08c379a0000000000000000000000000000000000000000000000000000000008152600401612815906148c7565b60405180910390fd5b50505050565b60606040518060600160405280602281526020016159f360229139905090565b6060600082141561288c576040518060400160405280600181526020017f300000000000000000000000000000000000000000000000000000000000000081525090506129ec565b600082905060005b600082146128be5780806128a790615190565b915050600a826128b79190614dd8565b9150612894565b60008167ffffffffffffffff811115612900577f4e487b7100000000000000000000000000000000000000000000000000000000600052604160045260246000fd5b6040519080825280601f01601f1916602001820160405280156129325781602001600182028036833780820191505090505b5090505b600085146129e55760018261294b9190614fd4565b9150600a8561295a91906151d9565b60306129669190614d82565b60f81b8183815181106129a2577f4e487b7100000000000000000000000000000000000000000000000000000000600052603260045260246000fd5b60200101907effffffffffffffffffffffffffffffffffffffffffffffffffffffffffffff1916908160001a905350600a856129de9190614dd8565b9450612936565b8093505050505b919050565b612a04846129ff600c6127ba565b61309e565b612a19612a11600c6127ba565b8484846130bc565b612a23600c61318c565b50505050565b612a9b81600160008681526020019081526020016000206000018481548110612a7b577f4e487b7100000000000000000000000000000000000000000000000000000000600052603260045260246000fd5b9060005260206000209060030201600101546131a290919063ffffffff16565b600160008581526020019081526020016000206000018381548110612ae9577f4e487b7100000000000000000000000000000000000000000000000000000000600052603260045260246000fd5b906000526020600020906003020160010181905550505050565b60007f80ac58cd000000000000000000000000000000000000000000000000000000007bffffffffffffffffffffffffffffffffffffffffffffffffffffffff1916827bffffffffffffffffffffffffffffffffffffffffffffffffffffffff19161480612bce57507f5b5e139f000000000000000000000000000000000000000000000000000000007bffffffffffffffffffffffffffffffffffffffffffffffffffffffff1916827bffffffffffffffffffffffffffffffffffffffffffffffffffffffff1916145b80612bde5750612bdd826131b8565b5b9050919050565b612bf0838383613222565b600073ffffffffffffffffffffffffffffffffffffffff168373ffffffffffffffffffffffffffffffffffffffff1614158015612c5a5750600073ffffffffffffffffffffffffffffffffffffffff168273ffffffffffffffffffffffffffffffffffffffff1614155b15612cf157600e60009054906101000a900473ffffffffffffffffffffffffffffffffffffffff1673ffffffffffffffffffffffffffffffffffffffff16637cbab1c78484846040518463ffffffff1660e01b8152600401612cbe93929190614773565b600060405180830381600087803b158015612cd857600080fd5b505af1158015612cec573d6000803e3d6000fd5b505050505b505050565b6000612d0182610e1f565b9050612d0f81600084612be5565b612d1a60008361221f565b6001600560008373ffffffffffffffffffffffffffffffffffffffff1673ffffffffffffffffffffffffffffffffffffffff1681526020019081526020016000206000828254612d6a9190614fd4565b925050819055506004600083815260200190815260200160002060006101000a81549073ffffffffffffffffffffffffffffffffffffffff021916905581600073ffffffffffffffffffffffffffffffffffffffff168273ffffffffffffffffffffffffffffffffffffffff167fddf252ad1be2c89b69c2b068fc378daa952ba7f163c4a11628f55a4df523b3ef60405160405180910390a45050565b8060006001600083815260200190815260200160002060010160009054906101000a900463ffffffff1663ffffffff161415612e78576040517f08c379a0000000000000000000000000000000000000000000000000000000008152600401612e6f90614b87565b60405180910390fd5b6001600083815260200190815260200160002060008082016000612e9c9190613a2f565b6001820160006101000a81549063ffffffff02191690556001820160046101000a81549063ffffffff021916905550507f3d2ae0795c4cc3ca7ccea6bb5283ff5de539631cc4e8080c71aa41de6e640eae82604051612efb9190614bc9565b60405180910390a15050565b6000612f288473ffffffffffffffffffffffffffffffffffffffff16613336565b15613091578373ffffffffffffffffffffffffffffffffffffffff1663150b7a02612f51612217565b8786866040518563ffffffff1660e01b8152600401612f7394939291906147aa565b602060405180830381600087803b158015612f8d57600080fd5b505af1925050508015612fbe57506040513d601f19601f82011682018060405250810190612fbb9190613fae565b60015b613041573d8060008114612fee576040519150601f19603f3d011682016040523d82523d6000602084013e612ff3565b606091505b50600081511415613039576040517f08c379a0000000000000000000000000000000000000000000000000000000008152600401613030906148c7565b60405180910390fd5b805181602001fd5b63150b7a0260e01b7bffffffffffffffffffffffffffffffffffffffffffffffffffffffff1916817bffffffffffffffffffffffffffffffffffffffffffffffffffffffff191614915050613096565b600190505b949350505050565b6130b8828260405180602001604052806000815250613349565b5050565b60006001600086815260200190815260200160002060010160009054906101000a900463ffffffff1663ffffffff161461312b576040517f08c379a0000000000000000000000000000000000000000000000000000000008152600401613122906149e7565b60405180910390fd5b613134846133a4565b600060405180606001604052808573ffffffffffffffffffffffffffffffffffffffff168152602001848152602001836fffffffffffffffffffffffffffffffff1681525090506131858582612612565b5050505050565b6001816000016000828254019250508190555050565b600081836131b09190614d82565b905092915050565b60007f01ffc9a7000000000000000000000000000000000000000000000000000000007bffffffffffffffffffffffffffffffffffffffffffffffffffffffff1916827bffffffffffffffffffffffffffffffffffffffffffffffffffffffff1916149050919050565b61322d8383836134b7565b600073ffffffffffffffffffffffffffffffffffffffff168373ffffffffffffffffffffffffffffffffffffffff1614156132705761326b816134bc565b6132af565b8173ffffffffffffffffffffffffffffffffffffffff168373ffffffffffffffffffffffffffffffffffffffff16146132ae576132ad8382613505565b5b5b600073ffffffffffffffffffffffffffffffffffffffff168273ffffffffffffffffffffffffffffffffffffffff1614156132f2576132ed81613672565b613331565b8273ffffffffffffffffffffffffffffffffffffffff168273ffffffffffffffffffffffffffffffffffffffff16146133305761332f82826137b5565b5b5b505050565b600080823b905060008111915050919050565b6133538383613834565b6133606000848484612f07565b61339f576040517f08c379a0000000000000000000000000000000000000000000000000000000008152600401613396906148c7565b60405180910390fd5b505050565b60006001600083815260200190815260200160002060010160009054906101000a900463ffffffff1663ffffffff1614613413576040517f08c379a000000000000000000000000000000000000000000000000000000000815260040161340a906149e7565b60405180910390fd5b426001600083815260200190815260200160002060010160006101000a81548163ffffffff021916908363ffffffff160217905550426001600083815260200190815260200160002060010160046101000a81548163ffffffff021916908363ffffffff1602179055507f7370e5fd364eeb66c43589a6be4b5f96fbc9309ba87d4e62cf6dda72f48e244d816040516134ac9190614bc9565b60405180910390a150565b505050565b600a80549050600b600083815260200190815260200160002081905550600a81908060018154018082558091505060019003906000526020600020016000909190919091505550565b60006001613512846112a8565b61351c9190614fd4565b9050600060096000848152602001908152602001600020549050818114613601576000600860008673ffffffffffffffffffffffffffffffffffffffff1673ffffffffffffffffffffffffffffffffffffffff168152602001908152602001600020600084815260200190815260200160002054905080600860008773ffffffffffffffffffffffffffffffffffffffff1673ffffffffffffffffffffffffffffffffffffffff168152602001908152602001600020600084815260200190815260200160002081905550816009600083815260200190815260200160002081905550505b6009600084815260200190815260200160002060009055600860008573ffffffffffffffffffffffffffffffffffffffff1673ffffffffffffffffffffffffffffffffffffffff16815260200190815260200160002060008381526020019081526020016000206000905550505050565b60006001600a805490506136869190614fd4565b90506000600b60008481526020019081526020016000205490506000600a83815481106136dc577f4e487b7100000000000000000000000000000000000000000000000000000000600052603260045260246000fd5b9060005260206000200154905080600a8381548110613724577f4e487b7100000000000000000000000000000000000000000000000000000000600052603260045260246000fd5b906000526020600020018190555081600b600083815260200190815260200160002081905550600b600085815260200190815260200160002060009055600a805480613799577f4e487b7100000000000000000000000000000000000000000000000000000000600052603160045260246000fd5b6001900381819060005260206000200160009055905550505050565b60006137c0836112a8565b905081600860008573ffffffffffffffffffffffffffffffffffffffff1673ffffffffffffffffffffffffffffffffffffffff168152602001908152602001600020600083815260200190815260200160002081905550806009600084815260200190815260200160002081905550505050565b600073ffffffffffffffffffffffffffffffffffffffff168273ffffffffffffffffffffffffffffffffffffffff1614156138a4576040517f08c379a000000000000000000000000000000000000000000000000000000000815260040161389b90614a67565b60405180910390fd5b6138ad816121ab565b156138ed576040517f08c379a00000000000000000000000000000000000000000000000000000000081526004016138e490614907565b60405180910390fd5b6138f960008383612be5565b6001600560008473ffffffffffffffffffffffffffffffffffffffff1673ffffffffffffffffffffffffffffffffffffffff16815260200190815260200160002060008282546139499190614d82565b92505081905550816004600083815260200190815260200160002060006101000a81548173ffffffffffffffffffffffffffffffffffffffff021916908373ffffffffffffffffffffffffffffffffffffffff160217905550808273ffffffffffffffffffffffffffffffffffffffff16600073ffffffffffffffffffffffffffffffffffffffff167fddf252ad1be2c89b69c2b068fc378daa952ba7f163c4a11628f55a4df523b3ef60405160405180910390a45050565b604051806060016040528060608152602001600063ffffffff168152602001600063ffffffff1681525090565b5080546000825560030290600052602060002090810190613a509190613a53565b50565b5b80821115613ab857600080820160006101000a81549073ffffffffffffffffffffffffffffffffffffffff021916905560018201600090556002820160006101000a8154906fffffffffffffffffffffffffffffffff021916905550600301613a54565b5090565b6000613acf613aca84614c70565b614c4b565b90508083825260208201905082856020860282011115613aee57600080fd5b60005b85811015613b1e5781613b048882613c98565b845260208401935060208301925050600181019050613af1565b5050509392505050565b6000613b3b613b3684614c9c565b614c4b565b905082815260208101848484011115613b5357600080fd5b613b5e8482856150eb565b509392505050565b600081359050613b7581615968565b92915050565b600082601f830112613b8c57600080fd5b8135613b9c848260208601613abc565b91505092915050565b600081359050613bb48161597f565b92915050565b600081519050613bc98161597f565b92915050565b600081359050613bde81615996565b92915050565b600081519050613bf381615996565b92915050565b600082601f830112613c0a57600080fd5b8135613c1a848260208601613b28565b91505092915050565b600060608284031215613c3557600080fd5b613c3f6060614c4b565b90506000613c4f84828501613b66565b6000830152506020613c6384828501613c98565b6020830152506040613c7784828501613c83565b60408301525092915050565b600081359050613c92816159ad565b92915050565b600081359050613ca7816159c4565b92915050565b600081519050613cbc816159db565b92915050565b600060208284031215613cd457600080fd5b6000613ce284828501613b66565b91505092915050565b60008060408385031215613cfe57600080fd5b6000613d0c85828601613b66565b9250506020613d1d85828601613b66565b9150509250929050565b600080600060608486031215613d3c57600080fd5b6000613d4a86828701613b66565b9350506020613d5b86828701613b66565b9250506040613d6c86828701613c98565b9150509250925092565b60008060008060808587031215613d8c57600080fd5b6000613d9a87828801613b66565b9450506020613dab87828801613b66565b9350506040613dbc87828801613c98565b925050606085013567ffffffffffffffff811115613dd957600080fd5b613de587828801613bf9565b91505092959194509250565b60008060008060808587031215613e0757600080fd5b6000613e1587828801613b66565b9450506020613e2687828801613b66565b9350506040613e3787828801613c98565b9250506060613e4887828801613c83565b91505092959194509250565b60008060408385031215613e6757600080fd5b6000613e7585828601613b66565b9250506020613e8685828601613ba5565b9150509250929050565b60008060408385031215613ea357600080fd5b6000613eb185828601613b66565b9250506020613ec285828601613c98565b9150509250929050565b600080600060608486031215613ee157600080fd5b6000613eef86828701613b66565b9350506020613f0086828701613c98565b9250506040613f1186828701613b66565b9150509250925092565b600060208284031215613f2d57600080fd5b600082013567ffffffffffffffff811115613f4757600080fd5b613f5384828501613b7b565b91505092915050565b600060208284031215613f6e57600080fd5b6000613f7c84828501613bba565b91505092915050565b600060208284031215613f9757600080fd5b6000613fa584828501613bcf565b91505092915050565b600060208284031215613fc057600080fd5b6000613fce84828501613be4565b91505092915050565b600060208284031215613fe957600080fd5b6000613ff784828501613c98565b91505092915050565b6000806040838503121561401357600080fd5b600061402185828601613c98565b925050602061403285828601613b66565b9150509250929050565b6000806040838503121561404f57600080fd5b600061405d85828601613c98565b925050602083013567ffffffffffffffff81111561407a57600080fd5b61408685828601613b7b565b9150509250929050565b600080608083850312156140a357600080fd5b60006140b185828601613c98565b92505060206140c285828601613c23565b9150509250929050565b6000806000606084860312156140e157600080fd5b60006140ef86828701613c98565b935050602061410086828701613c98565b925050604061411186828701613c98565b9150509250925092565b60006020828403121561412d57600080fd5b600061413b84828501613cad565b91505092915050565b600061415083836146b6565b60608301905092915050565b60006141688383614707565b60208301905092915050565b61417d81615008565b82525050565b61418c81615008565b82525050565b600061419d82614ced565b6141a78185614d33565b93506141b283614ccd565b8060005b838110156141e35781516141ca8882614144565b97506141d583614d19565b9250506001810190506141b6565b5085935050505092915050565b60006141fb82614cf8565b6142058185614d44565b935061421083614cdd565b8060005b83811015614241578151614228888261415c565b975061423383614d26565b925050600181019050614214565b5085935050505092915050565b6142578161501a565b82525050565b600061426882614d03565b6142728185614d55565b93506142828185602086016150fa565b61428b816152c6565b840191505092915050565b61429f816150b5565b82525050565b6142ae816150d9565b82525050565b60006142bf82614d0e565b6142c98185614d66565b93506142d98185602086016150fa565b6142e2816152c6565b840191505092915050565b60006142f882614d0e565b6143028185614d77565b93506143128185602086016150fa565b80840191505092915050565b600061432b602b83614d66565b9150614336826152e4565b604082019050919050565b600061434e603283614d66565b915061435982615333565b604082019050919050565b6000614371602483614d66565b915061437c82615382565b604082019050919050565b6000614394601c83614d66565b915061439f826153d1565b602082019050919050565b60006143b7602483614d66565b91506143c2826153fa565b604082019050919050565b60006143da601983614d66565b91506143e582615449565b602082019050919050565b60006143fd602c83614d66565b915061440882615472565b604082019050919050565b6000614420602083614d66565b915061442b826154c1565b602082019050919050565b6000614443602583614d66565b915061444e826154ea565b604082019050919050565b6000614466603883614d66565b915061447182615539565b604082019050919050565b6000614489601f83614d66565b915061449482615588565b602082019050919050565b60006144ac602a83614d66565b91506144b7826155b1565b604082019050919050565b60006144cf602983614d66565b91506144da82615600565b604082019050919050565b60006144f2602f83614d66565b91506144fd8261564f565b604082019050919050565b6000614515602083614d66565b91506145208261569e565b602082019050919050565b6000614538602c83614d66565b9150614543826156c7565b604082019050919050565b600061455b604083614d66565b915061456682615716565b604082019050919050565b600061457e602983614d66565b915061458982615765565b604082019050919050565b60006145a1602f83614d66565b91506145ac826157b4565b604082019050919050565b60006145c4602183614d66565b91506145cf82615803565b604082019050919050565b60006145e7603183614d66565b91506145f282615852565b604082019050919050565b600061460a602383614d66565b9150614615826158a1565b604082019050919050565b600061462d602c83614d66565b9150614638826158f0565b604082019050919050565b6000614650602083614d66565b915061465b8261593f565b602082019050919050565b600060608301600083015184820360008601526146838282614192565b91505060208301516146986020860182614725565b5060408301516146ab6040860182614725565b508091505092915050565b6060820160008201516146cc6000850182614174565b5060208201516146df6020850182614707565b5060408201516146f260408501826146f8565b50505050565b61470181615052565b82525050565b6147108161508e565b82525050565b61471f8161508e565b82525050565b61472e81615098565b82525050565b600061474082856142ed565b915061474c82846142ed565b91508190509392505050565b600060208201905061476d6000830184614183565b92915050565b60006060820190506147886000830186614183565b6147956020830185614183565b6147a26040830184614716565b949350505050565b60006080820190506147bf6000830187614183565b6147cc6020830186614183565b6147d96040830185614716565b81810360608301526147eb818461425d565b905095945050505050565b6000602082019050818103600083015261481081846141f0565b905092915050565b600060208201905061482d600083018461424e565b92915050565b60006020820190506148486000830184614296565b92915050565b600060608201905061486360008301866142a5565b6148706020830185614183565b61487d6040830184614183565b949350505050565b6000602082019050818103600083015261489f81846142b4565b905092915050565b600060208201905081810360008301526148c08161431e565b9050919050565b600060208201905081810360008301526148e081614341565b9050919050565b6000602082019050818103600083015261490081614364565b9050919050565b6000602082019050818103600083015261492081614387565b9050919050565b60006020820190508181036000830152614940816143aa565b9050919050565b60006020820190508181036000830152614960816143cd565b9050919050565b60006020820190508181036000830152614980816143f0565b9050919050565b600060208201905081810360008301526149a081614413565b9050919050565b600060208201905081810360008301526149c081614436565b9050919050565b600060208201905081810360008301526149e081614459565b9050919050565b60006020820190508181036000830152614a008161447c565b9050919050565b60006020820190508181036000830152614a208161449f565b9050919050565b60006020820190508181036000830152614a40816144c2565b9050919050565b60006020820190508181036000830152614a60816144e5565b9050919050565b60006020820190508181036000830152614a8081614508565b9050919050565b60006020820190508181036000830152614aa08161452b565b9050919050565b60006020820190508181036000830152614ac08161454e565b9050919050565b60006020820190508181036000830152614ae081614571565b9050919050565b60006020820190508181036000830152614b0081614594565b9050919050565b60006020820190508181036000830152614b20816145b7565b9050919050565b60006020820190508181036000830152614b40816145da565b9050919050565b60006020820190508181036000830152614b60816145fd565b9050919050565b60006020820190508181036000830152614b8081614620565b9050919050565b60006020820190508181036000830152614ba081614643565b9050919050565b60006020820190508181036000830152614bc18184614666565b905092915050565b6000602082019050614bde6000830184614716565b92915050565b6000606082019050614bf96000830186614716565b614c066020830185614183565b614c136040830184614183565b949350505050565b6000604082019050614c306000830185614716565b8181036020830152614c4281846141f0565b90509392505050565b6000614c55614c66565b9050614c61828261515f565b919050565b6000604051905090565b600067ffffffffffffffff821115614c8b57614c8a615297565b5b602082029050602081019050919050565b600067ffffffffffffffff821115614cb757614cb6615297565b5b614cc0826152c6565b9050602081019050919050565b6000819050602082019050919050565b6000819050602082019050919050565b600081519050919050565b600081519050919050565b600081519050919050565b600081519050919050565b6000602082019050919050565b6000602082019050919050565b600082825260208201905092915050565b600082825260208201905092915050565b600082825260208201905092915050565b600082825260208201905092915050565b600081905092915050565b6000614d8d8261508e565b9150614d988361508e565b9250827fffffffffffffffffffffffffffffffffffffffffffffffffffffffffffffffff03821115614dcd57614dcc61520a565b5b828201905092915050565b6000614de38261508e565b9150614dee8361508e565b925082614dfe57614dfd615239565b5b828204905092915050565b6000808291508390505b6001851115614e5357808604811115614e2f57614e2e61520a565b5b6001851615614e3e5780820291505b8081029050614e4c856152d7565b9450614e13565b94509492505050565b6000614e678261508e565b9150614e728361508e565b9250614e9f7fffffffffffffffffffffffffffffffffffffffffffffffffffffffffffffffff8484614ea7565b905092915050565b600082614eb75760019050614f73565b81614ec55760009050614f73565b8160018114614edb5760028114614ee557614f14565b6001915050614f73565b60ff841115614ef757614ef661520a565b5b8360020a915084821115614f0e57614f0d61520a565b5b50614f73565b5060208310610133831016604e8410600b8410161715614f495782820a905083811115614f4457614f4361520a565b5b614f73565b614f568484846001614e09565b92509050818404811115614f6d57614f6c61520a565b5b81810290505b9392505050565b6000614f858261508e565b9150614f908361508e565b9250817fffffffffffffffffffffffffffffffffffffffffffffffffffffffffffffffff0483118215151615614fc957614fc861520a565b5b828202905092915050565b6000614fdf8261508e565b9150614fea8361508e565b925082821015614ffd57614ffc61520a565b5b828203905092915050565b60006150138261506e565b9050919050565b60008115159050919050565b60007fffffffff0000000000000000000000000000000000000000000000000000000082169050919050565b60006fffffffffffffffffffffffffffffffff82169050919050565b600073ffffffffffffffffffffffffffffffffffffffff82169050919050565b6000819050919050565b600063ffffffff82169050919050565b600060ff82169050919050565b60006150c0826150c7565b9050919050565b60006150d28261506e565b9050919050565b60006150e48261508e565b9050919050565b82818337600083830152505050565b60005b838110156151185780820151818401526020810190506150fd565b83811115615127576000848401525b50505050565b6000600282049050600182168061514557607f821691505b6020821081141561515957615158615268565b5b50919050565b615168826152c6565b810181811067ffffffffffffffff8211171561518757615186615297565b5b80604052505050565b600061519b8261508e565b91507fffffffffffffffffffffffffffffffffffffffffffffffffffffffffffffffff8214156151ce576151cd61520a565b5b600182019050919050565b60006151e48261508e565b91506151ef8361508e565b9250826151ff576151fe615239565b5b828206905092915050565b7f4e487b7100000000000000000000000000000000000000000000000000000000600052601160045260246000fd5b7f4e487b7100000000000000000000000000000000000000000000000000000000600052601260045260246000fd5b7f4e487b7100000000000000000000000000000000000000000000000000000000600052602260045260246000fd5b7f4e487b7100000000000000000000000000000000000000000000000000000000600052604160045260246000fd5b6000601f19601f8301169050919050565b60008160011c9050919050565b7f455243373231456e756d657261626c653a206f776e657220696e646578206f7560008201527f74206f6620626f756e6473000000000000000000000000000000000000000000602082015250565b7f4552433732313a207472616e7366657220746f206e6f6e20455243373231526560008201527f63656976657220696d706c656d656e7465720000000000000000000000000000602082015250565b7f5341546f6b656e3a204f6e6c79206f776e65722063616e206d6572676520746f60008201527f6b656e7300000000000000000000000000000000000000000000000000000000602082015250565b7f4552433732313a20746f6b656e20616c7265616479206d696e74656400000000600082015250565b7f4552433732313a207472616e7366657220746f20746865207a65726f2061646460008201527f7265737300000000000000000000000000000000000000000000000000000000602082015250565b7f4552433732313a20617070726f766520746f2063616c6c657200000000000000600082015250565b7f4552433732313a206f70657261746f7220717565727920666f72206e6f6e657860008201527f697374656e7420746f6b656e0000000000000000000000000000000000000000602082015250565b7f5341546f6b656e3a2043616c6c6572206973206e6f74204e4654206f776e6572600082015250565b7f5341546f6b656e3a204f6e6c79206f776e65722063616e2073706c697420612060008201527f746f6b656e000000000000000000000000000000000000000000000000000000602082015250565b7f4552433732313a20617070726f76652063616c6c6572206973206e6f74206f7760008201527f6e6572206e6f7220617070726f76656420666f7220616c6c0000000000000000602082015250565b7f534153746f726167653a2042756e646c6520616c726561647920616464656400600082015250565b7f4552433732313a2062616c616e636520717565727920666f7220746865207a6560008201527f726f206164647265737300000000000000000000000000000000000000000000602082015250565b7f4552433732313a206f776e657220717565727920666f72206e6f6e657869737460008201527f656e7420746f6b656e0000000000000000000000000000000000000000000000602082015250565b7f5341546f6b656e3a204f6e6c79206c656769742073616c65732063616e206d6960008201527f6e7420697473206f776e204e4654210000000000000000000000000000000000602082015250565b7f4552433732313a206d696e7420746f20746865207a65726f2061646472657373600082015250565b7f4552433732313a20617070726f76656420717565727920666f72206e6f6e657860008201527f697374656e7420746f6b656e0000000000000000000000000000000000000000602082015250565b7f5341546f6b656e3a204f6e6c79205341546f6b656e4578747261732063616e2060008201527f6d696e7420746f6b656e7320666f7220616e206578697374696e672073616c65602082015250565b7f4552433732313a207472616e73666572206f6620746f6b656e2074686174206960008201527f73206e6f74206f776e0000000000000000000000000000000000000000000000602082015250565b7f4552433732314d657461646174613a2055524920717565727920666f72206e6f60008201527f6e6578697374656e7420746f6b656e0000000000000000000000000000000000602082015250565b7f4552433732313a20617070726f76616c20746f2063757272656e74206f776e6560008201527f7200000000000000000000000000000000000000000000000000000000000000602082015250565b7f4552433732313a207472616e736665722063616c6c6572206973206e6f74206f60008201527f776e6572206e6f7220617070726f766564000000000000000000000000000000602082015250565b7f4c6576656c4163636573733a2063616c6c6572206e6f7420617574686f72697a60008201527f65642e0000000000000000000000000000000000000000000000000000000000602082015250565b7f455243373231456e756d657261626c653a20676c6f62616c20696e646578206f60008201527f7574206f6620626f756e64730000000000000000000000000000000000000000602082015250565b7f534153746f726167653a2042756e646c6520646f6573206e6f74206578697374600082015250565b61597181615008565b811461597c57600080fd5b50565b6159888161501a565b811461599357600080fd5b50565b61599f81615026565b81146159aa57600080fd5b50565b6159b681615052565b81146159c157600080fd5b50565b6159cd8161508e565b81146159d857600080fd5b50565b6159e4816150a8565b81146159ef57600080fd5b5056fe68747470733a2f2f6d657461646174612e6170652e6d61726b65742f73616e66742fa2646970667358221220b442a9cfb914d76c27c992b53d6801804fb69077276ef0d93e36733951f3e72364736f6c63430008030033",
  "linkReferences": {},
  "deployedLinkReferences": {}
}