{
  "_format": "hh-sol-artifact-1",
  "contractName": "SaleData",
  "sourceName": "contracts/sale/SaleData.sol",
  "abi": [
    {
      "inputs": [
        {
          "internalType": "address",
          "name": "apeWallet_",
          "type": "address"
        }
      ],
      "stateMutability": "nonpayable",
      "type": "constructor"
    },
    {
      "anonymous": false,
      "inputs": [
        {
          "indexed": false,
          "internalType": "uint256",
          "name": "level",
          "type": "uint256"
        },
        {
          "indexed": false,
          "internalType": "address",
          "name": "account",
          "type": "address"
        },
        {
          "indexed": false,
          "internalType": "address",
          "name": "setter",
          "type": "address"
        }
      ],
      "name": "LevelSet",
      "type": "event"
    },
    {
      "inputs": [],
      "name": "ADMIN_LEVEL",
      "outputs": [
        {
          "internalType": "uint256",
          "name": "",
          "type": "uint256"
        }
      ],
      "stateMutability": "view",
      "type": "function"
    },
    {
      "inputs": [],
      "name": "OWNER_LEVEL",
      "outputs": [
        {
          "internalType": "uint256",
          "name": "",
          "type": "uint256"
        }
      ],
      "stateMutability": "view",
      "type": "function"
    },
    {
      "inputs": [],
      "name": "SALE_LEVEL",
      "outputs": [
        {
          "internalType": "uint256",
          "name": "",
          "type": "uint256"
        }
      ],
      "stateMutability": "view",
      "type": "function"
    },
    {
      "inputs": [],
      "name": "apeWallet",
      "outputs": [
        {
          "internalType": "address",
          "name": "",
          "type": "address"
        }
      ],
      "stateMutability": "view",
      "type": "function"
    },
    {
      "inputs": [
        {
          "internalType": "uint256",
          "name": "saleId",
          "type": "uint256"
        },
        {
          "internalType": "address",
          "name": "investor",
          "type": "address"
        },
        {
          "internalType": "uint256",
          "name": "amount",
          "type": "uint256"
        }
      ],
      "name": "approveInvestor",
      "outputs": [],
      "stateMutability": "nonpayable",
      "type": "function"
    },
    {
      "inputs": [
        {
          "internalType": "address",
          "name": "sellingToken",
          "type": "address"
        },
        {
          "internalType": "uint64",
          "name": "amount",
          "type": "uint64"
        }
      ],
      "name": "denormalize",
      "outputs": [
        {
          "internalType": "uint256",
          "name": "",
          "type": "uint256"
        }
      ],
      "stateMutability": "view",
      "type": "function"
    },
    {
      "inputs": [
        {
          "internalType": "uint256",
          "name": "saleId",
          "type": "uint256"
        }
      ],
      "name": "getSaleAddressById",
      "outputs": [
        {
          "internalType": "address",
          "name": "",
          "type": "address"
        }
      ],
      "stateMutability": "view",
      "type": "function"
    },
    {
      "inputs": [
        {
          "internalType": "uint256",
          "name": "saleId",
          "type": "uint256"
        }
      ],
      "name": "getSetupById",
      "outputs": [
        {
          "components": [
            {
              "internalType": "contract ISAToken",
              "name": "satoken",
              "type": "address"
            },
            {
              "internalType": "contract IERC20Min",
              "name": "sellingToken",
              "type": "address"
            },
            {
              "internalType": "contract IERC20Min",
              "name": "paymentToken",
              "type": "address"
            },
            {
              "internalType": "address",
              "name": "owner",
              "type": "address"
            },
            {
              "internalType": "uint256",
              "name": "remainingAmount",
              "type": "uint256"
            },
            {
              "internalType": "uint64",
              "name": "minAmount",
              "type": "uint64"
            },
            {
              "internalType": "uint64",
              "name": "capAmount",
              "type": "uint64"
            },
            {
              "internalType": "uint64",
              "name": "pricingToken",
              "type": "uint64"
            },
            {
              "internalType": "uint64",
              "name": "pricingPayment",
              "type": "uint64"
            },
            {
              "internalType": "uint64",
              "name": "tokenListTimestamp",
              "type": "uint64"
            },
            {
              "internalType": "uint64",
              "name": "tokenFeePercentage",
              "type": "uint64"
            },
            {
              "internalType": "uint64",
              "name": "paymentFeePercentage",
              "type": "uint64"
            },
            {
              "internalType": "bool",
              "name": "isTokenTransferable",
              "type": "bool"
            }
          ],
          "internalType": "struct ISaleData.Setup",
          "name": "",
          "type": "tuple"
        }
      ],
      "stateMutability": "view",
      "type": "function"
    },
    {
      "inputs": [
        {
          "internalType": "uint256",
          "name": "vestedPercentage",
          "type": "uint256"
        },
        {
          "internalType": "uint256",
          "name": "lastVestedPercentage",
          "type": "uint256"
        },
        {
          "internalType": "uint256",
          "name": "lockedAmount",
          "type": "uint256"
        }
      ],
      "name": "getVestedAmount",
      "outputs": [
        {
          "internalType": "uint256",
          "name": "",
          "type": "uint256"
        }
      ],
      "stateMutability": "view",
      "type": "function"
    },
    {
      "inputs": [
        {
          "internalType": "uint256",
          "name": "saleId",
          "type": "uint256"
        }
      ],
      "name": "getVestedPercentage",
      "outputs": [
        {
          "internalType": "uint128",
          "name": "",
          "type": "uint128"
        }
      ],
      "stateMutability": "view",
      "type": "function"
    },
    {
      "inputs": [
        {
          "internalType": "uint256",
          "name": "level",
          "type": "uint256"
        },
        {
          "internalType": "address",
          "name": "addr",
          "type": "address"
        }
      ],
      "name": "grantLevel",
      "outputs": [],
      "stateMutability": "nonpayable",
      "type": "function"
    },
    {
      "inputs": [
        {
          "internalType": "address",
          "name": "saleAddress",
          "type": "address"
        }
      ],
      "name": "grantManagerLevel",
      "outputs": [],
      "stateMutability": "nonpayable",
      "type": "function"
    },
    {
      "inputs": [],
      "name": "increaseSaleId",
      "outputs": [],
      "stateMutability": "nonpayable",
      "type": "function"
    },
    {
      "inputs": [
        {
          "internalType": "address",
          "name": "sale",
          "type": "address"
        }
      ],
      "name": "isLegitSale",
      "outputs": [
        {
          "internalType": "bool",
          "name": "",
          "type": "bool"
        }
      ],
      "stateMutability": "view",
      "type": "function"
    },
    {
      "inputs": [
        {
          "internalType": "address",
          "name": "",
          "type": "address"
        }
      ],
      "name": "levels",
      "outputs": [
        {
          "internalType": "uint256",
          "name": "",
          "type": "uint256"
        }
      ],
      "stateMutability": "view",
      "type": "function"
    },
    {
      "inputs": [
        {
          "internalType": "uint256",
          "name": "saleId",
          "type": "uint256"
        }
      ],
      "name": "makeTransferable",
      "outputs": [],
      "stateMutability": "nonpayable",
      "type": "function"
    },
    {
      "inputs": [],
      "name": "nextSaleId",
      "outputs": [
        {
          "internalType": "uint256",
          "name": "",
          "type": "uint256"
        }
      ],
      "stateMutability": "view",
      "type": "function"
    },
    {
      "inputs": [
        {
          "internalType": "uint256",
          "name": "saleId",
          "type": "uint256"
        },
        {
          "internalType": "uint64",
          "name": "amount",
          "type": "uint64"
        }
      ],
      "name": "normalize",
      "outputs": [
        {
          "internalType": "uint256",
          "name": "",
          "type": "uint256"
        }
      ],
      "stateMutability": "view",
      "type": "function"
    },
    {
      "inputs": [
        {
          "internalType": "address",
          "name": "addr",
          "type": "address"
        }
      ],
      "name": "revokeLevel",
      "outputs": [],
      "stateMutability": "nonpayable",
      "type": "function"
    },
    {
      "inputs": [
        {
          "internalType": "uint256",
          "name": "saleId",
          "type": "uint256"
        },
        {
          "internalType": "address",
          "name": "investor",
          "type": "address"
        },
        {
          "internalType": "uint256",
          "name": "amount",
          "type": "uint256"
        }
      ],
      "name": "setInvest",
      "outputs": [
        {
          "internalType": "uint256",
          "name": "",
          "type": "uint256"
        },
        {
          "internalType": "uint256",
          "name": "",
          "type": "uint256"
        },
        {
          "internalType": "uint256",
          "name": "",
          "type": "uint256"
        }
      ],
      "stateMutability": "nonpayable",
      "type": "function"
    },
    {
      "inputs": [
        {
          "internalType": "uint256",
          "name": "saleId",
          "type": "uint256"
        }
      ],
      "name": "setLaunch",
      "outputs": [
        {
          "internalType": "contract IERC20Min",
          "name": "",
          "type": "address"
        },
        {
          "internalType": "address",
          "name": "",
          "type": "address"
        },
        {
          "internalType": "uint256",
          "name": "",
          "type": "uint256"
        }
      ],
      "stateMutability": "nonpayable",
      "type": "function"
    },
    {
      "inputs": [
        {
          "internalType": "uint256",
          "name": "saleId",
          "type": "uint256"
        },
        {
          "internalType": "address",
          "name": "saleAddress",
          "type": "address"
        },
        {
          "components": [
            {
              "internalType": "contract ISAToken",
              "name": "satoken",
              "type": "address"
            },
            {
              "internalType": "contract IERC20Min",
              "name": "sellingToken",
              "type": "address"
            },
            {
              "internalType": "contract IERC20Min",
              "name": "paymentToken",
              "type": "address"
            },
            {
              "internalType": "address",
              "name": "owner",
              "type": "address"
            },
            {
              "internalType": "uint256",
              "name": "remainingAmount",
              "type": "uint256"
            },
            {
              "internalType": "uint64",
              "name": "minAmount",
              "type": "uint64"
            },
            {
              "internalType": "uint64",
              "name": "capAmount",
              "type": "uint64"
            },
            {
              "internalType": "uint64",
              "name": "pricingToken",
              "type": "uint64"
            },
            {
              "internalType": "uint64",
              "name": "pricingPayment",
              "type": "uint64"
            },
            {
              "internalType": "uint64",
              "name": "tokenListTimestamp",
              "type": "uint64"
            },
            {
              "internalType": "uint64",
              "name": "tokenFeePercentage",
              "type": "uint64"
            },
            {
              "internalType": "uint64",
              "name": "paymentFeePercentage",
              "type": "uint64"
            },
            {
              "internalType": "bool",
              "name": "isTokenTransferable",
              "type": "bool"
            }
          ],
          "internalType": "struct ISaleData.Setup",
          "name": "setup",
          "type": "tuple"
        },
        {
          "components": [
            {
              "internalType": "uint128",
              "name": "timestamp",
              "type": "uint128"
            },
            {
              "internalType": "uint128",
              "name": "percentage",
              "type": "uint128"
            }
          ],
          "internalType": "struct ISaleData.VestingStep[]",
          "name": "schedule",
          "type": "tuple[]"
        }
      ],
      "name": "setUpSale",
      "outputs": [],
      "stateMutability": "nonpayable",
      "type": "function"
    },
    {
      "inputs": [
        {
          "internalType": "uint256",
          "name": "saleId",
          "type": "uint256"
        },
        {
          "internalType": "uint128",
          "name": "lastVestedPercentage",
          "type": "uint128"
        },
        {
          "internalType": "uint256",
          "name": "lockedAmount",
          "type": "uint256"
        }
      ],
      "name": "setVest",
      "outputs": [
        {
          "internalType": "uint128",
          "name": "",
          "type": "uint128"
        },
        {
          "internalType": "uint256",
          "name": "",
          "type": "uint256"
        }
      ],
      "stateMutability": "nonpayable",
      "type": "function"
    },
    {
      "inputs": [
        {
          "internalType": "uint256",
          "name": "saleId",
          "type": "uint256"
        },
        {
          "internalType": "uint256",
          "name": "amount",
          "type": "uint256"
        }
      ],
      "name": "setWithdrawToken",
      "outputs": [
        {
          "internalType": "contract IERC20Min",
          "name": "",
          "type": "address"
        },
        {
          "internalType": "uint256",
          "name": "",
          "type": "uint256"
        }
      ],
      "stateMutability": "nonpayable",
      "type": "function"
    },
    {
      "inputs": [
        {
          "internalType": "uint256",
          "name": "saleId",
          "type": "uint256"
        }
      ],
      "name": "triggerTokenListing",
      "outputs": [],
      "stateMutability": "nonpayable",
      "type": "function"
    },
    {
      "inputs": [
        {
          "internalType": "address",
          "name": "apeWallet_",
          "type": "address"
        }
      ],
      "name": "updateApeWallet",
      "outputs": [],
      "stateMutability": "nonpayable",
      "type": "function"
    }
  ],
  "bytecode": "0x60806040523480156200001157600080fd5b50604051620040ee380380620040ee833981810160405281019062000037919062000119565b60016000803373ffffffffffffffffffffffffffffffffffffffff1673ffffffffffffffffffffffffffffffffffffffff168152602001908152602001600020819055507f30113ad733c78bfd7b2fd05fa6982d156dda72dd2739fdc5ffbd71ecfc3124d26001336000604051620000b29392919062000167565b60405180910390a180600160006101000a81548173ffffffffffffffffffffffffffffffffffffffff021916908373ffffffffffffffffffffffffffffffffffffffff16021790555050620001fc565b6000815190506200011381620001e2565b92915050565b6000602082840312156200012c57600080fd5b60006200013c8482850162000102565b91505092915050565b6200015081620001a4565b82525050565b6200016181620001d8565b82525050565b60006060820190506200017e600083018662000156565b6200018d602083018562000145565b6200019c604083018462000145565b949350505050565b6000620001b182620001b8565b9050919050565b600073ffffffffffffffffffffffffffffffffffffffff82169050919050565b6000819050919050565b620001ed81620001a4565b8114620001f957600080fd5b50565b613ee2806200020c6000396000f3fe608060405234801561001057600080fd5b506004361061018e5760003560e01c806388d85808116100de578063c936efa711610097578063eb99859911610071578063eb998599146104d3578063ee821640146104ef578063ef0c1dec1461050b578063f25ec2131461053d5761018e565b8063c936efa714610454578063de89f61614610484578063deb077b9146104b55761018e565b806388d858081461039457806389bbbd29146103b05780638a553da2146103ce578063a2f4f813146103ea578063b7d5475914610408578063c38ade0d146104245761018e565b80632ea03f2f1161014b57806347082db31161012557806347082db3146102d25780635d1d37c31461030257806374efb799146103345780637ea4d0b9146103645761018e565b80632ea03f2f1461026757806339a2070a1461028557806341b5f3d0146102b65761018e565b8063018a80ec1461019357806301a134801461019d57806304ad83a2146101cd5780630c5dfb60146101fd5780631ce705811461021957806327ba8bfb14610237575b600080fd5b61019b610559565b005b6101b760048036038101906101b29190612f82565b6105f6565b6040516101c491906135b4565b60405180910390f35b6101e760048036038101906101e29190612d77565b6106f8565b6040516101f49190613554565b60405180910390f35b61021760048036038101906102129190612ddc565b610a01565b005b610221611133565b60405161022e91906135b4565b60405180910390f35b610251600480360381019061024c9190612f33565b611138565b60405161025e91906135b4565b60405180910390f35b61026f611221565b60405161027c9190613327565b60405180910390f35b61029f600480360381019061029a9190612ef7565b61124b565b6040516102ad929190613394565b60405180910390f35b6102d060048036038101906102cb9190612d12565b611432565b005b6102ec60048036038101906102e79190612d12565b6114f9565b6040516102f991906135b4565b60405180910390f35b61031c60048036038101906103179190612d77565b611511565b60405161032b9392919061335d565b60405180910390f35b61034e60048036038101906103499190612d12565b6116da565b60405161035b9190613342565b60405180910390f35b61037e60048036038101906103799190612d3b565b611725565b60405161038b91906135b4565b60405180910390f35b6103ae60048036038101906103a99190612e59565b6117f7565b005b6103b86118f7565b6040516103c591906135b4565b60405180910390f35b6103e860048036038101906103e39190612d12565b6118fc565b005b6103f2611a00565b6040516103ff91906135b4565b60405180910390f35b610422600480360381019061041d9190612d77565b611a05565b005b61043e60048036038101906104399190612d77565b611b06565b60405161044b9190613327565b60405180910390f35b61046e60048036038101906104699190612d77565b611b43565b60405161047b9190613570565b60405180910390f35b61049e60048036038101906104999190612ea8565b6120e9565b6040516104ac92919061358b565b60405180910390f35b6104bd61213c565b6040516104ca91906135b4565b60405180910390f35b6104ed60048036038101906104e89190612d77565b612146565b005b61050960048036038101906105049190612d12565b6122a3565b005b61052560048036038101906105209190612e59565b6123a9565b60405161053493929190613606565b60405180910390f35b61055760048036038101906105529190612da0565b6127ef565b005b6002806000803373ffffffffffffffffffffffffffffffffffffffff1673ffffffffffffffffffffffffffffffffffffffff16815260200190815260200160002054146105db576040517f08c379a00000000000000000000000000000000000000000000000000000000081526004016105d2906134f4565b60405180910390fd5b600660008154809291906105ee90613a59565b919050555050565b6000806004600085815260200190815260200160002060010160009054906101000a900473ffffffffffffffffffffffffffffffffffffffff1673ffffffffffffffffffffffffffffffffffffffff1663313ce5676040518163ffffffff1660e01b815260040160206040518083038186803b15801561067557600080fd5b505afa158015610689573d6000803e3d6000fd5b505050506040513d601f19601f820116820180604052508101906106ad9190612fbe565b60ff1690506106ef6103e86106e183600a6106c89190613779565b8667ffffffffffffffff166128f490919063ffffffff16565b61290a90919063ffffffff16565b91505092915050565b61070061294c565b60046000838152602001908152602001600020604051806101a00160405290816000820160009054906101000a900473ffffffffffffffffffffffffffffffffffffffff1673ffffffffffffffffffffffffffffffffffffffff1673ffffffffffffffffffffffffffffffffffffffff1681526020016001820160009054906101000a900473ffffffffffffffffffffffffffffffffffffffff1673ffffffffffffffffffffffffffffffffffffffff1673ffffffffffffffffffffffffffffffffffffffff1681526020016002820160009054906101000a900473ffffffffffffffffffffffffffffffffffffffff1673ffffffffffffffffffffffffffffffffffffffff1673ffffffffffffffffffffffffffffffffffffffff1681526020016003820160009054906101000a900473ffffffffffffffffffffffffffffffffffffffff1673ffffffffffffffffffffffffffffffffffffffff1673ffffffffffffffffffffffffffffffffffffffff168152602001600482015481526020016005820160009054906101000a900467ffffffffffffffff1667ffffffffffffffff1667ffffffffffffffff1681526020016005820160089054906101000a900467ffffffffffffffff1667ffffffffffffffff1667ffffffffffffffff1681526020016005820160109054906101000a900467ffffffffffffffff1667ffffffffffffffff1667ffffffffffffffff1681526020016005820160189054906101000a900467ffffffffffffffff1667ffffffffffffffff1667ffffffffffffffff1681526020016006820160009054906101000a900467ffffffffffffffff1667ffffffffffffffff1667ffffffffffffffff1681526020016006820160089054906101000a900467ffffffffffffffff1667ffffffffffffffff1667ffffffffffffffff1681526020016006820160109054906101000a900467ffffffffffffffff1667ffffffffffffffff1667ffffffffffffffff1681526020016006820160189054906101000a900460ff1615151515815250509050919050565b6001806000803373ffffffffffffffffffffffffffffffffffffffff1673ffffffffffffffffffffffffffffffffffffffff1681526020019081526020016000205414610a83576040517f08c379a0000000000000000000000000000000000000000000000000000000008152600401610a7a906134f4565b60405180910390fd5b600073ffffffffffffffffffffffffffffffffffffffff166004600087815260200190815260200160002060030160009054906101000a900473ffffffffffffffffffffffffffffffffffffffff1673ffffffffffffffffffffffffffffffffffffffff1614610b28576040517f08c379a0000000000000000000000000000000000000000000000000000000008152600401610b1f906134b4565b60405180910390fd5b6006548510610b6c576040517f08c379a0000000000000000000000000000000000000000000000000000000008152600401610b6390613434565b60405180910390fd5b826004600087815260200190815260200160002060008201518160000160006101000a81548173ffffffffffffffffffffffffffffffffffffffff021916908373ffffffffffffffffffffffffffffffffffffffff16021790555060208201518160010160006101000a81548173ffffffffffffffffffffffffffffffffffffffff021916908373ffffffffffffffffffffffffffffffffffffffff16021790555060408201518160020160006101000a81548173ffffffffffffffffffffffffffffffffffffffff021916908373ffffffffffffffffffffffffffffffffffffffff16021790555060608201518160030160006101000a81548173ffffffffffffffffffffffffffffffffffffffff021916908373ffffffffffffffffffffffffffffffffffffffff1602179055506080820151816004015560a08201518160050160006101000a81548167ffffffffffffffff021916908367ffffffffffffffff16021790555060c08201518160050160086101000a81548167ffffffffffffffff021916908367ffffffffffffffff16021790555060e08201518160050160106101000a81548167ffffffffffffffff021916908367ffffffffffffffff1602179055506101008201518160050160186101000a81548167ffffffffffffffff021916908367ffffffffffffffff1602179055506101208201518160060160006101000a81548167ffffffffffffffff021916908367ffffffffffffffff1602179055506101408201518160060160086101000a81548167ffffffffffffffff021916908367ffffffffffffffff1602179055506101608201518160060160106101000a81548167ffffffffffffffff021916908367ffffffffffffffff1602179055506101808201518160060160186101000a81548160ff02191690831515021790555090505060005b8251811015611033576000811115610f275782600182610e3a91906138f1565b81518110610e71577f4e487b7100000000000000000000000000000000000000000000000000000000600052603260045260246000fd5b6020026020010151602001516fffffffffffffffffffffffffffffffff16838281518110610ec8577f4e487b7100000000000000000000000000000000000000000000000000000000600052603260045260246000fd5b6020026020010151602001516fffffffffffffffffffffffffffffffff1611610f26576040517f08c379a0000000000000000000000000000000000000000000000000000000008152600401610f1d906133f4565b60405180910390fd5b5b60036000878152602001908152602001600020838281518110610f73577f4e487b7100000000000000000000000000000000000000000000000000000000600052603260045260246000fd5b60200260200101519080600181540180825580915050600190039060005260206000200160009091909190915060008201518160000160006101000a8154816fffffffffffffffffffffffffffffffff02191690836fffffffffffffffffffffffffffffffff16021790555060208201518160000160106101000a8154816fffffffffffffffffffffffffffffffff02191690836fffffffffffffffffffffffffffffffff1602179055505050808061102b90613a59565b915050610e1a565b506064826001845161104591906138f1565b8151811061107c577f4e487b7100000000000000000000000000000000000000000000000000000000600052603260045260246000fd5b6020026020010151602001516fffffffffffffffffffffffffffffffff16146110da576040517f08c379a00000000000000000000000000000000000000000000000000000000081526004016110d1906134d4565b60405180910390fd5b836002600087815260200190815260200160002060006101000a81548173ffffffffffffffffffffffffffffffffffffffff021916908373ffffffffffffffffffffffffffffffffffffffff1602179055505050505050565b600181565b60006001806000803373ffffffffffffffffffffffffffffffffffffffff1673ffffffffffffffffffffffffffffffffffffffff16815260200190815260200160002054146111bc576040517f08c379a00000000000000000000000000000000000000000000000000000000081526004016111b3906134f4565b60405180910390fd5b600060648614156111cf57839050611215565b6112128560646111df91906138f1565b6112046111f5888a61292090919063ffffffff16565b876128f490919063ffffffff16565b61290a90919063ffffffff16565b90505b80925050509392505050565b6000600160009054906101000a900473ffffffffffffffffffffffffffffffffffffffff16905090565b6000806001806000803373ffffffffffffffffffffffffffffffffffffffff1673ffffffffffffffffffffffffffffffffffffffff16815260200190815260200160002054146112d0576040517f08c379a00000000000000000000000000000000000000000000000000000000081526004016112c7906134f4565b60405180910390fd5b6004600086815260200190815260200160002060040154841115611329576040517f08c379a000000000000000000000000000000000000000000000000000000000815260040161132090613414565b60405180910390fd5b600061135f866004600089815260200190815260200160002060050160089054906101000a900467ffffffffffffffff166105f6565b905060006113bd60646113af600460008b815260200190815260200160002060060160089054906101000a900467ffffffffffffffff1667ffffffffffffffff16856128f490919063ffffffff16565b61290a90919063ffffffff16565b9050856004600089815260200190815260200160002060040160008282546113e591906138f1565b925050819055506004600088815260200190815260200160002060010160009054906101000a900473ffffffffffffffffffffffffffffffffffffffff1681945094505050509250929050565b6001806000803373ffffffffffffffffffffffffffffffffffffffff1673ffffffffffffffffffffffffffffffffffffffff16815260200190815260200160002054146114b4576040517f08c379a00000000000000000000000000000000000000000000000000000000081526004016114ab906134f4565b60405180910390fd5b81600160006101000a81548173ffffffffffffffffffffffffffffffffffffffff021916908373ffffffffffffffffffffffffffffffffffffffff1602179055505050565b60006020528060005260406000206000915090505481565b60008060006001806000803373ffffffffffffffffffffffffffffffffffffffff1673ffffffffffffffffffffffffffffffffffffffff1681526020019081526020016000205414611598576040517f08c379a000000000000000000000000000000000000000000000000000000000815260040161158f906134f4565b60405180910390fd5b60006115ce866004600089815260200190815260200160002060050160089054906101000a900467ffffffffffffffff166105f6565b9050600061162c606461161e600460008b815260200190815260200160002060060160089054906101000a900467ffffffffffffffff1667ffffffffffffffff16856128f490919063ffffffff16565b61290a90919063ffffffff16565b90508160046000898152602001908152602001600020600401819055506004600088815260200190815260200160002060010160009054906101000a900473ffffffffffffffffffffffffffffffffffffffff166004600089815260200190815260200160002060030160009054906101000a900473ffffffffffffffffffffffffffffffffffffffff166116ca838561293690919063ffffffff16565b9550955095505050509193909250565b600060016000808473ffffffffffffffffffffffffffffffffffffffff1673ffffffffffffffffffffffffffffffffffffffff16815260200190815260200160002054149050919050565b60008083905060008173ffffffffffffffffffffffffffffffffffffffff1663313ce5676040518163ffffffff1660e01b815260040160206040518083038186803b15801561177357600080fd5b505afa158015611787573d6000803e3d6000fd5b505050506040513d601f19601f820116820180604052508101906117ab9190612fbe565b60ff1690506117ed81600a6117c09190613779565b6117df6103e88767ffffffffffffffff166128f490919063ffffffff16565b61290a90919063ffffffff16565b9250505092915050565b826004600082815260200190815260200160002060030160009054906101000a900473ffffffffffffffffffffffffffffffffffffffff1673ffffffffffffffffffffffffffffffffffffffff163373ffffffffffffffffffffffffffffffffffffffff161461189c576040517f08c379a000000000000000000000000000000000000000000000000000000000815260040161189390613474565b60405180910390fd5b816005600086815260200190815260200160002060008573ffffffffffffffffffffffffffffffffffffffff1673ffffffffffffffffffffffffffffffffffffffff1681526020019081526020016000208190555050505050565b600181565b6001806000803373ffffffffffffffffffffffffffffffffffffffff1673ffffffffffffffffffffffffffffffffffffffff168152602001908152602001600020541461197e576040517f08c379a0000000000000000000000000000000000000000000000000000000008152600401611975906134f4565b60405180910390fd5b6000808373ffffffffffffffffffffffffffffffffffffffff1673ffffffffffffffffffffffffffffffffffffffff168152602001908152602001600020600090557f30113ad733c78bfd7b2fd05fa6982d156dda72dd2739fdc5ffbd71ecfc3124d2600083336040516119f4939291906133bd565b60405180910390a15050565b600281565b806004600082815260200190815260200160002060030160009054906101000a900473ffffffffffffffffffffffffffffffffffffffff1673ffffffffffffffffffffffffffffffffffffffff163373ffffffffffffffffffffffffffffffffffffffff1614611aaa576040517f08c379a0000000000000000000000000000000000000000000000000000000008152600401611aa190613474565b60405180910390fd5b6004600083815260200190815260200160002060060160189054906101000a900460ff16611b025760016004600084815260200190815260200160002060060160186101000a81548160ff0219169083151502179055505b5050565b60006002600083815260200190815260200160002060009054906101000a900473ffffffffffffffffffffffffffffffffffffffff169050919050565b60006001806000803373ffffffffffffffffffffffffffffffffffffffff1673ffffffffffffffffffffffffffffffffffffffff1681526020019081526020016000205414611bc7576040517f08c379a0000000000000000000000000000000000000000000000000000000008152600401611bbe906134f4565b60405180910390fd5b600060046000858152602001908152602001600020604051806101a00160405290816000820160009054906101000a900473ffffffffffffffffffffffffffffffffffffffff1673ffffffffffffffffffffffffffffffffffffffff1673ffffffffffffffffffffffffffffffffffffffff1681526020016001820160009054906101000a900473ffffffffffffffffffffffffffffffffffffffff1673ffffffffffffffffffffffffffffffffffffffff1673ffffffffffffffffffffffffffffffffffffffff1681526020016002820160009054906101000a900473ffffffffffffffffffffffffffffffffffffffff1673ffffffffffffffffffffffffffffffffffffffff1673ffffffffffffffffffffffffffffffffffffffff1681526020016003820160009054906101000a900473ffffffffffffffffffffffffffffffffffffffff1673ffffffffffffffffffffffffffffffffffffffff1673ffffffffffffffffffffffffffffffffffffffff168152602001600482015481526020016005820160009054906101000a900467ffffffffffffffff1667ffffffffffffffff1667ffffffffffffffff1681526020016005820160089054906101000a900467ffffffffffffffff1667ffffffffffffffff1667ffffffffffffffff1681526020016005820160109054906101000a900467ffffffffffffffff1667ffffffffffffffff1667ffffffffffffffff1681526020016005820160189054906101000a900467ffffffffffffffff1667ffffffffffffffff1667ffffffffffffffff1681526020016006820160009054906101000a900467ffffffffffffffff1667ffffffffffffffff1667ffffffffffffffff1681526020016006820160089054906101000a900467ffffffffffffffff1667ffffffffffffffff1667ffffffffffffffff1681526020016006820160109054906101000a900467ffffffffffffffff1667ffffffffffffffff1667ffffffffffffffff1681526020016006820160189054906101000a900460ff1615151515815250509050600060036000868152602001908152602001600020805480602002602001604051908101604052809291908181526020016000905b82821015611fbc578382906000526020600020016040518060400160405290816000820160009054906101000a90046fffffffffffffffffffffffffffffffff166fffffffffffffffffffffffffffffffff166fffffffffffffffffffffffffffffffff1681526020016000820160109054906101000a90046fffffffffffffffffffffffffffffffff166fffffffffffffffffffffffffffffffff166fffffffffffffffffffffffffffffffff168152505081526020019060010190611efa565b505050509050600082610120015167ffffffffffffffff161415611fe5576000935050506120e3565b600080600090505b82518110156120db576000612070848381518110612034577f4e487b7100000000000000000000000000000000000000000000000000000000600052603260045260246000fd5b6020026020010151600001516fffffffffffffffffffffffffffffffff1686610120015167ffffffffffffffff1661293690919063ffffffff16565b90504281111561208057506120db565b8382815181106120b9577f4e487b7100000000000000000000000000000000000000000000000000000000600052603260045260246000fd5b60200260200101516020015192505080806120d390613a59565b915050611fed565b508094505050505b50919050565b60008060006120f786611b43565b9050600061212a826fffffffffffffffffffffffffffffffff16876fffffffffffffffffffffffffffffffff1687611138565b90508181935093505050935093915050565b6000600654905090565b806004600082815260200190815260200160002060030160009054906101000a900473ffffffffffffffffffffffffffffffffffffffff1673ffffffffffffffffffffffffffffffffffffffff163373ffffffffffffffffffffffffffffffffffffffff16146121eb576040517f08c379a00000000000000000000000000000000000000000000000000000000081526004016121e290613474565b60405180910390fd5b60006004600084815260200190815260200160002060060160009054906101000a900467ffffffffffffffff1667ffffffffffffffff1614612262576040517f08c379a000000000000000000000000000000000000000000000000000000000815260040161225990613454565b60405180910390fd5b426004600084815260200190815260200160002060060160006101000a81548167ffffffffffffffff021916908367ffffffffffffffff1602179055505050565b6002806000803373ffffffffffffffffffffffffffffffffffffffff1673ffffffffffffffffffffffffffffffffffffffff1681526020019081526020016000205414612325576040517f08c379a000000000000000000000000000000000000000000000000000000000815260040161231c906134f4565b60405180910390fd5b60016000808473ffffffffffffffffffffffffffffffffffffffff1673ffffffffffffffffffffffffffffffffffffffff168152602001908152602001600020819055507f30113ad733c78bfd7b2fd05fa6982d156dda72dd2739fdc5ffbd71ecfc3124d26001833360405161239d939291906135cf565b60405180910390a15050565b60008060006001806000803373ffffffffffffffffffffffffffffffffffffffff1673ffffffffffffffffffffffffffffffffffffffff1681526020019081526020016000205414612430576040517f08c379a0000000000000000000000000000000000000000000000000000000008152600401612427906134f4565b60405180910390fd5b846005600089815260200190815260200160002060008873ffffffffffffffffffffffffffffffffffffffff1673ffffffffffffffffffffffffffffffffffffffff1681526020019081526020016000205410156124c3576040517f08c379a00000000000000000000000000000000000000000000000000000000081526004016124ba90613514565b60405180910390fd5b6124f787600460008a815260200190815260200160002060050160009054906101000a900467ffffffffffffffff166105f6565b851015612539576040517f08c379a000000000000000000000000000000000000000000000000000000000815260040161253090613494565b60405180910390fd5b6004600088815260200190815260200160002060040154851115612592576040517f08c379a000000000000000000000000000000000000000000000000000000000815260040161258990613534565b60405180910390fd5b6125f585600560008a815260200190815260200160002060008973ffffffffffffffffffffffffffffffffffffffff1673ffffffffffffffffffffffffffffffffffffffff1681526020019081526020016000205461292090919063ffffffff16565b6005600089815260200190815260200160002060008873ffffffffffffffffffffffffffffffffffffffff1673ffffffffffffffffffffffffffffffffffffffff1681526020019081526020016000208190555060006126d8600460008a815260200190815260200160002060050160109054906101000a900467ffffffffffffffff1667ffffffffffffffff166126ca600460008c815260200190815260200160002060050160189054906101000a900467ffffffffffffffff1667ffffffffffffffff16896128f490919063ffffffff16565b61290a90919063ffffffff16565b905060006127366064612728600460008d815260200190815260200160002060060160109054906101000a900467ffffffffffffffff1667ffffffffffffffff16856128f490919063ffffffff16565b61290a90919063ffffffff16565b905060006127946064612786600460008e815260200190815260200160002060060160089054906101000a900467ffffffffffffffff1667ffffffffffffffff168b6128f490919063ffffffff16565b61290a90919063ffffffff16565b90506127bf88600460008d81526020019081526020016000206004015461292090919063ffffffff16565b600460008c8152602001908152602001600020600401819055508282829650965096505050505093509350939050565b6001806000803373ffffffffffffffffffffffffffffffffffffffff1673ffffffffffffffffffffffffffffffffffffffff1681526020019081526020016000205414612871576040517f08c379a0000000000000000000000000000000000000000000000000000000008152600401612868906134f4565b60405180910390fd5b826000808473ffffffffffffffffffffffffffffffffffffffff1673ffffffffffffffffffffffffffffffffffffffff168152602001908152602001600020819055507f30113ad733c78bfd7b2fd05fa6982d156dda72dd2739fdc5ffbd71ecfc3124d28383336040516128e7939291906135cf565b60405180910390a1505050565b600081836129029190613897565b905092915050565b6000818361291891906136f5565b905092915050565b6000818361292e91906138f1565b905092915050565b60008183612944919061369f565b905092915050565b604051806101a00160405280600073ffffffffffffffffffffffffffffffffffffffff168152602001600073ffffffffffffffffffffffffffffffffffffffff168152602001600073ffffffffffffffffffffffffffffffffffffffff168152602001600073ffffffffffffffffffffffffffffffffffffffff16815260200160008152602001600067ffffffffffffffff168152602001600067ffffffffffffffff168152602001600067ffffffffffffffff168152602001600067ffffffffffffffff168152602001600067ffffffffffffffff168152602001600067ffffffffffffffff168152602001600067ffffffffffffffff1681526020016000151581525090565b6000612a67612a6284613662565b61363d565b90508083825260208201905082856040860282011115612a8657600080fd5b60005b85811015612ab65781612a9c8882612c72565b845260208401935060408301925050600181019050612a89565b5050509392505050565b600081359050612acf81613df4565b92915050565b600082601f830112612ae657600080fd5b8135612af6848260208601612a54565b91505092915050565b600081359050612b0e81613e0b565b92915050565b600081359050612b2381613e22565b92915050565b600081359050612b3881613e39565b92915050565b60006101a08284031215612b5157600080fd5b612b5c6101a061363d565b90506000612b6c84828501612b29565b6000830152506020612b8084828501612b14565b6020830152506040612b9484828501612b14565b6040830152506060612ba884828501612ac0565b6060830152506080612bbc84828501612cd3565b60808301525060a0612bd084828501612ce8565b60a08301525060c0612be484828501612ce8565b60c08301525060e0612bf884828501612ce8565b60e083015250610100612c0d84828501612ce8565b61010083015250610120612c2384828501612ce8565b61012083015250610140612c3984828501612ce8565b61014083015250610160612c4f84828501612ce8565b61016083015250610180612c6584828501612aff565b6101808301525092915050565b600060408284031215612c8457600080fd5b612c8e604061363d565b90506000612c9e84828501612cbe565b6000830152506020612cb284828501612cbe565b60208301525092915050565b600081359050612ccd81613e50565b92915050565b600081359050612ce281613e67565b92915050565b600081359050612cf781613e7e565b92915050565b600081519050612d0c81613e95565b92915050565b600060208284031215612d2457600080fd5b6000612d3284828501612ac0565b91505092915050565b60008060408385031215612d4e57600080fd5b6000612d5c85828601612ac0565b9250506020612d6d85828601612ce8565b9150509250929050565b600060208284031215612d8957600080fd5b6000612d9784828501612cd3565b91505092915050565b60008060408385031215612db357600080fd5b6000612dc185828601612cd3565b9250506020612dd285828601612ac0565b9150509250929050565b6000806000806102008587031215612df357600080fd5b6000612e0187828801612cd3565b9450506020612e1287828801612ac0565b9350506040612e2387828801612b3e565b9250506101e085013567ffffffffffffffff811115612e4157600080fd5b612e4d87828801612ad5565b91505092959194509250565b600080600060608486031215612e6e57600080fd5b6000612e7c86828701612cd3565b9350506020612e8d86828701612ac0565b9250506040612e9e86828701612cd3565b9150509250925092565b600080600060608486031215612ebd57600080fd5b6000612ecb86828701612cd3565b9350506020612edc86828701612cbe565b9250506040612eed86828701612cd3565b9150509250925092565b60008060408385031215612f0a57600080fd5b6000612f1885828601612cd3565b9250506020612f2985828601612cd3565b9150509250929050565b600080600060608486031215612f4857600080fd5b6000612f5686828701612cd3565b9350506020612f6786828701612cd3565b9250506040612f7886828701612cd3565b9150509250925092565b60008060408385031215612f9557600080fd5b6000612fa385828601612cd3565b9250506020612fb485828601612ce8565b9150509250929050565b600060208284031215612fd057600080fd5b6000612fde84828501612cfd565b91505092915050565b612ff081613925565b82525050565b612fff81613925565b82525050565b61300e81613937565b82525050565b61301d81613937565b82525050565b61302c816139ce565b82525050565b61303b816139ce565b82525050565b61304a816139f2565b82525050565b61305981613a16565b82525050565b600061306c60348361368e565b915061307782613b4d565b604082019050919050565b600061308f60298361368e565b915061309a82613b9c565b604082019050919050565b60006130b260148361368e565b91506130bd82613beb565b602082019050919050565b60006130d5601a8361368e565b91506130e082613c14565b602082019050919050565b60006130f8601d8361368e565b915061310382613c3d565b602082019050919050565b600061311b60178361368e565b915061312682613c66565b602082019050919050565b600061313e60228361368e565b915061314982613c8f565b604082019050919050565b600061316160278361368e565b915061316c82613cde565b604082019050919050565b600061318460238361368e565b915061318f82613d2d565b604082019050919050565b60006131a760258361368e565b91506131b282613d7c565b604082019050919050565b60006131ca60188361368e565b91506131d582613dcb565b602082019050919050565b6101a0820160008201516131f76000850182613041565b50602082015161320a6020850182613023565b50604082015161321d6040850182613023565b5060608201516132306060850182612fe7565b50608082015161324360808501826132fa565b5060a082015161325660a0850182613318565b5060c082015161326960c0850182613318565b5060e082015161327c60e0850182613318565b50610100820151613291610100850182613318565b506101208201516132a6610120850182613318565b506101408201516132bb610140850182613318565b506101608201516132d0610160850182613318565b506101808201516132e5610180850182613005565b50505050565b6132f481613967565b82525050565b613303816139a3565b82525050565b613312816139a3565b82525050565b613321816139ad565b82525050565b600060208201905061333c6000830184612ff6565b92915050565b60006020820190506133576000830184613014565b92915050565b60006060820190506133726000830186613032565b61337f6020830185612ff6565b61338c6040830184613309565b949350505050565b60006040820190506133a96000830185613032565b6133b66020830184613309565b9392505050565b60006060820190506133d26000830186613050565b6133df6020830185612ff6565b6133ec6040830184612ff6565b949350505050565b6000602082019050818103600083015261340d8161305f565b9050919050565b6000602082019050818103600083015261342d81613082565b9050919050565b6000602082019050818103600083015261344d816130a5565b9050919050565b6000602082019050818103600083015261346d816130c8565b9050919050565b6000602082019050818103600083015261348d816130eb565b9050919050565b600060208201905081810360008301526134ad8161310e565b9050919050565b600060208201905081810360008301526134cd81613131565b9050919050565b600060208201905081810360008301526134ed81613154565b9050919050565b6000602082019050818103600083015261350d81613177565b9050919050565b6000602082019050818103600083015261352d8161319a565b9050919050565b6000602082019050818103600083015261354d816131bd565b9050919050565b60006101a08201905061356a60008301846131e0565b92915050565b600060208201905061358560008301846132eb565b92915050565b60006040820190506135a060008301856132eb565b6135ad6020830184613309565b9392505050565b60006020820190506135c96000830184613309565b92915050565b60006060820190506135e46000830186613309565b6135f16020830185612ff6565b6135fe6040830184612ff6565b949350505050565b600060608201905061361b6000830186613309565b6136286020830185613309565b6136356040830184613309565b949350505050565b6000613647613658565b90506136538282613a28565b919050565b6000604051905090565b600067ffffffffffffffff82111561367d5761367c613b00565b5b602082029050602081019050919050565b600082825260208201905092915050565b60006136aa826139a3565b91506136b5836139a3565b9250827fffffffffffffffffffffffffffffffffffffffffffffffffffffffffffffffff038211156136ea576136e9613aa2565b5b828201905092915050565b6000613700826139a3565b915061370b836139a3565b92508261371b5761371a613ad1565b5b828204905092915050565b6000808291508390505b60018511156137705780860481111561374c5761374b613aa2565b5b600185161561375b5780820291505b808102905061376985613b40565b9450613730565b94509492505050565b6000613784826139a3565b915061378f836139a3565b92506137bc7fffffffffffffffffffffffffffffffffffffffffffffffffffffffffffffffff84846137c4565b905092915050565b6000826137d45760019050613890565b816137e25760009050613890565b81600181146137f8576002811461380257613831565b6001915050613890565b60ff84111561381457613813613aa2565b5b8360020a91508482111561382b5761382a613aa2565b5b50613890565b5060208310610133831016604e8410600b84101617156138665782820a90508381111561386157613860613aa2565b5b613890565b6138738484846001613726565b9250905081840481111561388a57613889613aa2565b5b81810290505b9392505050565b60006138a2826139a3565b91506138ad836139a3565b9250817fffffffffffffffffffffffffffffffffffffffffffffffffffffffffffffffff04831182151516156138e6576138e5613aa2565b5b828202905092915050565b60006138fc826139a3565b9150613907836139a3565b92508282101561391a57613919613aa2565b5b828203905092915050565b600061393082613983565b9050919050565b60008115159050919050565b600061394e82613925565b9050919050565b600061396082613925565b9050919050565b60006fffffffffffffffffffffffffffffffff82169050919050565b600073ffffffffffffffffffffffffffffffffffffffff82169050919050565b6000819050919050565b600067ffffffffffffffff82169050919050565b600060ff82169050919050565b60006139d9826139e0565b9050919050565b60006139eb82613983565b9050919050565b60006139fd82613a04565b9050919050565b6000613a0f82613983565b9050919050565b6000613a21826139a3565b9050919050565b613a3182613b2f565b810181811067ffffffffffffffff82111715613a5057613a4f613b00565b5b80604052505050565b6000613a64826139a3565b91507fffffffffffffffffffffffffffffffffffffffffffffffffffffffffffffffff821415613a9757613a96613aa2565b5b600182019050919050565b7f4e487b7100000000000000000000000000000000000000000000000000000000600052601160045260246000fd5b7f4e487b7100000000000000000000000000000000000000000000000000000000600052601260045260246000fd5b7f4e487b7100000000000000000000000000000000000000000000000000000000600052604160045260246000fd5b6000601f19601f8301169050919050565b60008160011c9050919050565b7f53616c653a20566573742070657263656e746167652073686f756c642062652060008201527f6d6f6e6f746f6e696320696e6372656173696e67000000000000000000000000602082015250565b7f53616c653a2043616e6e6f74207769746864726177206d6f7265207468616e2060008201527f72656d61696e696e670000000000000000000000000000000000000000000000602082015250565b7f53616c65446174613a20696e76616c6964206964000000000000000000000000600082015250565b7f53616c653a20546f6b656e20616c7265616479206c6973746564000000000000600082015250565b7f53616c653a2063616c6c6572206973206e6f7420746865206f776e6572000000600082015250565b7f53616c653a20416d6f756e7420697320746f6f206c6f77000000000000000000600082015250565b7f53616c65446174613a2069642068617320616c7265616479206265656e20757360008201527f6564000000000000000000000000000000000000000000000000000000000000602082015250565b7f53616c653a20566573742070657263656e746167652073686f756c6420656e6460008201527f2061742031303000000000000000000000000000000000000000000000000000602082015250565b7f4c6576656c4163636573733a2063616c6c6572206e6f7420617574686f72697a60008201527f65642e0000000000000000000000000000000000000000000000000000000000602082015250565b7f53616c653a20416d6f756e742069662061626f766520617070726f766564206160008201527f6d6f756e74000000000000000000000000000000000000000000000000000000602082015250565b7f53616c653a20416d6f756e7420697320746f6f20686967680000000000000000600082015250565b613dfd81613925565b8114613e0857600080fd5b50565b613e1481613937565b8114613e1f57600080fd5b50565b613e2b81613943565b8114613e3657600080fd5b50565b613e4281613955565b8114613e4d57600080fd5b50565b613e5981613967565b8114613e6457600080fd5b50565b613e70816139a3565b8114613e7b57600080fd5b50565b613e87816139ad565b8114613e9257600080fd5b50565b613e9e816139c1565b8114613ea957600080fd5b5056fea2646970667358221220992619e4b229e3ac4dae1de04c93b2c2b387f5ff4b186296845bfdb101d652d264736f6c63430008030033",
  "linkReferences": {},
  "deployedLinkReferences": {}
}