{
  "_format": "hh-sol-artifact-1",
  "contractName": "Sale",
  "sourceName": "contracts/Sale.sol",
  "abi": [
    {
      "inputs": [
        {
          "components": [
            {
              "internalType": "contract SmartAgreement",
              "name": "saNFT",
              "type": "address"
            },
            {
              "internalType": "uint256",
              "name": "saleBeginTime",
              "type": "uint256"
            },
            {
              "internalType": "uint256",
              "name": "duration",
              "type": "uint256"
            },
            {
              "internalType": "uint256",
              "name": "minAmount",
              "type": "uint256"
            },
            {
              "internalType": "uint256",
              "name": "capAmount",
              "type": "uint256"
            },
            {
              "internalType": "uint256",
              "name": "remainingAmount",
              "type": "uint256"
            },
            {
              "internalType": "uint256",
              "name": "pricingToken",
              "type": "uint256"
            },
            {
              "internalType": "uint256",
              "name": "pricingPayment",
              "type": "uint256"
            },
            {
              "internalType": "contract IERC20",
              "name": "sellingToken",
              "type": "address"
            },
            {
              "internalType": "contract IERC20",
              "name": "paymentToken",
              "type": "address"
            },
            {
              "internalType": "address",
              "name": "owner",
              "type": "address"
            },
            {
              "internalType": "uint256",
              "name": "tokenListTimestamp",
              "type": "uint256"
            },
            {
              "internalType": "uint256",
              "name": "tokenFeePercentage",
              "type": "uint256"
            },
            {
              "internalType": "uint256",
              "name": "paymentFeePercentage",
              "type": "uint256"
            }
          ],
          "internalType": "struct Sale.Setup",
          "name": "setup",
          "type": "tuple"
        },
        {
          "components": [
            {
              "internalType": "uint256",
              "name": "timestamp",
              "type": "uint256"
            },
            {
              "internalType": "uint256",
              "name": "percentage",
              "type": "uint256"
            }
          ],
          "internalType": "struct Sale.VestingStep[]",
          "name": "schedule",
          "type": "tuple[]"
        }
      ],
      "stateMutability": "nonpayable",
      "type": "constructor"
    },
    {
      "inputs": [
        {
          "internalType": "address",
          "name": "investor",
          "type": "address"
        },
        {
          "internalType": "uint256",
          "name": "amount",
          "type": "uint256"
        }
      ],
      "name": "approveInvestor",
      "outputs": [],
      "stateMutability": "nonpayable",
      "type": "function"
    },
    {
      "inputs": [],
      "name": "currentBlockTimeStamp",
      "outputs": [
        {
          "internalType": "uint256",
          "name": "",
          "type": "uint256"
        }
      ],
      "stateMutability": "view",
      "type": "function"
    },
    {
      "inputs": [
        {
          "internalType": "uint256",
          "name": "vestedPercentage",
          "type": "uint256"
        },
        {
          "internalType": "uint256",
          "name": "lastVestedPercentage",
          "type": "uint256"
        },
        {
          "internalType": "uint256",
          "name": "lockedAmount",
          "type": "uint256"
        }
      ],
      "name": "getVestedAmount",
      "outputs": [
        {
          "internalType": "uint256",
          "name": "",
          "type": "uint256"
        }
      ],
      "stateMutability": "view",
      "type": "function"
    },
    {
      "inputs": [],
      "name": "getVestedPercentage",
      "outputs": [
        {
          "internalType": "uint256",
          "name": "",
          "type": "uint256"
        }
      ],
      "stateMutability": "view",
      "type": "function"
    },
    {
      "inputs": [
        {
          "internalType": "uint256",
          "name": "amount",
          "type": "uint256"
        }
      ],
      "name": "invest",
      "outputs": [],
      "stateMutability": "nonpayable",
      "type": "function"
    },
    {
      "inputs": [],
      "name": "isTokenListed",
      "outputs": [
        {
          "internalType": "bool",
          "name": "",
          "type": "bool"
        }
      ],
      "stateMutability": "view",
      "type": "function"
    },
    {
      "inputs": [],
      "name": "launch",
      "outputs": [],
      "stateMutability": "nonpayable",
      "type": "function"
    },
    {
      "inputs": [],
      "name": "triggerTokenListing",
      "outputs": [],
      "stateMutability": "nonpayable",
      "type": "function"
    },
    {
      "inputs": [
        {
          "internalType": "address",
          "name": "sa_owner",
          "type": "address"
        },
        {
          "internalType": "uint256",
          "name": "vestedAmount",
          "type": "uint256"
        }
      ],
      "name": "vest",
      "outputs": [],
      "stateMutability": "nonpayable",
      "type": "function"
    },
    {
      "inputs": [
        {
          "internalType": "uint256",
          "name": "amount",
          "type": "uint256"
        }
      ],
      "name": "withdrawPayment",
      "outputs": [],
      "stateMutability": "nonpayable",
      "type": "function"
    },
    {
      "inputs": [
        {
          "internalType": "uint256",
          "name": "amount",
          "type": "uint256"
        }
      ],
      "name": "withdrawToken",
      "outputs": [],
      "stateMutability": "nonpayable",
      "type": "function"
    }
  ],
  "bytecode": "0x60806040523480156200001157600080fd5b506040516200282f3803806200282f8339818101604052810190620000379190620006ef565b81600160008201518160000160006101000a81548173ffffffffffffffffffffffffffffffffffffffff021916908373ffffffffffffffffffffffffffffffffffffffff1602179055506020820151816001015560408201518160020155606082015181600301556080820151816004015560a0820151816005015560c0820151816006015560e082015181600701556101008201518160080160006101000a81548173ffffffffffffffffffffffffffffffffffffffff021916908373ffffffffffffffffffffffffffffffffffffffff1602179055506101208201518160090160006101000a81548173ffffffffffffffffffffffffffffffffffffffff021916908373ffffffffffffffffffffffffffffffffffffffff16021790555061014082015181600a0160006101000a81548173ffffffffffffffffffffffffffffffffffffffff021916908373ffffffffffffffffffffffffffffffffffffffff16021790555061016082015181600b015561018082015181600c01556101a082015181600d015590505060005b815181101562000351576000811115620002b85781600182620001ea919062000846565b8151811062000222577f4e487b7100000000000000000000000000000000000000000000000000000000600052603260045260246000fd5b60200260200101516020015182828151811062000268577f4e487b7100000000000000000000000000000000000000000000000000000000600052603260045260246000fd5b60200260200101516020015111620002b7576040517f08c379a0000000000000000000000000000000000000000000000000000000008152600401620002ae9062000799565b60405180910390fd5b5b6000828281518110620002f4577f4e487b7100000000000000000000000000000000000000000000000000000000600052603260045260246000fd5b6020026020010151908060018154018082558091505060019003906000526020600020906002020160009091909190915060008201518160000155602082015181600101555050808062000348906200091d565b915050620001c6565b506064816001835162000365919062000846565b815181106200039d577f4e487b7100000000000000000000000000000000000000000000000000000000600052603260045260246000fd5b60200260200101516020015114620003ec576040517f08c379a0000000000000000000000000000000000000000000000000000000008152600401620003e390620007bb565b60405180910390fd5b33600f60006101000a81548173ffffffffffffffffffffffffffffffffffffffff021916908373ffffffffffffffffffffffffffffffffffffffff160217905550505062000ae0565b60006200044c620004468462000806565b620007dd565b905080838252602082019050828560408602820111156200046c57600080fd5b60005b85811015620004a0578162000485888262000685565b8452602084019350604083019250506001810190506200046f565b5050509392505050565b600081519050620004bb8162000a78565b92915050565b600082601f830112620004d357600080fd5b8151620004e584826020860162000435565b91505092915050565b600081519050620004ff8162000a92565b92915050565b600081519050620005168162000aac565b92915050565b60006101c082840312156200053057600080fd5b6200053d6101c0620007dd565b905060006200054f8482850162000505565b60008301525060206200056584828501620006d8565b60208301525060406200057b84828501620006d8565b60408301525060606200059184828501620006d8565b6060830152506080620005a784828501620006d8565b60808301525060a0620005bd84828501620006d8565b60a08301525060c0620005d384828501620006d8565b60c08301525060e0620005e984828501620006d8565b60e0830152506101006200060084828501620004ee565b610100830152506101206200061884828501620004ee565b610120830152506101406200063084828501620004aa565b610140830152506101606200064884828501620006d8565b610160830152506101806200066084828501620006d8565b610180830152506101a06200067884828501620006d8565b6101a08301525092915050565b6000604082840312156200069857600080fd5b620006a46040620007dd565b90506000620006b684828501620006d8565b6000830152506020620006cc84828501620006d8565b60208301525092915050565b600081519050620006e98162000ac6565b92915050565b6000806101e083850312156200070457600080fd5b600062000714858286016200051c565b9250506101c083015167ffffffffffffffff8111156200073357600080fd5b6200074185828601620004c1565b9150509250929050565b60006200075a60348362000835565b91506200076782620009da565b604082019050919050565b60006200078160278362000835565b91506200078e8262000a29565b604082019050919050565b60006020820190508181036000830152620007b4816200074b565b9050919050565b60006020820190508181036000830152620007d68162000772565b9050919050565b6000620007e9620007fc565b9050620007f78282620008e7565b919050565b6000604051905090565b600067ffffffffffffffff8211156200082457620008236200099a565b5b602082029050602081019050919050565b600082825260208201905092915050565b60006200085382620008dd565b91506200086083620008dd565b9250828210156200087657620008756200096b565b5b828203905092915050565b60006200088e82620008bd565b9050919050565b6000620008a28262000881565b9050919050565b6000620008b68262000881565b9050919050565b600073ffffffffffffffffffffffffffffffffffffffff82169050919050565b6000819050919050565b620008f282620009c9565b810181811067ffffffffffffffff821117156200091457620009136200099a565b5b80604052505050565b60006200092a82620008dd565b91507fffffffffffffffffffffffffffffffffffffffffffffffffffffffffffffffff82141562000960576200095f6200096b565b5b600182019050919050565b7f4e487b7100000000000000000000000000000000000000000000000000000000600052601160045260246000fd5b7f4e487b7100000000000000000000000000000000000000000000000000000000600052604160045260246000fd5b6000601f19601f8301169050919050565b7f53616c653a20566573742070657263656e746167652073686f756c642062652060008201527f6d6f6e6f746f6e696320696e6372656173696e67000000000000000000000000602082015250565b7f53616c653a20566573742070657263656e746167652073686f756c6420656e6460008201527f2061742031303000000000000000000000000000000000000000000000000000602082015250565b62000a838162000881565b811462000a8f57600080fd5b50565b62000a9d8162000895565b811462000aa957600080fd5b50565b62000ab781620008a9565b811462000ac357600080fd5b50565b62000ad181620008dd565b811462000add57600080fd5b50565b611d3f8062000af06000396000f3fe608060405234801561001057600080fd5b50600436106100a95760003560e01c80634935f64f116100715780634935f64f1461013e57806350baa6221461015c5780636ea409ba146101785780637a494ca214610196578063dbd3cd62146101b2578063ed4b61c2146101ce576100a9565b806301339c21146100ae5780632797c6c8146100b857806327ba8bfb146100d45780632afcf48014610104578063461f3cc514610120575b600080fd5b6100b66101d8565b005b6100d260048036038101906100cd91906113af565b6103b9565b005b6100ee60048036038101906100e9919061143d565b610503565b6040516100fb919061183e565b60405180910390f35b61011e60048036038101906101199190611414565b610568565b005b610128610bb9565b604051610135919061183e565b60405180910390f35b610146610d43565b60405161015391906116d3565b60405180910390f35b61017660048036038101906101719190611414565b610d53565b005b610180610f40565b60405161018d919061183e565b60405180910390f35b6101b060048036038101906101ab91906113af565b610f48565b005b6101cc60048036038101906101c79190611414565b611023565b005b6101d661116c565b005b3373ffffffffffffffffffffffffffffffffffffffff166001600a0160009054906101000a900473ffffffffffffffffffffffffffffffffffffffff1673ffffffffffffffffffffffffffffffffffffffff161461026b576040517f08c379a0000000000000000000000000000000000000000000000000000000008152600401610262906117be565b60405180910390fd5b600061029d606461028f6001600c015460016004015461125390919063ffffffff16565b61126990919063ffffffff16565b9050600160080160009054906101000a900473ffffffffffffffffffffffffffffffffffffffff1673ffffffffffffffffffffffffffffffffffffffff166323b872dd6001600a0160009054906101000a900473ffffffffffffffffffffffffffffffffffffffff163061031f8560016004015461127f90919063ffffffff16565b6040518463ffffffff1660e01b815260040161033d9392919061163c565b602060405180830381600087803b15801561035757600080fd5b505af115801561036b573d6000803e3d6000fd5b505050506040513d601f19601f8201168201806040525081019061038f91906113eb565b506001600401546001600501819055506000600180015414156103b6574260018001819055505b50565b600160000160009054906101000a900473ffffffffffffffffffffffffffffffffffffffff1673ffffffffffffffffffffffffffffffffffffffff163373ffffffffffffffffffffffffffffffffffffffff161461044c576040517f08c379a00000000000000000000000000000000000000000000000000000000081526004016104439061175e565b60405180910390fd5b600160080160009054906101000a900473ffffffffffffffffffffffffffffffffffffffff1673ffffffffffffffffffffffffffffffffffffffff1663a9059cbb83836040518363ffffffff1660e01b81526004016104ac9291906116aa565b602060405180830381600087803b1580156104c657600080fd5b505af11580156104da573d6000803e3d6000fd5b505050506040513d601f19601f820116820180604052508101906104fe91906113eb565b505050565b60008060648514156105175782905061055d565b61055a8460646105279190611956565b61054c61053d878961129590919063ffffffff16565b8661125390919063ffffffff16565b61126990919063ffffffff16565b90505b809150509392505050565b60018001544210156105af576040517f08c379a00000000000000000000000000000000000000000000000000000000081526004016105a69061181e565b60405180910390fd5b60016002015460018001546105c49190611875565b421115610606576040517f08c379a00000000000000000000000000000000000000000000000000000000081526004016105fd9061171e565b60405180910390fd5b60016003015481101561064e576040517f08c379a00000000000000000000000000000000000000000000000000000000081526004016106459061179e565b60405180910390fd5b600160050154811115610696576040517f08c379a000000000000000000000000000000000000000000000000000000000815260040161068d906117fe565b60405180910390fd5b80601060003373ffffffffffffffffffffffffffffffffffffffff1673ffffffffffffffffffffffffffffffffffffffff168152602001908152602001600020541015610718576040517f08c379a000000000000000000000000000000000000000000000000000000000815260040161070f906117de565b60405180910390fd5b600061074960016006015461073b6001600701548561125390919063ffffffff16565b61126990919063ffffffff16565b90506000610778606461076a6001600d01548561125390919063ffffffff16565b61126990919063ffffffff16565b905060006107a760646107996001600c01548761125390919063ffffffff16565b61126990919063ffffffff16565b9050600160090160009054906101000a900473ffffffffffffffffffffffffffffffffffffffff1673ffffffffffffffffffffffffffffffffffffffff166323b872dd33600f60009054906101000a900473ffffffffffffffffffffffffffffffffffffffff16856040518463ffffffff1660e01b815260040161082d9392919061163c565b602060405180830381600087803b15801561084757600080fd5b505af115801561085b573d6000803e3d6000fd5b505050506040513d601f19601f8201168201806040525081019061087f91906113eb565b50600160090160009054906101000a900473ffffffffffffffffffffffffffffffffffffffff1673ffffffffffffffffffffffffffffffffffffffff166323b872dd3330866040518463ffffffff1660e01b81526004016108e29392919061163c565b602060405180830381600087803b1580156108fc57600080fd5b505af1158015610910573d6000803e3d6000fd5b505050506040513d601f19601f8201168201806040525081019061093491906113eb565b50600160000160009054906101000a900473ffffffffffffffffffffffffffffffffffffffff1673ffffffffffffffffffffffffffffffffffffffff1663c6c3bbe63330876040518463ffffffff1660e01b815260040161099793929190611673565b600060405180830381600087803b1580156109b157600080fd5b505af11580156109c5573d6000803e3d6000fd5b50505050600160000160009054906101000a900473ffffffffffffffffffffffffffffffffffffffff1673ffffffffffffffffffffffffffffffffffffffff1663c6c3bbe6600f60009054906101000a900473ffffffffffffffffffffffffffffffffffffffff1630846040518463ffffffff1660e01b8152600401610a4d93929190611673565b600060405180830381600087803b158015610a6757600080fd5b505af1158015610a7b573d6000803e3d6000fd5b50505050610a978460016005015461129590919063ffffffff16565b600160050181905550610af284601060003373ffffffffffffffffffffffffffffffffffffffff1673ffffffffffffffffffffffffffffffffffffffff1681526020019081526020016000205461129590919063ffffffff16565b601060003373ffffffffffffffffffffffffffffffffffffffff1673ffffffffffffffffffffffffffffffffffffffff16815260200190815260200160002081905550610b746040518060400160405280601681526020017f53616c653a20506179696e672062757965722066656500000000000000000000815250836112ab565b610bb36040518060400160405280601781526020017f53616c653a20506179696e672073656c6c657220666565000000000000000000815250826112ab565b50505050565b6000806001600b01541415610bd15760009050610d40565b60008080600090505b8280549050811015610cfa576000610c4a848381548110610c24577f4e487b7100000000000000000000000000000000000000000000000000000000600052603260045260246000fd5b9060005260206000209060020201600001546001600b015461127f90919063ffffffff16565b9050610c8b6040518060400160405280600a81526020017f76657374696e6720747300000000000000000000000000000000000000000000815250826112ab565b42811115610c995750610cfa565b838281548110610cd2577f4e487b7100000000000000000000000000000000000000000000000000000000600052603260045260246000fd5b9060005260206000209060020201600101549250508080610cf290611a29565b915050610bda565b50610d3a6040518060400160405280601181526020017f7665737465642070657263656e74616765000000000000000000000000000000815250826112ab565b80925050505b90565b6000806001600b01541415905090565b3373ffffffffffffffffffffffffffffffffffffffff166001600a0160009054906101000a900473ffffffffffffffffffffffffffffffffffffffff1673ffffffffffffffffffffffffffffffffffffffff1614610de6576040517f08c379a0000000000000000000000000000000000000000000000000000000008152600401610ddd906117be565b60405180910390fd5b600160050154811115610e2e576040517f08c379a0000000000000000000000000000000000000000000000000000000008152600401610e259061173e565b60405180910390fd5b6000610e606064610e526001600c015460016004015461125390919063ffffffff16565b61126990919063ffffffff16565b9050600160080160009054906101000a900473ffffffffffffffffffffffffffffffffffffffff1673ffffffffffffffffffffffffffffffffffffffff1663a9059cbb338385610eb09190611875565b6040518363ffffffff1660e01b8152600401610ecd9291906116aa565b602060405180830381600087803b158015610ee757600080fd5b505af1158015610efb573d6000803e3d6000fd5b505050506040513d601f19601f82011682018060405250810190610f1f91906113eb565b508160016005016000828254610f359190611956565b925050819055505050565b600042905090565b3373ffffffffffffffffffffffffffffffffffffffff166001600a0160009054906101000a900473ffffffffffffffffffffffffffffffffffffffff1673ffffffffffffffffffffffffffffffffffffffff1614610fdb576040517f08c379a0000000000000000000000000000000000000000000000000000000008152600401610fd2906117be565b60405180910390fd5b80601060008473ffffffffffffffffffffffffffffffffffffffff1673ffffffffffffffffffffffffffffffffffffffff168152602001908152602001600020819055505050565b3373ffffffffffffffffffffffffffffffffffffffff166001600a0160009054906101000a900473ffffffffffffffffffffffffffffffffffffffff1673ffffffffffffffffffffffffffffffffffffffff16146110b6576040517f08c379a00000000000000000000000000000000000000000000000000000000081526004016110ad906117be565b60405180910390fd5b600160090160009054906101000a900473ffffffffffffffffffffffffffffffffffffffff1673ffffffffffffffffffffffffffffffffffffffff1663a9059cbb33836040518363ffffffff1660e01b81526004016111169291906116aa565b602060405180830381600087803b15801561113057600080fd5b505af1158015611144573d6000803e3d6000fd5b505050506040513d601f19601f8201168201806040525081019061116891906113eb565b5050565b3373ffffffffffffffffffffffffffffffffffffffff166001600a0160009054906101000a900473ffffffffffffffffffffffffffffffffffffffff1673ffffffffffffffffffffffffffffffffffffffff16146111ff576040517f08c379a00000000000000000000000000000000000000000000000000000000081526004016111f6906117be565b60405180910390fd5b60006001600b015414611247576040517f08c379a000000000000000000000000000000000000000000000000000000000815260040161123e9061177e565b60405180910390fd5b426001600b0181905550565b6000818361126191906118fc565b905092915050565b6000818361127791906118cb565b905092915050565b6000818361128d9190611875565b905092915050565b600081836112a39190611956565b905092915050565b61134382826040516024016112c19291906116ee565b6040516020818303038152906040527f9710a9d0000000000000000000000000000000000000000000000000000000007bffffffffffffffffffffffffffffffffffffffffffffffffffffffff19166020820180517bffffffffffffffffffffffffffffffffffffffffffffffffffffffff8381831617835250505050611347565b5050565b60008151905060006a636f6e736f6c652e6c6f679050602083016000808483855afa5050505050565b60008135905061137f81611cc4565b92915050565b60008151905061139481611cdb565b92915050565b6000813590506113a981611cf2565b92915050565b600080604083850312156113c257600080fd5b60006113d085828601611370565b92505060206113e18582860161139a565b9150509250929050565b6000602082840312156113fd57600080fd5b600061140b84828501611385565b91505092915050565b60006020828403121561142657600080fd5b60006114348482850161139a565b91505092915050565b60008060006060848603121561145257600080fd5b60006114608682870161139a565b93505060206114718682870161139a565b92505060406114828682870161139a565b9150509250925092565b6114958161198a565b82525050565b6114a48161199c565b82525050565b6114b3816119d2565b82525050565b60006114c482611859565b6114ce8185611864565b93506114de8185602086016119f6565b6114e781611ad0565b840191505092915050565b60006114ff601383611864565b915061150a82611ae1565b602082019050919050565b6000611522602983611864565b915061152d82611b0a565b604082019050919050565b6000611545602783611864565b915061155082611b59565b604082019050919050565b6000611568601a83611864565b915061157382611ba8565b602082019050919050565b600061158b601783611864565b915061159682611bd1565b602082019050919050565b60006115ae601e83611864565b91506115b982611bfa565b602082019050919050565b60006115d1602583611864565b91506115dc82611c23565b604082019050919050565b60006115f4601883611864565b91506115ff82611c72565b602082019050919050565b6000611617601583611864565b915061162282611c9b565b602082019050919050565b611636816119c8565b82525050565b6000606082019050611651600083018661148c565b61165e602083018561148c565b61166b604083018461162d565b949350505050565b6000606082019050611688600083018661148c565b61169560208301856114aa565b6116a2604083018461162d565b949350505050565b60006040820190506116bf600083018561148c565b6116cc602083018461162d565b9392505050565b60006020820190506116e8600083018461149b565b92915050565b6000604082019050818103600083015261170881856114b9565b9050611717602083018461162d565b9392505050565b60006020820190508181036000830152611737816114f2565b9050919050565b6000602082019050818103600083015261175781611515565b9050919050565b6000602082019050818103600083015261177781611538565b9050919050565b600060208201905081810360008301526117978161155b565b9050919050565b600060208201905081810360008301526117b78161157e565b9050919050565b600060208201905081810360008301526117d7816115a1565b9050919050565b600060208201905081810360008301526117f7816115c4565b9050919050565b60006020820190508181036000830152611817816115e7565b9050919050565b600060208201905081810360008301526118378161160a565b9050919050565b6000602082019050611853600083018461162d565b92915050565b600081519050919050565b600082825260208201905092915050565b6000611880826119c8565b915061188b836119c8565b9250827fffffffffffffffffffffffffffffffffffffffffffffffffffffffffffffffff038211156118c0576118bf611a72565b5b828201905092915050565b60006118d6826119c8565b91506118e1836119c8565b9250826118f1576118f0611aa1565b5b828204905092915050565b6000611907826119c8565b9150611912836119c8565b9250817fffffffffffffffffffffffffffffffffffffffffffffffffffffffffffffffff048311821515161561194b5761194a611a72565b5b828202905092915050565b6000611961826119c8565b915061196c836119c8565b92508282101561197f5761197e611a72565b5b828203905092915050565b6000611995826119a8565b9050919050565b60008115159050919050565b600073ffffffffffffffffffffffffffffffffffffffff82169050919050565b6000819050919050565b60006119dd826119e4565b9050919050565b60006119ef826119a8565b9050919050565b60005b83811015611a145780820151818401526020810190506119f9565b83811115611a23576000848401525b50505050565b6000611a34826119c8565b91507fffffffffffffffffffffffffffffffffffffffffffffffffffffffffffffffff821415611a6757611a66611a72565b5b600182019050919050565b7f4e487b7100000000000000000000000000000000000000000000000000000000600052601160045260246000fd5b7f4e487b7100000000000000000000000000000000000000000000000000000000600052601260045260246000fd5b6000601f19601f8301169050919050565b7f53616c653a20456e64656420616c726561647900000000000000000000000000600082015250565b7f53616c653a2043616e6e6f74207769746864726177206d6f7265207468616e2060008201527f72656d61696e696e670000000000000000000000000000000000000000000000602082015250565b7f53616c653a206f6e6c7920536d61727441677265656d656e742063616e20636160008201527f6c6c207665737400000000000000000000000000000000000000000000000000602082015250565b7f53616c653a20546f6b656e20616c7265616479206c6973746564000000000000600082015250565b7f53616c653a20416d6f756e7420697320746f6f206c6f77000000000000000000600082015250565b7f53616c653a2043616c6c6572206973206e6f742073616c65206f776e65720000600082015250565b7f53616c653a20416d6f756e742069662061626f766520617070726f766564206160008201527f6d6f756e74000000000000000000000000000000000000000000000000000000602082015250565b7f53616c653a20416d6f756e7420697320746f6f20686967680000000000000000600082015250565b7f53616c653a204e6f742073746172746564207965740000000000000000000000600082015250565b611ccd8161198a565b8114611cd857600080fd5b50565b611ce48161199c565b8114611cef57600080fd5b50565b611cfb816119c8565b8114611d0657600080fd5b5056fea264697066735822122074fed1b4ccb5218ae437ce1963594489832ca02a4e7fe7337cc8997b2ca6b9d264736f6c63430008030033",
  "linkReferences": {},
  "deployedLinkReferences": {}
}