{
  "_format": "hh-sol-artifact-1",
  "contractName": "SATokenExtras",
  "sourceName": "contracts/nft/SATokenExtras.sol",
  "abi": [
    {
      "inputs": [
        {
          "internalType": "address",
          "name": "profileAddress",
          "type": "address"
        }
      ],
      "stateMutability": "nonpayable",
      "type": "constructor"
    },
    {
      "anonymous": false,
      "inputs": [
        {
          "indexed": false,
          "internalType": "uint256",
          "name": "level",
          "type": "uint256"
        },
        {
          "indexed": false,
          "internalType": "address",
          "name": "account",
          "type": "address"
        },
        {
          "indexed": false,
          "internalType": "address",
          "name": "setter",
          "type": "address"
        }
      ],
      "name": "LevelSet",
      "type": "event"
    },
    {
      "inputs": [],
      "name": "MANAGER_LEVEL",
      "outputs": [
        {
          "internalType": "uint256",
          "name": "",
          "type": "uint256"
        }
      ],
      "stateMutability": "view",
      "type": "function"
    },
    {
      "inputs": [],
      "name": "OWNER_LEVEL",
      "outputs": [
        {
          "internalType": "uint256",
          "name": "",
          "type": "uint256"
        }
      ],
      "stateMutability": "view",
      "type": "function"
    },
    {
      "inputs": [
        {
          "internalType": "address",
          "name": "from",
          "type": "address"
        },
        {
          "internalType": "address",
          "name": "to",
          "type": "address"
        },
        {
          "internalType": "uint256",
          "name": "tokenId",
          "type": "uint256"
        }
      ],
      "name": "beforeTokenTransfer",
      "outputs": [],
      "stateMutability": "view",
      "type": "function"
    },
    {
      "inputs": [
        {
          "internalType": "uint256",
          "name": "level",
          "type": "uint256"
        },
        {
          "internalType": "address",
          "name": "addr",
          "type": "address"
        }
      ],
      "name": "grantLevel",
      "outputs": [],
      "stateMutability": "nonpayable",
      "type": "function"
    },
    {
      "inputs": [
        {
          "internalType": "address",
          "name": "account",
          "type": "address"
        }
      ],
      "name": "isContract",
      "outputs": [
        {
          "internalType": "bool",
          "name": "",
          "type": "bool"
        }
      ],
      "stateMutability": "view",
      "type": "function"
    },
    {
      "inputs": [
        {
          "internalType": "address",
          "name": "",
          "type": "address"
        }
      ],
      "name": "levels",
      "outputs": [
        {
          "internalType": "uint256",
          "name": "",
          "type": "uint256"
        }
      ],
      "stateMutability": "view",
      "type": "function"
    },
    {
      "inputs": [
        {
          "internalType": "uint256[]",
          "name": "tokenIds",
          "type": "uint256[]"
        }
      ],
      "name": "merge",
      "outputs": [],
      "stateMutability": "nonpayable",
      "type": "function"
    },
    {
      "inputs": [],
      "name": "profile",
      "outputs": [
        {
          "internalType": "contract IProfile",
          "name": "",
          "type": "address"
        }
      ],
      "stateMutability": "view",
      "type": "function"
    },
    {
      "inputs": [
        {
          "internalType": "address",
          "name": "addr",
          "type": "address"
        }
      ],
      "name": "revokeLevel",
      "outputs": [],
      "stateMutability": "nonpayable",
      "type": "function"
    },
    {
      "inputs": [
        {
          "internalType": "address",
          "name": "tokenAddress",
          "type": "address"
        }
      ],
      "name": "setToken",
      "outputs": [],
      "stateMutability": "nonpayable",
      "type": "function"
    },
    {
      "inputs": [
        {
          "internalType": "uint256",
          "name": "tokenId",
          "type": "uint256"
        },
        {
          "internalType": "uint256[]",
          "name": "keptAmounts",
          "type": "uint256[]"
        }
      ],
      "name": "split",
      "outputs": [],
      "stateMutability": "nonpayable",
      "type": "function"
    },
    {
      "inputs": [
        {
          "internalType": "uint256",
          "name": "tokenId",
          "type": "uint256"
        }
      ],
      "name": "vest",
      "outputs": [
        {
          "internalType": "bool",
          "name": "",
          "type": "bool"
        }
      ],
      "stateMutability": "nonpayable",
      "type": "function"
    }
  ],
  "bytecode": "0x60806040523480156200001157600080fd5b5060405162003b6b38038062003b6b833981810160405281019062000037919062000119565b60016000803373ffffffffffffffffffffffffffffffffffffffff1673ffffffffffffffffffffffffffffffffffffffff168152602001908152602001600020819055507f30113ad733c78bfd7b2fd05fa6982d156dda72dd2739fdc5ffbd71ecfc3124d26001336000604051620000b29392919062000167565b60405180910390a180600360006101000a81548173ffffffffffffffffffffffffffffffffffffffff021916908373ffffffffffffffffffffffffffffffffffffffff16021790555050620001fc565b6000815190506200011381620001e2565b92915050565b6000602082840312156200012c57600080fd5b60006200013c8482850162000102565b91505092915050565b6200015081620001a4565b82525050565b6200016181620001d8565b82525050565b60006060820190506200017e600083018662000156565b6200018d602083018562000145565b6200019c604083018462000145565b949350505050565b6000620001b182620001b8565b9050919050565b600073ffffffffffffffffffffffffffffffffffffffff82169050919050565b6000819050919050565b620001ed81620001a4565b8114620001f957600080fd5b50565b61395f806200020c6000396000f3fe608060405234801561001057600080fd5b50600436106100b45760003560e01c80636a760b80116100715780636a760b801461018d5780637cbab1c7146101bd5780638a553da2146101d9578063ab60636c146101f5578063de62d84214610213578063f25ec2131461022f576100b4565b8063144fa6d7146100b957806316279055146100d55780631ce70581146101055780632edc555f1461012357806347082db31461014157806369c6724714610171575b600080fd5b6100d360048036038101906100ce9190612c78565b61024b565b005b6100ef60048036038101906100ea9190612c78565b610365565b6040516100fc91906131ae565b60405180910390f35b61010d610378565b60405161011a919061331b565b60405180910390f35b61012b61037d565b604051610138919061331b565b60405180910390f35b61015b60048036038101906101569190612c78565b610382565b604051610168919061331b565b60405180910390f35b61018b60048036038101906101869190612e8e565b61039a565b005b6101a760048036038101906101a29190612e00565b61104c565b6040516101b491906131ae565b60405180910390f35b6101d760048036038101906101d29190612cca565b6116c6565b005b6101f360048036038101906101ee9190612c78565b6119e4565b005b6101fd611ae8565b60405161020a91906131c9565b60405180910390f35b61022d60048036038101906102289190612d19565b611b0e565b005b61024960048036038101906102449190612e52565b61276e565b005b6001806000803373ffffffffffffffffffffffffffffffffffffffff1673ffffffffffffffffffffffffffffffffffffffff16815260200190815260200160002054146102cd576040517f08c379a00000000000000000000000000000000000000000000000000000000081526004016102c4906132fb565b60405180910390fd5b6102d682610365565b610315576040517f08c379a000000000000000000000000000000000000000000000000000000000815260040161030c9061325b565b60405180910390fd5b81600160006101000a81548173ffffffffffffffffffffffffffffffffffffffff021916908373ffffffffffffffffffffffffffffffffffffffff16021790555061036160018361276e565b5050565b600080823b905060008111915050919050565b600181565b600181565b60006020528060005260406000206000915090505481565b6001806000803373ffffffffffffffffffffffffffffffffffffffff1673ffffffffffffffffffffffffffffffffffffffff168152602001908152602001600020541461041c576040517f08c379a0000000000000000000000000000000000000000000000000000000008152600401610413906132fb565b60405180910390fd5b6000600160009054906101000a900473ffffffffffffffffffffffffffffffffffffffff1673ffffffffffffffffffffffffffffffffffffffff16632d0821b7856040518263ffffffff1660e01b8152600401610479919061331b565b60006040518083038186803b15801561049157600080fd5b505afa1580156104a5573d6000803e3d6000fd5b505050506040513d6000823e3d601f19601f820116820180604052508101906104ce9190612d83565b9050600081600001519050816000015151845114610521576040517f08c379a00000000000000000000000000000000000000000000000000000000081526004016105189061329b565b60405180910390fd5b600080600160009054906101000a900473ffffffffffffffffffffffffffffffffffffffff1673ffffffffffffffffffffffffffffffffffffffff166375794a3c6040518163ffffffff1660e01b815260040160206040518083038186803b15801561058c57600080fd5b505afa1580156105a0573d6000803e3d6000fd5b505050506040513d601f19601f820116820180604052508101906105c49190612e29565b9050600080600090505b8751811015610fb457878181518110610610577f4e487b7100000000000000000000000000000000000000000000000000000000600052603260045260246000fd5b6020026020010151858281518110610651577f4e487b7100000000000000000000000000000000000000000000000000000000600052603260045260246000fd5b602002602001015160200151101561069e576040517f08c379a0000000000000000000000000000000000000000000000000000000008152600401610695906132db565b60405180910390fd5b8482815181106106d7577f4e487b7100000000000000000000000000000000000000000000000000000000600052603260045260246000fd5b60200260200101516020015188828151811061071c577f4e487b7100000000000000000000000000000000000000000000000000000000600052603260045260246000fd5b6020026020010151141561073d578180610735906135d2565b925050610fa1565b83610bab57600160009054906101000a900473ffffffffffffffffffffffffffffffffffffffff1673ffffffffffffffffffffffffffffffffffffffff1663f4c959ab600160009054906101000a900473ffffffffffffffffffffffffffffffffffffffff1673ffffffffffffffffffffffffffffffffffffffff16636352211e8c6040518263ffffffff1660e01b81526004016107db919061331b565b60206040518083038186803b1580156107f357600080fd5b505afa158015610807573d6000803e3d6000fd5b505050506040513d601f19601f8201168201806040525081019061082b9190612ca1565b878481518110610864577f4e487b7100000000000000000000000000000000000000000000000000000000600052603260045260246000fd5b6020026020010151600001516109078c86815181106108ac577f4e487b7100000000000000000000000000000000000000000000000000000000600052603260045260246000fd5b60200260200101518a87815181106108ed577f4e487b7100000000000000000000000000000000000000000000000000000000600052603260045260246000fd5b60200260200101516020015161289990919063ffffffff16565b898681518110610940577f4e487b7100000000000000000000000000000000000000000000000000000000600052603260045260246000fd5b6020026020010151604001516040518563ffffffff1660e01b815260040161096b9493929190613140565b600060405180830381600087803b15801561098557600080fd5b505af1158015610999573d6000803e3d6000fd5b50505050600160009054906101000a900473ffffffffffffffffffffffffffffffffffffffff1673ffffffffffffffffffffffffffffffffffffffff1663f4c959ab600160009054906101000a900473ffffffffffffffffffffffffffffffffffffffff1673ffffffffffffffffffffffffffffffffffffffff16636352211e8c6040518263ffffffff1660e01b8152600401610a36919061331b565b60206040518083038186803b158015610a4e57600080fd5b505afa158015610a62573d6000803e3d6000fd5b505050506040513d601f19601f82011682018060405250810190610a869190612ca1565b878481518110610abf577f4e487b7100000000000000000000000000000000000000000000000000000000600052603260045260246000fd5b6020026020010151600001518b8581518110610b04577f4e487b7100000000000000000000000000000000000000000000000000000000600052603260045260246000fd5b6020026020010151898681518110610b45577f4e487b7100000000000000000000000000000000000000000000000000000000600052603260045260246000fd5b6020026020010151604001516040518563ffffffff1660e01b8152600401610b709493929190613140565b600060405180830381600087803b158015610b8a57600080fd5b505af1158015610b9e573d6000803e3d6000fd5b5050505060019350610fa0565b60006040518060600160405280878481518110610bf1577f4e487b7100000000000000000000000000000000000000000000000000000000600052603260045260246000fd5b60200260200101516000015173ffffffffffffffffffffffffffffffffffffffff168152602001610caf8b8581518110610c54577f4e487b7100000000000000000000000000000000000000000000000000000000600052603260045260246000fd5b6020026020010151898681518110610c95577f4e487b7100000000000000000000000000000000000000000000000000000000600052603260045260246000fd5b60200260200101516020015161289990919063ffffffff16565b8152602001878481518110610ced577f4e487b7100000000000000000000000000000000000000000000000000000000600052603260045260246000fd5b6020026020010151604001516fffffffffffffffffffffffffffffffff168152509050600160009054906101000a900473ffffffffffffffffffffffffffffffffffffffff1673ffffffffffffffffffffffffffffffffffffffff16633011b3f085836040518363ffffffff1660e01b8152600401610d6d92919061336d565b600060405180830381600087803b158015610d8757600080fd5b505af1158015610d9b573d6000803e3d6000fd5b505050506000898381518110610dda577f4e487b7100000000000000000000000000000000000000000000000000000000600052603260045260246000fd5b602002602001015114610f9e576040518060600160405280878481518110610e2b577f4e487b7100000000000000000000000000000000000000000000000000000000600052603260045260246000fd5b60200260200101516000015173ffffffffffffffffffffffffffffffffffffffff1681526020018a8481518110610e8b577f4e487b7100000000000000000000000000000000000000000000000000000000600052603260045260246000fd5b60200260200101518152602001878481518110610ed1577f4e487b7100000000000000000000000000000000000000000000000000000000600052603260045260246000fd5b6020026020010151604001516fffffffffffffffffffffffffffffffff168152509050600160009054906101000a900473ffffffffffffffffffffffffffffffffffffffff1673ffffffffffffffffffffffffffffffffffffffff16633011b3f0600186610f3f919061345b565b836040518363ffffffff1660e01b8152600401610f5d92919061336d565b600060405180830381600087803b158015610f7757600080fd5b505af1158015610f8b573d6000803e3d6000fd5b505050508280610f9a906135d2565b9350505b505b5b8080610fac906135d2565b9150506105ce565b50600160009054906101000a900473ffffffffffffffffffffffffffffffffffffffff1673ffffffffffffffffffffffffffffffffffffffff166342966c68896040518263ffffffff1660e01b8152600401611010919061331b565b600060405180830381600087803b15801561102a57600080fd5b505af115801561103e573d6000803e3d6000fd5b505050505050505050505050565b60006001806000803373ffffffffffffffffffffffffffffffffffffffff1673ffffffffffffffffffffffffffffffffffffffff16815260200190815260200160002054146110d0576040517f08c379a00000000000000000000000000000000000000000000000000000000081526004016110c7906132fb565b60405180910390fd5b6000600160009054906101000a900473ffffffffffffffffffffffffffffffffffffffff1673ffffffffffffffffffffffffffffffffffffffff16632d0821b7856040518263ffffffff1660e01b815260040161112d919061331b565b60006040518083038186803b15801561114557600080fd5b505afa158015611159573d6000803e3d6000fd5b505050506040513d6000823e3d601f19601f820116820180604052508101906111829190612d83565b90506000600160009054906101000a900473ffffffffffffffffffffffffffffffffffffffff1673ffffffffffffffffffffffffffffffffffffffff166375794a3c6040518163ffffffff1660e01b815260040160206040518083038186803b1580156111ee57600080fd5b505afa158015611202573d6000803e3d6000fd5b505050506040513d601f19601f820116820180604052508101906112269190612e29565b905060008060005b84600001515181101561162b5760008560000151828151811061127a577f4e487b7100000000000000000000000000000000000000000000000000000000600052603260045260246000fd5b602002602001015190506000816000015190506000808273ffffffffffffffffffffffffffffffffffffffff1663454f456f600160009054906101000a900473ffffffffffffffffffffffffffffffffffffffff1673ffffffffffffffffffffffffffffffffffffffff16636352211e8f6040518263ffffffff1660e01b8152600401611307919061331b565b60206040518083038186803b15801561131f57600080fd5b505afa158015611333573d6000803e3d6000fd5b505050506040513d601f19601f820116820180604052508101906113579190612ca1565b866040518363ffffffff1660e01b8152600401611375929190613185565b6040805180830381600087803b15801561138e57600080fd5b505af11580156113a2573d6000803e3d6000fd5b505050506040513d601f19601f820116820180604052508101906113c69190612dc4565b915091506064826fffffffffffffffffffffffffffffffff1614611614578561153357600160009054906101000a900473ffffffffffffffffffffffffffffffffffffffff1673ffffffffffffffffffffffffffffffffffffffff1663f4c959ab600160009054906101000a900473ffffffffffffffffffffffffffffffffffffffff1673ffffffffffffffffffffffffffffffffffffffff16636352211e8f6040518263ffffffff1660e01b8152600401611482919061331b565b60206040518083038186803b15801561149a57600080fd5b505afa1580156114ae573d6000803e3d6000fd5b505050506040513d601f19601f820116820180604052508101906114d29190612ca1565b866000015184866040518563ffffffff1660e01b81526004016114f89493929190613140565b600060405180830381600087803b15801561151257600080fd5b505af1158015611526573d6000803e3d6000fd5b505050506001955061160f565b60006040518060600160405280866000015173ffffffffffffffffffffffffffffffffffffffff168152602001838152602001846fffffffffffffffffffffffffffffffff168152509050600160009054906101000a900473ffffffffffffffffffffffffffffffffffffffff1673ffffffffffffffffffffffffffffffffffffffff16633011b3f08a836040518363ffffffff1660e01b81526004016115db92919061336d565b600060405180830381600087803b1580156115f557600080fd5b505af1158015611609573d6000803e3d6000fd5b50505050505b600196505b505050508080611623906135d2565b91505061122e565b50600160009054906101000a900473ffffffffffffffffffffffffffffffffffffffff1673ffffffffffffffffffffffffffffffffffffffff166342966c68886040518263ffffffff1660e01b8152600401611687919061331b565b600060405180830381600087803b1580156116a157600080fd5b505af11580156116b5573d6000803e3d6000fd5b505050508195505050505050919050565b6001806000803373ffffffffffffffffffffffffffffffffffffffff1673ffffffffffffffffffffffffffffffffffffffff1681526020019081526020016000205414611748576040517f08c379a000000000000000000000000000000000000000000000000000000000815260040161173f906132fb565b60405180910390fd5b600360009054906101000a900473ffffffffffffffffffffffffffffffffffffffff1673ffffffffffffffffffffffffffffffffffffffff1663bfb2220b85856040518363ffffffff1660e01b81526004016117a59291906130d2565b60206040518083038186803b1580156117bd57600080fd5b505afa1580156117d1573d6000803e3d6000fd5b505050506040513d601f19601f820116820180604052508101906117f59190612d5a565b6119de576000600160009054906101000a900473ffffffffffffffffffffffffffffffffffffffff1673ffffffffffffffffffffffffffffffffffffffff16632d0821b7846040518263ffffffff1660e01b8152600401611856919061331b565b60006040518083038186803b15801561186e57600080fd5b505afa158015611882573d6000803e3d6000fd5b505050506040513d6000823e3d601f19601f820116820180604052508101906118ab9190612d83565b905060005b8160000151518110156119db576000826000015182815181106118fc577f4e487b7100000000000000000000000000000000000000000000000000000000600052603260045260246000fd5b60200260200101516000015190508073ffffffffffffffffffffffffffffffffffffffff16632121dc756040518163ffffffff1660e01b815260040160206040518083038186803b15801561195057600080fd5b505afa158015611964573d6000803e3d6000fd5b505050506040513d601f19601f820116820180604052508101906119889190612d5a565b6119c7576040517f08c379a00000000000000000000000000000000000000000000000000000000081526004016119be9061327b565b60405180910390fd5b5080806119d3906135d2565b9150506118b0565b50505b50505050565b6001806000803373ffffffffffffffffffffffffffffffffffffffff1673ffffffffffffffffffffffffffffffffffffffff1681526020019081526020016000205414611a66576040517f08c379a0000000000000000000000000000000000000000000000000000000008152600401611a5d906132fb565b60405180910390fd5b6000808373ffffffffffffffffffffffffffffffffffffffff1673ffffffffffffffffffffffffffffffffffffffff168152602001908152602001600020600090557f30113ad733c78bfd7b2fd05fa6982d156dda72dd2739fdc5ffbd71ecfc3124d260008333604051611adc939291906131e4565b60405180910390a15050565b600360009054906101000a900473ffffffffffffffffffffffffffffffffffffffff1681565b6001806000803373ffffffffffffffffffffffffffffffffffffffff1673ffffffffffffffffffffffffffffffffffffffff1681526020019081526020016000205414611b90576040517f08c379a0000000000000000000000000000000000000000000000000000000008152600401611b87906132fb565b60405180910390fd5b6000600160009054906101000a900473ffffffffffffffffffffffffffffffffffffffff1673ffffffffffffffffffffffffffffffffffffffff166375794a3c6040518163ffffffff1660e01b815260040160206040518083038186803b158015611bfa57600080fd5b505afa158015611c0e573d6000803e3d6000fd5b505050506040513d601f19601f82011682018060405250810190611c329190612e29565b9050600080611c3f6129b4565b60005b86518110156120a85760005b8751811015611d3957818114158015611ce65750878281518110611c9b577f4e487b7100000000000000000000000000000000000000000000000000000000600052603260045260246000fd5b6020026020010151888281518110611cdc577f4e487b7100000000000000000000000000000000000000000000000000000000600052603260045260246000fd5b6020026020010151145b15611d26576040517f08c379a0000000000000000000000000000000000000000000000000000000008152600401611d1d906132bb565b60405180910390fd5b8080611d31906135d2565b915050611c4e565b50600160009054906101000a900473ffffffffffffffffffffffffffffffffffffffff1673ffffffffffffffffffffffffffffffffffffffff16632d0821b7888381518110611db1577f4e487b7100000000000000000000000000000000000000000000000000000000600052603260045260246000fd5b60200260200101516040518263ffffffff1660e01b8152600401611dd5919061331b565b60006040518083038186803b158015611ded57600080fd5b505afa158015611e01573d6000803e3d6000fd5b505050506040513d6000823e3d601f19601f82011682018060405250810190611e2a9190612d83565b9150600080600090505b83600001515181101561207e57600084600001518281518110611e80577f4e487b7100000000000000000000000000000000000000000000000000000000600052603260045260246000fd5b6020026020010151602001511461206b57600191508461206657600160009054906101000a900473ffffffffffffffffffffffffffffffffffffffff1673ffffffffffffffffffffffffffffffffffffffff1663f4c959ab600160009054906101000a900473ffffffffffffffffffffffffffffffffffffffff1673ffffffffffffffffffffffffffffffffffffffff16636352211e8c600081518110611f50577f4e487b7100000000000000000000000000000000000000000000000000000000600052603260045260246000fd5b60200260200101516040518263ffffffff1660e01b8152600401611f74919061331b565b60206040518083038186803b158015611f8c57600080fd5b505afa158015611fa0573d6000803e3d6000fd5b505050506040513d601f19601f82011682018060405250810190611fc49190612ca1565b86600001518481518110612001577f4e487b7100000000000000000000000000000000000000000000000000000000600052603260045260246000fd5b6020026020010151600001516000806040518563ffffffff1660e01b815260040161202f94939291906130fb565b600060405180830381600087803b15801561204957600080fd5b505af115801561205d573d6000803e3d6000fd5b50505050600194505b61207e565b8080612076906135d2565b915050611e34565b508015612094578480612090906135d2565b9550505b5080806120a0906135d2565b915050611c42565b50600183116120ec576040517f08c379a00000000000000000000000000000000000000000000000000000000081526004016120e39061321b565b60405180910390fd5b6120f46129b4565b60005b875181101561276457600160009054906101000a900473ffffffffffffffffffffffffffffffffffffffff1673ffffffffffffffffffffffffffffffffffffffff16632d0821b7898381518110612177577f4e487b7100000000000000000000000000000000000000000000000000000000600052603260045260246000fd5b60200260200101516040518263ffffffff1660e01b815260040161219b919061331b565b60006040518083038186803b1580156121b357600080fd5b505afa1580156121c7573d6000803e3d6000fd5b505050506040513d6000823e3d601f19601f820116820180604052508101906121f09190612d83565b925060005b83600001515181101561268357600084600001518281518110612241577f4e487b7100000000000000000000000000000000000000000000000000000000600052603260045260246000fd5b602002602001015160200151141561225857612670565b6000600160009054906101000a900473ffffffffffffffffffffffffffffffffffffffff1673ffffffffffffffffffffffffffffffffffffffff16632d0821b7896040518263ffffffff1660e01b81526004016122b5919061331b565b60006040518083038186803b1580156122cd57600080fd5b505afa1580156122e1573d6000803e3d6000fd5b505050506040513d6000823e3d601f19601f8201168201806040525081019061230a9190612d83565b935060005b8460000151518110156125945784600001518181518110612359577f4e487b7100000000000000000000000000000000000000000000000000000000600052603260045260246000fd5b60200260200101516000015173ffffffffffffffffffffffffffffffffffffffff16866000015184815181106123b8577f4e487b7100000000000000000000000000000000000000000000000000000000600052603260045260246000fd5b60200260200101516000015173ffffffffffffffffffffffffffffffffffffffff1614801561249a57508460000151818151811061241f577f4e487b7100000000000000000000000000000000000000000000000000000000600052603260045260246000fd5b6020026020010151604001516fffffffffffffffffffffffffffffffff168660000151848151811061247a577f4e487b7100000000000000000000000000000000000000000000000000000000600052603260045260246000fd5b6020026020010151604001516fffffffffffffffffffffffffffffffff16145b1561258157600160009054906101000a900473ffffffffffffffffffffffffffffffffffffffff1673ffffffffffffffffffffffffffffffffffffffff1663f78687248a838960000151878151811061251c577f4e487b7100000000000000000000000000000000000000000000000000000000600052603260045260246000fd5b6020026020010151602001516040518463ffffffff1660e01b815260040161254693929190613396565b600060405180830381600087803b15801561256057600080fd5b505af1158015612574573d6000803e3d6000fd5b5050505060019150612594565b808061258c906135d2565b91505061230f565b508061266e57600160009054906101000a900473ffffffffffffffffffffffffffffffffffffffff1673ffffffffffffffffffffffffffffffffffffffff16633011b3f08987600001518581518110612616577f4e487b7100000000000000000000000000000000000000000000000000000000600052603260045260246000fd5b60200260200101516040518363ffffffff1660e01b815260040161263b92919061336d565b600060405180830381600087803b15801561265557600080fd5b505af1158015612669573d6000803e3d6000fd5b505050505b505b808061267b906135d2565b9150506121f5565b50600160009054906101000a900473ffffffffffffffffffffffffffffffffffffffff1673ffffffffffffffffffffffffffffffffffffffff166342966c688983815181106126fb577f4e487b7100000000000000000000000000000000000000000000000000000000600052603260045260246000fd5b60200260200101516040518263ffffffff1660e01b815260040161271f919061331b565b600060405180830381600087803b15801561273957600080fd5b505af115801561274d573d6000803e3d6000fd5b50505050808061275c906135d2565b9150506120f7565b5050505050505050565b6001806000803373ffffffffffffffffffffffffffffffffffffffff1673ffffffffffffffffffffffffffffffffffffffff16815260200190815260200160002054146127f0576040517f08c379a00000000000000000000000000000000000000000000000000000000081526004016127e7906132fb565b60405180910390fd5b600183141561288a57600160009054906101000a900473ffffffffffffffffffffffffffffffffffffffff1673ffffffffffffffffffffffffffffffffffffffff168273ffffffffffffffffffffffffffffffffffffffff1614612889576040517f08c379a00000000000000000000000000000000000000000000000000000000081526004016128809061323b565b60405180910390fd5b5b61289483836128af565b505050565b600081836128a791906134b1565b905092915050565b6001806000803373ffffffffffffffffffffffffffffffffffffffff1673ffffffffffffffffffffffffffffffffffffffff1681526020019081526020016000205414612931576040517f08c379a0000000000000000000000000000000000000000000000000000000008152600401612928906132fb565b60405180910390fd5b826000808473ffffffffffffffffffffffffffffffffffffffff1673ffffffffffffffffffffffffffffffffffffffff168152602001908152602001600020819055507f30113ad733c78bfd7b2fd05fa6982d156dda72dd2739fdc5ffbd71ecfc3124d28383336040516129a793929190613336565b60405180910390a1505050565b604051806060016040528060608152602001600063ffffffff168152602001600063ffffffff1681525090565b60006129f46129ef846133f2565b6133cd565b90508083825260208201905082856060860282011115612a1357600080fd5b60005b85811015612a435781612a298882612bc4565b845260208401935060608301925050600181019050612a16565b5050509392505050565b6000612a60612a5b8461341e565b6133cd565b90508083825260208201905082856020860282011115612a7f57600080fd5b60005b85811015612aaf5781612a958882612c39565b845260208401935060208301925050600181019050612a82565b5050509392505050565b600081359050612ac8816138b6565b92915050565b600081519050612add816138b6565b92915050565b600082601f830112612af457600080fd5b8151612b048482602086016129e1565b91505092915050565b600082601f830112612b1e57600080fd5b8135612b2e848260208601612a4d565b91505092915050565b600081519050612b46816138cd565b92915050565b600060608284031215612b5e57600080fd5b612b6860606133cd565b9050600082015167ffffffffffffffff811115612b8457600080fd5b612b9084828501612ae3565b6000830152506020612ba484828501612c63565b6020830152506040612bb884828501612c63565b60408301525092915050565b600060608284031215612bd657600080fd5b612be060606133cd565b90506000612bf084828501612ace565b6000830152506020612c0484828501612c4e565b6020830152506040612c1884828501612c24565b60408301525092915050565b600081519050612c33816138e4565b92915050565b600081359050612c48816138fb565b92915050565b600081519050612c5d816138fb565b92915050565b600081519050612c7281613912565b92915050565b600060208284031215612c8a57600080fd5b6000612c9884828501612ab9565b91505092915050565b600060208284031215612cb357600080fd5b6000612cc184828501612ace565b91505092915050565b600080600060608486031215612cdf57600080fd5b6000612ced86828701612ab9565b9350506020612cfe86828701612ab9565b9250506040612d0f86828701612c39565b9150509250925092565b600060208284031215612d2b57600080fd5b600082013567ffffffffffffffff811115612d4557600080fd5b612d5184828501612b0d565b91505092915050565b600060208284031215612d6c57600080fd5b6000612d7a84828501612b37565b91505092915050565b600060208284031215612d9557600080fd5b600082015167ffffffffffffffff811115612daf57600080fd5b612dbb84828501612b4c565b91505092915050565b60008060408385031215612dd757600080fd5b6000612de585828601612c24565b9250506020612df685828601612c4e565b9150509250929050565b600060208284031215612e1257600080fd5b6000612e2084828501612c39565b91505092915050565b600060208284031215612e3b57600080fd5b6000612e4984828501612c4e565b91505092915050565b60008060408385031215612e6557600080fd5b6000612e7385828601612c39565b9250506020612e8485828601612ab9565b9150509250929050565b60008060408385031215612ea157600080fd5b6000612eaf85828601612c39565b925050602083013567ffffffffffffffff811115612ecc57600080fd5b612ed885828601612b0d565b9150509250929050565b612eeb816134e5565b82525050565b612efa816134e5565b82525050565b612f09816134f7565b82525050565b612f1881613559565b82525050565b612f278161357d565b82525050565b612f368161358f565b82525050565b6000612f4960298361344a565b9150612f548261368a565b604082019050919050565b6000612f6c60298361344a565b9150612f77826136d9565b604082019050919050565b6000612f8f60268361344a565b9150612f9a82613728565b604082019050919050565b6000612fb2601f8361344a565b9150612fbd82613777565b602082019050919050565b6000612fd560288361344a565b9150612fe0826137a0565b604082019050919050565b6000612ff8602d8361344a565b9150613003826137ef565b604082019050919050565b600061301b60198361344a565b91506130268261383e565b602082019050919050565b600061303e60238361344a565b915061304982613867565b604082019050919050565b60608201600082015161306a6000850182612ee2565b50602082015161307d60208501826130b4565b5060408201516130906040850182613096565b50505050565b61309f81613503565b82525050565b6130ae81613503565b82525050565b6130bd8161353f565b82525050565b6130cc8161353f565b82525050565b60006040820190506130e76000830185612ef1565b6130f46020830184612ef1565b9392505050565b60006080820190506131106000830187612ef1565b61311d6020830186612ef1565b61312a6040830185612f2d565b6131376060830184612f1e565b95945050505050565b60006080820190506131556000830187612ef1565b6131626020830186612ef1565b61316f60408301856130c3565b61317c60608301846130a5565b95945050505050565b600060808201905061319a6000830185612ef1565b6131a76020830184613054565b9392505050565b60006020820190506131c36000830184612f00565b92915050565b60006020820190506131de6000830184612f0f565b92915050565b60006060820190506131f96000830186612f2d565b6132066020830185612ef1565b6132136040830184612ef1565b949350505050565b6000602082019050818103600083015261323481612f3c565b9050919050565b6000602082019050818103600083015261325481612f5f565b9050919050565b6000602082019050818103600083015261327481612f82565b9050919050565b6000602082019050818103600083015261329481612fa5565b9050919050565b600060208201905081810360008301526132b481612fc8565b9050919050565b600060208201905081810360008301526132d481612feb565b9050919050565b600060208201905081810360008301526132f48161300e565b9050919050565b6000602082019050818103600083015261331481613031565b9050919050565b600060208201905061333060008301846130c3565b92915050565b600060608201905061334b60008301866130c3565b6133586020830185612ef1565b6133656040830184612ef1565b949350505050565b600060808201905061338260008301856130c3565b61338f6020830184613054565b9392505050565b60006060820190506133ab60008301866130c3565b6133b860208301856130c3565b6133c560408301846130c3565b949350505050565b60006133d76133e8565b90506133e382826135a1565b919050565b6000604051905090565b600067ffffffffffffffff82111561340d5761340c61364a565b5b602082029050602081019050919050565b600067ffffffffffffffff8211156134395761343861364a565b5b602082029050602081019050919050565b600082825260208201905092915050565b60006134668261353f565b91506134718361353f565b9250827fffffffffffffffffffffffffffffffffffffffffffffffffffffffffffffffff038211156134a6576134a561361b565b5b828201905092915050565b60006134bc8261353f565b91506134c78361353f565b9250828210156134da576134d961361b565b5b828203905092915050565b60006134f08261351f565b9050919050565b60008115159050919050565b60006fffffffffffffffffffffffffffffffff82169050919050565b600073ffffffffffffffffffffffffffffffffffffffff82169050919050565b6000819050919050565b600063ffffffff82169050919050565b60006135648261356b565b9050919050565b60006135768261351f565b9050919050565b600061358882613503565b9050919050565b600061359a8261353f565b9050919050565b6135aa82613679565b810181811067ffffffffffffffff821117156135c9576135c861364a565b5b80604052505050565b60006135dd8261353f565b91507fffffffffffffffffffffffffffffffffffffffffffffffffffffffffffffffff8214156136105761360f61361b565b5b600182019050919050565b7f4e487b7100000000000000000000000000000000000000000000000000000000600052601160045260246000fd5b7f4e487b7100000000000000000000000000000000000000000000000000000000600052604160045260246000fd5b6000601f19601f8301169050919050565b7f5341546f6b656e4578747261733a204e6f7420656e6f7567682053417320666f60008201527f72206d657267696e670000000000000000000000000000000000000000000000602082015250565b7f5341546f6b656e4578747261733a206f6e6c79205341546f6b656e2063616e2060008201527f6d616e616765206d650000000000000000000000000000000000000000000000602082015250565b7f5341546f6b656e4578747261733a20746f6b656e206973206e6f74206120636f60008201527f6e74726163740000000000000000000000000000000000000000000000000000602082015250565b7f5341546f6b656e3a20746f6b656e206e6f74207472616e7366657261626c6500600082015250565b7f53414e46543a206c656e677468206f6620736120646f6573206e6f74206d617460008201527f63682073706c6974000000000000000000000000000000000000000000000000602082015250565b7f5341546f6b656e4578747261733a2042756e646c652063616e206e6f74206d6560008201527f72676520746f20697473656c6600000000000000000000000000000000000000602082015250565b7f53414e46543a2053706c697420697320696e636f727265637400000000000000600082015250565b7f4c6576656c4163636573733a2063616c6c6572206e6f7420617574686f72697a60008201527f65642e0000000000000000000000000000000000000000000000000000000000602082015250565b6138bf816134e5565b81146138ca57600080fd5b50565b6138d6816134f7565b81146138e157600080fd5b50565b6138ed81613503565b81146138f857600080fd5b50565b6139048161353f565b811461390f57600080fd5b50565b61391b81613549565b811461392657600080fd5b5056fea2646970667358221220e31ae4569111d6c556a63d73f58849a18094575cb0afc5a1340e984e7366b52a64736f6c63430008030033",
  "linkReferences": {},
  "deployedLinkReferences": {}
}