{
  "_format": "hh-sol-artifact-1",
  "contractName": "FactoryMock",
  "sourceName": "contracts/test/FactoryMock.sol",
  "abi": [
    {
      "inputs": [
        {
          "internalType": "address",
          "name": "sale",
          "type": "address"
        }
      ],
      "name": "isLegitSale",
      "outputs": [
        {
          "internalType": "bool",
          "name": "",
          "type": "bool"
        }
      ],
      "stateMutability": "view",
      "type": "function"
    },
    {
      "inputs": [
        {
          "internalType": "address",
          "name": "sale",
          "type": "address"
        }
      ],
      "name": "setLegitSale",
      "outputs": [],
      "stateMutability": "nonpayable",
      "type": "function"
    }
  ],
  "bytecode": "0x608060405234801561001057600080fd5b50610229806100206000396000f3fe608060405234801561001057600080fd5b50600436106100365760003560e01c806374efb7991461003b578063f41b55921461006b575b600080fd5b6100556004803603810190610050919061014b565b610087565b6040516100629190610183565b60405180910390f35b6100856004803603810190610080919061014b565b6100dc565b005b60008060008373ffffffffffffffffffffffffffffffffffffffff1673ffffffffffffffffffffffffffffffffffffffff16815260200190815260200160002060009054906101000a900460ff169050919050565b60016000808373ffffffffffffffffffffffffffffffffffffffff1673ffffffffffffffffffffffffffffffffffffffff16815260200190815260200160002060006101000a81548160ff02191690831515021790555050565b600081359050610145816101dc565b92915050565b60006020828403121561015d57600080fd5b600061016b84828501610136565b91505092915050565b61017d816101b0565b82525050565b60006020820190506101986000830184610174565b92915050565b60006101a9826101bc565b9050919050565b60008115159050919050565b600073ffffffffffffffffffffffffffffffffffffffff82169050919050565b6101e58161019e565b81146101f057600080fd5b5056fea2646970667358221220a48a7d70ebf363da9870b2a0dc8c33a2adde232c6fd5ab34b1d76374cb8bbce364736f6c63430008030033",
  "linkReferences": {},
  "deployedLinkReferences": {}
}