{
  "_format": "hh-sol-artifact-1",
  "contractName": "SANFT",
  "sourceName": "contracts/SANFT.sol",
  "abi": [
    {
      "inputs": [
        {
          "internalType": "address",
          "name": "feeToken",
          "type": "address"
        },
        {
          "internalType": "uint256",
          "name": "feeAmount",
          "type": "uint256"
        }
      ],
      "stateMutability": "nonpayable",
      "type": "constructor"
    },
    {
      "anonymous": false,
      "inputs": [
        {
          "indexed": true,
          "internalType": "address",
          "name": "owner",
          "type": "address"
        },
        {
          "indexed": true,
          "internalType": "address",
          "name": "approved",
          "type": "address"
        },
        {
          "indexed": true,
          "internalType": "uint256",
          "name": "tokenId",
          "type": "uint256"
        }
      ],
      "name": "Approval",
      "type": "event"
    },
    {
      "anonymous": false,
      "inputs": [
        {
          "indexed": true,
          "internalType": "address",
          "name": "owner",
          "type": "address"
        },
        {
          "indexed": true,
          "internalType": "address",
          "name": "operator",
          "type": "address"
        },
        {
          "indexed": false,
          "internalType": "bool",
          "name": "approved",
          "type": "bool"
        }
      ],
      "name": "ApprovalForAll",
      "type": "event"
    },
    {
      "anonymous": false,
      "inputs": [
        {
          "indexed": true,
          "internalType": "address",
          "name": "from",
          "type": "address"
        },
        {
          "indexed": true,
          "internalType": "address",
          "name": "to",
          "type": "address"
        },
        {
          "indexed": true,
          "internalType": "uint256",
          "name": "tokenId",
          "type": "uint256"
        }
      ],
      "name": "Transfer",
      "type": "event"
    },
    {
      "inputs": [
        {
          "internalType": "address",
          "name": "to",
          "type": "address"
        },
        {
          "internalType": "uint256",
          "name": "tokenId",
          "type": "uint256"
        }
      ],
      "name": "approve",
      "outputs": [],
      "stateMutability": "nonpayable",
      "type": "function"
    },
    {
      "inputs": [
        {
          "internalType": "address",
          "name": "owner",
          "type": "address"
        }
      ],
      "name": "balanceOf",
      "outputs": [
        {
          "internalType": "uint256",
          "name": "",
          "type": "uint256"
        }
      ],
      "stateMutability": "view",
      "type": "function"
    },
    {
      "inputs": [
        {
          "internalType": "uint256",
          "name": "tokenId",
          "type": "uint256"
        }
      ],
      "name": "getApproved",
      "outputs": [
        {
          "internalType": "address",
          "name": "",
          "type": "address"
        }
      ],
      "stateMutability": "view",
      "type": "function"
    },
    {
      "inputs": [
        {
          "internalType": "uint256",
          "name": "saId",
          "type": "uint256"
        }
      ],
      "name": "getSA",
      "outputs": [
        {
          "components": [
            {
              "components": [
                {
                  "internalType": "address",
                  "name": "sale",
                  "type": "address"
                },
                {
                  "internalType": "uint256",
                  "name": "remainingAmount",
                  "type": "uint256"
                },
                {
                  "internalType": "uint256",
                  "name": "vestedPercentage",
                  "type": "uint256"
                }
              ],
              "internalType": "struct SANFT.SubSA[]",
              "name": "subSAs",
              "type": "tuple[]"
            },
            {
              "internalType": "uint256",
              "name": "creationTime",
              "type": "uint256"
            },
            {
              "internalType": "uint256",
              "name": "acquisitionTime",
              "type": "uint256"
            }
          ],
          "internalType": "struct SANFT.SA",
          "name": "",
          "type": "tuple"
        }
      ],
      "stateMutability": "view",
      "type": "function"
    },
    {
      "inputs": [
        {
          "internalType": "address",
          "name": "owner",
          "type": "address"
        },
        {
          "internalType": "address",
          "name": "operator",
          "type": "address"
        }
      ],
      "name": "isApprovedForAll",
      "outputs": [
        {
          "internalType": "bool",
          "name": "",
          "type": "bool"
        }
      ],
      "stateMutability": "view",
      "type": "function"
    },
    {
      "inputs": [
        {
          "internalType": "uint256[]",
          "name": "saIds",
          "type": "uint256[]"
        }
      ],
      "name": "merge",
      "outputs": [],
      "stateMutability": "nonpayable",
      "type": "function"
    },
    {
      "inputs": [
        {
          "internalType": "address",
          "name": "to",
          "type": "address"
        },
        {
          "internalType": "contract Sale",
          "name": "sale_",
          "type": "address"
        },
        {
          "internalType": "uint256",
          "name": "amount",
          "type": "uint256"
        }
      ],
      "name": "mint",
      "outputs": [],
      "stateMutability": "nonpayable",
      "type": "function"
    },
    {
      "inputs": [],
      "name": "name",
      "outputs": [
        {
          "internalType": "string",
          "name": "",
          "type": "string"
        }
      ],
      "stateMutability": "view",
      "type": "function"
    },
    {
      "inputs": [
        {
          "internalType": "uint256",
          "name": "tokenId",
          "type": "uint256"
        }
      ],
      "name": "ownerOf",
      "outputs": [
        {
          "internalType": "address",
          "name": "",
          "type": "address"
        }
      ],
      "stateMutability": "view",
      "type": "function"
    },
    {
      "inputs": [
        {
          "internalType": "address",
          "name": "from",
          "type": "address"
        },
        {
          "internalType": "address",
          "name": "to",
          "type": "address"
        },
        {
          "internalType": "uint256",
          "name": "tokenId",
          "type": "uint256"
        }
      ],
      "name": "safeTransferFrom",
      "outputs": [],
      "stateMutability": "nonpayable",
      "type": "function"
    },
    {
      "inputs": [
        {
          "internalType": "address",
          "name": "from",
          "type": "address"
        },
        {
          "internalType": "address",
          "name": "to",
          "type": "address"
        },
        {
          "internalType": "uint256",
          "name": "tokenId",
          "type": "uint256"
        },
        {
          "internalType": "bytes",
          "name": "_data",
          "type": "bytes"
        }
      ],
      "name": "safeTransferFrom",
      "outputs": [],
      "stateMutability": "nonpayable",
      "type": "function"
    },
    {
      "inputs": [
        {
          "internalType": "address",
          "name": "operator",
          "type": "address"
        },
        {
          "internalType": "bool",
          "name": "approved",
          "type": "bool"
        }
      ],
      "name": "setApprovalForAll",
      "outputs": [],
      "stateMutability": "nonpayable",
      "type": "function"
    },
    {
      "inputs": [
        {
          "internalType": "uint256",
          "name": "saId",
          "type": "uint256"
        },
        {
          "internalType": "uint256[]",
          "name": "keptAmounts",
          "type": "uint256[]"
        }
      ],
      "name": "split",
      "outputs": [],
      "stateMutability": "nonpayable",
      "type": "function"
    },
    {
      "inputs": [
        {
          "internalType": "bytes4",
          "name": "interfaceId",
          "type": "bytes4"
        }
      ],
      "name": "supportsInterface",
      "outputs": [
        {
          "internalType": "bool",
          "name": "",
          "type": "bool"
        }
      ],
      "stateMutability": "view",
      "type": "function"
    },
    {
      "inputs": [],
      "name": "symbol",
      "outputs": [
        {
          "internalType": "string",
          "name": "",
          "type": "string"
        }
      ],
      "stateMutability": "view",
      "type": "function"
    },
    {
      "inputs": [
        {
          "internalType": "uint256",
          "name": "index",
          "type": "uint256"
        }
      ],
      "name": "tokenByIndex",
      "outputs": [
        {
          "internalType": "uint256",
          "name": "",
          "type": "uint256"
        }
      ],
      "stateMutability": "view",
      "type": "function"
    },
    {
      "inputs": [
        {
          "internalType": "address",
          "name": "owner",
          "type": "address"
        },
        {
          "internalType": "uint256",
          "name": "index",
          "type": "uint256"
        }
      ],
      "name": "tokenOfOwnerByIndex",
      "outputs": [
        {
          "internalType": "uint256",
          "name": "",
          "type": "uint256"
        }
      ],
      "stateMutability": "view",
      "type": "function"
    },
    {
      "inputs": [
        {
          "internalType": "uint256",
          "name": "tokenId",
          "type": "uint256"
        }
      ],
      "name": "tokenURI",
      "outputs": [
        {
          "internalType": "string",
          "name": "",
          "type": "string"
        }
      ],
      "stateMutability": "view",
      "type": "function"
    },
    {
      "inputs": [],
      "name": "totalSupply",
      "outputs": [
        {
          "internalType": "uint256",
          "name": "",
          "type": "uint256"
        }
      ],
      "stateMutability": "view",
      "type": "function"
    },
    {
      "inputs": [
        {
          "internalType": "address",
          "name": "from",
          "type": "address"
        },
        {
          "internalType": "address",
          "name": "to",
          "type": "address"
        },
        {
          "internalType": "uint256",
          "name": "tokenId",
          "type": "uint256"
        }
      ],
      "name": "transferFrom",
      "outputs": [],
      "stateMutability": "nonpayable",
      "type": "function"
    },
    {
      "inputs": [
        {
          "internalType": "uint256",
          "name": "saId",
          "type": "uint256"
        }
      ],
      "name": "vest",
      "outputs": [
        {
          "internalType": "uint256",
          "name": "",
          "type": "uint256"
        }
      ],
      "stateMutability": "nonpayable",
      "type": "function"
    }
  ],
  "bytecode": "0x60806040526001600d553480156200001657600080fd5b50604051620055e0380380620055e083398181016040528101906200003c91906200024b565b6040518060400160405280600c81526020017f5341204e465420546f6b656e00000000000000000000000000000000000000008152506040518060400160405280600581526020017f53414e46540000000000000000000000000000000000000000000000000000008152508160009080519060200190620000c09291906200016d565b508060019080519060200190620000d99291906200016d565b50505033600a60006101000a81548173ffffffffffffffffffffffffffffffffffffffff021916908373ffffffffffffffffffffffffffffffffffffffff16021790555081600b60006101000a81548173ffffffffffffffffffffffffffffffffffffffff021916908373ffffffffffffffffffffffffffffffffffffffff16021790555080600c81905550505062000363565b8280546200017b90620002ca565b90600052602060002090601f0160209004810192826200019f5760008555620001eb565b82601f10620001ba57805160ff1916838001178555620001eb565b82800160010185558215620001eb579182015b82811115620001ea578251825591602001919060010190620001cd565b5b509050620001fa9190620001fe565b5090565b5b8082111562000219576000816000905550600101620001ff565b5090565b6000815190506200022e816200032f565b92915050565b600081519050620002458162000349565b92915050565b600080604083850312156200025f57600080fd5b60006200026f858286016200021d565b9250506020620002828582860162000234565b9150509250929050565b60006200029982620002a0565b9050919050565b600073ffffffffffffffffffffffffffffffffffffffff82169050919050565b6000819050919050565b60006002820490506001821680620002e357607f821691505b60208210811415620002fa57620002f962000300565b5b50919050565b7f4e487b7100000000000000000000000000000000000000000000000000000000600052602260045260246000fd5b6200033a816200028c565b81146200034657600080fd5b50565b6200035481620002c0565b81146200036057600080fd5b50565b61526d80620003736000396000f3fe608060405234801561001057600080fd5b50600436106101375760003560e01c80636352211e116100b8578063a22cb4651161007c578063a22cb46514610386578063b88d4fde146103a2578063c6c3bbe6146103be578063c87b56dd146103da578063de62d8421461040a578063e985e9c51461042657610137565b80636352211e146102bc57806369c67247146102ec5780636a760b801461030857806370a082311461033857806395d89b411461036857610137565b806323b872dd116100ff57806323b872dd146101f45780632cd820ee146102105780632f745c591461024057806342842e0e146102705780634f6ccce71461028c57610137565b806301ffc9a71461013c57806306fdde031461016c578063081812fc1461018a578063095ea7b3146101ba57806318160ddd146101d6575b600080fd5b61015660048036038101906101519190613c3d565b610456565b604051610163919061433b565b60405180910390f35b6101746104d0565b6040516101819190614356565b60405180910390f35b6101a4600480360381019061019f9190613c8f565b610562565b6040516101b19190614274565b60405180910390f35b6101d460048036038101906101cf9190613b97565b6105e7565b005b6101de6106ff565b6040516101eb9190614734565b60405180910390f35b61020e60048036038101906102099190613a42565b61070c565b005b61022a60048036038101906102259190613c8f565b61076c565b6040516102379190614712565b60405180910390f35b61025a60048036038101906102559190613b97565b610876565b6040516102679190614734565b60405180910390f35b61028a60048036038101906102859190613a42565b61091b565b005b6102a660048036038101906102a19190613c8f565b61093b565b6040516102b39190614734565b60405180910390f35b6102d660048036038101906102d19190613c8f565b6109d2565b6040516102e39190614274565b60405180910390f35b61030660048036038101906103019190613ce1565b610a84565b005b610322600480360381019061031d9190613c8f565b610fe7565b60405161032f9190614734565b60405180910390f35b610352600480360381019061034d91906139dd565b6115f7565b60405161035f9190614734565b60405180910390f35b6103706116af565b60405161037d9190614356565b60405180910390f35b6103a0600480360381019061039b9190613b0c565b611741565b005b6103bc60048036038101906103b79190613a91565b6118c2565b005b6103d860048036038101906103d39190613b48565b611924565b005b6103f460048036038101906103ef9190613c8f565b611aee565b6040516104019190614356565b60405180910390f35b610424600480360381019061041f9190613bd3565b611b95565b005b610440600480360381019061043b9190613a06565b61237d565b60405161044d919061433b565b60405180910390f35b60007f780e9d63000000000000000000000000000000000000000000000000000000007bffffffffffffffffffffffffffffffffffffffffffffffffffffffff1916827bffffffffffffffffffffffffffffffffffffffffffffffffffffffff191614806104c957506104c882612411565b5b9050919050565b6060600080546104df90614a31565b80601f016020809104026020016040519081016040528092919081815260200182805461050b90614a31565b80156105585780601f1061052d57610100808354040283529160200191610558565b820191906000526020600020905b81548152906001019060200180831161053b57829003601f168201915b5050505050905090565b600061056d826124f3565b6105ac576040517f08c379a00000000000000000000000000000000000000000000000000000000081526004016105a3906145f2565b60405180910390fd5b6004600083815260200190815260200160002060009054906101000a900473ffffffffffffffffffffffffffffffffffffffff169050919050565b60006105f2826109d2565b90508073ffffffffffffffffffffffffffffffffffffffff168373ffffffffffffffffffffffffffffffffffffffff161415610663576040517f08c379a000000000000000000000000000000000000000000000000000000000815260040161065a90614652565b60405180910390fd5b8073ffffffffffffffffffffffffffffffffffffffff1661068261255f565b73ffffffffffffffffffffffffffffffffffffffff1614806106b157506106b0816106ab61255f565b61237d565b5b6106f0576040517f08c379a00000000000000000000000000000000000000000000000000000000081526004016106e790614552565b60405180910390fd5b6106fa8383612567565b505050565b6000600880549050905090565b61071d61071761255f565b82612620565b61075c576040517f08c379a000000000000000000000000000000000000000000000000000000000815260040161075390614692565b60405180910390fd5b6107678383836126fe565b505050565b610774613816565b600e600083815260200190815260200160002060405180606001604052908160008201805480602002602001604051908101604052809291908181526020016000905b8282101561085357838290600052602060002090600302016040518060600160405290816000820160009054906101000a900473ffffffffffffffffffffffffffffffffffffffff1673ffffffffffffffffffffffffffffffffffffffff1673ffffffffffffffffffffffffffffffffffffffff16815260200160018201548152602001600282015481525050815260200190600101906107b7565b505050508152602001600182015481526020016002820154815250509050919050565b6000610881836115f7565b82106108c2576040517f08c379a00000000000000000000000000000000000000000000000000000000081526004016108b990614432565b60405180910390fd5b600660008473ffffffffffffffffffffffffffffffffffffffff1673ffffffffffffffffffffffffffffffffffffffff168152602001908152602001600020600083815260200190815260200160002054905092915050565b610936838383604051806020016040528060008152506118c2565b505050565b60006109456106ff565b8210610986576040517f08c379a000000000000000000000000000000000000000000000000000000000815260040161097d906146d2565b60405180910390fd5b600882815481106109c0577f4e487b7100000000000000000000000000000000000000000000000000000000600052603260045260246000fd5b90600052602060002001549050919050565b6000806002600084815260200190815260200160002060009054906101000a900473ffffffffffffffffffffffffffffffffffffffff169050600073ffffffffffffffffffffffffffffffffffffffff168173ffffffffffffffffffffffffffffffffffffffff161415610a7b576040517f08c379a0000000000000000000000000000000000000000000000000000000008152600401610a72906145b2565b60405180910390fd5b80915050919050565b813373ffffffffffffffffffffffffffffffffffffffff16610aa5826109d2565b73ffffffffffffffffffffffffffffffffffffffff1614610afb576040517f08c379a0000000000000000000000000000000000000000000000000000000008152600401610af2906144f2565b60405180910390fd5b600b60009054906101000a900473ffffffffffffffffffffffffffffffffffffffff1673ffffffffffffffffffffffffffffffffffffffff166323b872dd33600a60009054906101000a900473ffffffffffffffffffffffffffffffffffffffff16600c546040518463ffffffff1660e01b8152600401610b7e9392919061428f565b602060405180830381600087803b158015610b9857600080fd5b505af1158015610bac573d6000803e3d6000fd5b505050506040513d601f19601f82011682018060405250810190610bd09190613c14565b506000610bdc84610fe7565b1415610be757610fe2565b6000600e600085815260200190815260200160002090506000816000019050610c1233600d546127e4565b6000600e6000600d54815260200190815260200160002090506001600d6000828254610c3e9190614884565b925050819055504281600101819055504281600201819055508260000180549050855114610ca1576040517f08c379a0000000000000000000000000000000000000000000000000000000008152600401610c98906146b2565b60405180910390fd5b60005b8551811015610fdd57858181518110610ce6577f4e487b7100000000000000000000000000000000000000000000000000000000600052603260045260246000fd5b6020026020010151838281548110610d27577f4e487b7100000000000000000000000000000000000000000000000000000000600052603260045260246000fd5b9060005260206000209060030201600101541015610d7a576040517f08c379a0000000000000000000000000000000000000000000000000000000008152600401610d7190614572565b60405180910390fd5b60006040518060600160405280858481548110610dc0577f4e487b7100000000000000000000000000000000000000000000000000000000600052603260045260246000fd5b906000526020600020906003020160000160009054906101000a900473ffffffffffffffffffffffffffffffffffffffff1673ffffffffffffffffffffffffffffffffffffffff168152602001888481518110610e46577f4e487b7100000000000000000000000000000000000000000000000000000000600052603260045260246000fd5b6020026020010151868581548110610e87577f4e487b7100000000000000000000000000000000000000000000000000000000600052603260045260246000fd5b906000526020600020906003020160010154610ea3919061490b565b8152602001600081525090508260000181908060018154018082558091505060019003906000526020600020906003020160009091909190915060008201518160000160006101000a81548173ffffffffffffffffffffffffffffffffffffffff021916908373ffffffffffffffffffffffffffffffffffffffff16021790555060208201518160010155604082015181600201555050868281518110610f73577f4e487b7100000000000000000000000000000000000000000000000000000000600052603260045260246000fd5b6020026020010151848381548110610fb4577f4e487b7100000000000000000000000000000000000000000000000000000000600052603260045260246000fd5b906000526020600020906003020160010181905550508080610fd590614a94565b915050610ca4565b505050505b505050565b6000813373ffffffffffffffffffffffffffffffffffffffff1661100a826109d2565b73ffffffffffffffffffffffffffffffffffffffff1614611060576040517f08c379a0000000000000000000000000000000000000000000000000000000008152600401611057906144f2565b60405180910390fd5b61109f6040518060400160405280600781526020017f76657374696e6700000000000000000000000000000000000000000000000000815250846129b2565b6000600e600085815260200190815260200160002090506000805b826000018054905081101561152e57811561116c5780806110da90614a07565b91505082600001805480611117577f4e487b7100000000000000000000000000000000000000000000000000000000600052603160045260246000fd5b6001900381819060005260206000209060030201600080820160006101000a81549073ffffffffffffffffffffffffffffffffffffffff02191690556001820160009055600282016000905550509055600091505b60008360000182815481106111aa577f4e487b7100000000000000000000000000000000000000000000000000000000600052603260045260246000fd5b9060005260206000209060030201905060008160000160009054906101000a900473ffffffffffffffffffffffffffffffffffffffff16905060008173ffffffffffffffffffffffffffffffffffffffff1663461f3cc56040518163ffffffff1660e01b815260040160206040518083038186803b15801561122b57600080fd5b505afa15801561123f573d6000803e3d6000fd5b505050506040513d601f19601f820116820180604052508101906112639190613cb8565b905060008273ffffffffffffffffffffffffffffffffffffffff166327ba8bfb83866002015487600101546040518463ffffffff1660e01b81526004016112ac9392919061474f565b60206040518083038186803b1580156112c457600080fd5b505afa1580156112d8573d6000803e3d6000fd5b505050506040513d601f19601f820116820180604052508101906112fc9190613cb8565b90508273ffffffffffffffffffffffffffffffffffffffff16632797c6c86113238c6109d2565b836040518363ffffffff1660e01b8152600401611341929190614312565b600060405180830381600087803b15801561135b57600080fd5b505af115801561136f573d6000803e3d6000fd5b505050506113b36040518060400160405280600781526020017f76657374696e67000000000000000000000000000000000000000000000000008152508b83612a4e565b60648214156114ee5786600001600188600001805490506113d4919061490b565b8154811061140b577f4e487b7100000000000000000000000000000000000000000000000000000000600052603260045260246000fd5b9060005260206000209060030201876000018681548110611455577f4e487b7100000000000000000000000000000000000000000000000000000000600052603260045260246000fd5b90600052602060002090600302016000820160009054906101000a900473ffffffffffffffffffffffffffffffffffffffff168160000160006101000a81548173ffffffffffffffffffffffffffffffffffffffff021916908373ffffffffffffffffffffffffffffffffffffffff1602179055506001820154816001015560028201548160020155905050600195505050505061151b565b611505818560010154612aed90919063ffffffff16565b8460010181905550818460020181905550505050505b808061152690614a94565b9150506110ba565b5080156115c0578160000180548061156f577f4e487b7100000000000000000000000000000000000000000000000000000000600052603160045260246000fd5b6001900381819060005260206000209060030201600080820160006101000a81549073ffffffffffffffffffffffffffffffffffffffff021916905560018201600090556002820160009055505090555b6000826000018054905014156115e4576115d985612b03565b6000935050506115f1565b8160000180549050935050505b50919050565b60008073ffffffffffffffffffffffffffffffffffffffff168273ffffffffffffffffffffffffffffffffffffffff161415611668576040517f08c379a000000000000000000000000000000000000000000000000000000000815260040161165f90614592565b60405180910390fd5b600360008373ffffffffffffffffffffffffffffffffffffffff1673ffffffffffffffffffffffffffffffffffffffff168152602001908152602001600020549050919050565b6060600180546116be90614a31565b80601f01602080910402602001604051908101604052809291908181526020018280546116ea90614a31565b80156117375780601f1061170c57610100808354040283529160200191611737565b820191906000526020600020905b81548152906001019060200180831161171a57829003601f168201915b5050505050905090565b61174961255f565b73ffffffffffffffffffffffffffffffffffffffff168273ffffffffffffffffffffffffffffffffffffffff1614156117b7576040517f08c379a00000000000000000000000000000000000000000000000000000000081526004016117ae906144d2565b60405180910390fd5b80600560006117c461255f565b73ffffffffffffffffffffffffffffffffffffffff1673ffffffffffffffffffffffffffffffffffffffff16815260200190815260200160002060008473ffffffffffffffffffffffffffffffffffffffff1673ffffffffffffffffffffffffffffffffffffffff16815260200190815260200160002060006101000a81548160ff0219169083151502179055508173ffffffffffffffffffffffffffffffffffffffff1661187161255f565b73ffffffffffffffffffffffffffffffffffffffff167f17307eab39ab6107e8899845ad3d59bd9653f200f220920489ca2b5937696c31836040516118b6919061433b565b60405180910390a35050565b6118d36118cd61255f565b83612620565b611912576040517f08c379a000000000000000000000000000000000000000000000000000000000815260040161190990614692565b60405180910390fd5b61191e84848484612c14565b50505050565b3373ffffffffffffffffffffffffffffffffffffffff168273ffffffffffffffffffffffffffffffffffffffff1614611992576040517f08c379a000000000000000000000000000000000000000000000000000000000815260040161198990614672565b60405180910390fd5b61199e83600d546127e4565b6119e16040518060400160405280600a81526020017f4d696e746564204e465400000000000000000000000000000000000000000000815250600d548584612c70565b600060405180606001604052808473ffffffffffffffffffffffffffffffffffffffff168152602001838152602001600081525090506000600e6000600d54815260200190815260200160002090504281600201819055504281600101819055508060000182908060018154018082558091505060019003906000526020600020906003020160009091909190915060008201518160000160006101000a81548173ffffffffffffffffffffffffffffffffffffffff021916908373ffffffffffffffffffffffffffffffffffffffff160217905550602082015181600101556040820151816002015550506001600d6000828254611ae09190614884565b925050819055505050505050565b6060611af9826124f3565b611b38576040517f08c379a0000000000000000000000000000000000000000000000000000000008152600401611b2f90614632565b60405180910390fd5b6000611b42612d12565b90506000815111611b625760405180602001604052806000815250611b8d565b80611b6c84612d29565b604051602001611b7d929190614250565b6040516020818303038152906040525b915050919050565b600b60009054906101000a900473ffffffffffffffffffffffffffffffffffffffff1673ffffffffffffffffffffffffffffffffffffffff166323b872dd33600a60009054906101000a900473ffffffffffffffffffffffffffffffffffffffff16600c546040518463ffffffff1660e01b8152600401611c189392919061428f565b602060405180830381600087803b158015611c3257600080fd5b505af1158015611c46573d6000803e3d6000fd5b505050506040513d601f19601f82011682018060405250810190611c6a9190613c14565b50600281511015611cb0576040517f08c379a0000000000000000000000000000000000000000000000000000000008152600401611ca790614512565b60405180910390fd5b60005b8151811015611d85573373ffffffffffffffffffffffffffffffffffffffff16611d1c838381518110611d0f577f4e487b7100000000000000000000000000000000000000000000000000000000600052603260045260246000fd5b60200260200101516109d2565b73ffffffffffffffffffffffffffffffffffffffff1614611d72576040517f08c379a0000000000000000000000000000000000000000000000000000000008152600401611d6990614472565b60405180910390fd5b8080611d7d90614a94565b915050611cb3565b506000611dd282600081518110611dc5577f4e487b7100000000000000000000000000000000000000000000000000000000600052603260045260246000fd5b6020026020010151610fe7565b1415611ddd5761237a565b6000600e600083600081518110611e1d577f4e487b7100000000000000000000000000000000000000000000000000000000600052603260045260246000fd5b6020026020010151815260200190815260200160002090506000816000018054905090506000600190505b835181101561237657838181518110611e8a577f4e487b7100000000000000000000000000000000000000000000000000000000600052603260045260246000fd5b602002602001015184600081518110611ecc577f4e487b7100000000000000000000000000000000000000000000000000000000600052603260045260246000fd5b60200260200101511415611f15576040517f08c379a0000000000000000000000000000000000000000000000000000000008152600401611f0c906146f2565b60405180910390fd5b6000611f60858381518110611f53577f4e487b7100000000000000000000000000000000000000000000000000000000600052603260045260246000fd5b6020026020010151610fe7565b1415611f6b57612363565b6000600e6000868481518110611faa577f4e487b7100000000000000000000000000000000000000000000000000000000600052603260045260246000fd5b60200260200101518152602001908152602001600020905060005b8160000180549050811015612317576000805b858110156122085786600001818154811061201c577f4e487b7100000000000000000000000000000000000000000000000000000000600052603260045260246000fd5b906000526020600020906003020160000160009054906101000a900473ffffffffffffffffffffffffffffffffffffffff1673ffffffffffffffffffffffffffffffffffffffff168460000184815481106120a0577f4e487b7100000000000000000000000000000000000000000000000000000000600052603260045260246000fd5b906000526020600020906003020160000160009054906101000a900473ffffffffffffffffffffffffffffffffffffffff1673ffffffffffffffffffffffffffffffffffffffff1614156121f55761219b84600001848154811061212d577f4e487b7100000000000000000000000000000000000000000000000000000000600052603260045260246000fd5b90600052602060002090600302016001015488600001838154811061217b577f4e487b7100000000000000000000000000000000000000000000000000000000600052603260045260246000fd5b906000526020600020906003020160010154612ed690919063ffffffff16565b8760000182815481106121d7577f4e487b7100000000000000000000000000000000000000000000000000000000600052603260045260246000fd5b90600052602060002090600302016001018190555060019150612208565b808061220090614a94565b915050611fd8565b5080612303578560000183600001838154811061224e577f4e487b7100000000000000000000000000000000000000000000000000000000600052603260045260246000fd5b906000526020600020906003020190806001815401808255809150506001900390600052602060002090600302016000909190919091506000820160009054906101000a900473ffffffffffffffffffffffffffffffffffffffff168160000160006101000a81548173ffffffffffffffffffffffffffffffffffffffff021916908373ffffffffffffffffffffffffffffffffffffffff160217905550600182015481600101556002820154816002015550505b50808061230f90614a94565b915050611fc5565b50612361858381518110612354577f4e487b7100000000000000000000000000000000000000000000000000000000600052603260045260246000fd5b6020026020010151612b03565b505b808061236e90614a94565b915050611e48565b5050505b50565b6000600560008473ffffffffffffffffffffffffffffffffffffffff1673ffffffffffffffffffffffffffffffffffffffff16815260200190815260200160002060008373ffffffffffffffffffffffffffffffffffffffff1673ffffffffffffffffffffffffffffffffffffffff16815260200190815260200160002060009054906101000a900460ff16905092915050565b60007f80ac58cd000000000000000000000000000000000000000000000000000000007bffffffffffffffffffffffffffffffffffffffffffffffffffffffff1916827bffffffffffffffffffffffffffffffffffffffffffffffffffffffff191614806124dc57507f5b5e139f000000000000000000000000000000000000000000000000000000007bffffffffffffffffffffffffffffffffffffffffffffffffffffffff1916827bffffffffffffffffffffffffffffffffffffffffffffffffffffffff1916145b806124ec57506124eb82612eec565b5b9050919050565b60008073ffffffffffffffffffffffffffffffffffffffff166002600084815260200190815260200160002060009054906101000a900473ffffffffffffffffffffffffffffffffffffffff1673ffffffffffffffffffffffffffffffffffffffff1614159050919050565b600033905090565b816004600083815260200190815260200160002060006101000a81548173ffffffffffffffffffffffffffffffffffffffff021916908373ffffffffffffffffffffffffffffffffffffffff160217905550808273ffffffffffffffffffffffffffffffffffffffff166125da836109d2565b73ffffffffffffffffffffffffffffffffffffffff167f8c5be1e5ebec7d5bd14f71427d1e84f3dd0314c0f7b2291e5b200ac8c7c3b92560405160405180910390a45050565b600061262b826124f3565b61266a576040517f08c379a000000000000000000000000000000000000000000000000000000000815260040161266190614532565b60405180910390fd5b6000612675836109d2565b90508073ffffffffffffffffffffffffffffffffffffffff168473ffffffffffffffffffffffffffffffffffffffff1614806126e457508373ffffffffffffffffffffffffffffffffffffffff166126cc84610562565b73ffffffffffffffffffffffffffffffffffffffff16145b806126f557506126f4818561237d565b5b91505092915050565b600b60009054906101000a900473ffffffffffffffffffffffffffffffffffffffff1673ffffffffffffffffffffffffffffffffffffffff166323b872dd33600a60009054906101000a900473ffffffffffffffffffffffffffffffffffffffff16600c546040518463ffffffff1660e01b81526004016127819392919061428f565b602060405180830381600087803b15801561279b57600080fd5b505af11580156127af573d6000803e3d6000fd5b505050506040513d601f19601f820116820180604052508101906127d39190613c14565b506127df838383612f56565b505050565b600073ffffffffffffffffffffffffffffffffffffffff168273ffffffffffffffffffffffffffffffffffffffff161415612854576040517f08c379a000000000000000000000000000000000000000000000000000000000815260040161284b906145d2565b60405180910390fd5b61285d816124f3565b1561289d576040517f08c379a000000000000000000000000000000000000000000000000000000000815260040161289490614492565b60405180910390fd5b6128a9600083836131b2565b6001600360008473ffffffffffffffffffffffffffffffffffffffff1673ffffffffffffffffffffffffffffffffffffffff16815260200190815260200160002060008282546128f99190614884565b92505081905550816002600083815260200190815260200160002060006101000a81548173ffffffffffffffffffffffffffffffffffffffff021916908373ffffffffffffffffffffffffffffffffffffffff160217905550808273ffffffffffffffffffffffffffffffffffffffff16600073ffffffffffffffffffffffffffffffffffffffff167fddf252ad1be2c89b69c2b068fc378daa952ba7f163c4a11628f55a4df523b3ef60405160405180910390a45050565b612a4a82826040516024016129c8929190614378565b6040516020818303038152906040527f9710a9d0000000000000000000000000000000000000000000000000000000007bffffffffffffffffffffffffffffffffffffffffffffffffffffffff19166020820180517bffffffffffffffffffffffffffffffffffffffffffffffffffffffff83818316178352505050506132c6565b5050565b612ae8838383604051602401612a66939291906143f4565b6040516020818303038152906040527f969cdd03000000000000000000000000000000000000000000000000000000007bffffffffffffffffffffffffffffffffffffffffffffffffffffffff19166020820180517bffffffffffffffffffffffffffffffffffffffffffffffffffffffff83818316178352505050506132c6565b505050565b60008183612afb919061490b565b905092915050565b6000612b0e826109d2565b9050612b1c816000846131b2565b612b27600083612567565b6001600360008373ffffffffffffffffffffffffffffffffffffffff1673ffffffffffffffffffffffffffffffffffffffff1681526020019081526020016000206000828254612b77919061490b565b925050819055506002600083815260200190815260200160002060006101000a81549073ffffffffffffffffffffffffffffffffffffffff021916905581600073ffffffffffffffffffffffffffffffffffffffff168273ffffffffffffffffffffffffffffffffffffffff167fddf252ad1be2c89b69c2b068fc378daa952ba7f163c4a11628f55a4df523b3ef60405160405180910390a45050565b612c1f8484846126fe565b612c2b848484846132ef565b612c6a576040517f08c379a0000000000000000000000000000000000000000000000000000000008152600401612c6190614452565b60405180910390fd5b50505050565b612d0c84848484604051602401612c8a94939291906143a8565b6040516020818303038152906040527f58497afe000000000000000000000000000000000000000000000000000000007bffffffffffffffffffffffffffffffffffffffffffffffffffffffff19166020820180517bffffffffffffffffffffffffffffffffffffffffffffffffffffffff83818316178352505050506132c6565b50505050565b606060405180602001604052806000815250905090565b60606000821415612d71576040518060400160405280600181526020017f30000000000000000000000000000000000000000000000000000000000000008152509050612ed1565b600082905060005b60008214612da3578080612d8c90614a94565b915050600a82612d9c91906148da565b9150612d79565b60008167ffffffffffffffff811115612de5577f4e487b7100000000000000000000000000000000000000000000000000000000600052604160045260246000fd5b6040519080825280601f01601f191660200182016040528015612e175781602001600182028036833780820191505090505b5090505b60008514612eca57600182612e30919061490b565b9150600a85612e3f9190614add565b6030612e4b9190614884565b60f81b818381518110612e87577f4e487b7100000000000000000000000000000000000000000000000000000000600052603260045260246000fd5b60200101907effffffffffffffffffffffffffffffffffffffffffffffffffffffffffffff1916908160001a905350600a85612ec391906148da565b9450612e1b565b8093505050505b919050565b60008183612ee49190614884565b905092915050565b60007f01ffc9a7000000000000000000000000000000000000000000000000000000007bffffffffffffffffffffffffffffffffffffffffffffffffffffffff1916827bffffffffffffffffffffffffffffffffffffffffffffffffffffffff1916149050919050565b8273ffffffffffffffffffffffffffffffffffffffff16612f76826109d2565b73ffffffffffffffffffffffffffffffffffffffff1614612fcc576040517f08c379a0000000000000000000000000000000000000000000000000000000008152600401612fc390614612565b60405180910390fd5b600073ffffffffffffffffffffffffffffffffffffffff168273ffffffffffffffffffffffffffffffffffffffff16141561303c576040517f08c379a0000000000000000000000000000000000000000000000000000000008152600401613033906144b2565b60405180910390fd5b6130478383836131b2565b613052600082612567565b6001600360008573ffffffffffffffffffffffffffffffffffffffff1673ffffffffffffffffffffffffffffffffffffffff16815260200190815260200160002060008282546130a2919061490b565b925050819055506001600360008473ffffffffffffffffffffffffffffffffffffffff1673ffffffffffffffffffffffffffffffffffffffff16815260200190815260200160002060008282546130f99190614884565b92505081905550816002600083815260200190815260200160002060006101000a81548173ffffffffffffffffffffffffffffffffffffffff021916908373ffffffffffffffffffffffffffffffffffffffff160217905550808273ffffffffffffffffffffffffffffffffffffffff168473ffffffffffffffffffffffffffffffffffffffff167fddf252ad1be2c89b69c2b068fc378daa952ba7f163c4a11628f55a4df523b3ef60405160405180910390a4505050565b6131bd838383613486565b600073ffffffffffffffffffffffffffffffffffffffff168373ffffffffffffffffffffffffffffffffffffffff161415613200576131fb8161348b565b61323f565b8173ffffffffffffffffffffffffffffffffffffffff168373ffffffffffffffffffffffffffffffffffffffff161461323e5761323d83826134d4565b5b5b600073ffffffffffffffffffffffffffffffffffffffff168273ffffffffffffffffffffffffffffffffffffffff1614156132825761327d81613641565b6132c1565b8273ffffffffffffffffffffffffffffffffffffffff168273ffffffffffffffffffffffffffffffffffffffff16146132c0576132bf8282613784565b5b5b505050565b60008151905060006a636f6e736f6c652e6c6f679050602083016000808483855afa5050505050565b60006133108473ffffffffffffffffffffffffffffffffffffffff16613803565b15613479578373ffffffffffffffffffffffffffffffffffffffff1663150b7a0261333961255f565b8786866040518563ffffffff1660e01b815260040161335b94939291906142c6565b602060405180830381600087803b15801561337557600080fd5b505af19250505080156133a657506040513d601f19601f820116820180604052508101906133a39190613c66565b60015b613429573d80600081146133d6576040519150601f19603f3d011682016040523d82523d6000602084013e6133db565b606091505b50600081511415613421576040517f08c379a000000000000000000000000000000000000000000000000000000000815260040161341890614452565b60405180910390fd5b805181602001fd5b63150b7a0260e01b7bffffffffffffffffffffffffffffffffffffffffffffffffffffffff1916817bffffffffffffffffffffffffffffffffffffffffffffffffffffffff19161491505061347e565b600190505b949350505050565b505050565b6008805490506009600083815260200190815260200160002081905550600881908060018154018082558091505060019003906000526020600020016000909190919091505550565b600060016134e1846115f7565b6134eb919061490b565b90506000600760008481526020019081526020016000205490508181146135d0576000600660008673ffffffffffffffffffffffffffffffffffffffff1673ffffffffffffffffffffffffffffffffffffffff168152602001908152602001600020600084815260200190815260200160002054905080600660008773ffffffffffffffffffffffffffffffffffffffff1673ffffffffffffffffffffffffffffffffffffffff168152602001908152602001600020600084815260200190815260200160002081905550816007600083815260200190815260200160002081905550505b6007600084815260200190815260200160002060009055600660008573ffffffffffffffffffffffffffffffffffffffff1673ffffffffffffffffffffffffffffffffffffffff16815260200190815260200160002060008381526020019081526020016000206000905550505050565b60006001600880549050613655919061490b565b90506000600960008481526020019081526020016000205490506000600883815481106136ab577f4e487b7100000000000000000000000000000000000000000000000000000000600052603260045260246000fd5b9060005260206000200154905080600883815481106136f3577f4e487b7100000000000000000000000000000000000000000000000000000000600052603260045260246000fd5b906000526020600020018190555081600960008381526020019081526020016000208190555060096000858152602001908152602001600020600090556008805480613768577f4e487b7100000000000000000000000000000000000000000000000000000000600052603160045260246000fd5b6001900381819060005260206000200160009055905550505050565b600061378f836115f7565b905081600660008573ffffffffffffffffffffffffffffffffffffffff1673ffffffffffffffffffffffffffffffffffffffff168152602001908152602001600020600083815260200190815260200160002081905550806007600084815260200190815260200160002081905550505050565b600080823b905060008111915050919050565b60405180606001604052806060815260200160008152602001600081525090565b600061384a613845846147ab565b614786565b9050808382526020820190508285602086028201111561386957600080fd5b60005b85811015613899578161387f88826139b3565b84526020840193506020830192505060018101905061386c565b5050509392505050565b60006138b66138b1846147d7565b614786565b9050828152602081018484840111156138ce57600080fd5b6138d98482856149c5565b509392505050565b6000813590506138f0816151c4565b92915050565b600082601f83011261390757600080fd5b8135613917848260208601613837565b91505092915050565b60008135905061392f816151db565b92915050565b600081519050613944816151db565b92915050565b600081359050613959816151f2565b92915050565b60008151905061396e816151f2565b92915050565b600082601f83011261398557600080fd5b81356139958482602086016138a3565b91505092915050565b6000813590506139ad81615209565b92915050565b6000813590506139c281615220565b92915050565b6000815190506139d781615220565b92915050565b6000602082840312156139ef57600080fd5b60006139fd848285016138e1565b91505092915050565b60008060408385031215613a1957600080fd5b6000613a27858286016138e1565b9250506020613a38858286016138e1565b9150509250929050565b600080600060608486031215613a5757600080fd5b6000613a65868287016138e1565b9350506020613a76868287016138e1565b9250506040613a87868287016139b3565b9150509250925092565b60008060008060808587031215613aa757600080fd5b6000613ab5878288016138e1565b9450506020613ac6878288016138e1565b9350506040613ad7878288016139b3565b925050606085013567ffffffffffffffff811115613af457600080fd5b613b0087828801613974565b91505092959194509250565b60008060408385031215613b1f57600080fd5b6000613b2d858286016138e1565b9250506020613b3e85828601613920565b9150509250929050565b600080600060608486031215613b5d57600080fd5b6000613b6b868287016138e1565b9350506020613b7c8682870161399e565b9250506040613b8d868287016139b3565b9150509250925092565b60008060408385031215613baa57600080fd5b6000613bb8858286016138e1565b9250506020613bc9858286016139b3565b9150509250929050565b600060208284031215613be557600080fd5b600082013567ffffffffffffffff811115613bff57600080fd5b613c0b848285016138f6565b91505092915050565b600060208284031215613c2657600080fd5b6000613c3484828501613935565b91505092915050565b600060208284031215613c4f57600080fd5b6000613c5d8482850161394a565b91505092915050565b600060208284031215613c7857600080fd5b6000613c868482850161395f565b91505092915050565b600060208284031215613ca157600080fd5b6000613caf848285016139b3565b91505092915050565b600060208284031215613cca57600080fd5b6000613cd8848285016139c8565b91505092915050565b60008060408385031215613cf457600080fd5b6000613d02858286016139b3565b925050602083013567ffffffffffffffff811115613d1f57600080fd5b613d2b858286016138f6565b9150509250929050565b6000613d4183836141f0565b60608301905092915050565b613d568161493f565b82525050565b613d658161493f565b82525050565b6000613d7682614818565b613d808185614846565b9350613d8b83614808565b8060005b83811015613dbc578151613da38882613d35565b9750613dae83614839565b925050600181019050613d8f565b5085935050505092915050565b613dd281614951565b82525050565b6000613de382614823565b613ded8185614857565b9350613dfd8185602086016149d4565b613e0681614bca565b840191505092915050565b6000613e1c8261482e565b613e268185614868565b9350613e368185602086016149d4565b613e3f81614bca565b840191505092915050565b6000613e558261482e565b613e5f8185614879565b9350613e6f8185602086016149d4565b80840191505092915050565b6000613e88602b83614868565b9150613e9382614bdb565b604082019050919050565b6000613eab603283614868565b9150613eb682614c2a565b604082019050919050565b6000613ece601783614868565b9150613ed982614c79565b602082019050919050565b6000613ef1601c83614868565b9150613efc82614ca2565b602082019050919050565b6000613f14602483614868565b9150613f1f82614ccb565b604082019050919050565b6000613f37601983614868565b9150613f4282614d1a565b602082019050919050565b6000613f5a601783614868565b9150613f6582614d43565b602082019050919050565b6000613f7d601783614868565b9150613f8882614d6c565b602082019050919050565b6000613fa0602c83614868565b9150613fab82614d95565b604082019050919050565b6000613fc3603883614868565b9150613fce82614de4565b604082019050919050565b6000613fe6601283614868565b9150613ff182614e33565b602082019050919050565b6000614009602a83614868565b915061401482614e5c565b604082019050919050565b600061402c602983614868565b915061403782614eab565b604082019050919050565b600061404f602083614868565b915061405a82614efa565b602082019050919050565b6000614072602c83614868565b915061407d82614f23565b604082019050919050565b6000614095602983614868565b91506140a082614f72565b604082019050919050565b60006140b8602f83614868565b91506140c382614fc1565b604082019050919050565b60006140db602183614868565b91506140e682615010565b604082019050919050565b60006140fe602883614868565b91506141098261505f565b604082019050919050565b6000614121603183614868565b915061412c826150ae565b604082019050919050565b6000614144603183614868565b915061414f826150fd565b604082019050919050565b6000614167602c83614868565b91506141728261514c565b604082019050919050565b600061418a601a83614868565b91506141958261519b565b602082019050919050565b600060608301600083015184820360008601526141bd8282613d6b565b91505060208301516141d26020860182614232565b5060408301516141e56040860182614232565b508091505092915050565b6060820160008201516142066000850182613d4d565b5060208201516142196020850182614232565b50604082015161422c6040850182614232565b50505050565b61423b816149bb565b82525050565b61424a816149bb565b82525050565b600061425c8285613e4a565b91506142688284613e4a565b91508190509392505050565b60006020820190506142896000830184613d5c565b92915050565b60006060820190506142a46000830186613d5c565b6142b16020830185613d5c565b6142be6040830184614241565b949350505050565b60006080820190506142db6000830187613d5c565b6142e86020830186613d5c565b6142f56040830185614241565b81810360608301526143078184613dd8565b905095945050505050565b60006040820190506143276000830185613d5c565b6143346020830184614241565b9392505050565b60006020820190506143506000830184613dc9565b92915050565b600060208201905081810360008301526143708184613e11565b905092915050565b600060408201905081810360008301526143928185613e11565b90506143a16020830184614241565b9392505050565b600060808201905081810360008301526143c28187613e11565b90506143d16020830186614241565b6143de6040830185613d5c565b6143eb6060830184614241565b95945050505050565b6000606082019050818103600083015261440e8186613e11565b905061441d6020830185614241565b61442a6040830184614241565b949350505050565b6000602082019050818103600083015261444b81613e7b565b9050919050565b6000602082019050818103600083015261446b81613e9e565b9050919050565b6000602082019050818103600083015261448b81613ec1565b9050919050565b600060208201905081810360008301526144ab81613ee4565b9050919050565b600060208201905081810360008301526144cb81613f07565b9050919050565b600060208201905081810360008301526144eb81613f2a565b9050919050565b6000602082019050818103600083015261450b81613f4d565b9050919050565b6000602082019050818103600083015261452b81613f70565b9050919050565b6000602082019050818103600083015261454b81613f93565b9050919050565b6000602082019050818103600083015261456b81613fb6565b9050919050565b6000602082019050818103600083015261458b81613fd9565b9050919050565b600060208201905081810360008301526145ab81613ffc565b9050919050565b600060208201905081810360008301526145cb8161401f565b9050919050565b600060208201905081810360008301526145eb81614042565b9050919050565b6000602082019050818103600083015261460b81614065565b9050919050565b6000602082019050818103600083015261462b81614088565b9050919050565b6000602082019050818103600083015261464b816140ab565b9050919050565b6000602082019050818103600083015261466b816140ce565b9050919050565b6000602082019050818103600083015261468b816140f1565b9050919050565b600060208201905081810360008301526146ab81614114565b9050919050565b600060208201905081810360008301526146cb81614137565b9050919050565b600060208201905081810360008301526146eb8161415a565b9050919050565b6000602082019050818103600083015261470b8161417d565b9050919050565b6000602082019050818103600083015261472c81846141a0565b905092915050565b60006020820190506147496000830184614241565b92915050565b60006060820190506147646000830186614241565b6147716020830185614241565b61477e6040830184614241565b949350505050565b60006147906147a1565b905061479c8282614a63565b919050565b6000604051905090565b600067ffffffffffffffff8211156147c6576147c5614b9b565b5b602082029050602081019050919050565b600067ffffffffffffffff8211156147f2576147f1614b9b565b5b6147fb82614bca565b9050602081019050919050565b6000819050602082019050919050565b600081519050919050565b600081519050919050565b600081519050919050565b6000602082019050919050565b600082825260208201905092915050565b600082825260208201905092915050565b600082825260208201905092915050565b600081905092915050565b600061488f826149bb565b915061489a836149bb565b9250827fffffffffffffffffffffffffffffffffffffffffffffffffffffffffffffffff038211156148cf576148ce614b0e565b5b828201905092915050565b60006148e5826149bb565b91506148f0836149bb565b925082614900576148ff614b3d565b5b828204905092915050565b6000614916826149bb565b9150614921836149bb565b92508282101561493457614933614b0e565b5b828203905092915050565b600061494a8261499b565b9050919050565b60008115159050919050565b60007fffffffff0000000000000000000000000000000000000000000000000000000082169050919050565b60006149948261493f565b9050919050565b600073ffffffffffffffffffffffffffffffffffffffff82169050919050565b6000819050919050565b82818337600083830152505050565b60005b838110156149f25780820151818401526020810190506149d7565b83811115614a01576000848401525b50505050565b6000614a12826149bb565b91506000821415614a2657614a25614b0e565b5b600182039050919050565b60006002820490506001821680614a4957607f821691505b60208210811415614a5d57614a5c614b6c565b5b50919050565b614a6c82614bca565b810181811067ffffffffffffffff82111715614a8b57614a8a614b9b565b5b80604052505050565b6000614a9f826149bb565b91507fffffffffffffffffffffffffffffffffffffffffffffffffffffffffffffffff821415614ad257614ad1614b0e565b5b600182019050919050565b6000614ae8826149bb565b9150614af3836149bb565b925082614b0357614b02614b3d565b5b828206905092915050565b7f4e487b7100000000000000000000000000000000000000000000000000000000600052601160045260246000fd5b7f4e487b7100000000000000000000000000000000000000000000000000000000600052601260045260246000fd5b7f4e487b7100000000000000000000000000000000000000000000000000000000600052602260045260246000fd5b7f4e487b7100000000000000000000000000000000000000000000000000000000600052604160045260246000fd5b6000601f19601f8301169050919050565b7f455243373231456e756d657261626c653a206f776e657220696e646578206f7560008201527f74206f6620626f756e6473000000000000000000000000000000000000000000602082015250565b7f4552433732313a207472616e7366657220746f206e6f6e20455243373231526560008201527f63656976657220696d706c656d656e7465720000000000000000000000000000602082015250565b7f4f6e6c79206f776e65722063616e206d65726765207361000000000000000000600082015250565b7f4552433732313a20746f6b656e20616c7265616479206d696e74656400000000600082015250565b7f4552433732313a207472616e7366657220746f20746865207a65726f2061646460008201527f7265737300000000000000000000000000000000000000000000000000000000602082015250565b7f4552433732313a20617070726f766520746f2063616c6c657200000000000000600082015250565b7f43616c6c6572206973206e6f74204e4654206f776e6572000000000000000000600082015250565b7f546f6f206665772053417320666f72206d657267696e67000000000000000000600082015250565b7f4552433732313a206f70657261746f7220717565727920666f72206e6f6e657860008201527f697374656e7420746f6b656e0000000000000000000000000000000000000000602082015250565b7f4552433732313a20617070726f76652063616c6c6572206973206e6f74206f7760008201527f6e6572206e6f7220617070726f76656420666f7220616c6c0000000000000000602082015250565b7f53706c697420697320696e636f72726563740000000000000000000000000000600082015250565b7f4552433732313a2062616c616e636520717565727920666f7220746865207a6560008201527f726f206164647265737300000000000000000000000000000000000000000000602082015250565b7f4552433732313a206f776e657220717565727920666f72206e6f6e657869737460008201527f656e7420746f6b656e0000000000000000000000000000000000000000000000602082015250565b7f4552433732313a206d696e7420746f20746865207a65726f2061646472657373600082015250565b7f4552433732313a20617070726f76656420717565727920666f72206e6f6e657860008201527f697374656e7420746f6b656e0000000000000000000000000000000000000000602082015250565b7f4552433732313a207472616e73666572206f6620746f6b656e2074686174206960008201527f73206e6f74206f776e0000000000000000000000000000000000000000000000602082015250565b7f4552433732314d657461646174613a2055524920717565727920666f72206e6f60008201527f6e6578697374656e7420746f6b656e0000000000000000000000000000000000602082015250565b7f4552433732313a20617070726f76616c20746f2063757272656e74206f776e6560008201527f7200000000000000000000000000000000000000000000000000000000000000602082015250565b7f4f6e6c792073616c6520636f6e74726163742063616e206d696e74206974732060008201527f6f776e204e465421000000000000000000000000000000000000000000000000602082015250565b7f4552433732313a207472616e736665722063616c6c6572206973206e6f74206f60008201527f776e6572206e6f7220617070726f766564000000000000000000000000000000602082015250565b7f53414e46542e73706c69743a206c656e677468206f6620737562534120646f6560008201527f73206e6f74206d617463682073706c6974000000000000000000000000000000602082015250565b7f455243373231456e756d657261626c653a20676c6f62616c20696e646578206f60008201527f7574206f6620626f756e64730000000000000000000000000000000000000000602082015250565b7f53412063616e206e6f74206d6572676520746f20697473656c66000000000000600082015250565b6151cd8161493f565b81146151d857600080fd5b50565b6151e481614951565b81146151ef57600080fd5b50565b6151fb8161495d565b811461520657600080fd5b50565b61521281614989565b811461521d57600080fd5b50565b615229816149bb565b811461523457600080fd5b5056fea2646970667358221220f48eb907eea4583af5dcea77920b2437ad7a0ae980bd9ea8a1e1935547e81a2c64736f6c63430008030033",
  "linkReferences": {},
  "deployedLinkReferences": {}
}