{
  "_format": "hh-sol-artifact-1",
  "contractName": "SANFT",
  "sourceName": "contracts/SANFT.sol",
  "abi": [
    {
      "inputs": [
        {
          "internalType": "address",
          "name": "feeToken",
          "type": "address"
        },
        {
          "internalType": "uint256",
          "name": "feeAmount",
          "type": "uint256"
        }
      ],
      "stateMutability": "nonpayable",
      "type": "constructor"
    },
    {
      "anonymous": false,
      "inputs": [
        {
          "indexed": true,
          "internalType": "address",
          "name": "owner",
          "type": "address"
        },
        {
          "indexed": true,
          "internalType": "address",
          "name": "approved",
          "type": "address"
        },
        {
          "indexed": true,
          "internalType": "uint256",
          "name": "tokenId",
          "type": "uint256"
        }
      ],
      "name": "Approval",
      "type": "event"
    },
    {
      "anonymous": false,
      "inputs": [
        {
          "indexed": true,
          "internalType": "address",
          "name": "owner",
          "type": "address"
        },
        {
          "indexed": true,
          "internalType": "address",
          "name": "operator",
          "type": "address"
        },
        {
          "indexed": false,
          "internalType": "bool",
          "name": "approved",
          "type": "bool"
        }
      ],
      "name": "ApprovalForAll",
      "type": "event"
    },
    {
      "anonymous": false,
      "inputs": [
        {
          "indexed": true,
          "internalType": "address",
          "name": "from",
          "type": "address"
        },
        {
          "indexed": true,
          "internalType": "address",
          "name": "to",
          "type": "address"
        },
        {
          "indexed": true,
          "internalType": "uint256",
          "name": "tokenId",
          "type": "uint256"
        }
      ],
      "name": "Transfer",
      "type": "event"
    },
    {
      "inputs": [
        {
          "internalType": "address",
          "name": "to",
          "type": "address"
        },
        {
          "internalType": "uint256",
          "name": "tokenId",
          "type": "uint256"
        }
      ],
      "name": "approve",
      "outputs": [],
      "stateMutability": "nonpayable",
      "type": "function"
    },
    {
      "inputs": [
        {
          "internalType": "address",
          "name": "owner",
          "type": "address"
        }
      ],
      "name": "balanceOf",
      "outputs": [
        {
          "internalType": "uint256",
          "name": "",
          "type": "uint256"
        }
      ],
      "stateMutability": "view",
      "type": "function"
    },
    {
      "inputs": [
        {
          "internalType": "uint256",
          "name": "tokenId",
          "type": "uint256"
        }
      ],
      "name": "getApproved",
      "outputs": [
        {
          "internalType": "address",
          "name": "",
          "type": "address"
        }
      ],
      "stateMutability": "view",
      "type": "function"
    },
    {
      "inputs": [
        {
          "internalType": "uint256",
          "name": "saId",
          "type": "uint256"
        }
      ],
      "name": "getSA",
      "outputs": [
        {
          "components": [
            {
              "components": [
                {
                  "internalType": "address",
                  "name": "sale",
                  "type": "address"
                },
                {
                  "internalType": "uint256",
                  "name": "remainingAmount",
                  "type": "uint256"
                },
                {
                  "internalType": "uint256",
                  "name": "vestedPercentage",
                  "type": "uint256"
                }
              ],
              "internalType": "struct SANFT.SubSA[]",
              "name": "subSAs",
              "type": "tuple[]"
            },
            {
              "internalType": "uint256",
              "name": "creationTime",
              "type": "uint256"
            },
            {
              "internalType": "uint256",
              "name": "acquisitionTime",
              "type": "uint256"
            }
          ],
          "internalType": "struct SANFT.SA",
          "name": "",
          "type": "tuple"
        }
      ],
      "stateMutability": "view",
      "type": "function"
    },
    {
      "inputs": [
        {
          "internalType": "address",
          "name": "owner",
          "type": "address"
        },
        {
          "internalType": "address",
          "name": "operator",
          "type": "address"
        }
      ],
      "name": "isApprovedForAll",
      "outputs": [
        {
          "internalType": "bool",
          "name": "",
          "type": "bool"
        }
      ],
      "stateMutability": "view",
      "type": "function"
    },
    {
      "inputs": [
        {
          "internalType": "uint256[]",
          "name": "saIds",
          "type": "uint256[]"
        }
      ],
      "name": "merge",
      "outputs": [],
      "stateMutability": "nonpayable",
      "type": "function"
    },
    {
      "inputs": [
        {
          "internalType": "address",
          "name": "to",
          "type": "address"
        },
        {
          "internalType": "contract Sale",
          "name": "sale_",
          "type": "address"
        },
        {
          "internalType": "uint256",
          "name": "amount",
          "type": "uint256"
        }
      ],
      "name": "mint",
      "outputs": [],
      "stateMutability": "nonpayable",
      "type": "function"
    },
    {
      "inputs": [],
      "name": "name",
      "outputs": [
        {
          "internalType": "string",
          "name": "",
          "type": "string"
        }
      ],
      "stateMutability": "view",
      "type": "function"
    },
    {
      "inputs": [
        {
          "internalType": "uint256",
          "name": "tokenId",
          "type": "uint256"
        }
      ],
      "name": "ownerOf",
      "outputs": [
        {
          "internalType": "address",
          "name": "",
          "type": "address"
        }
      ],
      "stateMutability": "view",
      "type": "function"
    },
    {
      "inputs": [
        {
          "internalType": "address",
          "name": "from",
          "type": "address"
        },
        {
          "internalType": "address",
          "name": "to",
          "type": "address"
        },
        {
          "internalType": "uint256",
          "name": "tokenId",
          "type": "uint256"
        }
      ],
      "name": "safeTransferFrom",
      "outputs": [],
      "stateMutability": "nonpayable",
      "type": "function"
    },
    {
      "inputs": [
        {
          "internalType": "address",
          "name": "from",
          "type": "address"
        },
        {
          "internalType": "address",
          "name": "to",
          "type": "address"
        },
        {
          "internalType": "uint256",
          "name": "tokenId",
          "type": "uint256"
        },
        {
          "internalType": "bytes",
          "name": "_data",
          "type": "bytes"
        }
      ],
      "name": "safeTransferFrom",
      "outputs": [],
      "stateMutability": "nonpayable",
      "type": "function"
    },
    {
      "inputs": [
        {
          "internalType": "address",
          "name": "operator",
          "type": "address"
        },
        {
          "internalType": "bool",
          "name": "approved",
          "type": "bool"
        }
      ],
      "name": "setApprovalForAll",
      "outputs": [],
      "stateMutability": "nonpayable",
      "type": "function"
    },
    {
      "inputs": [
        {
          "internalType": "uint256",
          "name": "saId",
          "type": "uint256"
        },
        {
          "internalType": "uint256[]",
          "name": "keptAmounts",
          "type": "uint256[]"
        }
      ],
      "name": "split",
      "outputs": [],
      "stateMutability": "nonpayable",
      "type": "function"
    },
    {
      "inputs": [
        {
          "internalType": "bytes4",
          "name": "interfaceId",
          "type": "bytes4"
        }
      ],
      "name": "supportsInterface",
      "outputs": [
        {
          "internalType": "bool",
          "name": "",
          "type": "bool"
        }
      ],
      "stateMutability": "view",
      "type": "function"
    },
    {
      "inputs": [],
      "name": "symbol",
      "outputs": [
        {
          "internalType": "string",
          "name": "",
          "type": "string"
        }
      ],
      "stateMutability": "view",
      "type": "function"
    },
    {
      "inputs": [
        {
          "internalType": "uint256",
          "name": "index",
          "type": "uint256"
        }
      ],
      "name": "tokenByIndex",
      "outputs": [
        {
          "internalType": "uint256",
          "name": "",
          "type": "uint256"
        }
      ],
      "stateMutability": "view",
      "type": "function"
    },
    {
      "inputs": [
        {
          "internalType": "address",
          "name": "owner",
          "type": "address"
        },
        {
          "internalType": "uint256",
          "name": "index",
          "type": "uint256"
        }
      ],
      "name": "tokenOfOwnerByIndex",
      "outputs": [
        {
          "internalType": "uint256",
          "name": "",
          "type": "uint256"
        }
      ],
      "stateMutability": "view",
      "type": "function"
    },
    {
      "inputs": [
        {
          "internalType": "uint256",
          "name": "tokenId",
          "type": "uint256"
        }
      ],
      "name": "tokenURI",
      "outputs": [
        {
          "internalType": "string",
          "name": "",
          "type": "string"
        }
      ],
      "stateMutability": "view",
      "type": "function"
    },
    {
      "inputs": [],
      "name": "totalSupply",
      "outputs": [
        {
          "internalType": "uint256",
          "name": "",
          "type": "uint256"
        }
      ],
      "stateMutability": "view",
      "type": "function"
    },
    {
      "inputs": [
        {
          "internalType": "address",
          "name": "from",
          "type": "address"
        },
        {
          "internalType": "address",
          "name": "to",
          "type": "address"
        },
        {
          "internalType": "uint256",
          "name": "tokenId",
          "type": "uint256"
        }
      ],
      "name": "transferFrom",
      "outputs": [],
      "stateMutability": "nonpayable",
      "type": "function"
    },
    {
      "inputs": [
        {
          "internalType": "uint256",
          "name": "saId",
          "type": "uint256"
        }
      ],
      "name": "vest",
      "outputs": [],
      "stateMutability": "nonpayable",
      "type": "function"
    }
  ],
  "bytecode": "0x60806040526001600d553480156200001657600080fd5b50604051620052813803806200528183398181016040528101906200003c91906200024b565b6040518060400160405280600c81526020017f5341204e465420546f6b656e00000000000000000000000000000000000000008152506040518060400160405280600581526020017f53414e46540000000000000000000000000000000000000000000000000000008152508160009080519060200190620000c09291906200016d565b508060019080519060200190620000d99291906200016d565b50505033600a60006101000a81548173ffffffffffffffffffffffffffffffffffffffff021916908373ffffffffffffffffffffffffffffffffffffffff16021790555081600b60006101000a81548173ffffffffffffffffffffffffffffffffffffffff021916908373ffffffffffffffffffffffffffffffffffffffff16021790555080600c81905550505062000363565b8280546200017b90620002ca565b90600052602060002090601f0160209004810192826200019f5760008555620001eb565b82601f10620001ba57805160ff1916838001178555620001eb565b82800160010185558215620001eb579182015b82811115620001ea578251825591602001919060010190620001cd565b5b509050620001fa9190620001fe565b5090565b5b8082111562000219576000816000905550600101620001ff565b5090565b6000815190506200022e816200032f565b92915050565b600081519050620002458162000349565b92915050565b600080604083850312156200025f57600080fd5b60006200026f858286016200021d565b9250506020620002828582860162000234565b9150509250929050565b60006200029982620002a0565b9050919050565b600073ffffffffffffffffffffffffffffffffffffffff82169050919050565b6000819050919050565b60006002820490506001821680620002e357607f821691505b60208210811415620002fa57620002f962000300565b5b50919050565b7f4e487b7100000000000000000000000000000000000000000000000000000000600052602260045260246000fd5b6200033a816200028c565b81146200034657600080fd5b50565b6200035481620002c0565b81146200036057600080fd5b50565b614f0e80620003736000396000f3fe608060405234801561001057600080fd5b50600436106101375760003560e01c80636352211e116100b8578063a22cb4651161007c578063a22cb46514610372578063b88d4fde1461038e578063c6c3bbe6146103aa578063c87b56dd146103c6578063de62d842146103f6578063e985e9c51461041257610137565b80636352211e146102bc57806369c67247146102ec5780636a760b801461030857806370a082311461032457806395d89b411461035457610137565b806323b872dd116100ff57806323b872dd146101f45780632cd820ee146102105780632f745c591461024057806342842e0e146102705780634f6ccce71461028c57610137565b806301ffc9a71461013c57806306fdde031461016c578063081812fc1461018a578063095ea7b3146101ba57806318160ddd146101d6575b600080fd5b61015660048036038101906101519190613a42565b610442565b6040516101639190614615565b60405180910390f35b6101746104bc565b6040516101819190614630565b60405180910390f35b6101a4600480360381019061019f9190613a94565b61054e565b6040516101b1919061454e565b60405180910390f35b6101d460048036038101906101cf919061399c565b6105d3565b005b6101de6106eb565b6040516101eb9190614a0e565b60405180910390f35b61020e60048036038101906102099190613847565b6106f8565b005b61022a60048036038101906102259190613a94565b610758565b60405161023791906149ec565b60405180910390f35b61025a6004803603810190610255919061399c565b610862565b6040516102679190614a0e565b60405180910390f35b61028a60048036038101906102859190613847565b610907565b005b6102a660048036038101906102a19190613a94565b610927565b6040516102b39190614a0e565b60405180910390f35b6102d660048036038101906102d19190613a94565b6109be565b6040516102e3919061454e565b60405180910390f35b61030660048036038101906103019190613ae6565b610a70565b005b610322600480360381019061031d9190613a94565b610fc5565b005b61033e600480360381019061033991906137e2565b611330565b60405161034b9190614a0e565b60405180910390f35b61035c6113e8565b6040516103699190614630565b60405180910390f35b61038c60048036038101906103879190613911565b61147a565b005b6103a860048036038101906103a39190613896565b6115fb565b005b6103c460048036038101906103bf919061394d565b61165d565b005b6103e060048036038101906103db9190613a94565b611827565b6040516103ed9190614630565b60405180910390f35b610410600480360381019061040b91906139d8565b6118ce565b005b61042c6004803603810190610427919061380b565b612110565b6040516104399190614615565b60405180910390f35b60007f780e9d63000000000000000000000000000000000000000000000000000000007bffffffffffffffffffffffffffffffffffffffffffffffffffffffff1916827bffffffffffffffffffffffffffffffffffffffffffffffffffffffff191614806104b557506104b4826121a4565b5b9050919050565b6060600080546104cb90614cec565b80601f01602080910402602001604051908101604052809291908181526020018280546104f790614cec565b80156105445780601f1061051957610100808354040283529160200191610544565b820191906000526020600020905b81548152906001019060200180831161052757829003601f168201915b5050505050905090565b600061055982612286565b610598576040517f08c379a000000000000000000000000000000000000000000000000000000000815260040161058f906148cc565b60405180910390fd5b6004600083815260200190815260200160002060009054906101000a900473ffffffffffffffffffffffffffffffffffffffff169050919050565b60006105de826109be565b90508073ffffffffffffffffffffffffffffffffffffffff168373ffffffffffffffffffffffffffffffffffffffff16141561064f576040517f08c379a00000000000000000000000000000000000000000000000000000000081526004016106469061492c565b60405180910390fd5b8073ffffffffffffffffffffffffffffffffffffffff1661066e6122f2565b73ffffffffffffffffffffffffffffffffffffffff16148061069d575061069c816106976122f2565b612110565b5b6106dc576040517f08c379a00000000000000000000000000000000000000000000000000000000081526004016106d39061482c565b60405180910390fd5b6106e683836122fa565b505050565b6000600880549050905090565b6107096107036122f2565b826123b3565b610748576040517f08c379a000000000000000000000000000000000000000000000000000000000815260040161073f9061496c565b60405180910390fd5b610753838383612491565b505050565b6107606135a9565b600e600083815260200190815260200160002060405180606001604052908160008201805480602002602001604051908101604052809291908181526020016000905b8282101561083f57838290600052602060002090600302016040518060600160405290816000820160009054906101000a900473ffffffffffffffffffffffffffffffffffffffff1673ffffffffffffffffffffffffffffffffffffffff1673ffffffffffffffffffffffffffffffffffffffff16815260200160018201548152602001600282015481525050815260200190600101906107a3565b505050508152602001600182015481526020016002820154815250509050919050565b600061086d83611330565b82106108ae576040517f08c379a00000000000000000000000000000000000000000000000000000000081526004016108a59061470c565b60405180910390fd5b600660008473ffffffffffffffffffffffffffffffffffffffff1673ffffffffffffffffffffffffffffffffffffffff168152602001908152602001600020600083815260200190815260200160002054905092915050565b610922838383604051806020016040528060008152506115fb565b505050565b60006109316106eb565b8210610972576040517f08c379a0000000000000000000000000000000000000000000000000000000008152600401610969906149ac565b60405180910390fd5b600882815481106109ac577f4e487b7100000000000000000000000000000000000000000000000000000000600052603260045260246000fd5b90600052602060002001549050919050565b6000806002600084815260200190815260200160002060009054906101000a900473ffffffffffffffffffffffffffffffffffffffff169050600073ffffffffffffffffffffffffffffffffffffffff168173ffffffffffffffffffffffffffffffffffffffff161415610a67576040517f08c379a0000000000000000000000000000000000000000000000000000000008152600401610a5e9061488c565b60405180910390fd5b80915050919050565b813373ffffffffffffffffffffffffffffffffffffffff16610a91826109be565b73ffffffffffffffffffffffffffffffffffffffff1614610ae7576040517f08c379a0000000000000000000000000000000000000000000000000000000008152600401610ade906147cc565b60405180910390fd5b600b60009054906101000a900473ffffffffffffffffffffffffffffffffffffffff1673ffffffffffffffffffffffffffffffffffffffff166323b872dd33600a60009054906101000a900473ffffffffffffffffffffffffffffffffffffffff16600c546040518463ffffffff1660e01b8152600401610b6a93929190614569565b602060405180830381600087803b158015610b8457600080fd5b505af1158015610b98573d6000803e3d6000fd5b505050506040513d601f19601f82011682018060405250810190610bbc9190613a19565b50610bc683610fc5565b6000600e600085815260200190815260200160002090506000816000019050610bf133600d54612577565b6000600e6000600d54815260200190815260200160002090506001600d6000828254610c1d9190614b69565b925050819055504281600101819055504281600201819055508260000180549050855114610c80576040517f08c379a0000000000000000000000000000000000000000000000000000000008152600401610c779061498c565b60405180910390fd5b60005b8551811015610fbc57858181518110610cc5577f4e487b7100000000000000000000000000000000000000000000000000000000600052603260045260246000fd5b6020026020010151838281548110610d06577f4e487b7100000000000000000000000000000000000000000000000000000000600052603260045260246000fd5b9060005260206000209060030201600101541015610d59576040517f08c379a0000000000000000000000000000000000000000000000000000000008152600401610d509061484c565b60405180910390fd5b60006040518060600160405280858481548110610d9f577f4e487b7100000000000000000000000000000000000000000000000000000000600052603260045260246000fd5b906000526020600020906003020160000160009054906101000a900473ffffffffffffffffffffffffffffffffffffffff1673ffffffffffffffffffffffffffffffffffffffff168152602001888481518110610e25577f4e487b7100000000000000000000000000000000000000000000000000000000600052603260045260246000fd5b6020026020010151868581548110610e66577f4e487b7100000000000000000000000000000000000000000000000000000000600052603260045260246000fd5b906000526020600020906003020160010154610e829190614bf0565b8152602001600081525090508260000181908060018154018082558091505060019003906000526020600020906003020160009091909190915060008201518160000160006101000a81548173ffffffffffffffffffffffffffffffffffffffff021916908373ffffffffffffffffffffffffffffffffffffffff16021790555060208201518160010155604082015181600201555050868281518110610f52577f4e487b7100000000000000000000000000000000000000000000000000000000600052603260045260246000fd5b6020026020010151848381548110610f93577f4e487b7100000000000000000000000000000000000000000000000000000000600052603260045260246000fd5b906000526020600020906003020160010181905550508080610fb490614d1e565b915050610c83565b50505050505050565b803373ffffffffffffffffffffffffffffffffffffffff16610fe6826109be565b73ffffffffffffffffffffffffffffffffffffffff161461103c576040517f08c379a0000000000000000000000000000000000000000000000000000000008152600401611033906147cc565b60405180910390fd5b61107b6040518060400160405280600781526020017f76657374696e670000000000000000000000000000000000000000000000000081525083612745565b6000600e6000848152602001908152602001600020905060005b816000018054905081101561132a5760008260000182815481106110e2577f4e487b7100000000000000000000000000000000000000000000000000000000600052603260045260246000fd5b9060005260206000209060030201905060008160000160009054906101000a900473ffffffffffffffffffffffffffffffffffffffff16905060008173ffffffffffffffffffffffffffffffffffffffff1663461f3cc56040518163ffffffff1660e01b815260040160206040518083038186803b15801561116357600080fd5b505afa158015611177573d6000803e3d6000fd5b505050506040513d601f19601f8201168201806040525081019061119b9190613abd565b905060008273ffffffffffffffffffffffffffffffffffffffff166327ba8bfb83866002015487600101546040518463ffffffff1660e01b81526004016111e493929190614a29565b60206040518083038186803b1580156111fc57600080fd5b505afa158015611210573d6000803e3d6000fd5b505050506040513d601f19601f820116820180604052508101906112349190613abd565b90508273ffffffffffffffffffffffffffffffffffffffff16632797c6c861125b8a6109be565b836040518363ffffffff1660e01b81526004016112799291906145ec565b600060405180830381600087803b15801561129357600080fd5b505af11580156112a7573d6000803e3d6000fd5b505050506112eb6040518060400160405280600781526020017f76657374696e670000000000000000000000000000000000000000000000000081525089836127e1565b61130281856001015461288090919063ffffffff16565b846001018190555081846002018190555050505050808061132290614d1e565b915050611095565b50505050565b60008073ffffffffffffffffffffffffffffffffffffffff168273ffffffffffffffffffffffffffffffffffffffff1614156113a1576040517f08c379a00000000000000000000000000000000000000000000000000000000081526004016113989061486c565b60405180910390fd5b600360008373ffffffffffffffffffffffffffffffffffffffff1673ffffffffffffffffffffffffffffffffffffffff168152602001908152602001600020549050919050565b6060600180546113f790614cec565b80601f016020809104026020016040519081016040528092919081815260200182805461142390614cec565b80156114705780601f1061144557610100808354040283529160200191611470565b820191906000526020600020905b81548152906001019060200180831161145357829003601f168201915b5050505050905090565b6114826122f2565b73ffffffffffffffffffffffffffffffffffffffff168273ffffffffffffffffffffffffffffffffffffffff1614156114f0576040517f08c379a00000000000000000000000000000000000000000000000000000000081526004016114e7906147ac565b60405180910390fd5b80600560006114fd6122f2565b73ffffffffffffffffffffffffffffffffffffffff1673ffffffffffffffffffffffffffffffffffffffff16815260200190815260200160002060008473ffffffffffffffffffffffffffffffffffffffff1673ffffffffffffffffffffffffffffffffffffffff16815260200190815260200160002060006101000a81548160ff0219169083151502179055508173ffffffffffffffffffffffffffffffffffffffff166115aa6122f2565b73ffffffffffffffffffffffffffffffffffffffff167f17307eab39ab6107e8899845ad3d59bd9653f200f220920489ca2b5937696c31836040516115ef9190614615565b60405180910390a35050565b61160c6116066122f2565b836123b3565b61164b576040517f08c379a00000000000000000000000000000000000000000000000000000000081526004016116429061496c565b60405180910390fd5b61165784848484612896565b50505050565b3373ffffffffffffffffffffffffffffffffffffffff168273ffffffffffffffffffffffffffffffffffffffff16146116cb576040517f08c379a00000000000000000000000000000000000000000000000000000000081526004016116c29061494c565b60405180910390fd5b6116d783600d54612577565b61171a6040518060400160405280600a81526020017f4d696e746564204e465400000000000000000000000000000000000000000000815250600d5485846128f2565b600060405180606001604052808473ffffffffffffffffffffffffffffffffffffffff168152602001838152602001600081525090506000600e6000600d54815260200190815260200160002090504281600201819055504281600101819055508060000182908060018154018082558091505060019003906000526020600020906003020160009091909190915060008201518160000160006101000a81548173ffffffffffffffffffffffffffffffffffffffff021916908373ffffffffffffffffffffffffffffffffffffffff160217905550602082015181600101556040820151816002015550506001600d60008282546118199190614b69565b925050819055505050505050565b606061183282612286565b611871576040517f08c379a00000000000000000000000000000000000000000000000000000000081526004016118689061490c565b60405180910390fd5b600061187b612994565b9050600081511161189b57604051806020016040528060008152506118c6565b806118a5846129ab565b6040516020016118b692919061452a565b6040516020818303038152906040525b915050919050565b600b60009054906101000a900473ffffffffffffffffffffffffffffffffffffffff1673ffffffffffffffffffffffffffffffffffffffff166323b872dd33600a60009054906101000a900473ffffffffffffffffffffffffffffffffffffffff16600c546040518463ffffffff1660e01b815260040161195193929190614569565b602060405180830381600087803b15801561196b57600080fd5b505af115801561197f573d6000803e3d6000fd5b505050506040513d601f19601f820116820180604052508101906119a39190613a19565b506002815110156119e9576040517f08c379a00000000000000000000000000000000000000000000000000000000081526004016119e0906147ec565b60405180910390fd5b60005b8151811015611abe573373ffffffffffffffffffffffffffffffffffffffff16611a55838381518110611a48577f4e487b7100000000000000000000000000000000000000000000000000000000600052603260045260246000fd5b60200260200101516109be565b73ffffffffffffffffffffffffffffffffffffffff1614611aab576040517f08c379a0000000000000000000000000000000000000000000000000000000008152600401611aa29061474c565b60405180910390fd5b8080611ab690614d1e565b9150506119ec565b50611b0981600081518110611afc577f4e487b7100000000000000000000000000000000000000000000000000000000600052603260045260246000fd5b6020026020010151610fc5565b6000600e600083600081518110611b49577f4e487b7100000000000000000000000000000000000000000000000000000000600052603260045260246000fd5b6020026020010151815260200190815260200160002090506000816000018054905090506000600190505b835181101561210a57838181518110611bb6577f4e487b7100000000000000000000000000000000000000000000000000000000600052603260045260246000fd5b602002602001015184600081518110611bf8577f4e487b7100000000000000000000000000000000000000000000000000000000600052603260045260246000fd5b60200260200101511415611c41576040517f08c379a0000000000000000000000000000000000000000000000000000000008152600401611c38906149cc565b60405180910390fd5b611c8a848281518110611c7d577f4e487b7100000000000000000000000000000000000000000000000000000000600052603260045260246000fd5b6020026020010151610fc5565b6000600e6000868481518110611cc9577f4e487b7100000000000000000000000000000000000000000000000000000000600052603260045260246000fd5b60200260200101518152602001908152602001600020905060005b8160000180549050811015612036576000805b85811015611f2757866000018181548110611d3b577f4e487b7100000000000000000000000000000000000000000000000000000000600052603260045260246000fd5b906000526020600020906003020160000160009054906101000a900473ffffffffffffffffffffffffffffffffffffffff1673ffffffffffffffffffffffffffffffffffffffff16846000018481548110611dbf577f4e487b7100000000000000000000000000000000000000000000000000000000600052603260045260246000fd5b906000526020600020906003020160000160009054906101000a900473ffffffffffffffffffffffffffffffffffffffff1673ffffffffffffffffffffffffffffffffffffffff161415611f1457611eba846000018481548110611e4c577f4e487b7100000000000000000000000000000000000000000000000000000000600052603260045260246000fd5b906000526020600020906003020160010154886000018381548110611e9a577f4e487b7100000000000000000000000000000000000000000000000000000000600052603260045260246000fd5b906000526020600020906003020160010154612b5890919063ffffffff16565b876000018281548110611ef6577f4e487b7100000000000000000000000000000000000000000000000000000000600052603260045260246000fd5b90600052602060002090600302016001018190555060019150611f27565b8080611f1f90614d1e565b915050611cf7565b50806120225785600001836000018381548110611f6d577f4e487b7100000000000000000000000000000000000000000000000000000000600052603260045260246000fd5b906000526020600020906003020190806001815401808255809150506001900390600052602060002090600302016000909190919091506000820160009054906101000a900473ffffffffffffffffffffffffffffffffffffffff168160000160006101000a81548173ffffffffffffffffffffffffffffffffffffffff021916908373ffffffffffffffffffffffffffffffffffffffff160217905550600182015481600101556002820154816002015550505b50808061202e90614d1e565b915050611ce4565b50600e6000868481518110612074577f4e487b7100000000000000000000000000000000000000000000000000000000600052603260045260246000fd5b602002602001015181526020019081526020016000206000808201600061209b91906135ca565b6001820160009055600282016000905550506120f68583815181106120e9577f4e487b7100000000000000000000000000000000000000000000000000000000600052603260045260246000fd5b6020026020010151612b6e565b50808061210290614d1e565b915050611b74565b50505050565b6000600560008473ffffffffffffffffffffffffffffffffffffffff1673ffffffffffffffffffffffffffffffffffffffff16815260200190815260200160002060008373ffffffffffffffffffffffffffffffffffffffff1673ffffffffffffffffffffffffffffffffffffffff16815260200190815260200160002060009054906101000a900460ff16905092915050565b60007f80ac58cd000000000000000000000000000000000000000000000000000000007bffffffffffffffffffffffffffffffffffffffffffffffffffffffff1916827bffffffffffffffffffffffffffffffffffffffffffffffffffffffff1916148061226f57507f5b5e139f000000000000000000000000000000000000000000000000000000007bffffffffffffffffffffffffffffffffffffffffffffffffffffffff1916827bffffffffffffffffffffffffffffffffffffffffffffffffffffffff1916145b8061227f575061227e82612c7f565b5b9050919050565b60008073ffffffffffffffffffffffffffffffffffffffff166002600084815260200190815260200160002060009054906101000a900473ffffffffffffffffffffffffffffffffffffffff1673ffffffffffffffffffffffffffffffffffffffff1614159050919050565b600033905090565b816004600083815260200190815260200160002060006101000a81548173ffffffffffffffffffffffffffffffffffffffff021916908373ffffffffffffffffffffffffffffffffffffffff160217905550808273ffffffffffffffffffffffffffffffffffffffff1661236d836109be565b73ffffffffffffffffffffffffffffffffffffffff167f8c5be1e5ebec7d5bd14f71427d1e84f3dd0314c0f7b2291e5b200ac8c7c3b92560405160405180910390a45050565b60006123be82612286565b6123fd576040517f08c379a00000000000000000000000000000000000000000000000000000000081526004016123f49061480c565b60405180910390fd5b6000612408836109be565b90508073ffffffffffffffffffffffffffffffffffffffff168473ffffffffffffffffffffffffffffffffffffffff16148061247757508373ffffffffffffffffffffffffffffffffffffffff1661245f8461054e565b73ffffffffffffffffffffffffffffffffffffffff16145b8061248857506124878185612110565b5b91505092915050565b600b60009054906101000a900473ffffffffffffffffffffffffffffffffffffffff1673ffffffffffffffffffffffffffffffffffffffff166323b872dd33600a60009054906101000a900473ffffffffffffffffffffffffffffffffffffffff16600c546040518463ffffffff1660e01b815260040161251493929190614569565b602060405180830381600087803b15801561252e57600080fd5b505af1158015612542573d6000803e3d6000fd5b505050506040513d601f19601f820116820180604052508101906125669190613a19565b50612572838383612ce9565b505050565b600073ffffffffffffffffffffffffffffffffffffffff168273ffffffffffffffffffffffffffffffffffffffff1614156125e7576040517f08c379a00000000000000000000000000000000000000000000000000000000081526004016125de906148ac565b60405180910390fd5b6125f081612286565b15612630576040517f08c379a00000000000000000000000000000000000000000000000000000000081526004016126279061476c565b60405180910390fd5b61263c60008383612f45565b6001600360008473ffffffffffffffffffffffffffffffffffffffff1673ffffffffffffffffffffffffffffffffffffffff168152602001908152602001600020600082825461268c9190614b69565b92505081905550816002600083815260200190815260200160002060006101000a81548173ffffffffffffffffffffffffffffffffffffffff021916908373ffffffffffffffffffffffffffffffffffffffff160217905550808273ffffffffffffffffffffffffffffffffffffffff16600073ffffffffffffffffffffffffffffffffffffffff167fddf252ad1be2c89b69c2b068fc378daa952ba7f163c4a11628f55a4df523b3ef60405160405180910390a45050565b6127dd828260405160240161275b929190614652565b6040516020818303038152906040527f9710a9d0000000000000000000000000000000000000000000000000000000007bffffffffffffffffffffffffffffffffffffffffffffffffffffffff19166020820180517bffffffffffffffffffffffffffffffffffffffffffffffffffffffff8381831617835250505050613059565b5050565b61287b8383836040516024016127f9939291906146ce565b6040516020818303038152906040527f969cdd03000000000000000000000000000000000000000000000000000000007bffffffffffffffffffffffffffffffffffffffffffffffffffffffff19166020820180517bffffffffffffffffffffffffffffffffffffffffffffffffffffffff8381831617835250505050613059565b505050565b6000818361288e9190614bf0565b905092915050565b6128a1848484612491565b6128ad84848484613082565b6128ec576040517f08c379a00000000000000000000000000000000000000000000000000000000081526004016128e39061472c565b60405180910390fd5b50505050565b61298e8484848460405160240161290c9493929190614682565b6040516020818303038152906040527f58497afe000000000000000000000000000000000000000000000000000000007bffffffffffffffffffffffffffffffffffffffffffffffffffffffff19166020820180517bffffffffffffffffffffffffffffffffffffffffffffffffffffffff8381831617835250505050613059565b50505050565b606060405180602001604052806000815250905090565b606060008214156129f3576040518060400160405280600181526020017f30000000000000000000000000000000000000000000000000000000000000008152509050612b53565b600082905060005b60008214612a25578080612a0e90614d1e565b915050600a82612a1e9190614bbf565b91506129fb565b60008167ffffffffffffffff811115612a67577f4e487b7100000000000000000000000000000000000000000000000000000000600052604160045260246000fd5b6040519080825280601f01601f191660200182016040528015612a995781602001600182028036833780820191505090505b5090505b60008514612b4c57600182612ab29190614bf0565b9150600a85612ac19190614d67565b6030612acd9190614b69565b60f81b818381518110612b09577f4e487b7100000000000000000000000000000000000000000000000000000000600052603260045260246000fd5b60200101907effffffffffffffffffffffffffffffffffffffffffffffffffffffffffffff1916908160001a905350600a85612b459190614bbf565b9450612a9d565b8093505050505b919050565b60008183612b669190614b69565b905092915050565b6000612b79826109be565b9050612b8781600084612f45565b612b926000836122fa565b6001600360008373ffffffffffffffffffffffffffffffffffffffff1673ffffffffffffffffffffffffffffffffffffffff1681526020019081526020016000206000828254612be29190614bf0565b925050819055506002600083815260200190815260200160002060006101000a81549073ffffffffffffffffffffffffffffffffffffffff021916905581600073ffffffffffffffffffffffffffffffffffffffff168273ffffffffffffffffffffffffffffffffffffffff167fddf252ad1be2c89b69c2b068fc378daa952ba7f163c4a11628f55a4df523b3ef60405160405180910390a45050565b60007f01ffc9a7000000000000000000000000000000000000000000000000000000007bffffffffffffffffffffffffffffffffffffffffffffffffffffffff1916827bffffffffffffffffffffffffffffffffffffffffffffffffffffffff1916149050919050565b8273ffffffffffffffffffffffffffffffffffffffff16612d09826109be565b73ffffffffffffffffffffffffffffffffffffffff1614612d5f576040517f08c379a0000000000000000000000000000000000000000000000000000000008152600401612d56906148ec565b60405180910390fd5b600073ffffffffffffffffffffffffffffffffffffffff168273ffffffffffffffffffffffffffffffffffffffff161415612dcf576040517f08c379a0000000000000000000000000000000000000000000000000000000008152600401612dc69061478c565b60405180910390fd5b612dda838383612f45565b612de56000826122fa565b6001600360008573ffffffffffffffffffffffffffffffffffffffff1673ffffffffffffffffffffffffffffffffffffffff1681526020019081526020016000206000828254612e359190614bf0565b925050819055506001600360008473ffffffffffffffffffffffffffffffffffffffff1673ffffffffffffffffffffffffffffffffffffffff1681526020019081526020016000206000828254612e8c9190614b69565b92505081905550816002600083815260200190815260200160002060006101000a81548173ffffffffffffffffffffffffffffffffffffffff021916908373ffffffffffffffffffffffffffffffffffffffff160217905550808273ffffffffffffffffffffffffffffffffffffffff168473ffffffffffffffffffffffffffffffffffffffff167fddf252ad1be2c89b69c2b068fc378daa952ba7f163c4a11628f55a4df523b3ef60405160405180910390a4505050565b612f50838383613219565b600073ffffffffffffffffffffffffffffffffffffffff168373ffffffffffffffffffffffffffffffffffffffff161415612f9357612f8e8161321e565b612fd2565b8173ffffffffffffffffffffffffffffffffffffffff168373ffffffffffffffffffffffffffffffffffffffff1614612fd157612fd08382613267565b5b5b600073ffffffffffffffffffffffffffffffffffffffff168273ffffffffffffffffffffffffffffffffffffffff16141561301557613010816133d4565b613054565b8273ffffffffffffffffffffffffffffffffffffffff168273ffffffffffffffffffffffffffffffffffffffff1614613053576130528282613517565b5b5b505050565b60008151905060006a636f6e736f6c652e6c6f679050602083016000808483855afa5050505050565b60006130a38473ffffffffffffffffffffffffffffffffffffffff16613596565b1561320c578373ffffffffffffffffffffffffffffffffffffffff1663150b7a026130cc6122f2565b8786866040518563ffffffff1660e01b81526004016130ee94939291906145a0565b602060405180830381600087803b15801561310857600080fd5b505af192505050801561313957506040513d601f19601f820116820180604052508101906131369190613a6b565b60015b6131bc573d8060008114613169576040519150601f19603f3d011682016040523d82523d6000602084013e61316e565b606091505b506000815114156131b4576040517f08c379a00000000000000000000000000000000000000000000000000000000081526004016131ab9061472c565b60405180910390fd5b805181602001fd5b63150b7a0260e01b7bffffffffffffffffffffffffffffffffffffffffffffffffffffffff1916817bffffffffffffffffffffffffffffffffffffffffffffffffffffffff191614915050613211565b600190505b949350505050565b505050565b6008805490506009600083815260200190815260200160002081905550600881908060018154018082558091505060019003906000526020600020016000909190919091505550565b6000600161327484611330565b61327e9190614bf0565b9050600060076000848152602001908152602001600020549050818114613363576000600660008673ffffffffffffffffffffffffffffffffffffffff1673ffffffffffffffffffffffffffffffffffffffff168152602001908152602001600020600084815260200190815260200160002054905080600660008773ffffffffffffffffffffffffffffffffffffffff1673ffffffffffffffffffffffffffffffffffffffff168152602001908152602001600020600084815260200190815260200160002081905550816007600083815260200190815260200160002081905550505b6007600084815260200190815260200160002060009055600660008573ffffffffffffffffffffffffffffffffffffffff1673ffffffffffffffffffffffffffffffffffffffff16815260200190815260200160002060008381526020019081526020016000206000905550505050565b600060016008805490506133e89190614bf0565b905060006009600084815260200190815260200160002054905060006008838154811061343e577f4e487b7100000000000000000000000000000000000000000000000000000000600052603260045260246000fd5b906000526020600020015490508060088381548110613486577f4e487b7100000000000000000000000000000000000000000000000000000000600052603260045260246000fd5b9060005260206000200181905550816009600083815260200190815260200160002081905550600960008581526020019081526020016000206000905560088054806134fb577f4e487b7100000000000000000000000000000000000000000000000000000000600052603160045260246000fd5b6001900381819060005260206000200160009055905550505050565b600061352283611330565b905081600660008573ffffffffffffffffffffffffffffffffffffffff1673ffffffffffffffffffffffffffffffffffffffff168152602001908152602001600020600083815260200190815260200160002081905550806007600084815260200190815260200160002081905550505050565b600080823b905060008111915050919050565b60405180606001604052806060815260200160008152602001600081525090565b50805460008255600302906000526020600020908101906135eb91906135ee565b50565b5b8082111561363857600080820160006101000a81549073ffffffffffffffffffffffffffffffffffffffff021916905560018201600090556002820160009055506003016135ef565b5090565b600061364f61364a84614a91565b614a60565b9050808382526020820190508285602086028201111561366e57600080fd5b60005b8581101561369e578161368488826137b8565b845260208401935060208301925050600181019050613671565b5050509392505050565b60006136bb6136b684614abd565b614a60565b9050828152602081018484840111156136d357600080fd5b6136de848285614caa565b509392505050565b6000813590506136f581614e65565b92915050565b600082601f83011261370c57600080fd5b813561371c84826020860161363c565b91505092915050565b60008135905061373481614e7c565b92915050565b60008151905061374981614e7c565b92915050565b60008135905061375e81614e93565b92915050565b60008151905061377381614e93565b92915050565b600082601f83011261378a57600080fd5b813561379a8482602086016136a8565b91505092915050565b6000813590506137b281614eaa565b92915050565b6000813590506137c781614ec1565b92915050565b6000815190506137dc81614ec1565b92915050565b6000602082840312156137f457600080fd5b6000613802848285016136e6565b91505092915050565b6000806040838503121561381e57600080fd5b600061382c858286016136e6565b925050602061383d858286016136e6565b9150509250929050565b60008060006060848603121561385c57600080fd5b600061386a868287016136e6565b935050602061387b868287016136e6565b925050604061388c868287016137b8565b9150509250925092565b600080600080608085870312156138ac57600080fd5b60006138ba878288016136e6565b94505060206138cb878288016136e6565b93505060406138dc878288016137b8565b925050606085013567ffffffffffffffff8111156138f957600080fd5b61390587828801613779565b91505092959194509250565b6000806040838503121561392457600080fd5b6000613932858286016136e6565b925050602061394385828601613725565b9150509250929050565b60008060006060848603121561396257600080fd5b6000613970868287016136e6565b9350506020613981868287016137a3565b9250506040613992868287016137b8565b9150509250925092565b600080604083850312156139af57600080fd5b60006139bd858286016136e6565b92505060206139ce858286016137b8565b9150509250929050565b6000602082840312156139ea57600080fd5b600082013567ffffffffffffffff811115613a0457600080fd5b613a10848285016136fb565b91505092915050565b600060208284031215613a2b57600080fd5b6000613a398482850161373a565b91505092915050565b600060208284031215613a5457600080fd5b6000613a628482850161374f565b91505092915050565b600060208284031215613a7d57600080fd5b6000613a8b84828501613764565b91505092915050565b600060208284031215613aa657600080fd5b6000613ab4848285016137b8565b91505092915050565b600060208284031215613acf57600080fd5b6000613add848285016137cd565b91505092915050565b60008060408385031215613af957600080fd5b6000613b07858286016137b8565b925050602083013567ffffffffffffffff811115613b2457600080fd5b613b30858286016136fb565b9150509250929050565b6000613b4683836144ca565b60608301905092915050565b613b5b81614c24565b82525050565b613b6a81614c24565b82525050565b6000613b7b82614afd565b613b858185614b2b565b9350613b9083614aed565b8060005b83811015613bc1578151613ba88882613b3a565b9750613bb383614b1e565b925050600181019050613b94565b5085935050505092915050565b613bd781614c36565b82525050565b6000613be882614b08565b613bf28185614b3c565b9350613c02818560208601614cb9565b613c0b81614e54565b840191505092915050565b6000613c2182614b13565b613c2b8185614b4d565b9350613c3b818560208601614cb9565b613c4481614e54565b840191505092915050565b6000613c5a82614b13565b613c648185614b5e565b9350613c74818560208601614cb9565b80840191505092915050565b6000613c8d602b83614b4d565b91507f455243373231456e756d657261626c653a206f776e657220696e646578206f7560008301527f74206f6620626f756e64730000000000000000000000000000000000000000006020830152604082019050919050565b6000613cf3603283614b4d565b91507f4552433732313a207472616e7366657220746f206e6f6e20455243373231526560008301527f63656976657220696d706c656d656e74657200000000000000000000000000006020830152604082019050919050565b6000613d59601783614b4d565b91507f4f6e6c79206f776e65722063616e206d657267652073610000000000000000006000830152602082019050919050565b6000613d99601c83614b4d565b91507f4552433732313a20746f6b656e20616c7265616479206d696e746564000000006000830152602082019050919050565b6000613dd9602483614b4d565b91507f4552433732313a207472616e7366657220746f20746865207a65726f2061646460008301527f72657373000000000000000000000000000000000000000000000000000000006020830152604082019050919050565b6000613e3f601983614b4d565b91507f4552433732313a20617070726f766520746f2063616c6c6572000000000000006000830152602082019050919050565b6000613e7f601783614b4d565b91507f43616c6c6572206973206e6f74204e4654206f776e65720000000000000000006000830152602082019050919050565b6000613ebf601783614b4d565b91507f546f6f206665772053417320666f72206d657267696e670000000000000000006000830152602082019050919050565b6000613eff602c83614b4d565b91507f4552433732313a206f70657261746f7220717565727920666f72206e6f6e657860008301527f697374656e7420746f6b656e00000000000000000000000000000000000000006020830152604082019050919050565b6000613f65603883614b4d565b91507f4552433732313a20617070726f76652063616c6c6572206973206e6f74206f7760008301527f6e6572206e6f7220617070726f76656420666f7220616c6c00000000000000006020830152604082019050919050565b6000613fcb601283614b4d565b91507f53706c697420697320696e636f727265637400000000000000000000000000006000830152602082019050919050565b600061400b602a83614b4d565b91507f4552433732313a2062616c616e636520717565727920666f7220746865207a6560008301527f726f2061646472657373000000000000000000000000000000000000000000006020830152604082019050919050565b6000614071602983614b4d565b91507f4552433732313a206f776e657220717565727920666f72206e6f6e657869737460008301527f656e7420746f6b656e00000000000000000000000000000000000000000000006020830152604082019050919050565b60006140d7602083614b4d565b91507f4552433732313a206d696e7420746f20746865207a65726f20616464726573736000830152602082019050919050565b6000614117602c83614b4d565b91507f4552433732313a20617070726f76656420717565727920666f72206e6f6e657860008301527f697374656e7420746f6b656e00000000000000000000000000000000000000006020830152604082019050919050565b600061417d602983614b4d565b91507f4552433732313a207472616e73666572206f6620746f6b656e2074686174206960008301527f73206e6f74206f776e00000000000000000000000000000000000000000000006020830152604082019050919050565b60006141e3602f83614b4d565b91507f4552433732314d657461646174613a2055524920717565727920666f72206e6f60008301527f6e6578697374656e7420746f6b656e00000000000000000000000000000000006020830152604082019050919050565b6000614249602183614b4d565b91507f4552433732313a20617070726f76616c20746f2063757272656e74206f776e6560008301527f72000000000000000000000000000000000000000000000000000000000000006020830152604082019050919050565b60006142af602883614b4d565b91507f4f6e6c792073616c6520636f6e74726163742063616e206d696e74206974732060008301527f6f776e204e4654210000000000000000000000000000000000000000000000006020830152604082019050919050565b6000614315603183614b4d565b91507f4552433732313a207472616e736665722063616c6c6572206973206e6f74206f60008301527f776e6572206e6f7220617070726f7665640000000000000000000000000000006020830152604082019050919050565b600061437b603183614b4d565b91507f53414e46542e73706c69743a206c656e677468206f6620737562534120646f6560008301527f73206e6f74206d617463682073706c69740000000000000000000000000000006020830152604082019050919050565b60006143e1602c83614b4d565b91507f455243373231456e756d657261626c653a20676c6f62616c20696e646578206f60008301527f7574206f6620626f756e647300000000000000000000000000000000000000006020830152604082019050919050565b6000614447601a83614b4d565b91507f53412063616e206e6f74206d6572676520746f20697473656c660000000000006000830152602082019050919050565b600060608301600083015184820360008601526144978282613b70565b91505060208301516144ac602086018261450c565b5060408301516144bf604086018261450c565b508091505092915050565b6060820160008201516144e06000850182613b52565b5060208201516144f3602085018261450c565b506040820151614506604085018261450c565b50505050565b61451581614ca0565b82525050565b61452481614ca0565b82525050565b60006145368285613c4f565b91506145428284613c4f565b91508190509392505050565b60006020820190506145636000830184613b61565b92915050565b600060608201905061457e6000830186613b61565b61458b6020830185613b61565b614598604083018461451b565b949350505050565b60006080820190506145b56000830187613b61565b6145c26020830186613b61565b6145cf604083018561451b565b81810360608301526145e18184613bdd565b905095945050505050565b60006040820190506146016000830185613b61565b61460e602083018461451b565b9392505050565b600060208201905061462a6000830184613bce565b92915050565b6000602082019050818103600083015261464a8184613c16565b905092915050565b6000604082019050818103600083015261466c8185613c16565b905061467b602083018461451b565b9392505050565b6000608082019050818103600083015261469c8187613c16565b90506146ab602083018661451b565b6146b86040830185613b61565b6146c5606083018461451b565b95945050505050565b600060608201905081810360008301526146e88186613c16565b90506146f7602083018561451b565b614704604083018461451b565b949350505050565b6000602082019050818103600083015261472581613c80565b9050919050565b6000602082019050818103600083015261474581613ce6565b9050919050565b6000602082019050818103600083015261476581613d4c565b9050919050565b6000602082019050818103600083015261478581613d8c565b9050919050565b600060208201905081810360008301526147a581613dcc565b9050919050565b600060208201905081810360008301526147c581613e32565b9050919050565b600060208201905081810360008301526147e581613e72565b9050919050565b6000602082019050818103600083015261480581613eb2565b9050919050565b6000602082019050818103600083015261482581613ef2565b9050919050565b6000602082019050818103600083015261484581613f58565b9050919050565b6000602082019050818103600083015261486581613fbe565b9050919050565b6000602082019050818103600083015261488581613ffe565b9050919050565b600060208201905081810360008301526148a581614064565b9050919050565b600060208201905081810360008301526148c5816140ca565b9050919050565b600060208201905081810360008301526148e58161410a565b9050919050565b6000602082019050818103600083015261490581614170565b9050919050565b60006020820190508181036000830152614925816141d6565b9050919050565b600060208201905081810360008301526149458161423c565b9050919050565b60006020820190508181036000830152614965816142a2565b9050919050565b6000602082019050818103600083015261498581614308565b9050919050565b600060208201905081810360008301526149a58161436e565b9050919050565b600060208201905081810360008301526149c5816143d4565b9050919050565b600060208201905081810360008301526149e58161443a565b9050919050565b60006020820190508181036000830152614a06818461447a565b905092915050565b6000602082019050614a23600083018461451b565b92915050565b6000606082019050614a3e600083018661451b565b614a4b602083018561451b565b614a58604083018461451b565b949350505050565b6000604051905081810181811067ffffffffffffffff82111715614a8757614a86614e25565b5b8060405250919050565b600067ffffffffffffffff821115614aac57614aab614e25565b5b602082029050602081019050919050565b600067ffffffffffffffff821115614ad857614ad7614e25565b5b601f19601f8301169050602081019050919050565b6000819050602082019050919050565b600081519050919050565b600081519050919050565b600081519050919050565b6000602082019050919050565b600082825260208201905092915050565b600082825260208201905092915050565b600082825260208201905092915050565b600081905092915050565b6000614b7482614ca0565b9150614b7f83614ca0565b9250827fffffffffffffffffffffffffffffffffffffffffffffffffffffffffffffffff03821115614bb457614bb3614d98565b5b828201905092915050565b6000614bca82614ca0565b9150614bd583614ca0565b925082614be557614be4614dc7565b5b828204905092915050565b6000614bfb82614ca0565b9150614c0683614ca0565b925082821015614c1957614c18614d98565b5b828203905092915050565b6000614c2f82614c80565b9050919050565b60008115159050919050565b60007fffffffff0000000000000000000000000000000000000000000000000000000082169050919050565b6000614c7982614c24565b9050919050565b600073ffffffffffffffffffffffffffffffffffffffff82169050919050565b6000819050919050565b82818337600083830152505050565b60005b83811015614cd7578082015181840152602081019050614cbc565b83811115614ce6576000848401525b50505050565b60006002820490506001821680614d0457607f821691505b60208210811415614d1857614d17614df6565b5b50919050565b6000614d2982614ca0565b91507fffffffffffffffffffffffffffffffffffffffffffffffffffffffffffffffff821415614d5c57614d5b614d98565b5b600182019050919050565b6000614d7282614ca0565b9150614d7d83614ca0565b925082614d8d57614d8c614dc7565b5b828206905092915050565b7f4e487b7100000000000000000000000000000000000000000000000000000000600052601160045260246000fd5b7f4e487b7100000000000000000000000000000000000000000000000000000000600052601260045260246000fd5b7f4e487b7100000000000000000000000000000000000000000000000000000000600052602260045260246000fd5b7f4e487b7100000000000000000000000000000000000000000000000000000000600052604160045260246000fd5b6000601f19601f8301169050919050565b614e6e81614c24565b8114614e7957600080fd5b50565b614e8581614c36565b8114614e9057600080fd5b50565b614e9c81614c42565b8114614ea757600080fd5b50565b614eb381614c6e565b8114614ebe57600080fd5b50565b614eca81614ca0565b8114614ed557600080fd5b5056fea264697066735822122045df66e579b56a5524d718ee3be8a1e5b8b37b31b55eac20762cd836d89d8b2464736f6c63430008000033",
  "linkReferences": {},
  "deployedLinkReferences": {}
}