{
  "_format": "hh-sol-artifact-1",
  "contractName": "SmartAgreement",
  "sourceName": "contracts/SmartAgreement.sol",
  "abi": [
    {
      "inputs": [
        {
          "internalType": "address",
          "name": "feeToken",
          "type": "address"
        },
        {
          "internalType": "uint256",
          "name": "feeAmount",
          "type": "uint256"
        },
        {
          "internalType": "address",
          "name": "factory",
          "type": "address"
        }
      ],
      "stateMutability": "nonpayable",
      "type": "constructor"
    },
    {
      "anonymous": false,
      "inputs": [
        {
          "indexed": true,
          "internalType": "address",
          "name": "owner",
          "type": "address"
        },
        {
          "indexed": true,
          "internalType": "address",
          "name": "approved",
          "type": "address"
        },
        {
          "indexed": true,
          "internalType": "uint256",
          "name": "tokenId",
          "type": "uint256"
        }
      ],
      "name": "Approval",
      "type": "event"
    },
    {
      "anonymous": false,
      "inputs": [
        {
          "indexed": true,
          "internalType": "address",
          "name": "owner",
          "type": "address"
        },
        {
          "indexed": true,
          "internalType": "address",
          "name": "operator",
          "type": "address"
        },
        {
          "indexed": false,
          "internalType": "bool",
          "name": "approved",
          "type": "bool"
        }
      ],
      "name": "ApprovalForAll",
      "type": "event"
    },
    {
      "anonymous": false,
      "inputs": [
        {
          "indexed": false,
          "internalType": "address",
          "name": "factory",
          "type": "address"
        }
      ],
      "name": "FactorySet",
      "type": "event"
    },
    {
      "anonymous": false,
      "inputs": [
        {
          "indexed": true,
          "internalType": "address",
          "name": "previousOwner",
          "type": "address"
        },
        {
          "indexed": true,
          "internalType": "address",
          "name": "newOwner",
          "type": "address"
        }
      ],
      "name": "OwnershipTransferred",
      "type": "event"
    },
    {
      "anonymous": false,
      "inputs": [
        {
          "indexed": false,
          "internalType": "uint256",
          "name": "saId",
          "type": "uint256"
        },
        {
          "indexed": false,
          "internalType": "address",
          "name": "initialSale",
          "type": "address"
        },
        {
          "indexed": false,
          "internalType": "uint256",
          "name": "remainingAmount",
          "type": "uint256"
        },
        {
          "indexed": false,
          "internalType": "uint256",
          "name": "vestedPercentage",
          "type": "uint256"
        }
      ],
      "name": "SAAdded",
      "type": "event"
    },
    {
      "anonymous": false,
      "inputs": [
        {
          "indexed": false,
          "internalType": "uint256",
          "name": "saId",
          "type": "uint256"
        }
      ],
      "name": "SADeleted",
      "type": "event"
    },
    {
      "anonymous": false,
      "inputs": [
        {
          "indexed": true,
          "internalType": "address",
          "name": "from",
          "type": "address"
        },
        {
          "indexed": true,
          "internalType": "address",
          "name": "to",
          "type": "address"
        },
        {
          "indexed": true,
          "internalType": "uint256",
          "name": "tokenId",
          "type": "uint256"
        }
      ],
      "name": "Transfer",
      "type": "event"
    },
    {
      "inputs": [
        {
          "components": [
            {
              "components": [
                {
                  "internalType": "address",
                  "name": "sale",
                  "type": "address"
                },
                {
                  "internalType": "uint256",
                  "name": "remainingAmount",
                  "type": "uint256"
                },
                {
                  "internalType": "uint256",
                  "name": "vestedPercentage",
                  "type": "uint256"
                }
              ],
              "internalType": "struct SalesLister.ListedSale[]",
              "name": "listedSales",
              "type": "tuple[]"
            },
            {
              "internalType": "uint256",
              "name": "creationTime",
              "type": "uint256"
            },
            {
              "internalType": "uint256",
              "name": "acquisitionTime",
              "type": "uint256"
            }
          ],
          "internalType": "struct SalesLister.SA",
          "name": "sa",
          "type": "tuple"
        },
        {
          "components": [
            {
              "internalType": "address",
              "name": "sale",
              "type": "address"
            },
            {
              "internalType": "uint256",
              "name": "remainingAmount",
              "type": "uint256"
            },
            {
              "internalType": "uint256",
              "name": "vestedPercentage",
              "type": "uint256"
            }
          ],
          "internalType": "struct SalesLister.ListedSale[]",
          "name": "newSales",
          "type": "tuple[]"
        }
      ],
      "name": "addNewSales",
      "outputs": [],
      "stateMutability": "nonpayable",
      "type": "function"
    },
    {
      "inputs": [
        {
          "internalType": "uint256",
          "name": "saId",
          "type": "uint256"
        },
        {
          "internalType": "address",
          "name": "saleAddress",
          "type": "address"
        },
        {
          "internalType": "uint256",
          "name": "remainingAmount",
          "type": "uint256"
        },
        {
          "internalType": "uint256",
          "name": "vestedPercentage",
          "type": "uint256"
        }
      ],
      "name": "addSA",
      "outputs": [
        {
          "internalType": "uint256",
          "name": "",
          "type": "uint256"
        }
      ],
      "stateMutability": "nonpayable",
      "type": "function"
    },
    {
      "inputs": [
        {
          "internalType": "address",
          "name": "to",
          "type": "address"
        },
        {
          "internalType": "uint256",
          "name": "tokenId",
          "type": "uint256"
        }
      ],
      "name": "approve",
      "outputs": [],
      "stateMutability": "nonpayable",
      "type": "function"
    },
    {
      "inputs": [
        {
          "internalType": "address",
          "name": "owner",
          "type": "address"
        }
      ],
      "name": "balanceOf",
      "outputs": [
        {
          "internalType": "uint256",
          "name": "",
          "type": "uint256"
        }
      ],
      "stateMutability": "view",
      "type": "function"
    },
    {
      "inputs": [
        {
          "components": [
            {
              "components": [
                {
                  "internalType": "address",
                  "name": "sale",
                  "type": "address"
                },
                {
                  "internalType": "uint256",
                  "name": "remainingAmount",
                  "type": "uint256"
                },
                {
                  "internalType": "uint256",
                  "name": "vestedPercentage",
                  "type": "uint256"
                }
              ],
              "internalType": "struct SalesLister.ListedSale[]",
              "name": "listedSales",
              "type": "tuple[]"
            },
            {
              "internalType": "uint256",
              "name": "creationTime",
              "type": "uint256"
            },
            {
              "internalType": "uint256",
              "name": "acquisitionTime",
              "type": "uint256"
            }
          ],
          "internalType": "struct SalesLister.SA",
          "name": "sa",
          "type": "tuple"
        }
      ],
      "name": "deleteAllListedSales",
      "outputs": [],
      "stateMutability": "nonpayable",
      "type": "function"
    },
    {
      "inputs": [
        {
          "components": [
            {
              "components": [
                {
                  "internalType": "address",
                  "name": "sale",
                  "type": "address"
                },
                {
                  "internalType": "uint256",
                  "name": "remainingAmount",
                  "type": "uint256"
                },
                {
                  "internalType": "uint256",
                  "name": "vestedPercentage",
                  "type": "uint256"
                }
              ],
              "internalType": "struct SalesLister.ListedSale[]",
              "name": "listedSales",
              "type": "tuple[]"
            },
            {
              "internalType": "uint256",
              "name": "creationTime",
              "type": "uint256"
            },
            {
              "internalType": "uint256",
              "name": "acquisitionTime",
              "type": "uint256"
            }
          ],
          "internalType": "struct SalesLister.SA",
          "name": "sa",
          "type": "tuple"
        },
        {
          "internalType": "uint256",
          "name": "i",
          "type": "uint256"
        }
      ],
      "name": "deleteListedSale",
      "outputs": [],
      "stateMutability": "nonpayable",
      "type": "function"
    },
    {
      "inputs": [
        {
          "internalType": "uint256",
          "name": "saId",
          "type": "uint256"
        }
      ],
      "name": "deleteSA",
      "outputs": [],
      "stateMutability": "nonpayable",
      "type": "function"
    },
    {
      "inputs": [
        {
          "internalType": "uint256",
          "name": "tokenId",
          "type": "uint256"
        }
      ],
      "name": "getApproved",
      "outputs": [
        {
          "internalType": "address",
          "name": "",
          "type": "address"
        }
      ],
      "stateMutability": "view",
      "type": "function"
    },
    {
      "inputs": [],
      "name": "getFactory",
      "outputs": [
        {
          "internalType": "address",
          "name": "",
          "type": "address"
        }
      ],
      "stateMutability": "view",
      "type": "function"
    },
    {
      "inputs": [
        {
          "components": [
            {
              "components": [
                {
                  "internalType": "address",
                  "name": "sale",
                  "type": "address"
                },
                {
                  "internalType": "uint256",
                  "name": "remainingAmount",
                  "type": "uint256"
                },
                {
                  "internalType": "uint256",
                  "name": "vestedPercentage",
                  "type": "uint256"
                }
              ],
              "internalType": "struct SalesLister.ListedSale[]",
              "name": "listedSales",
              "type": "tuple[]"
            },
            {
              "internalType": "uint256",
              "name": "creationTime",
              "type": "uint256"
            },
            {
              "internalType": "uint256",
              "name": "acquisitionTime",
              "type": "uint256"
            }
          ],
          "internalType": "struct SalesLister.SA",
          "name": "sa",
          "type": "tuple"
        },
        {
          "internalType": "uint256",
          "name": "i",
          "type": "uint256"
        }
      ],
      "name": "getListedSale",
      "outputs": [
        {
          "components": [
            {
              "internalType": "address",
              "name": "sale",
              "type": "address"
            },
            {
              "internalType": "uint256",
              "name": "remainingAmount",
              "type": "uint256"
            },
            {
              "internalType": "uint256",
              "name": "vestedPercentage",
              "type": "uint256"
            }
          ],
          "internalType": "struct SalesLister.ListedSale",
          "name": "",
          "type": "tuple"
        }
      ],
      "stateMutability": "view",
      "type": "function"
    },
    {
      "inputs": [
        {
          "internalType": "uint256",
          "name": "saId",
          "type": "uint256"
        }
      ],
      "name": "getSA",
      "outputs": [
        {
          "components": [
            {
              "components": [
                {
                  "internalType": "address",
                  "name": "sale",
                  "type": "address"
                },
                {
                  "internalType": "uint256",
                  "name": "remainingAmount",
                  "type": "uint256"
                },
                {
                  "internalType": "uint256",
                  "name": "vestedPercentage",
                  "type": "uint256"
                }
              ],
              "internalType": "struct SalesLister.ListedSale[]",
              "name": "listedSales",
              "type": "tuple[]"
            },
            {
              "internalType": "uint256",
              "name": "creationTime",
              "type": "uint256"
            },
            {
              "internalType": "uint256",
              "name": "acquisitionTime",
              "type": "uint256"
            }
          ],
          "internalType": "struct SalesLister.SA",
          "name": "",
          "type": "tuple"
        }
      ],
      "stateMutability": "view",
      "type": "function"
    },
    {
      "inputs": [
        {
          "internalType": "address",
          "name": "owner",
          "type": "address"
        },
        {
          "internalType": "address",
          "name": "operator",
          "type": "address"
        }
      ],
      "name": "isApprovedForAll",
      "outputs": [
        {
          "internalType": "bool",
          "name": "",
          "type": "bool"
        }
      ],
      "stateMutability": "view",
      "type": "function"
    },
    {
      "inputs": [
        {
          "internalType": "address",
          "name": "to",
          "type": "address"
        },
        {
          "internalType": "contract Sale",
          "name": "sale_",
          "type": "address"
        },
        {
          "internalType": "uint256",
          "name": "amount",
          "type": "uint256"
        }
      ],
      "name": "mint",
      "outputs": [],
      "stateMutability": "nonpayable",
      "type": "function"
    },
    {
      "inputs": [],
      "name": "name",
      "outputs": [
        {
          "internalType": "string",
          "name": "",
          "type": "string"
        }
      ],
      "stateMutability": "view",
      "type": "function"
    },
    {
      "inputs": [],
      "name": "owner",
      "outputs": [
        {
          "internalType": "address",
          "name": "",
          "type": "address"
        }
      ],
      "stateMutability": "view",
      "type": "function"
    },
    {
      "inputs": [
        {
          "internalType": "uint256",
          "name": "tokenId",
          "type": "uint256"
        }
      ],
      "name": "ownerOf",
      "outputs": [
        {
          "internalType": "address",
          "name": "",
          "type": "address"
        }
      ],
      "stateMutability": "view",
      "type": "function"
    },
    {
      "inputs": [],
      "name": "renounceOwnership",
      "outputs": [],
      "stateMutability": "nonpayable",
      "type": "function"
    },
    {
      "inputs": [
        {
          "internalType": "address",
          "name": "from",
          "type": "address"
        },
        {
          "internalType": "address",
          "name": "to",
          "type": "address"
        },
        {
          "internalType": "uint256",
          "name": "tokenId",
          "type": "uint256"
        }
      ],
      "name": "safeTransferFrom",
      "outputs": [],
      "stateMutability": "nonpayable",
      "type": "function"
    },
    {
      "inputs": [
        {
          "internalType": "address",
          "name": "from",
          "type": "address"
        },
        {
          "internalType": "address",
          "name": "to",
          "type": "address"
        },
        {
          "internalType": "uint256",
          "name": "tokenId",
          "type": "uint256"
        },
        {
          "internalType": "bytes",
          "name": "_data",
          "type": "bytes"
        }
      ],
      "name": "safeTransferFrom",
      "outputs": [],
      "stateMutability": "nonpayable",
      "type": "function"
    },
    {
      "inputs": [
        {
          "internalType": "address",
          "name": "operator",
          "type": "address"
        },
        {
          "internalType": "bool",
          "name": "approved",
          "type": "bool"
        }
      ],
      "name": "setApprovalForAll",
      "outputs": [],
      "stateMutability": "nonpayable",
      "type": "function"
    },
    {
      "inputs": [
        {
          "internalType": "address",
          "name": "factory",
          "type": "address"
        }
      ],
      "name": "setFactory",
      "outputs": [],
      "stateMutability": "nonpayable",
      "type": "function"
    },
    {
      "inputs": [
        {
          "internalType": "bytes4",
          "name": "interfaceId",
          "type": "bytes4"
        }
      ],
      "name": "supportsInterface",
      "outputs": [
        {
          "internalType": "bool",
          "name": "",
          "type": "bool"
        }
      ],
      "stateMutability": "view",
      "type": "function"
    },
    {
      "inputs": [],
      "name": "symbol",
      "outputs": [
        {
          "internalType": "string",
          "name": "",
          "type": "string"
        }
      ],
      "stateMutability": "view",
      "type": "function"
    },
    {
      "inputs": [
        {
          "internalType": "uint256",
          "name": "index",
          "type": "uint256"
        }
      ],
      "name": "tokenByIndex",
      "outputs": [
        {
          "internalType": "uint256",
          "name": "",
          "type": "uint256"
        }
      ],
      "stateMutability": "view",
      "type": "function"
    },
    {
      "inputs": [
        {
          "internalType": "address",
          "name": "owner",
          "type": "address"
        },
        {
          "internalType": "uint256",
          "name": "index",
          "type": "uint256"
        }
      ],
      "name": "tokenOfOwnerByIndex",
      "outputs": [
        {
          "internalType": "uint256",
          "name": "",
          "type": "uint256"
        }
      ],
      "stateMutability": "view",
      "type": "function"
    },
    {
      "inputs": [
        {
          "internalType": "uint256",
          "name": "tokenId",
          "type": "uint256"
        }
      ],
      "name": "tokenURI",
      "outputs": [
        {
          "internalType": "string",
          "name": "",
          "type": "string"
        }
      ],
      "stateMutability": "view",
      "type": "function"
    },
    {
      "inputs": [],
      "name": "totalSupply",
      "outputs": [
        {
          "internalType": "uint256",
          "name": "",
          "type": "uint256"
        }
      ],
      "stateMutability": "view",
      "type": "function"
    },
    {
      "inputs": [
        {
          "internalType": "address",
          "name": "from",
          "type": "address"
        },
        {
          "internalType": "address",
          "name": "to",
          "type": "address"
        },
        {
          "internalType": "uint256",
          "name": "tokenId",
          "type": "uint256"
        }
      ],
      "name": "transferFrom",
      "outputs": [],
      "stateMutability": "nonpayable",
      "type": "function"
    },
    {
      "inputs": [
        {
          "internalType": "address",
          "name": "newOwner",
          "type": "address"
        }
      ],
      "name": "transferOwnership",
      "outputs": [],
      "stateMutability": "nonpayable",
      "type": "function"
    },
    {
      "inputs": [
        {
          "internalType": "address",
          "name": "apeWallet",
          "type": "address"
        }
      ],
      "name": "updateApeWallet",
      "outputs": [],
      "stateMutability": "nonpayable",
      "type": "function"
    },
    {
      "inputs": [
        {
          "components": [
            {
              "components": [
                {
                  "internalType": "address",
                  "name": "sale",
                  "type": "address"
                },
                {
                  "internalType": "uint256",
                  "name": "remainingAmount",
                  "type": "uint256"
                },
                {
                  "internalType": "uint256",
                  "name": "vestedPercentage",
                  "type": "uint256"
                }
              ],
              "internalType": "struct SalesLister.ListedSale[]",
              "name": "listedSales",
              "type": "tuple[]"
            },
            {
              "internalType": "uint256",
              "name": "creationTime",
              "type": "uint256"
            },
            {
              "internalType": "uint256",
              "name": "acquisitionTime",
              "type": "uint256"
            }
          ],
          "internalType": "struct SalesLister.SA",
          "name": "sa",
          "type": "tuple"
        },
        {
          "internalType": "uint256",
          "name": "i",
          "type": "uint256"
        },
        {
          "components": [
            {
              "internalType": "address",
              "name": "sale",
              "type": "address"
            },
            {
              "internalType": "uint256",
              "name": "remainingAmount",
              "type": "uint256"
            },
            {
              "internalType": "uint256",
              "name": "vestedPercentage",
              "type": "uint256"
            }
          ],
          "internalType": "struct SalesLister.ListedSale",
          "name": "sale",
          "type": "tuple"
        }
      ],
      "name": "updateListedSale",
      "outputs": [],
      "stateMutability": "nonpayable",
      "type": "function"
    },
    {
      "inputs": [
        {
          "internalType": "uint256",
          "name": "saId",
          "type": "uint256"
        }
      ],
      "name": "updateSA",
      "outputs": [
        {
          "internalType": "bool",
          "name": "",
          "type": "bool"
        }
      ],
      "stateMutability": "nonpayable",
      "type": "function"
    }
  ],
  "bytecode": "0x608060405260016010553480156200001657600080fd5b50604051620055863803806200558683398181016040528101906200003c919062000483565b806040518060400160405280600f81526020017f536d6172742041677265656d656e7400000000000000000000000000000000008152506040518060400160405280600281526020017f53410000000000000000000000000000000000000000000000000000000000008152508160009080519060200190620000c1929190620003a5565b508060019080519060200190620000da929190620003a5565b505050620000fd620000f1620001a160201b60201c565b620001a960201b60201c565b6200010e816200026f60201b60201c565b5033600d60006101000a81548173ffffffffffffffffffffffffffffffffffffffff021916908373ffffffffffffffffffffffffffffffffffffffff16021790555082600e60006101000a81548173ffffffffffffffffffffffffffffffffffffffff021916908373ffffffffffffffffffffffffffffffffffffffff16021790555081600f8190555050505062000661565b600033905090565b6000600a60009054906101000a900473ffffffffffffffffffffffffffffffffffffffff16905081600a60006101000a81548173ffffffffffffffffffffffffffffffffffffffff021916908373ffffffffffffffffffffffffffffffffffffffff1602179055508173ffffffffffffffffffffffffffffffffffffffff168173ffffffffffffffffffffffffffffffffffffffff167f8be0079c531659141344cd1fd0a4f28419497f9722a3daafe3b4186f6b6457e060405160405180910390a35050565b6200027f620001a160201b60201c565b73ffffffffffffffffffffffffffffffffffffffff16620002a56200037b60201b60201c565b73ffffffffffffffffffffffffffffffffffffffff1614620002fe576040517f08c379a0000000000000000000000000000000000000000000000000000000008152600401620002f5906200052e565b60405180910390fd5b80600b60006101000a81548173ffffffffffffffffffffffffffffffffffffffff021916908373ffffffffffffffffffffffffffffffffffffffff1602179055507f1edf3afd4ac789736e00d216cd88be164ddcef26a6eedcc30cdb0cb62f3741b18160405162000370919062000511565b60405180910390a150565b6000600a60009054906101000a900473ffffffffffffffffffffffffffffffffffffffff16905090565b828054620003b3906200059f565b90600052602060002090601f016020900481019282620003d7576000855562000423565b82601f10620003f257805160ff191683800117855562000423565b8280016001018555821562000423579182015b828111156200042257825182559160200191906001019062000405565b5b50905062000432919062000436565b5090565b5b808211156200045157600081600090555060010162000437565b5090565b60008151905062000466816200062d565b92915050565b6000815190506200047d8162000647565b92915050565b6000806000606084860312156200049957600080fd5b6000620004a98682870162000455565b9350506020620004bc868287016200046c565b9250506040620004cf8682870162000455565b9150509250925092565b620004e48162000561565b82525050565b6000620004f960208362000550565b9150620005068262000604565b602082019050919050565b6000602082019050620005286000830184620004d9565b92915050565b600060208201905081810360008301526200054981620004ea565b9050919050565b600082825260208201905092915050565b60006200056e8262000575565b9050919050565b600073ffffffffffffffffffffffffffffffffffffffff82169050919050565b6000819050919050565b60006002820490506001821680620005b857607f821691505b60208210811415620005cf57620005ce620005d5565b5b50919050565b7f4e487b7100000000000000000000000000000000000000000000000000000000600052602260045260246000fd5b7f4f776e61626c653a2063616c6c6572206973206e6f7420746865206f776e6572600082015250565b620006388162000561565b81146200064457600080fd5b50565b620006528162000595565b81146200065e57600080fd5b50565b614f1580620006716000396000f3fe608060405234801561001057600080fd5b50600436106101f05760003560e01c806370a082311161010f578063afba74bd116100a2578063c87b56dd11610071578063c87b56dd146105b1578063e7ff71a3146105e1578063e985e9c514610611578063f2fde38b14610641576101f0565b8063afba74bd1461052d578063b1670c391461055d578063b88d4fde14610579578063c6c3bbe614610595576101f0565b806388cc58e4116100de57806388cc58e4146104b75780638da5cb5b146104d557806395d89b41146104f3578063a22cb46514610511576101f0565b806370a0823114610431578063715018a614610461578063737262171461046b57806378d501e61461049b576101f0565b80632cd820ee1161018757806342842e0e1161015657806342842e0e146103995780634f6ccce7146103b55780635bb47808146103e55780636352211e14610401576101f0565b80632cd820ee146103015780632f745c591461033157806337335ccb1461036157806341b5f3d01461037d576101f0565b80630d7f9144116101c35780630d7f91441461028f57806318160ddd146102ab57806323b872dd146102c957806329614a6a146102e5576101f0565b806301ffc9a7146101f557806306fdde0314610225578063081812fc14610243578063095ea7b314610273575b600080fd5b61020f600480360381019061020a9190613807565b61065d565b60405161021c9190614049565b60405180910390f35b61022d61066f565b60405161023a9190614064565b60405180910390f35b61025d600480360381019061025891906139c1565b610701565b60405161026a9190613fab565b60405180910390f35b61028d600480360381019061028891906137a2565b610786565b005b6102a960048036038101906102a491906139c1565b61089e565b005b6102b36109f8565b6040516102c091906143cf565b60405180910390f35b6102e360048036038101906102de919061364d565b610a05565b005b6102ff60048036038101906102fa919061395a565b610a65565b005b61031b600480360381019061031691906139c1565b610b43565b60405161032891906143ad565b60405180910390f35b61034b600480360381019061034691906137a2565b610c4d565b60405161035891906143cf565b60405180910390f35b61037b60048036038101906103769190613906565b610cf2565b005b610397600480360381019061039291906135e8565b610dd5565b005b6103b360048036038101906103ae919061364d565b610e95565b005b6103cf60048036038101906103ca91906139c1565b610eb5565b6040516103dc91906143cf565b60405180910390f35b6103ff60048036038101906103fa91906135e8565b610f4c565b005b61041b600480360381019061041691906139c1565b611043565b6040516104289190613fab565b60405180910390f35b61044b600480360381019061044691906135e8565b6110f5565b60405161045891906143cf565b60405180910390f35b6104696111ad565b005b610485600480360381019061048091906139ea565b611235565b60405161049291906143cf565b60405180910390f35b6104b560048036038101906104b09190613859565b611477565b005b6104bf611513565b6040516104cc9190613fab565b60405180910390f35b6104dd61153d565b6040516104ea9190613fab565b60405180910390f35b6104fb611567565b6040516105089190614064565b60405180910390f35b61052b60048036038101906105269190613717565b6115f9565b005b610547600480360381019061054291906139c1565b61177a565b6040516105549190614049565b60405180910390f35b6105776004803603810190610572919061389a565b611877565b005b610593600480360381019061058e919061369c565b6119b9565b005b6105af60048036038101906105aa9190613753565b611a1b565b005b6105cb60048036038101906105c691906139c1565b611c4a565b6040516105d89190614064565b60405180910390f35b6105fb60048036038101906105f69190613906565b611cf1565b6040516106089190614392565b60405180910390f35b61062b60048036038101906106269190613611565b611dd6565b6040516106389190614049565b60405180910390f35b61065b600480360381019061065691906135e8565b611e6a565b005b600061066882611f62565b9050919050565b60606000805461067e906146b0565b80601f01602080910402602001604051908101604052809291908181526020018280546106aa906146b0565b80156106f75780601f106106cc576101008083540402835291602001916106f7565b820191906000526020600020905b8154815290600101906020018083116106da57829003601f168201915b5050505050905090565b600061070c82611fdc565b61074b576040517f08c379a000000000000000000000000000000000000000000000000000000000815260040161074290614292565b60405180910390fd5b6004600083815260200190815260200160002060009054906101000a900473ffffffffffffffffffffffffffffffffffffffff169050919050565b600061079182611043565b90508073ffffffffffffffffffffffffffffffffffffffff168373ffffffffffffffffffffffffffffffffffffffff161415610802576040517f08c379a00000000000000000000000000000000000000000000000000000000081526004016107f990614332565b60405180910390fd5b8073ffffffffffffffffffffffffffffffffffffffff16610821612048565b73ffffffffffffffffffffffffffffffffffffffff161480610850575061084f8161084a612048565b611dd6565b5b61088f576040517f08c379a0000000000000000000000000000000000000000000000000000000008152600401610886906141f2565b60405180910390fd5b6108998383612050565b505050565b3373ffffffffffffffffffffffffffffffffffffffff16600b60009054906101000a900473ffffffffffffffffffffffffffffffffffffffff1673ffffffffffffffffffffffffffffffffffffffff161461092e576040517f08c379a000000000000000000000000000000000000000000000000000000000815260040161092590614152565b60405180910390fd5b6000600c6000838152602001908152602001600020600101541415610988576040517f08c379a000000000000000000000000000000000000000000000000000000000815260040161097f90614252565b60405180910390fd5b600c6000828152602001908152602001600020600080820160006109ac91906132b5565b6001820160009055600282016000905550507fc302460eb19466c2473febb8bb36bff831083cc2bfc407b18aa65e177043f8a0816040516109ed91906143cf565b60405180910390a150565b6000600880549050905090565b610a16610a10612048565b82612109565b610a55576040517f08c379a0000000000000000000000000000000000000000000000000000000008152600401610a4c90614352565b60405180910390fd5b610a608383836121e7565b505050565b3373ffffffffffffffffffffffffffffffffffffffff16600b60009054906101000a900473ffffffffffffffffffffffffffffffffffffffff1673ffffffffffffffffffffffffffffffffffffffff1614610af5576040517f08c379a0000000000000000000000000000000000000000000000000000000008152600401610aec90614152565b60405180910390fd5b8083600001518381518110610b33577f4e487b7100000000000000000000000000000000000000000000000000000000600052603260045260246000fd5b6020026020010181905250505050565b610b4b6132d9565b600c600083815260200190815260200160002060405180606001604052908160008201805480602002602001604051908101604052809291908181526020016000905b82821015610c2a57838290600052602060002090600302016040518060600160405290816000820160009054906101000a900473ffffffffffffffffffffffffffffffffffffffff1673ffffffffffffffffffffffffffffffffffffffff1673ffffffffffffffffffffffffffffffffffffffff1681526020016001820154815260200160028201548152505081526020019060010190610b8e565b505050508152602001600182015481526020016002820154815250509050919050565b6000610c58836110f5565b8210610c99576040517f08c379a0000000000000000000000000000000000000000000000000000000008152600401610c90906140d2565b60405180910390fd5b600660008473ffffffffffffffffffffffffffffffffffffffff1673ffffffffffffffffffffffffffffffffffffffff168152602001908152602001600020600083815260200190815260200160002054905092915050565b3373ffffffffffffffffffffffffffffffffffffffff16600b60009054906101000a900473ffffffffffffffffffffffffffffffffffffffff1673ffffffffffffffffffffffffffffffffffffffff1614610d82576040517f08c379a0000000000000000000000000000000000000000000000000000000008152600401610d7990614152565b60405180910390fd5b81600001518181518110610dbf577f4e487b7100000000000000000000000000000000000000000000000000000000600052603260045260246000fd5b60200260200101610dce6132fa565b8152505050565b610ddd612048565b73ffffffffffffffffffffffffffffffffffffffff16610dfb61153d565b73ffffffffffffffffffffffffffffffffffffffff1614610e51576040517f08c379a0000000000000000000000000000000000000000000000000000000008152600401610e48906142b2565b60405180910390fd5b80600d60006101000a81548173ffffffffffffffffffffffffffffffffffffffff021916908373ffffffffffffffffffffffffffffffffffffffff16021790555050565b610eb0838383604051806020016040528060008152506119b9565b505050565b6000610ebf6109f8565b8210610f00576040517f08c379a0000000000000000000000000000000000000000000000000000000008152600401610ef790614372565b60405180910390fd5b60088281548110610f3a577f4e487b7100000000000000000000000000000000000000000000000000000000600052603260045260246000fd5b90600052602060002001549050919050565b610f54612048565b73ffffffffffffffffffffffffffffffffffffffff16610f7261153d565b73ffffffffffffffffffffffffffffffffffffffff1614610fc8576040517f08c379a0000000000000000000000000000000000000000000000000000000008152600401610fbf906142b2565b60405180910390fd5b80600b60006101000a81548173ffffffffffffffffffffffffffffffffffffffff021916908373ffffffffffffffffffffffffffffffffffffffff1602179055507f1edf3afd4ac789736e00d216cd88be164ddcef26a6eedcc30cdb0cb62f3741b1816040516110389190613fab565b60405180910390a150565b6000806002600084815260200190815260200160002060009054906101000a900473ffffffffffffffffffffffffffffffffffffffff169050600073ffffffffffffffffffffffffffffffffffffffff168173ffffffffffffffffffffffffffffffffffffffff1614156110ec576040517f08c379a00000000000000000000000000000000000000000000000000000000081526004016110e390614232565b60405180910390fd5b80915050919050565b60008073ffffffffffffffffffffffffffffffffffffffff168273ffffffffffffffffffffffffffffffffffffffff161415611166576040517f08c379a000000000000000000000000000000000000000000000000000000000815260040161115d90614212565b60405180910390fd5b600360008373ffffffffffffffffffffffffffffffffffffffff1673ffffffffffffffffffffffffffffffffffffffff168152602001908152602001600020549050919050565b6111b5612048565b73ffffffffffffffffffffffffffffffffffffffff166111d361153d565b73ffffffffffffffffffffffffffffffffffffffff1614611229576040517f08c379a0000000000000000000000000000000000000000000000000000000008152600401611220906142b2565b60405180910390fd5b61123360006122e8565b565b60003373ffffffffffffffffffffffffffffffffffffffff16600b60009054906101000a900473ffffffffffffffffffffffffffffffffffffffff1673ffffffffffffffffffffffffffffffffffffffff16146112c7576040517f08c379a00000000000000000000000000000000000000000000000000000000081526004016112be90614152565b60405180910390fd5b6000600c60008781526020019081526020016000206001015414611320576040517f08c379a0000000000000000000000000000000000000000000000000000000008152600401611317906141b2565b60405180910390fd5b600060405180606001604052808673ffffffffffffffffffffffffffffffffffffffff1681526020018581526020018481525090506000600c600088815260200190815260200160002090508060000182908060018154018082558091505060019003906000526020600020906003020160009091909190915060008201518160000160006101000a81548173ffffffffffffffffffffffffffffffffffffffff021916908373ffffffffffffffffffffffffffffffffffffffff1602179055506020820151816001015560408201518160020155505042600c60008981526020019081526020016000206001018190555042600c6000898152602001908152602001600020600201819055507f2af810bde1e68e372a39c4df4301cf9d1d814fe14bda4b91330284c53035640b8787878760405161146294939291906143ea565b60405180910390a18692505050949350505050565b3373ffffffffffffffffffffffffffffffffffffffff16600b60009054906101000a900473ffffffffffffffffffffffffffffffffffffffff1673ffffffffffffffffffffffffffffffffffffffff1614611507576040517f08c379a00000000000000000000000000000000000000000000000000000000081526004016114fe90614152565b60405180910390fd5b80600001606081525050565b6000600b60009054906101000a900473ffffffffffffffffffffffffffffffffffffffff16905090565b6000600a60009054906101000a900473ffffffffffffffffffffffffffffffffffffffff16905090565b606060018054611576906146b0565b80601f01602080910402602001604051908101604052809291908181526020018280546115a2906146b0565b80156115ef5780601f106115c4576101008083540402835291602001916115ef565b820191906000526020600020905b8154815290600101906020018083116115d257829003601f168201915b5050505050905090565b611601612048565b73ffffffffffffffffffffffffffffffffffffffff168273ffffffffffffffffffffffffffffffffffffffff16141561166f576040517f08c379a000000000000000000000000000000000000000000000000000000000815260040161166690614192565b60405180910390fd5b806005600061167c612048565b73ffffffffffffffffffffffffffffffffffffffff1673ffffffffffffffffffffffffffffffffffffffff16815260200190815260200160002060008473ffffffffffffffffffffffffffffffffffffffff1673ffffffffffffffffffffffffffffffffffffffff16815260200190815260200160002060006101000a81548160ff0219169083151502179055508173ffffffffffffffffffffffffffffffffffffffff16611729612048565b73ffffffffffffffffffffffffffffffffffffffff167f17307eab39ab6107e8899845ad3d59bd9653f200f220920489ca2b5937696c318360405161176e9190614049565b60405180910390a35050565b60003373ffffffffffffffffffffffffffffffffffffffff16600b60009054906101000a900473ffffffffffffffffffffffffffffffffffffffff1673ffffffffffffffffffffffffffffffffffffffff161461180c576040517f08c379a000000000000000000000000000000000000000000000000000000000815260040161180390614152565b60405180910390fd5b6000600c600084815260200190815260200160002060000180549050111561186d5742600c60008481526020019081526020016000206001018190555042600c60008481526020019081526020016000206002018190555060019050611872565b600090505b919050565b3373ffffffffffffffffffffffffffffffffffffffff16600b60009054906101000a900473ffffffffffffffffffffffffffffffffffffffff1673ffffffffffffffffffffffffffffffffffffffff1614611907576040517f08c379a00000000000000000000000000000000000000000000000000000000081526004016118fe90614152565b60405180910390fd5b60005b81518110156119b45781818151811061194c577f4e487b7100000000000000000000000000000000000000000000000000000000600052603260045260246000fd5b6020026020010151836000015184600001515181518110611996577f4e487b7100000000000000000000000000000000000000000000000000000000600052603260045260246000fd5b602002602001018190525080806119ac90614713565b91505061190a565b505050565b6119ca6119c4612048565b83612109565b611a09576040517f08c379a0000000000000000000000000000000000000000000000000000000008152600401611a0090614352565b60405180910390fd5b611a15848484846123ae565b50505050565b3373ffffffffffffffffffffffffffffffffffffffff168273ffffffffffffffffffffffffffffffffffffffff1614611a89576040517f08c379a0000000000000000000000000000000000000000000000000000000008152600401611a80906142d2565b60405180910390fd5b611a958360105461240a565b611ad86040518060400160405280600a81526020017f4d696e746564204e46540000000000000000000000000000000000000000000081525060105485846125d8565b600060405180606001604052808473ffffffffffffffffffffffffffffffffffffffff168152602001838152602001600081525090506000600c600060105481526020019081526020016000209050428160020181905550428160010181905550611c2b8160405180606001604052908160008201805480602002602001604051908101604052809291908181526020016000905b82821015611c0957838290600052602060002090600302016040518060600160405290816000820160009054906101000a900473ffffffffffffffffffffffffffffffffffffffff1673ffffffffffffffffffffffffffffffffffffffff1673ffffffffffffffffffffffffffffffffffffffff1681526020016001820154815260200160028201548152505081526020019060010190611b6d565b505050508152602001600182015481526020016002820154815250508361267a565b60106000815480929190611c3e90614713565b91905055505050505050565b6060611c5582611fdc565b611c94576040517f08c379a0000000000000000000000000000000000000000000000000000000008152600401611c8b90614312565b60405180910390fd5b6000611c9e6126cc565b90506000815111611cbe5760405180602001604052806000815250611ce9565b80611cc8846126ec565b604051602001611cd9929190613f87565b6040516020818303038152906040525b915050919050565b611cf96132fa565b3373ffffffffffffffffffffffffffffffffffffffff16600b60009054906101000a900473ffffffffffffffffffffffffffffffffffffffff1673ffffffffffffffffffffffffffffffffffffffff1614611d89576040517f08c379a0000000000000000000000000000000000000000000000000000000008152600401611d8090614152565b60405180910390fd5b82600001518281518110611dc6577f4e487b7100000000000000000000000000000000000000000000000000000000600052603260045260246000fd5b6020026020010151905092915050565b6000600560008473ffffffffffffffffffffffffffffffffffffffff1673ffffffffffffffffffffffffffffffffffffffff16815260200190815260200160002060008373ffffffffffffffffffffffffffffffffffffffff1673ffffffffffffffffffffffffffffffffffffffff16815260200190815260200160002060009054906101000a900460ff16905092915050565b611e72612048565b73ffffffffffffffffffffffffffffffffffffffff16611e9061153d565b73ffffffffffffffffffffffffffffffffffffffff1614611ee6576040517f08c379a0000000000000000000000000000000000000000000000000000000008152600401611edd906142b2565b60405180910390fd5b600073ffffffffffffffffffffffffffffffffffffffff168173ffffffffffffffffffffffffffffffffffffffff161415611f56576040517f08c379a0000000000000000000000000000000000000000000000000000000008152600401611f4d90614112565b60405180910390fd5b611f5f816122e8565b50565b60007f780e9d63000000000000000000000000000000000000000000000000000000007bffffffffffffffffffffffffffffffffffffffffffffffffffffffff1916827bffffffffffffffffffffffffffffffffffffffffffffffffffffffff19161480611fd55750611fd482612899565b5b9050919050565b60008073ffffffffffffffffffffffffffffffffffffffff166002600084815260200190815260200160002060009054906101000a900473ffffffffffffffffffffffffffffffffffffffff1673ffffffffffffffffffffffffffffffffffffffff1614159050919050565b600033905090565b816004600083815260200190815260200160002060006101000a81548173ffffffffffffffffffffffffffffffffffffffff021916908373ffffffffffffffffffffffffffffffffffffffff160217905550808273ffffffffffffffffffffffffffffffffffffffff166120c383611043565b73ffffffffffffffffffffffffffffffffffffffff167f8c5be1e5ebec7d5bd14f71427d1e84f3dd0314c0f7b2291e5b200ac8c7c3b92560405160405180910390a45050565b600061211482611fdc565b612153576040517f08c379a000000000000000000000000000000000000000000000000000000000815260040161214a906141d2565b60405180910390fd5b600061215e83611043565b90508073ffffffffffffffffffffffffffffffffffffffff168473ffffffffffffffffffffffffffffffffffffffff1614806121cd57508373ffffffffffffffffffffffffffffffffffffffff166121b584610701565b73ffffffffffffffffffffffffffffffffffffffff16145b806121de57506121dd8185611dd6565b5b91505092915050565b600e60009054906101000a900473ffffffffffffffffffffffffffffffffffffffff1673ffffffffffffffffffffffffffffffffffffffff166323b872dd33600d60009054906101000a900473ffffffffffffffffffffffffffffffffffffffff16600f546040518463ffffffff1660e01b815260040161226a93929190613fc6565b602060405180830381600087803b15801561228457600080fd5b505af1158015612298573d6000803e3d6000fd5b505050506040513d601f19601f820116820180604052508101906122bc91906137de565b506122c883838361297b565b42600c600083815260200190815260200160002060020181905550505050565b6000600a60009054906101000a900473ffffffffffffffffffffffffffffffffffffffff16905081600a60006101000a81548173ffffffffffffffffffffffffffffffffffffffff021916908373ffffffffffffffffffffffffffffffffffffffff1602179055508173ffffffffffffffffffffffffffffffffffffffff168173ffffffffffffffffffffffffffffffffffffffff167f8be0079c531659141344cd1fd0a4f28419497f9722a3daafe3b4186f6b6457e060405160405180910390a35050565b6123b98484846121e7565b6123c584848484612bd7565b612404576040517f08c379a00000000000000000000000000000000000000000000000000000000081526004016123fb906140f2565b60405180910390fd5b50505050565b600073ffffffffffffffffffffffffffffffffffffffff168273ffffffffffffffffffffffffffffffffffffffff16141561247a576040517f08c379a000000000000000000000000000000000000000000000000000000000815260040161247190614272565b60405180910390fd5b61248381611fdc565b156124c3576040517f08c379a00000000000000000000000000000000000000000000000000000000081526004016124ba90614132565b60405180910390fd5b6124cf60008383612d6e565b6001600360008473ffffffffffffffffffffffffffffffffffffffff1673ffffffffffffffffffffffffffffffffffffffff168152602001908152602001600020600082825461251f919061452d565b92505081905550816002600083815260200190815260200160002060006101000a81548173ffffffffffffffffffffffffffffffffffffffff021916908373ffffffffffffffffffffffffffffffffffffffff160217905550808273ffffffffffffffffffffffffffffffffffffffff16600073ffffffffffffffffffffffffffffffffffffffff167fddf252ad1be2c89b69c2b068fc378daa952ba7f163c4a11628f55a4df523b3ef60405160405180910390a45050565b612674848484846040516024016125f29493929190614086565b6040516020818303038152906040527f58497afe000000000000000000000000000000000000000000000000000000007bffffffffffffffffffffffffffffffffffffffffffffffffffffffff19166020820180517bffffffffffffffffffffffffffffffffffffffffffffffffffffffff8381831617835250505050612d7e565b50505050565b808260000151836000015151815181106126bd577f4e487b7100000000000000000000000000000000000000000000000000000000600052603260045260246000fd5b60200260200101819052505050565b60606040518060600160405280602c8152602001614eb4602c9139905090565b60606000821415612734576040518060400160405280600181526020017f30000000000000000000000000000000000000000000000000000000000000008152509050612894565b600082905060005b6000821461276657808061274f90614713565b915050600a8261275f9190614583565b915061273c565b60008167ffffffffffffffff8111156127a8577f4e487b7100000000000000000000000000000000000000000000000000000000600052604160045260246000fd5b6040519080825280601f01601f1916602001820160405280156127da5781602001600182028036833780820191505090505b5090505b6000851461288d576001826127f391906145b4565b9150600a85612802919061475c565b603061280e919061452d565b60f81b81838151811061284a577f4e487b7100000000000000000000000000000000000000000000000000000000600052603260045260246000fd5b60200101907effffffffffffffffffffffffffffffffffffffffffffffffffffffffffffff1916908160001a905350600a856128869190614583565b94506127de565b8093505050505b919050565b60007f80ac58cd000000000000000000000000000000000000000000000000000000007bffffffffffffffffffffffffffffffffffffffffffffffffffffffff1916827bffffffffffffffffffffffffffffffffffffffffffffffffffffffff1916148061296457507f5b5e139f000000000000000000000000000000000000000000000000000000007bffffffffffffffffffffffffffffffffffffffffffffffffffffffff1916827bffffffffffffffffffffffffffffffffffffffffffffffffffffffff1916145b80612974575061297382612da7565b5b9050919050565b8273ffffffffffffffffffffffffffffffffffffffff1661299b82611043565b73ffffffffffffffffffffffffffffffffffffffff16146129f1576040517f08c379a00000000000000000000000000000000000000000000000000000000081526004016129e8906142f2565b60405180910390fd5b600073ffffffffffffffffffffffffffffffffffffffff168273ffffffffffffffffffffffffffffffffffffffff161415612a61576040517f08c379a0000000000000000000000000000000000000000000000000000000008152600401612a5890614172565b60405180910390fd5b612a6c838383612d6e565b612a77600082612050565b6001600360008573ffffffffffffffffffffffffffffffffffffffff1673ffffffffffffffffffffffffffffffffffffffff1681526020019081526020016000206000828254612ac791906145b4565b925050819055506001600360008473ffffffffffffffffffffffffffffffffffffffff1673ffffffffffffffffffffffffffffffffffffffff1681526020019081526020016000206000828254612b1e919061452d565b92505081905550816002600083815260200190815260200160002060006101000a81548173ffffffffffffffffffffffffffffffffffffffff021916908373ffffffffffffffffffffffffffffffffffffffff160217905550808273ffffffffffffffffffffffffffffffffffffffff168473ffffffffffffffffffffffffffffffffffffffff167fddf252ad1be2c89b69c2b068fc378daa952ba7f163c4a11628f55a4df523b3ef60405160405180910390a4505050565b6000612bf88473ffffffffffffffffffffffffffffffffffffffff16612e11565b15612d61578373ffffffffffffffffffffffffffffffffffffffff1663150b7a02612c21612048565b8786866040518563ffffffff1660e01b8152600401612c439493929190613ffd565b602060405180830381600087803b158015612c5d57600080fd5b505af1925050508015612c8e57506040513d601f19601f82011682018060405250810190612c8b9190613830565b60015b612d11573d8060008114612cbe576040519150601f19603f3d011682016040523d82523d6000602084013e612cc3565b606091505b50600081511415612d09576040517f08c379a0000000000000000000000000000000000000000000000000000000008152600401612d00906140f2565b60405180910390fd5b805181602001fd5b63150b7a0260e01b7bffffffffffffffffffffffffffffffffffffffffffffffffffffffff1916817bffffffffffffffffffffffffffffffffffffffffffffffffffffffff191614915050612d66565b600190505b949350505050565b612d79838383612e24565b505050565b60008151905060006a636f6e736f6c652e6c6f679050602083016000808483855afa5050505050565b60007f01ffc9a7000000000000000000000000000000000000000000000000000000007bffffffffffffffffffffffffffffffffffffffffffffffffffffffff1916827bffffffffffffffffffffffffffffffffffffffffffffffffffffffff1916149050919050565b600080823b905060008111915050919050565b612e2f838383612f38565b600073ffffffffffffffffffffffffffffffffffffffff168373ffffffffffffffffffffffffffffffffffffffff161415612e7257612e6d81612f3d565b612eb1565b8173ffffffffffffffffffffffffffffffffffffffff168373ffffffffffffffffffffffffffffffffffffffff1614612eb057612eaf8382612f86565b5b5b600073ffffffffffffffffffffffffffffffffffffffff168273ffffffffffffffffffffffffffffffffffffffff161415612ef457612eef816130f3565b612f33565b8273ffffffffffffffffffffffffffffffffffffffff168273ffffffffffffffffffffffffffffffffffffffff1614612f3257612f318282613236565b5b5b505050565b505050565b6008805490506009600083815260200190815260200160002081905550600881908060018154018082558091505060019003906000526020600020016000909190919091505550565b60006001612f93846110f5565b612f9d91906145b4565b9050600060076000848152602001908152602001600020549050818114613082576000600660008673ffffffffffffffffffffffffffffffffffffffff1673ffffffffffffffffffffffffffffffffffffffff168152602001908152602001600020600084815260200190815260200160002054905080600660008773ffffffffffffffffffffffffffffffffffffffff1673ffffffffffffffffffffffffffffffffffffffff168152602001908152602001600020600084815260200190815260200160002081905550816007600083815260200190815260200160002081905550505b6007600084815260200190815260200160002060009055600660008573ffffffffffffffffffffffffffffffffffffffff1673ffffffffffffffffffffffffffffffffffffffff16815260200190815260200160002060008381526020019081526020016000206000905550505050565b6000600160088054905061310791906145b4565b905060006009600084815260200190815260200160002054905060006008838154811061315d577f4e487b7100000000000000000000000000000000000000000000000000000000600052603260045260246000fd5b9060005260206000200154905080600883815481106131a5577f4e487b7100000000000000000000000000000000000000000000000000000000600052603260045260246000fd5b90600052602060002001819055508160096000838152602001908152602001600020819055506009600085815260200190815260200160002060009055600880548061321a577f4e487b7100000000000000000000000000000000000000000000000000000000600052603160045260246000fd5b6001900381819060005260206000200160009055905550505050565b6000613241836110f5565b905081600660008573ffffffffffffffffffffffffffffffffffffffff1673ffffffffffffffffffffffffffffffffffffffff168152602001908152602001600020600083815260200190815260200160002081905550806007600084815260200190815260200160002081905550505050565b50805460008255600302906000526020600020908101906132d69190613331565b50565b60405180606001604052806060815260200160008152602001600081525090565b6040518060600160405280600073ffffffffffffffffffffffffffffffffffffffff16815260200160008152602001600081525090565b5b8082111561337b57600080820160006101000a81549073ffffffffffffffffffffffffffffffffffffffff02191690556001820160009055600282016000905550600301613332565b5090565b600061339261338d84614454565b61442f565b905080838252602082019050828560608602820111156133b157600080fd5b60005b858110156133e157816133c788826134fb565b8452602084019350606083019250506001810190506133b4565b5050509392505050565b60006133fe6133f984614480565b61442f565b90508281526020810184848401111561341657600080fd5b61342184828561466e565b509392505050565b60008135905061343881614e40565b92915050565b600082601f83011261344f57600080fd5b813561345f84826020860161337f565b91505092915050565b60008135905061347781614e57565b92915050565b60008151905061348c81614e57565b92915050565b6000813590506134a181614e6e565b92915050565b6000815190506134b681614e6e565b92915050565b600082601f8301126134cd57600080fd5b81356134dd8482602086016133eb565b91505092915050565b6000813590506134f581614e85565b92915050565b60006060828403121561350d57600080fd5b613517606061442f565b9050600061352784828501613429565b600083015250602061353b848285016135d3565b602083015250604061354f848285016135d3565b60408301525092915050565b60006060828403121561356d57600080fd5b613577606061442f565b9050600082013567ffffffffffffffff81111561359357600080fd5b61359f8482850161343e565b60008301525060206135b3848285016135d3565b60208301525060406135c7848285016135d3565b60408301525092915050565b6000813590506135e281614e9c565b92915050565b6000602082840312156135fa57600080fd5b600061360884828501613429565b91505092915050565b6000806040838503121561362457600080fd5b600061363285828601613429565b925050602061364385828601613429565b9150509250929050565b60008060006060848603121561366257600080fd5b600061367086828701613429565b935050602061368186828701613429565b9250506040613692868287016135d3565b9150509250925092565b600080600080608085870312156136b257600080fd5b60006136c087828801613429565b94505060206136d187828801613429565b93505060406136e2878288016135d3565b925050606085013567ffffffffffffffff8111156136ff57600080fd5b61370b878288016134bc565b91505092959194509250565b6000806040838503121561372a57600080fd5b600061373885828601613429565b925050602061374985828601613468565b9150509250929050565b60008060006060848603121561376857600080fd5b600061377686828701613429565b9350506020613787868287016134e6565b9250506040613798868287016135d3565b9150509250925092565b600080604083850312156137b557600080fd5b60006137c385828601613429565b92505060206137d4858286016135d3565b9150509250929050565b6000602082840312156137f057600080fd5b60006137fe8482850161347d565b91505092915050565b60006020828403121561381957600080fd5b600061382784828501613492565b91505092915050565b60006020828403121561384257600080fd5b6000613850848285016134a7565b91505092915050565b60006020828403121561386b57600080fd5b600082013567ffffffffffffffff81111561388557600080fd5b6138918482850161355b565b91505092915050565b600080604083850312156138ad57600080fd5b600083013567ffffffffffffffff8111156138c757600080fd5b6138d38582860161355b565b925050602083013567ffffffffffffffff8111156138f057600080fd5b6138fc8582860161343e565b9150509250929050565b6000806040838503121561391957600080fd5b600083013567ffffffffffffffff81111561393357600080fd5b61393f8582860161355b565b9250506020613950858286016135d3565b9150509250929050565b600080600060a0848603121561396f57600080fd5b600084013567ffffffffffffffff81111561398957600080fd5b6139958682870161355b565b93505060206139a6868287016135d3565b92505060406139b7868287016134fb565b9150509250925092565b6000602082840312156139d357600080fd5b60006139e1848285016135d3565b91505092915050565b60008060008060808587031215613a0057600080fd5b6000613a0e878288016135d3565b9450506020613a1f87828801613429565b9350506040613a30878288016135d3565b9250506060613a41878288016135d3565b91505092959194509250565b6000613a598383613e95565b60608301905092915050565b613a6e816145e8565b82525050565b613a7d816145e8565b82525050565b6000613a8e826144c1565b613a9881856144ef565b9350613aa3836144b1565b8060005b83811015613ad4578151613abb8882613a4d565b9750613ac6836144e2565b925050600181019050613aa7565b5085935050505092915050565b613aea816145fa565b82525050565b6000613afb826144cc565b613b058185614500565b9350613b1581856020860161467d565b613b1e81614849565b840191505092915050565b6000613b34826144d7565b613b3e8185614511565b9350613b4e81856020860161467d565b613b5781614849565b840191505092915050565b6000613b6d826144d7565b613b778185614522565b9350613b8781856020860161467d565b80840191505092915050565b6000613ba0602b83614511565b9150613bab8261485a565b604082019050919050565b6000613bc3603283614511565b9150613bce826148a9565b604082019050919050565b6000613be6602683614511565b9150613bf1826148f8565b604082019050919050565b6000613c09601c83614511565b9150613c1482614947565b602082019050919050565b6000613c2c603083614511565b9150613c3782614970565b604082019050919050565b6000613c4f602483614511565b9150613c5a826149bf565b604082019050919050565b6000613c72601983614511565b9150613c7d82614a0e565b602082019050919050565b6000613c95601d83614511565b9150613ca082614a37565b602082019050919050565b6000613cb8602c83614511565b9150613cc382614a60565b604082019050919050565b6000613cdb603883614511565b9150613ce682614aaf565b604082019050919050565b6000613cfe602a83614511565b9150613d0982614afe565b604082019050919050565b6000613d21602983614511565b9150613d2c82614b4d565b604082019050919050565b6000613d44601e83614511565b9150613d4f82614b9c565b602082019050919050565b6000613d67602083614511565b9150613d7282614bc5565b602082019050919050565b6000613d8a602c83614511565b9150613d9582614bee565b604082019050919050565b6000613dad602083614511565b9150613db882614c3d565b602082019050919050565b6000613dd0603883614511565b9150613ddb82614c66565b604082019050919050565b6000613df3602983614511565b9150613dfe82614cb5565b604082019050919050565b6000613e16602f83614511565b9150613e2182614d04565b604082019050919050565b6000613e39602183614511565b9150613e4482614d53565b604082019050919050565b6000613e5c603183614511565b9150613e6782614da2565b604082019050919050565b6000613e7f602c83614511565b9150613e8a82614df1565b604082019050919050565b606082016000820151613eab6000850182613a65565b506020820151613ebe6020850182613f69565b506040820151613ed16040850182613f69565b50505050565b606082016000820151613eed6000850182613a65565b506020820151613f006020850182613f69565b506040820151613f136040850182613f69565b50505050565b60006060830160008301518482036000860152613f368282613a83565b9150506020830151613f4b6020860182613f69565b506040830151613f5e6040860182613f69565b508091505092915050565b613f7281614664565b82525050565b613f8181614664565b82525050565b6000613f938285613b62565b9150613f9f8284613b62565b91508190509392505050565b6000602082019050613fc06000830184613a74565b92915050565b6000606082019050613fdb6000830186613a74565b613fe86020830185613a74565b613ff56040830184613f78565b949350505050565b60006080820190506140126000830187613a74565b61401f6020830186613a74565b61402c6040830185613f78565b818103606083015261403e8184613af0565b905095945050505050565b600060208201905061405e6000830184613ae1565b92915050565b6000602082019050818103600083015261407e8184613b29565b905092915050565b600060808201905081810360008301526140a08187613b29565b90506140af6020830186613f78565b6140bc6040830185613a74565b6140c96060830184613f78565b95945050505050565b600060208201905081810360008301526140eb81613b93565b9050919050565b6000602082019050818103600083015261410b81613bb6565b9050919050565b6000602082019050818103600083015261412b81613bd9565b9050919050565b6000602082019050818103600083015261414b81613bfc565b9050919050565b6000602082019050818103600083015261416b81613c1f565b9050919050565b6000602082019050818103600083015261418b81613c42565b9050919050565b600060208201905081810360008301526141ab81613c65565b9050919050565b600060208201905081810360008301526141cb81613c88565b9050919050565b600060208201905081810360008301526141eb81613cab565b9050919050565b6000602082019050818103600083015261420b81613cce565b9050919050565b6000602082019050818103600083015261422b81613cf1565b9050919050565b6000602082019050818103600083015261424b81613d14565b9050919050565b6000602082019050818103600083015261426b81613d37565b9050919050565b6000602082019050818103600083015261428b81613d5a565b9050919050565b600060208201905081810360008301526142ab81613d7d565b9050919050565b600060208201905081810360008301526142cb81613da0565b9050919050565b600060208201905081810360008301526142eb81613dc3565b9050919050565b6000602082019050818103600083015261430b81613de6565b9050919050565b6000602082019050818103600083015261432b81613e09565b9050919050565b6000602082019050818103600083015261434b81613e2c565b9050919050565b6000602082019050818103600083015261436b81613e4f565b9050919050565b6000602082019050818103600083015261438b81613e72565b9050919050565b60006060820190506143a76000830184613ed7565b92915050565b600060208201905081810360008301526143c78184613f19565b905092915050565b60006020820190506143e46000830184613f78565b92915050565b60006080820190506143ff6000830187613f78565b61440c6020830186613a74565b6144196040830185613f78565b6144266060830184613f78565b95945050505050565b600061443961444a565b905061444582826146e2565b919050565b6000604051905090565b600067ffffffffffffffff82111561446f5761446e61481a565b5b602082029050602081019050919050565b600067ffffffffffffffff82111561449b5761449a61481a565b5b6144a482614849565b9050602081019050919050565b6000819050602082019050919050565b600081519050919050565b600081519050919050565b600081519050919050565b6000602082019050919050565b600082825260208201905092915050565b600082825260208201905092915050565b600082825260208201905092915050565b600081905092915050565b600061453882614664565b915061454383614664565b9250827fffffffffffffffffffffffffffffffffffffffffffffffffffffffffffffffff038211156145785761457761478d565b5b828201905092915050565b600061458e82614664565b915061459983614664565b9250826145a9576145a86147bc565b5b828204905092915050565b60006145bf82614664565b91506145ca83614664565b9250828210156145dd576145dc61478d565b5b828203905092915050565b60006145f382614644565b9050919050565b60008115159050919050565b60007fffffffff0000000000000000000000000000000000000000000000000000000082169050919050565b600061463d826145e8565b9050919050565b600073ffffffffffffffffffffffffffffffffffffffff82169050919050565b6000819050919050565b82818337600083830152505050565b60005b8381101561469b578082015181840152602081019050614680565b838111156146aa576000848401525b50505050565b600060028204905060018216806146c857607f821691505b602082108114156146dc576146db6147eb565b5b50919050565b6146eb82614849565b810181811067ffffffffffffffff8211171561470a5761470961481a565b5b80604052505050565b600061471e82614664565b91507fffffffffffffffffffffffffffffffffffffffffffffffffffffffffffffffff8214156147515761475061478d565b5b600182019050919050565b600061476782614664565b915061477283614664565b925082614782576147816147bc565b5b828206905092915050565b7f4e487b7100000000000000000000000000000000000000000000000000000000600052601160045260246000fd5b7f4e487b7100000000000000000000000000000000000000000000000000000000600052601260045260246000fd5b7f4e487b7100000000000000000000000000000000000000000000000000000000600052602260045260246000fd5b7f4e487b7100000000000000000000000000000000000000000000000000000000600052604160045260246000fd5b6000601f19601f8301169050919050565b7f455243373231456e756d657261626c653a206f776e657220696e646578206f7560008201527f74206f6620626f756e6473000000000000000000000000000000000000000000602082015250565b7f4552433732313a207472616e7366657220746f206e6f6e20455243373231526560008201527f63656976657220696d706c656d656e7465720000000000000000000000000000602082015250565b7f4f776e61626c653a206e6577206f776e657220697320746865207a65726f206160008201527f6464726573730000000000000000000000000000000000000000000000000000602082015250565b7f4552433732313a20746f6b656e20616c7265616479206d696e74656400000000600082015250565b7f53616c65734c69737465723a2043616c6c6572206973206e6f7420616e20617560008201527f74686f72697a656420666163746f727900000000000000000000000000000000602082015250565b7f4552433732313a207472616e7366657220746f20746865207a65726f2061646460008201527f7265737300000000000000000000000000000000000000000000000000000000602082015250565b7f4552433732313a20617070726f766520746f2063616c6c657200000000000000600082015250565b7f53616c65734c69737465723a20534120616c7265616479206164646564000000600082015250565b7f4552433732313a206f70657261746f7220717565727920666f72206e6f6e657860008201527f697374656e7420746f6b656e0000000000000000000000000000000000000000602082015250565b7f4552433732313a20617070726f76652063616c6c6572206973206e6f74206f7760008201527f6e6572206e6f7220617070726f76656420666f7220616c6c0000000000000000602082015250565b7f4552433732313a2062616c616e636520717565727920666f7220746865207a6560008201527f726f206164647265737300000000000000000000000000000000000000000000602082015250565b7f4552433732313a206f776e657220717565727920666f72206e6f6e657869737460008201527f656e7420746f6b656e0000000000000000000000000000000000000000000000602082015250565b7f53616c65734c69737465723a20534120646f6573206e6f742065786973740000600082015250565b7f4552433732313a206d696e7420746f20746865207a65726f2061646472657373600082015250565b7f4552433732313a20617070726f76656420717565727920666f72206e6f6e657860008201527f697374656e7420746f6b656e0000000000000000000000000000000000000000602082015250565b7f4f776e61626c653a2063616c6c6572206973206e6f7420746865206f776e6572600082015250565b7f536d61727441677265656d656e743a204f6e6c792073616c6520636f6e74726160008201527f63742063616e206d696e7420697473206f776e204e4654210000000000000000602082015250565b7f4552433732313a207472616e73666572206f6620746f6b656e2074686174206960008201527f73206e6f74206f776e0000000000000000000000000000000000000000000000602082015250565b7f4552433732314d657461646174613a2055524920717565727920666f72206e6f60008201527f6e6578697374656e7420746f6b656e0000000000000000000000000000000000602082015250565b7f4552433732313a20617070726f76616c20746f2063757272656e74206f776e6560008201527f7200000000000000000000000000000000000000000000000000000000000000602082015250565b7f4552433732313a207472616e736665722063616c6c6572206973206e6f74206f60008201527f776e6572206e6f7220617070726f766564000000000000000000000000000000602082015250565b7f455243373231456e756d657261626c653a20676c6f62616c20696e646578206f60008201527f7574206f6620626f756e64730000000000000000000000000000000000000000602082015250565b614e49816145e8565b8114614e5457600080fd5b50565b614e60816145fa565b8114614e6b57600080fd5b50565b614e7781614606565b8114614e8257600080fd5b50565b614e8e81614632565b8114614e9957600080fd5b50565b614ea581614664565b8114614eb057600080fd5b5056fe68747470733a2f2f6d657461646174612e6170652e6d61726b65742f736d6172742d61677265656d656e742fa264697066735822122093dd75b028fd902fdc9fdac921786284fe29bf2c63ba3c331b4c55a3c2f58be364736f6c63430008030033",
  "linkReferences": {},
  "deployedLinkReferences": {}
}