{
  "_format": "hh-sol-artifact-1",
  "contractName": "SalesLister",
  "sourceName": "contracts/SalesLister.sol",
  "abi": [
    {
      "inputs": [
        {
          "internalType": "address",
          "name": "factory",
          "type": "address"
        }
      ],
      "stateMutability": "nonpayable",
      "type": "constructor"
    },
    {
      "anonymous": false,
      "inputs": [
        {
          "indexed": false,
          "internalType": "address",
          "name": "factory",
          "type": "address"
        }
      ],
      "name": "FactorySet",
      "type": "event"
    },
    {
      "anonymous": false,
      "inputs": [
        {
          "indexed": true,
          "internalType": "address",
          "name": "previousOwner",
          "type": "address"
        },
        {
          "indexed": true,
          "internalType": "address",
          "name": "newOwner",
          "type": "address"
        }
      ],
      "name": "OwnershipTransferred",
      "type": "event"
    },
    {
      "anonymous": false,
      "inputs": [
        {
          "indexed": false,
          "internalType": "uint256",
          "name": "saId",
          "type": "uint256"
        },
        {
          "indexed": false,
          "internalType": "address",
          "name": "initialSale",
          "type": "address"
        },
        {
          "indexed": false,
          "internalType": "uint256",
          "name": "remainingAmount",
          "type": "uint256"
        },
        {
          "indexed": false,
          "internalType": "uint256",
          "name": "vestedPercentage",
          "type": "uint256"
        }
      ],
      "name": "SAAdded",
      "type": "event"
    },
    {
      "anonymous": false,
      "inputs": [
        {
          "indexed": false,
          "internalType": "uint256",
          "name": "saId",
          "type": "uint256"
        }
      ],
      "name": "SADeleted",
      "type": "event"
    },
    {
      "inputs": [
        {
          "components": [
            {
              "components": [
                {
                  "internalType": "address",
                  "name": "sale",
                  "type": "address"
                },
                {
                  "internalType": "uint256",
                  "name": "remainingAmount",
                  "type": "uint256"
                },
                {
                  "internalType": "uint256",
                  "name": "vestedPercentage",
                  "type": "uint256"
                }
              ],
              "internalType": "struct SalesLister.ListedSale[]",
              "name": "listedSales",
              "type": "tuple[]"
            },
            {
              "internalType": "uint256",
              "name": "creationTime",
              "type": "uint256"
            },
            {
              "internalType": "uint256",
              "name": "acquisitionTime",
              "type": "uint256"
            }
          ],
          "internalType": "struct SalesLister.SA",
          "name": "sa",
          "type": "tuple"
        },
        {
          "components": [
            {
              "internalType": "address",
              "name": "sale",
              "type": "address"
            },
            {
              "internalType": "uint256",
              "name": "remainingAmount",
              "type": "uint256"
            },
            {
              "internalType": "uint256",
              "name": "vestedPercentage",
              "type": "uint256"
            }
          ],
          "internalType": "struct SalesLister.ListedSale[]",
          "name": "newSales",
          "type": "tuple[]"
        }
      ],
      "name": "addNewSales",
      "outputs": [],
      "stateMutability": "nonpayable",
      "type": "function"
    },
    {
      "inputs": [
        {
          "internalType": "uint256",
          "name": "saId",
          "type": "uint256"
        },
        {
          "internalType": "address",
          "name": "saleAddress",
          "type": "address"
        },
        {
          "internalType": "uint256",
          "name": "remainingAmount",
          "type": "uint256"
        },
        {
          "internalType": "uint256",
          "name": "vestedPercentage",
          "type": "uint256"
        }
      ],
      "name": "addSA",
      "outputs": [
        {
          "internalType": "uint256",
          "name": "",
          "type": "uint256"
        }
      ],
      "stateMutability": "nonpayable",
      "type": "function"
    },
    {
      "inputs": [
        {
          "components": [
            {
              "components": [
                {
                  "internalType": "address",
                  "name": "sale",
                  "type": "address"
                },
                {
                  "internalType": "uint256",
                  "name": "remainingAmount",
                  "type": "uint256"
                },
                {
                  "internalType": "uint256",
                  "name": "vestedPercentage",
                  "type": "uint256"
                }
              ],
              "internalType": "struct SalesLister.ListedSale[]",
              "name": "listedSales",
              "type": "tuple[]"
            },
            {
              "internalType": "uint256",
              "name": "creationTime",
              "type": "uint256"
            },
            {
              "internalType": "uint256",
              "name": "acquisitionTime",
              "type": "uint256"
            }
          ],
          "internalType": "struct SalesLister.SA",
          "name": "sa",
          "type": "tuple"
        }
      ],
      "name": "deleteAllListedSales",
      "outputs": [],
      "stateMutability": "nonpayable",
      "type": "function"
    },
    {
      "inputs": [
        {
          "components": [
            {
              "components": [
                {
                  "internalType": "address",
                  "name": "sale",
                  "type": "address"
                },
                {
                  "internalType": "uint256",
                  "name": "remainingAmount",
                  "type": "uint256"
                },
                {
                  "internalType": "uint256",
                  "name": "vestedPercentage",
                  "type": "uint256"
                }
              ],
              "internalType": "struct SalesLister.ListedSale[]",
              "name": "listedSales",
              "type": "tuple[]"
            },
            {
              "internalType": "uint256",
              "name": "creationTime",
              "type": "uint256"
            },
            {
              "internalType": "uint256",
              "name": "acquisitionTime",
              "type": "uint256"
            }
          ],
          "internalType": "struct SalesLister.SA",
          "name": "sa",
          "type": "tuple"
        },
        {
          "internalType": "uint256",
          "name": "i",
          "type": "uint256"
        }
      ],
      "name": "deleteListedSale",
      "outputs": [],
      "stateMutability": "nonpayable",
      "type": "function"
    },
    {
      "inputs": [
        {
          "internalType": "uint256",
          "name": "saId",
          "type": "uint256"
        }
      ],
      "name": "deleteSA",
      "outputs": [],
      "stateMutability": "nonpayable",
      "type": "function"
    },
    {
      "inputs": [],
      "name": "getFactory",
      "outputs": [
        {
          "internalType": "address",
          "name": "",
          "type": "address"
        }
      ],
      "stateMutability": "view",
      "type": "function"
    },
    {
      "inputs": [
        {
          "components": [
            {
              "components": [
                {
                  "internalType": "address",
                  "name": "sale",
                  "type": "address"
                },
                {
                  "internalType": "uint256",
                  "name": "remainingAmount",
                  "type": "uint256"
                },
                {
                  "internalType": "uint256",
                  "name": "vestedPercentage",
                  "type": "uint256"
                }
              ],
              "internalType": "struct SalesLister.ListedSale[]",
              "name": "listedSales",
              "type": "tuple[]"
            },
            {
              "internalType": "uint256",
              "name": "creationTime",
              "type": "uint256"
            },
            {
              "internalType": "uint256",
              "name": "acquisitionTime",
              "type": "uint256"
            }
          ],
          "internalType": "struct SalesLister.SA",
          "name": "sa",
          "type": "tuple"
        },
        {
          "internalType": "uint256",
          "name": "i",
          "type": "uint256"
        }
      ],
      "name": "getListedSale",
      "outputs": [
        {
          "components": [
            {
              "internalType": "address",
              "name": "sale",
              "type": "address"
            },
            {
              "internalType": "uint256",
              "name": "remainingAmount",
              "type": "uint256"
            },
            {
              "internalType": "uint256",
              "name": "vestedPercentage",
              "type": "uint256"
            }
          ],
          "internalType": "struct SalesLister.ListedSale",
          "name": "",
          "type": "tuple"
        }
      ],
      "stateMutability": "view",
      "type": "function"
    },
    {
      "inputs": [
        {
          "internalType": "uint256",
          "name": "saId",
          "type": "uint256"
        }
      ],
      "name": "getSA",
      "outputs": [
        {
          "components": [
            {
              "components": [
                {
                  "internalType": "address",
                  "name": "sale",
                  "type": "address"
                },
                {
                  "internalType": "uint256",
                  "name": "remainingAmount",
                  "type": "uint256"
                },
                {
                  "internalType": "uint256",
                  "name": "vestedPercentage",
                  "type": "uint256"
                }
              ],
              "internalType": "struct SalesLister.ListedSale[]",
              "name": "listedSales",
              "type": "tuple[]"
            },
            {
              "internalType": "uint256",
              "name": "creationTime",
              "type": "uint256"
            },
            {
              "internalType": "uint256",
              "name": "acquisitionTime",
              "type": "uint256"
            }
          ],
          "internalType": "struct SalesLister.SA",
          "name": "",
          "type": "tuple"
        }
      ],
      "stateMutability": "view",
      "type": "function"
    },
    {
      "inputs": [],
      "name": "owner",
      "outputs": [
        {
          "internalType": "address",
          "name": "",
          "type": "address"
        }
      ],
      "stateMutability": "view",
      "type": "function"
    },
    {
      "inputs": [],
      "name": "renounceOwnership",
      "outputs": [],
      "stateMutability": "nonpayable",
      "type": "function"
    },
    {
      "inputs": [
        {
          "internalType": "address",
          "name": "factory",
          "type": "address"
        }
      ],
      "name": "setFactory",
      "outputs": [],
      "stateMutability": "nonpayable",
      "type": "function"
    },
    {
      "inputs": [
        {
          "internalType": "address",
          "name": "newOwner",
          "type": "address"
        }
      ],
      "name": "transferOwnership",
      "outputs": [],
      "stateMutability": "nonpayable",
      "type": "function"
    },
    {
      "inputs": [
        {
          "components": [
            {
              "components": [
                {
                  "internalType": "address",
                  "name": "sale",
                  "type": "address"
                },
                {
                  "internalType": "uint256",
                  "name": "remainingAmount",
                  "type": "uint256"
                },
                {
                  "internalType": "uint256",
                  "name": "vestedPercentage",
                  "type": "uint256"
                }
              ],
              "internalType": "struct SalesLister.ListedSale[]",
              "name": "listedSales",
              "type": "tuple[]"
            },
            {
              "internalType": "uint256",
              "name": "creationTime",
              "type": "uint256"
            },
            {
              "internalType": "uint256",
              "name": "acquisitionTime",
              "type": "uint256"
            }
          ],
          "internalType": "struct SalesLister.SA",
          "name": "sa",
          "type": "tuple"
        },
        {
          "internalType": "uint256",
          "name": "i",
          "type": "uint256"
        },
        {
          "components": [
            {
              "internalType": "address",
              "name": "sale",
              "type": "address"
            },
            {
              "internalType": "uint256",
              "name": "remainingAmount",
              "type": "uint256"
            },
            {
              "internalType": "uint256",
              "name": "vestedPercentage",
              "type": "uint256"
            }
          ],
          "internalType": "struct SalesLister.ListedSale",
          "name": "sale",
          "type": "tuple"
        }
      ],
      "name": "updateListedSale",
      "outputs": [],
      "stateMutability": "nonpayable",
      "type": "function"
    },
    {
      "inputs": [
        {
          "internalType": "uint256",
          "name": "saId",
          "type": "uint256"
        }
      ],
      "name": "updateSA",
      "outputs": [
        {
          "internalType": "bool",
          "name": "",
          "type": "bool"
        }
      ],
      "stateMutability": "nonpayable",
      "type": "function"
    }
  ],
  "bytecode": "0x60806040523480156200001157600080fd5b5060405162001fb738038062001fb7833981810160405281019062000037919062000287565b620000576200004b6200006f60201b60201c565b6200007760201b60201c565b62000068816200013b60201b60201c565b50620003b2565b600033905090565b60008060009054906101000a900473ffffffffffffffffffffffffffffffffffffffff169050816000806101000a81548173ffffffffffffffffffffffffffffffffffffffff021916908373ffffffffffffffffffffffffffffffffffffffff1602179055508173ffffffffffffffffffffffffffffffffffffffff168173ffffffffffffffffffffffffffffffffffffffff167f8be0079c531659141344cd1fd0a4f28419497f9722a3daafe3b4186f6b6457e060405160405180910390a35050565b6200014b6200006f60201b60201c565b73ffffffffffffffffffffffffffffffffffffffff16620001716200024760201b60201c565b73ffffffffffffffffffffffffffffffffffffffff1614620001ca576040517f08c379a0000000000000000000000000000000000000000000000000000000008152600401620001c19062000308565b60405180910390fd5b80600160006101000a81548173ffffffffffffffffffffffffffffffffffffffff021916908373ffffffffffffffffffffffffffffffffffffffff1602179055507f1edf3afd4ac789736e00d216cd88be164ddcef26a6eedcc30cdb0cb62f3741b1816040516200023c9190620002eb565b60405180910390a150565b60008060009054906101000a900473ffffffffffffffffffffffffffffffffffffffff16905090565b600081519050620002818162000398565b92915050565b6000602082840312156200029a57600080fd5b6000620002aa8482850162000270565b91505092915050565b620002be816200033b565b82525050565b6000620002d36020836200032a565b9150620002e0826200036f565b602082019050919050565b6000602082019050620003026000830184620002b3565b92915050565b600060208201905081810360008301526200032381620002c4565b9050919050565b600082825260208201905092915050565b600062000348826200034f565b9050919050565b600073ffffffffffffffffffffffffffffffffffffffff82169050919050565b7f4f776e61626c653a2063616c6c6572206973206e6f7420746865206f776e6572600082015250565b620003a3816200033b565b8114620003af57600080fd5b50565b611bf580620003c26000396000f3fe608060405234801561001057600080fd5b50600436106100ea5760003560e01c806378d501e61161008c578063afba74bd11610066578063afba74bd14610221578063b1670c3914610251578063e7ff71a31461026d578063f2fde38b1461029d576100ea565b806378d501e6146101c957806388cc58e4146101e55780638da5cb5b14610203576100ea565b806337335ccb116100c857806337335ccb146101575780635bb4780814610173578063715018a61461018f5780637372621714610199576100ea565b80630d7f9144146100ef57806329614a6a1461010b5780632cd820ee14610127575b600080fd5b61010960048036038101906101049190611469565b6102b9565b005b61012560048036038101906101209190611402565b610413565b005b610141600480360381019061013c9190611469565b6104f1565b60405161014e919061182a565b60405180910390f35b610171600480360381019061016c91906113ae565b6105fb565b005b61018d600480360381019061018891906112d8565b6106de565b005b6101976107d5565b005b6101b360048036038101906101ae9190611492565b61085d565b6040516101c0919061184c565b60405180910390f35b6101e360048036038101906101de9190611301565b610a9f565b005b6101ed610b3b565b6040516101fa9190611739565b60405180910390f35b61020b610b65565b6040516102189190611739565b60405180910390f35b61023b60048036038101906102369190611469565b610b8e565b6040516102489190611754565b60405180910390f35b61026b60048036038101906102669190611342565b610c8b565b005b610287600480360381019061028291906113ae565b610dcd565b604051610294919061180f565b60405180910390f35b6102b760048036038101906102b291906112d8565b610eb2565b005b3373ffffffffffffffffffffffffffffffffffffffff16600160009054906101000a900473ffffffffffffffffffffffffffffffffffffffff1673ffffffffffffffffffffffffffffffffffffffff1614610349576040517f08c379a00000000000000000000000000000000000000000000000000000000081526004016103409061178f565b60405180910390fd5b6000600260008381526020019081526020016000206001015414156103a3576040517f08c379a000000000000000000000000000000000000000000000000000000000815260040161039a906117cf565b60405180910390fd5b60026000828152602001908152602001600020600080820160006103c79190611076565b6001820160009055600282016000905550507fc302460eb19466c2473febb8bb36bff831083cc2bfc407b18aa65e177043f8a081604051610408919061184c565b60405180910390a150565b3373ffffffffffffffffffffffffffffffffffffffff16600160009054906101000a900473ffffffffffffffffffffffffffffffffffffffff1673ffffffffffffffffffffffffffffffffffffffff16146104a3576040517f08c379a000000000000000000000000000000000000000000000000000000000815260040161049a9061178f565b60405180910390fd5b80836000015183815181106104e1577f4e487b7100000000000000000000000000000000000000000000000000000000600052603260045260246000fd5b6020026020010181905250505050565b6104f961109a565b6002600083815260200190815260200160002060405180606001604052908160008201805480602002602001604051908101604052809291908181526020016000905b828210156105d857838290600052602060002090600302016040518060600160405290816000820160009054906101000a900473ffffffffffffffffffffffffffffffffffffffff1673ffffffffffffffffffffffffffffffffffffffff1673ffffffffffffffffffffffffffffffffffffffff168152602001600182015481526020016002820154815250508152602001906001019061053c565b505050508152602001600182015481526020016002820154815250509050919050565b3373ffffffffffffffffffffffffffffffffffffffff16600160009054906101000a900473ffffffffffffffffffffffffffffffffffffffff1673ffffffffffffffffffffffffffffffffffffffff161461068b576040517f08c379a00000000000000000000000000000000000000000000000000000000081526004016106829061178f565b60405180910390fd5b816000015181815181106106c8577f4e487b7100000000000000000000000000000000000000000000000000000000600052603260045260246000fd5b602002602001016106d76110bb565b8152505050565b6106e6610faa565b73ffffffffffffffffffffffffffffffffffffffff16610704610b65565b73ffffffffffffffffffffffffffffffffffffffff161461075a576040517f08c379a0000000000000000000000000000000000000000000000000000000008152600401610751906117ef565b60405180910390fd5b80600160006101000a81548173ffffffffffffffffffffffffffffffffffffffff021916908373ffffffffffffffffffffffffffffffffffffffff1602179055507f1edf3afd4ac789736e00d216cd88be164ddcef26a6eedcc30cdb0cb62f3741b1816040516107ca9190611739565b60405180910390a150565b6107dd610faa565b73ffffffffffffffffffffffffffffffffffffffff166107fb610b65565b73ffffffffffffffffffffffffffffffffffffffff1614610851576040517f08c379a0000000000000000000000000000000000000000000000000000000008152600401610848906117ef565b60405180910390fd5b61085b6000610fb2565b565b60003373ffffffffffffffffffffffffffffffffffffffff16600160009054906101000a900473ffffffffffffffffffffffffffffffffffffffff1673ffffffffffffffffffffffffffffffffffffffff16146108ef576040517f08c379a00000000000000000000000000000000000000000000000000000000081526004016108e69061178f565b60405180910390fd5b6000600260008781526020019081526020016000206001015414610948576040517f08c379a000000000000000000000000000000000000000000000000000000000815260040161093f906117af565b60405180910390fd5b600060405180606001604052808673ffffffffffffffffffffffffffffffffffffffff16815260200185815260200184815250905060006002600088815260200190815260200160002090508060000182908060018154018082558091505060019003906000526020600020906003020160009091909190915060008201518160000160006101000a81548173ffffffffffffffffffffffffffffffffffffffff021916908373ffffffffffffffffffffffffffffffffffffffff160217905550602082015181600101556040820151816002015550504260026000898152602001908152602001600020600101819055504260026000898152602001908152602001600020600201819055507f2af810bde1e68e372a39c4df4301cf9d1d814fe14bda4b91330284c53035640b87878787604051610a8a9493929190611867565b60405180910390a18692505050949350505050565b3373ffffffffffffffffffffffffffffffffffffffff16600160009054906101000a900473ffffffffffffffffffffffffffffffffffffffff1673ffffffffffffffffffffffffffffffffffffffff1614610b2f576040517f08c379a0000000000000000000000000000000000000000000000000000000008152600401610b269061178f565b60405180910390fd5b80600001606081525050565b6000600160009054906101000a900473ffffffffffffffffffffffffffffffffffffffff16905090565b60008060009054906101000a900473ffffffffffffffffffffffffffffffffffffffff16905090565b60003373ffffffffffffffffffffffffffffffffffffffff16600160009054906101000a900473ffffffffffffffffffffffffffffffffffffffff1673ffffffffffffffffffffffffffffffffffffffff1614610c20576040517f08c379a0000000000000000000000000000000000000000000000000000000008152600401610c179061178f565b60405180910390fd5b600060026000848152602001908152602001600020600001805490501115610c815742600260008481526020019081526020016000206001018190555042600260008481526020019081526020016000206002018190555060019050610c86565b600090505b919050565b3373ffffffffffffffffffffffffffffffffffffffff16600160009054906101000a900473ffffffffffffffffffffffffffffffffffffffff1673ffffffffffffffffffffffffffffffffffffffff1614610d1b576040517f08c379a0000000000000000000000000000000000000000000000000000000008152600401610d129061178f565b60405180910390fd5b60005b8151811015610dc857818181518110610d60577f4e487b7100000000000000000000000000000000000000000000000000000000600052603260045260246000fd5b6020026020010151836000015184600001515181518110610daa577f4e487b7100000000000000000000000000000000000000000000000000000000600052603260045260246000fd5b60200260200101819052508080610dc0906119c0565b915050610d1e565b505050565b610dd56110bb565b3373ffffffffffffffffffffffffffffffffffffffff16600160009054906101000a900473ffffffffffffffffffffffffffffffffffffffff1673ffffffffffffffffffffffffffffffffffffffff1614610e65576040517f08c379a0000000000000000000000000000000000000000000000000000000008152600401610e5c9061178f565b60405180910390fd5b82600001518281518110610ea2577f4e487b7100000000000000000000000000000000000000000000000000000000600052603260045260246000fd5b6020026020010151905092915050565b610eba610faa565b73ffffffffffffffffffffffffffffffffffffffff16610ed8610b65565b73ffffffffffffffffffffffffffffffffffffffff1614610f2e576040517f08c379a0000000000000000000000000000000000000000000000000000000008152600401610f25906117ef565b60405180910390fd5b600073ffffffffffffffffffffffffffffffffffffffff168173ffffffffffffffffffffffffffffffffffffffff161415610f9e576040517f08c379a0000000000000000000000000000000000000000000000000000000008152600401610f959061176f565b60405180910390fd5b610fa781610fb2565b50565b600033905090565b60008060009054906101000a900473ffffffffffffffffffffffffffffffffffffffff169050816000806101000a81548173ffffffffffffffffffffffffffffffffffffffff021916908373ffffffffffffffffffffffffffffffffffffffff1602179055508173ffffffffffffffffffffffffffffffffffffffff168173ffffffffffffffffffffffffffffffffffffffff167f8be0079c531659141344cd1fd0a4f28419497f9722a3daafe3b4186f6b6457e060405160405180910390a35050565b508054600082556003029060005260206000209081019061109791906110f2565b50565b60405180606001604052806060815260200160008152602001600081525090565b6040518060600160405280600073ffffffffffffffffffffffffffffffffffffffff16815260200160008152602001600081525090565b5b8082111561113c57600080820160006101000a81549073ffffffffffffffffffffffffffffffffffffffff021916905560018201600090556002820160009055506003016110f3565b5090565b600061115361114e846118d1565b6118ac565b9050808382526020820190508285606086028201111561117257600080fd5b60005b858110156111a2578161118888826111eb565b845260208401935060608301925050600181019050611175565b5050509392505050565b6000813590506111bb81611b91565b92915050565b600082601f8301126111d257600080fd5b81356111e2848260208601611140565b91505092915050565b6000606082840312156111fd57600080fd5b61120760606118ac565b90506000611217848285016111ac565b600083015250602061122b848285016112c3565b602083015250604061123f848285016112c3565b60408301525092915050565b60006060828403121561125d57600080fd5b61126760606118ac565b9050600082013567ffffffffffffffff81111561128357600080fd5b61128f848285016111c1565b60008301525060206112a3848285016112c3565b60208301525060406112b7848285016112c3565b60408301525092915050565b6000813590506112d281611ba8565b92915050565b6000602082840312156112ea57600080fd5b60006112f8848285016111ac565b91505092915050565b60006020828403121561131357600080fd5b600082013567ffffffffffffffff81111561132d57600080fd5b6113398482850161124b565b91505092915050565b6000806040838503121561135557600080fd5b600083013567ffffffffffffffff81111561136f57600080fd5b61137b8582860161124b565b925050602083013567ffffffffffffffff81111561139857600080fd5b6113a4858286016111c1565b9150509250929050565b600080604083850312156113c157600080fd5b600083013567ffffffffffffffff8111156113db57600080fd5b6113e78582860161124b565b92505060206113f8858286016112c3565b9150509250929050565b600080600060a0848603121561141757600080fd5b600084013567ffffffffffffffff81111561143157600080fd5b61143d8682870161124b565b935050602061144e868287016112c3565b925050604061145f868287016111eb565b9150509250925092565b60006020828403121561147b57600080fd5b6000611489848285016112c3565b91505092915050565b600080600080608085870312156114a857600080fd5b60006114b6878288016112c3565b94505060206114c7878288016111ac565b93505060406114d8878288016112c3565b92505060606114e9878288016112c3565b91505092959194509250565b60006115018383611647565b60608301905092915050565b61151681611947565b82525050565b61152581611947565b82525050565b60006115368261190d565b6115408185611925565b935061154b836118fd565b8060005b8381101561157c57815161156388826114f5565b975061156e83611918565b92505060018101905061154f565b5085935050505092915050565b61159281611959565b82525050565b60006115a5602683611936565b91506115b082611a78565b604082019050919050565b60006115c8603083611936565b91506115d382611ac7565b604082019050919050565b60006115eb601d83611936565b91506115f682611b16565b602082019050919050565b600061160e601e83611936565b915061161982611b3f565b602082019050919050565b6000611631602083611936565b915061163c82611b68565b602082019050919050565b60608201600082015161165d600085018261150d565b506020820151611670602085018261171b565b506040820151611683604085018261171b565b50505050565b60608201600082015161169f600085018261150d565b5060208201516116b2602085018261171b565b5060408201516116c5604085018261171b565b50505050565b600060608301600083015184820360008601526116e8828261152b565b91505060208301516116fd602086018261171b565b506040830151611710604086018261171b565b508091505092915050565b61172481611985565b82525050565b61173381611985565b82525050565b600060208201905061174e600083018461151c565b92915050565b60006020820190506117696000830184611589565b92915050565b6000602082019050818103600083015261178881611598565b9050919050565b600060208201905081810360008301526117a8816115bb565b9050919050565b600060208201905081810360008301526117c8816115de565b9050919050565b600060208201905081810360008301526117e881611601565b9050919050565b6000602082019050818103600083015261180881611624565b9050919050565b60006060820190506118246000830184611689565b92915050565b6000602082019050818103600083015261184481846116cb565b905092915050565b6000602082019050611861600083018461172a565b92915050565b600060808201905061187c600083018761172a565b611889602083018661151c565b611896604083018561172a565b6118a3606083018461172a565b95945050505050565b60006118b66118c7565b90506118c2828261198f565b919050565b6000604051905090565b600067ffffffffffffffff8211156118ec576118eb611a38565b5b602082029050602081019050919050565b6000819050602082019050919050565b600081519050919050565b6000602082019050919050565b600082825260208201905092915050565b600082825260208201905092915050565b600061195282611965565b9050919050565b60008115159050919050565b600073ffffffffffffffffffffffffffffffffffffffff82169050919050565b6000819050919050565b61199882611a67565b810181811067ffffffffffffffff821117156119b7576119b6611a38565b5b80604052505050565b60006119cb82611985565b91507fffffffffffffffffffffffffffffffffffffffffffffffffffffffffffffffff8214156119fe576119fd611a09565b5b600182019050919050565b7f4e487b7100000000000000000000000000000000000000000000000000000000600052601160045260246000fd5b7f4e487b7100000000000000000000000000000000000000000000000000000000600052604160045260246000fd5b6000601f19601f8301169050919050565b7f4f776e61626c653a206e6577206f776e657220697320746865207a65726f206160008201527f6464726573730000000000000000000000000000000000000000000000000000602082015250565b7f53616c65734c69737465723a2043616c6c6572206973206e6f7420616e20617560008201527f74686f72697a656420666163746f727900000000000000000000000000000000602082015250565b7f53616c65734c69737465723a20534120616c7265616479206164646564000000600082015250565b7f53616c65734c69737465723a20534120646f6573206e6f742065786973740000600082015250565b7f4f776e61626c653a2063616c6c6572206973206e6f7420746865206f776e6572600082015250565b611b9a81611947565b8114611ba557600080fd5b50565b611bb181611985565b8114611bbc57600080fd5b5056fea26469706673582212209fe09a9846db759f94ecbedc853793da7e9af392ac705f830d9ae4f1ba45b80064736f6c63430008030033",
  "linkReferences": {},
  "deployedLinkReferences": {}
}