{
  "_format": "hh-sol-artifact-1",
  "contractName": "SaleFactory",
  "sourceName": "contracts/sale/SaleFactory.sol",
  "abi": [
    {
      "inputs": [
        {
          "internalType": "address",
          "name": "saleDataAddress",
          "type": "address"
        },
        {
          "internalType": "address",
          "name": "validator",
          "type": "address"
        }
      ],
      "stateMutability": "nonpayable",
      "type": "constructor"
    },
    {
      "anonymous": false,
      "inputs": [
        {
          "indexed": false,
          "internalType": "uint256",
          "name": "level",
          "type": "uint256"
        },
        {
          "indexed": false,
          "internalType": "address",
          "name": "account",
          "type": "address"
        },
        {
          "indexed": false,
          "internalType": "address",
          "name": "setter",
          "type": "address"
        }
      ],
      "name": "LevelSet",
      "type": "event"
    },
    {
      "anonymous": false,
      "inputs": [
        {
          "indexed": false,
          "internalType": "uint256",
          "name": "saleId",
          "type": "uint256"
        },
        {
          "indexed": false,
          "internalType": "address",
          "name": "saleAddress",
          "type": "address"
        }
      ],
      "name": "NewSale",
      "type": "event"
    },
    {
      "anonymous": false,
      "inputs": [
        {
          "indexed": false,
          "internalType": "uint256",
          "name": "saleId",
          "type": "uint256"
        }
      ],
      "name": "SaleApproved",
      "type": "event"
    },
    {
      "anonymous": false,
      "inputs": [
        {
          "indexed": false,
          "internalType": "uint256",
          "name": "saleId",
          "type": "uint256"
        }
      ],
      "name": "SaleRevoked",
      "type": "event"
    },
    {
      "inputs": [],
      "name": "OPERATOR_LEVEL",
      "outputs": [
        {
          "internalType": "uint256",
          "name": "",
          "type": "uint256"
        }
      ],
      "stateMutability": "view",
      "type": "function"
    },
    {
      "inputs": [],
      "name": "OWNER_LEVEL",
      "outputs": [
        {
          "internalType": "uint256",
          "name": "",
          "type": "uint256"
        }
      ],
      "stateMutability": "view",
      "type": "function"
    },
    {
      "inputs": [
        {
          "internalType": "uint256",
          "name": "saleId",
          "type": "uint256"
        }
      ],
      "name": "approveSale",
      "outputs": [],
      "stateMutability": "nonpayable",
      "type": "function"
    },
    {
      "inputs": [
        {
          "internalType": "uint256",
          "name": "saleId",
          "type": "uint256"
        },
        {
          "components": [
            {
              "internalType": "contract ISAToken",
              "name": "satoken",
              "type": "address"
            },
            {
              "internalType": "contract IERC20Min",
              "name": "sellingToken",
              "type": "address"
            },
            {
              "internalType": "contract IERC20Min",
              "name": "paymentToken",
              "type": "address"
            },
            {
              "internalType": "address",
              "name": "owner",
              "type": "address"
            },
            {
              "internalType": "uint256",
              "name": "remainingAmount",
              "type": "uint256"
            },
            {
              "internalType": "uint64",
              "name": "minAmount",
              "type": "uint64"
            },
            {
              "internalType": "uint64",
              "name": "capAmount",
              "type": "uint64"
            },
            {
              "internalType": "uint64",
              "name": "pricingToken",
              "type": "uint64"
            },
            {
              "internalType": "uint64",
              "name": "pricingPayment",
              "type": "uint64"
            },
            {
              "internalType": "uint64",
              "name": "tokenListTimestamp",
              "type": "uint64"
            },
            {
              "internalType": "uint64",
              "name": "tokenFeePercentage",
              "type": "uint64"
            },
            {
              "internalType": "uint64",
              "name": "paymentFeePercentage",
              "type": "uint64"
            },
            {
              "internalType": "bool",
              "name": "isTokenTransferable",
              "type": "bool"
            }
          ],
          "internalType": "struct ISaleData.Setup",
          "name": "setup",
          "type": "tuple"
        },
        {
          "components": [
            {
              "internalType": "uint128",
              "name": "timestamp",
              "type": "uint128"
            },
            {
              "internalType": "uint128",
              "name": "percentage",
              "type": "uint128"
            }
          ],
          "internalType": "struct ISaleData.VestingStep[]",
          "name": "schedule",
          "type": "tuple[]"
        }
      ],
      "name": "encodeForSignature",
      "outputs": [
        {
          "internalType": "bytes32",
          "name": "",
          "type": "bytes32"
        }
      ],
      "stateMutability": "pure",
      "type": "function"
    },
    {
      "inputs": [
        {
          "internalType": "uint256",
          "name": "level",
          "type": "uint256"
        },
        {
          "internalType": "address",
          "name": "addr",
          "type": "address"
        }
      ],
      "name": "grantLevel",
      "outputs": [],
      "stateMutability": "nonpayable",
      "type": "function"
    },
    {
      "inputs": [
        {
          "internalType": "address",
          "name": "sale",
          "type": "address"
        }
      ],
      "name": "isLegitSale",
      "outputs": [
        {
          "internalType": "bool",
          "name": "",
          "type": "bool"
        }
      ],
      "stateMutability": "view",
      "type": "function"
    },
    {
      "inputs": [
        {
          "internalType": "address",
          "name": "",
          "type": "address"
        }
      ],
      "name": "levels",
      "outputs": [
        {
          "internalType": "uint256",
          "name": "",
          "type": "uint256"
        }
      ],
      "stateMutability": "view",
      "type": "function"
    },
    {
      "inputs": [
        {
          "internalType": "uint256",
          "name": "saleId",
          "type": "uint256"
        },
        {
          "components": [
            {
              "internalType": "contract ISAToken",
              "name": "satoken",
              "type": "address"
            },
            {
              "internalType": "contract IERC20Min",
              "name": "sellingToken",
              "type": "address"
            },
            {
              "internalType": "contract IERC20Min",
              "name": "paymentToken",
              "type": "address"
            },
            {
              "internalType": "address",
              "name": "owner",
              "type": "address"
            },
            {
              "internalType": "uint256",
              "name": "remainingAmount",
              "type": "uint256"
            },
            {
              "internalType": "uint64",
              "name": "minAmount",
              "type": "uint64"
            },
            {
              "internalType": "uint64",
              "name": "capAmount",
              "type": "uint64"
            },
            {
              "internalType": "uint64",
              "name": "pricingToken",
              "type": "uint64"
            },
            {
              "internalType": "uint64",
              "name": "pricingPayment",
              "type": "uint64"
            },
            {
              "internalType": "uint64",
              "name": "tokenListTimestamp",
              "type": "uint64"
            },
            {
              "internalType": "uint64",
              "name": "tokenFeePercentage",
              "type": "uint64"
            },
            {
              "internalType": "uint64",
              "name": "paymentFeePercentage",
              "type": "uint64"
            },
            {
              "internalType": "bool",
              "name": "isTokenTransferable",
              "type": "bool"
            }
          ],
          "internalType": "struct ISaleData.Setup",
          "name": "setup",
          "type": "tuple"
        },
        {
          "components": [
            {
              "internalType": "uint128",
              "name": "timestamp",
              "type": "uint128"
            },
            {
              "internalType": "uint128",
              "name": "percentage",
              "type": "uint128"
            }
          ],
          "internalType": "struct ISaleData.VestingStep[]",
          "name": "schedule",
          "type": "tuple[]"
        },
        {
          "internalType": "bytes",
          "name": "validatorSignature",
          "type": "bytes"
        }
      ],
      "name": "newSale",
      "outputs": [],
      "stateMutability": "nonpayable",
      "type": "function"
    },
    {
      "inputs": [
        {
          "internalType": "uint256",
          "name": "saleId",
          "type": "uint256"
        }
      ],
      "name": "revokeApproval",
      "outputs": [],
      "stateMutability": "nonpayable",
      "type": "function"
    },
    {
      "inputs": [
        {
          "internalType": "address",
          "name": "addr",
          "type": "address"
        }
      ],
      "name": "revokeLevel",
      "outputs": [],
      "stateMutability": "nonpayable",
      "type": "function"
    },
    {
      "inputs": [
        {
          "internalType": "address",
          "name": "validator",
          "type": "address"
        }
      ],
      "name": "updateValidator",
      "outputs": [],
      "stateMutability": "nonpayable",
      "type": "function"
    }
  ],
  "bytecode": "0x60806040523480156200001157600080fd5b5060405162004da138038062004da183398181016040528101906200003791906200015b565b60016000803373ffffffffffffffffffffffffffffffffffffffff1673ffffffffffffffffffffffffffffffffffffffff168152602001908152602001600020819055507f30113ad733c78bfd7b2fd05fa6982d156dda72dd2739fdc5ffbd71ecfc3124d26001336000604051620000b293929190620001be565b60405180910390a181600260006101000a81548173ffffffffffffffffffffffffffffffffffffffff021916908373ffffffffffffffffffffffffffffffffffffffff16021790555080600460006101000a81548173ffffffffffffffffffffffffffffffffffffffff021916908373ffffffffffffffffffffffffffffffffffffffff160217905550505062000253565b600081519050620001558162000239565b92915050565b600080604083850312156200016f57600080fd5b60006200017f8582860162000144565b9250506020620001928582860162000144565b9150509250929050565b620001a781620001fb565b82525050565b620001b8816200022f565b82525050565b6000606082019050620001d56000830186620001ad565b620001e460208301856200019c565b620001f360408301846200019c565b949350505050565b600062000208826200020f565b9050919050565b600073ffffffffffffffffffffffffffffffffffffffff82169050919050565b6000819050919050565b6200024481620001fb565b81146200025057600080fd5b50565b614b3e80620002636000396000f3fe60806040523480156200001157600080fd5b5060043610620000b85760003560e01c806359def01e116200007b57806359def01e146200018b578063635b277014620001ad57806374efb79914620001cd5780638a553da21462000203578063b1e130fc1462000223578063f25ec213146200024357620000b8565b806314a72feb14620000bd5780631ce7058114620000dd5780633a498e2914620000ff57806347082db3146200011f57806350c95ef81462000155575b600080fd5b620000db6004803603810190620000d591906200160d565b62000263565b005b620000e7620004bc565b604051620000f691906200204c565b60405180910390f35b6200011d600480360381019062000117919062001717565b620004c1565b005b6200013d6004803603810190620001379190620015b5565b62000716565b6040516200014c91906200204c565b60405180910390f35b6200017360048036038101906200016d9190620016a6565b6200072e565b60405162000182919062001e5f565b60405180910390f35b6200019562000b02565b604051620001a491906200204c565b60405180910390f35b620001cb6004803603810190620001c59190620015b5565b62000b07565b005b620001eb6004803603810190620001e59190620015b5565b62000bd1565b604051620001fa919062001e42565b60405180910390f35b6200022160048036038101906200021b9190620015b5565b62000c8b565b005b6200024160048036038101906200023b91906200160d565b62000d94565b005b6200026160048036038101906200025b919062001665565b62000e79565b005b6003806000803373ffffffffffffffffffffffffffffffffffffffff1673ffffffffffffffffffffffffffffffffffffffff1681526020019081526020016000205414620002e8576040517f08c379a0000000000000000000000000000000000000000000000000000000008152600401620002df9062001fd2565b60405180910390fd5b600260009054906101000a900473ffffffffffffffffffffffffffffffffffffffff1673ffffffffffffffffffffffffffffffffffffffff1663deb077b96040518163ffffffff1660e01b815260040160206040518083038186803b1580156200035157600080fd5b505afa15801562000366573d6000803e3d6000fd5b505050506040513d601f19601f820116820180604052508101906200038c919062001639565b8214620003d0576040517f08c379a0000000000000000000000000000000000000000000000000000000008152600401620003c79062001f4a565b60405180910390fd5b600260009054906101000a900473ffffffffffffffffffffffffffffffffffffffff1673ffffffffffffffffffffffffffffffffffffffff1663018a80ec6040518163ffffffff1660e01b8152600401600060405180830381600087803b1580156200043b57600080fd5b505af115801562000450573d6000803e3d6000fd5b50505050600180600084815260200190815260200160002060006101000a81548160ff0219169083151502179055507fbb04bea84885a72e3891993318adefb442812fa459948e555c4e09692e352e6082604051620004b091906200204c565b60405180910390a15050565b600181565b600460009054906101000a900473ffffffffffffffffffffffffffffffffffffffff1673ffffffffffffffffffffffffffffffffffffffff16620005126200050b8686866200072e565b8362000f83565b73ffffffffffffffffffffffffffffffffffffffff16146200056b576040517f08c379a0000000000000000000000000000000000000000000000000000000008152600401620005629062001f8e565b60405180910390fd5b600084600260009054906101000a900473ffffffffffffffffffffffffffffffffffffffff166040516200059f9062001220565b620005ac92919062002069565b604051809103906000f080158015620005c9573d6000803e3d6000fd5b5090506000819050600260009054906101000a900473ffffffffffffffffffffffffffffffffffffffff1673ffffffffffffffffffffffffffffffffffffffff1663ee821640826040518263ffffffff1660e01b81526004016200062e919062001e25565b600060405180830381600087803b1580156200064957600080fd5b505af11580156200065e573d6000803e3d6000fd5b505050508173ffffffffffffffffffffffffffffffffffffffff1663a60e763286866040518363ffffffff1660e01b81526004016200069f92919062002016565b600060405180830381600087803b158015620006ba57600080fd5b505af1158015620006cf573d6000803e3d6000fd5b505050507fffd87d6dbd2aff9b989dba67d274544f93363b2a43df13a33f9980a8a9f154ef86826040516200070692919062002069565b60405180910390a1505050505050565b60006020528060005260406000206000915090505481565b6000808360800151148015620007535750600083610120015167ffffffffffffffff16145b62000795576040517f08c379a00000000000000000000000000000000000000000000000000000000081526004016200078c9062001ff4565b60405180910390fd5b600060028351620007a7919062002216565b67ffffffffffffffff811115620007e7577f4e487b7100000000000000000000000000000000000000000000000000000000600052604160045260246000fd5b604051908082528060200260200182016040528015620008165781602001602082028036833780820191505090505b5090506000805b84518160ff161015620009c657848160ff168151811062000867577f4e487b7100000000000000000000000000000000000000000000000000000000600052603260045260246000fd5b6020026020010151600001518383806200088190620023d9565b945081518110620008bb577f4e487b7100000000000000000000000000000000000000000000000000000000600052603260045260246000fd5b60200260200101906fffffffffffffffffffffffffffffffff1690816fffffffffffffffffffffffffffffffff1681525050848160ff16815181106200092a577f4e487b7100000000000000000000000000000000000000000000000000000000600052603260045260246000fd5b6020026020010151602001518383806200094490620023d9565b9450815181106200097e577f4e487b7100000000000000000000000000000000000000000000000000000000600052603260045260246000fd5b60200260200101906fffffffffffffffffffffffffffffffff1690816fffffffffffffffffffffffffffffffff16815250508080620009bd9062002427565b9150506200081d565b5060006040518060e001604052808760a0015167ffffffffffffffff1667ffffffffffffffff1681526020018760c0015167ffffffffffffffff1667ffffffffffffffff1681526020018760e0015167ffffffffffffffff1667ffffffffffffffff16815260200187610100015167ffffffffffffffff1667ffffffffffffffff16815260200187610120015167ffffffffffffffff1667ffffffffffffffff16815260200187610140015167ffffffffffffffff1667ffffffffffffffff16815260200187610160015167ffffffffffffffff1667ffffffffffffffff16815250905086866000015187602001518860400151896060015187868c610180015160405160200162000ae098979695949392919062001d7a565b6040516020818303038152906040528051906020012093505050509392505050565b600381565b6001806000803373ffffffffffffffffffffffffffffffffffffffff1673ffffffffffffffffffffffffffffffffffffffff168152602001908152602001600020541462000b8c576040517f08c379a000000000000000000000000000000000000000000000000000000000815260040162000b839062001fd2565b60405180910390fd5b81600460006101000a81548173ffffffffffffffffffffffffffffffffffffffff021916908373ffffffffffffffffffffffffffffffffffffffff1602179055505050565b6000600260009054906101000a900473ffffffffffffffffffffffffffffffffffffffff1673ffffffffffffffffffffffffffffffffffffffff166374efb799836040518263ffffffff1660e01b815260040162000c30919062001e25565b60206040518083038186803b15801562000c4957600080fd5b505afa15801562000c5e573d6000803e3d6000fd5b505050506040513d601f19601f8201168201806040525081019062000c849190620015e1565b9050919050565b6001806000803373ffffffffffffffffffffffffffffffffffffffff1673ffffffffffffffffffffffffffffffffffffffff168152602001908152602001600020541462000d10576040517f08c379a000000000000000000000000000000000000000000000000000000000815260040162000d079062001fd2565b60405180910390fd5b6000808373ffffffffffffffffffffffffffffffffffffffff1673ffffffffffffffffffffffffffffffffffffffff168152602001908152602001600020600090557f30113ad733c78bfd7b2fd05fa6982d156dda72dd2739fdc5ffbd71ecfc3124d26000833360405162000d889392919062001ec9565b60405180910390a15050565b6003806000803373ffffffffffffffffffffffffffffffffffffffff1673ffffffffffffffffffffffffffffffffffffffff168152602001908152602001600020541462000e19576040517f08c379a000000000000000000000000000000000000000000000000000000000815260040162000e109062001fd2565b60405180910390fd5b6001600083815260200190815260200160002060006101000a81549060ff02191690557f3de02477d8cb66a080d5b8df141d6a98c463a18c29cef5636357426c5e9e77c18260405162000e6d91906200204c565b60405180910390a15050565b6001806000803373ffffffffffffffffffffffffffffffffffffffff1673ffffffffffffffffffffffffffffffffffffffff168152602001908152602001600020541462000efe576040517f08c379a000000000000000000000000000000000000000000000000000000000815260040162000ef59062001fd2565b60405180910390fd5b826000808473ffffffffffffffffffffffffffffffffffffffff1673ffffffffffffffffffffffffffffffffffffffff168152602001908152602001600020819055507f30113ad733c78bfd7b2fd05fa6982d156dda72dd2739fdc5ffbd71ecfc3124d283833360405162000f769392919062002096565b60405180910390a1505050565b600060418251141562000fc65760008060006020850151925060408501519150606085015160001a905062000fbb868285856200103c565b935050505062001036565b60408251141562000ff957600080602084015191506040840151905062000fef858383620011d4565b9250505062001036565b6040517f08c379a00000000000000000000000000000000000000000000000000000000081526004016200102d9062001f28565b60405180910390fd5b92915050565b60007f7fffffffffffffffffffffffffffffff5d576e7357a4501ddfe92f46681b20a08260001c1115620010a7576040517f08c379a00000000000000000000000000000000000000000000000000000000081526004016200109e9062001f6c565b60405180910390fd5b601b8460ff161480620010bd5750601c8460ff16145b620010ff576040517f08c379a0000000000000000000000000000000000000000000000000000000008152600401620010f69062001fb0565b60405180910390fd5b60006001868686866040516000815260200160405260405162001126949392919062001e7c565b6020604051602081039080840390855afa15801562001149573d6000803e3d6000fd5b505050602060405103519050600073ffffffffffffffffffffffffffffffffffffffff168173ffffffffffffffffffffffffffffffffffffffff161415620011c8576040517f08c379a0000000000000000000000000000000000000000000000000000000008152600401620011bf9062001f06565b60405180910390fd5b80915050949350505050565b60008060007f7fffffffffffffffffffffffffffffffffffffffffffffffffffffffffffffff84169150601b8460ff1c01905062001215868287856200103c565b925050509392505050565b61231080620027f983390190565b6000620012456200123f84620020fc565b620020d3565b905080838252602082019050828560408602820111156200126557600080fd5b60005b858110156200129957816200127e888262001506565b84526020840193506040830192505060018101905062001268565b5050509392505050565b6000620012ba620012b4846200212b565b620020d3565b905082815260208101848484011115620012d357600080fd5b620012e084828562002394565b509392505050565b600081359050620012f98162002742565b92915050565b600082601f8301126200131157600080fd5b8135620013238482602086016200122e565b91505092915050565b6000813590506200133d816200275c565b92915050565b60008151905062001354816200275c565b92915050565b600082601f8301126200136c57600080fd5b81356200137e848260208601620012a3565b91505092915050565b600081359050620013988162002776565b92915050565b600081359050620013af8162002790565b92915050565b60006101a08284031215620013c957600080fd5b620013d66101a0620020d3565b90506000620013e8848285016200139e565b6000830152506020620013fe8482850162001387565b6020830152506040620014148482850162001387565b60408301525060606200142a84828501620012e8565b6060830152506080620014408482850162001570565b60808301525060a062001456848285016200159e565b60a08301525060c06200146c848285016200159e565b60c08301525060e062001482848285016200159e565b60e08301525061010062001499848285016200159e565b61010083015250610120620014b1848285016200159e565b61012083015250610140620014c9848285016200159e565b61014083015250610160620014e1848285016200159e565b61016083015250610180620014f9848285016200132c565b6101808301525092915050565b6000604082840312156200151957600080fd5b620015256040620020d3565b90506000620015378482850162001559565b60008301525060206200154d8482850162001559565b60208301525092915050565b6000813590506200156a81620027aa565b92915050565b6000813590506200158181620027c4565b92915050565b6000815190506200159881620027c4565b92915050565b600081359050620015af81620027de565b92915050565b600060208284031215620015c857600080fd5b6000620015d884828501620012e8565b91505092915050565b600060208284031215620015f457600080fd5b6000620016048482850162001343565b91505092915050565b6000602082840312156200162057600080fd5b6000620016308482850162001570565b91505092915050565b6000602082840312156200164c57600080fd5b60006200165c8482850162001587565b91505092915050565b600080604083850312156200167957600080fd5b6000620016898582860162001570565b92505060206200169c85828601620012e8565b9150509250929050565b60008060006101e08486031215620016bd57600080fd5b6000620016cd8682870162001570565b9350506020620016e086828701620013b5565b9250506101c084013567ffffffffffffffff811115620016ff57600080fd5b6200170d86828701620012ff565b9150509250925092565b60008060008061020085870312156200172f57600080fd5b60006200173f8782880162001570565b94505060206200175287828801620013b5565b9350506101c085013567ffffffffffffffff8111156200177157600080fd5b6200177f87828801620012ff565b9250506101e085013567ffffffffffffffff8111156200179e57600080fd5b620017ac878288016200135a565b91505092959194509250565b6000620017c6838362001cb5565b60408301905092915050565b6000620017e0838362001cf9565b60208301905092915050565b6000620017fa838362001d58565b60208301905092915050565b620018118162002277565b82525050565b620018228162002277565b82525050565b6200183d620018378262002277565b62002456565b82525050565b600062001850826200218b565b6200185c8185620021d3565b9350620018698362002161565b8060005b83811015620018a0578151620018848882620017b8565b97506200189183620021ac565b9250506001810190506200186d565b5085935050505092915050565b6000620018ba8262002196565b620018c68185620021e4565b9350620018d38362002171565b8060005b838110156200190a578151620018ee8882620017d2565b9750620018fb83620021b9565b925050600181019050620018d7565b5085935050505092915050565b6200192281620021a1565b6200192e8184620021ef565b92506200193b8262002181565b8060005b8381101562001972578151620019568782620017ec565b96506200196383620021c6565b9250506001810190506200193f565b505050505050565b62001985816200228b565b82525050565b62001996816200228b565b82525050565b620019b1620019ab826200228b565b6200246a565b82525050565b620019c28162002297565b82525050565b620019d38162002330565b82525050565b620019ee620019e88262002330565b62002456565b82525050565b620019ff8162002358565b82525050565b62001a1a62001a148262002358565b62002456565b82525050565b62001a2b8162002380565b82525050565b600062001a40601883620021fa565b915062001a4d8262002539565b602082019050919050565b600062001a67601f83620021fa565b915062001a748262002562565b602082019050919050565b600062001a8e601c83620021fa565b915062001a9b826200258b565b602082019050919050565b600062001ab5602283620021fa565b915062001ac282620025b4565b604082019050919050565b600062001adc6002836200220b565b915062001ae98262002603565b600282019050919050565b600062001b03603183620021fa565b915062001b10826200262c565b604082019050919050565b600062001b2a602283620021fa565b915062001b37826200267b565b604082019050919050565b600062001b51602383620021fa565b915062001b5e82620026ca565b604082019050919050565b600062001b78601a83620021fa565b915062001b858262002719565b602082019050919050565b6101a08201600082015162001ba96000850182620019f4565b50602082015162001bbe6020850182620019c8565b50604082015162001bd36040850182620019c8565b50606082015162001be8606085018262001806565b50608082015162001bfd608085018262001d0a565b5060a082015162001c1260a085018262001d47565b5060c082015162001c2760c085018262001d47565b5060e082015162001c3c60e085018262001d47565b5061010082015162001c5361010085018262001d47565b5061012082015162001c6a61012085018262001d47565b5061014082015162001c8161014085018262001d47565b5061016082015162001c9861016085018262001d47565b5061018082015162001caf6101808501826200197a565b50505050565b60408201600082015162001ccd600085018262001ce8565b50602082015162001ce2602085018262001ce8565b50505050565b62001cf381620022c9565b82525050565b62001d0481620022c9565b82525050565b62001d158162002305565b82525050565b62001d268162002305565b82525050565b62001d4162001d3b8262002305565b62002492565b82525050565b62001d52816200230f565b82525050565b62001d63816200230f565b82525050565b62001d748162002323565b82525050565b600062001d878262001acd565b915062001d95828b62001d2c565b60208201915062001da7828a62001a05565b60148201915062001db98289620019d9565b60148201915062001dcb8288620019d9565b60148201915062001ddd828762001828565b60148201915062001def8286620018ad565b915062001dfd828562001917565b60e08201915062001e0f82846200199c565b6001820191508190509998505050505050505050565b600060208201905062001e3c600083018462001817565b92915050565b600060208201905062001e5960008301846200198b565b92915050565b600060208201905062001e766000830184620019b7565b92915050565b600060808201905062001e936000830187620019b7565b62001ea2602083018662001d69565b62001eb16040830185620019b7565b62001ec06060830184620019b7565b95945050505050565b600060608201905062001ee0600083018662001a20565b62001eef602083018562001817565b62001efe604083018462001817565b949350505050565b6000602082019050818103600083015262001f218162001a31565b9050919050565b6000602082019050818103600083015262001f438162001a58565b9050919050565b6000602082019050818103600083015262001f658162001a7f565b9050919050565b6000602082019050818103600083015262001f878162001aa6565b9050919050565b6000602082019050818103600083015262001fa98162001af4565b9050919050565b6000602082019050818103600083015262001fcb8162001b1b565b9050919050565b6000602082019050818103600083015262001fed8162001b42565b9050919050565b600060208201905081810360008301526200200f8162001b69565b9050919050565b60006101c0820190506200202e600083018562001b90565b8181036101a083015262002043818462001843565b90509392505050565b600060208201905062002063600083018462001d1b565b92915050565b600060408201905062002080600083018562001d1b565b6200208f602083018462001817565b9392505050565b6000606082019050620020ad600083018662001d1b565b620020bc602083018562001817565b620020cb604083018462001817565b949350505050565b6000620020df620020f2565b9050620020ed8282620023a3565b919050565b6000604051905090565b600067ffffffffffffffff8211156200211a5762002119620024df565b5b602082029050602081019050919050565b600067ffffffffffffffff821115620021495762002148620024df565b5b62002154826200250e565b9050602081019050919050565b6000819050602082019050919050565b6000819050602082019050919050565b6000819050919050565b600081519050919050565b600081519050919050565b600060079050919050565b6000602082019050919050565b6000602082019050919050565b6000602082019050919050565b600082825260208201905092915050565b600081905092915050565b600081905092915050565b600082825260208201905092915050565b600081905092915050565b6000620022238262002305565b9150620022308362002305565b9250817fffffffffffffffffffffffffffffffffffffffffffffffffffffffffffffffff04831182151516156200226c576200226b620024b0565b5b828202905092915050565b60006200228482620022e5565b9050919050565b60008115159050919050565b6000819050919050565b6000620022ae8262002277565b9050919050565b6000620022c28262002277565b9050919050565b60006fffffffffffffffffffffffffffffffff82169050919050565b600073ffffffffffffffffffffffffffffffffffffffff82169050919050565b6000819050919050565b600067ffffffffffffffff82169050919050565b600060ff82169050919050565b60006200233d8262002344565b9050919050565b60006200235182620022e5565b9050919050565b600062002365826200236c565b9050919050565b60006200237982620022e5565b9050919050565b60006200238d8262002305565b9050919050565b82818337600083830152505050565b620023ae826200250e565b810181811067ffffffffffffffff82111715620023d057620023cf620024df565b5b80604052505050565b6000620023e68262002305565b91507fffffffffffffffffffffffffffffffffffffffffffffffffffffffffffffffff8214156200241c576200241b620024b0565b5b600182019050919050565b6000620024348262002323565b915060ff8214156200244b576200244a620024b0565b5b600182019050919050565b600062002463826200247e565b9050919050565b600062002477826200249c565b9050919050565b60006200248b826200252c565b9050919050565b6000819050919050565b6000620024a9826200251f565b9050919050565b7f4e487b7100000000000000000000000000000000000000000000000000000000600052601160045260246000fd5b7f4e487b7100000000000000000000000000000000000000000000000000000000600052604160045260246000fd5b6000601f19601f8301169050919050565b60008160f81b9050919050565b60008160601b9050919050565b7f45434453413a20696e76616c6964207369676e61747572650000000000000000600082015250565b7f45434453413a20696e76616c6964207369676e6174757265206c656e67746800600082015250565b7f53616c65466163746f72793a20696e76616c69642073616c6520696400000000600082015250565b7f45434453413a20696e76616c6964207369676e6174757265202773272076616c60008201527f7565000000000000000000000000000000000000000000000000000000000000602082015250565b7f1900000000000000000000000000000000000000000000000000000000000000600082015250565b7f53616c65466163746f72793a20696e76616c6964207369676e6174757265206f60008201527f72206d6f64696669656420706172616d73000000000000000000000000000000602082015250565b7f45434453413a20696e76616c6964207369676e6174757265202776272076616c60008201527f7565000000000000000000000000000000000000000000000000000000000000602082015250565b7f4c6576656c4163636573733a2063616c6c6572206e6f7420617574686f72697a60008201527f65642e0000000000000000000000000000000000000000000000000000000000602082015250565b7f53616c65466163746f72793a20696e76616c6964207365747570000000000000600082015250565b6200274d8162002277565b81146200275957600080fd5b50565b62002767816200228b565b81146200277357600080fd5b50565b6200278181620022a1565b81146200278d57600080fd5b50565b6200279b81620022b5565b8114620027a757600080fd5b50565b620027b581620022c9565b8114620027c157600080fd5b50565b620027cf8162002305565b8114620027db57600080fd5b50565b620027e9816200230f565b8114620027f557600080fd5b5056fe60806040523480156200001157600080fd5b5060405162002310380380620023108339818101604052810190620000379190620000b4565b81600181905550806000806101000a81548173ffffffffffffffffffffffffffffffffffffffff021916908373ffffffffffffffffffffffffffffffffffffffff160217905550505062000167565b600081519050620000978162000133565b92915050565b600081519050620000ae816200014d565b92915050565b60008060408385031215620000c857600080fd5b6000620000d8858286016200009d565b9250506020620000eb8582860162000086565b9150509250929050565b6000620001028262000109565b9050919050565b600073ffffffffffffffffffffffffffffffffffffffff82169050919050565b6000819050919050565b6200013e81620000f5565b81146200014a57600080fd5b50565b620001588162000129565b81146200016457600080fd5b50565b61219980620001776000396000f3fe608060405234801561001057600080fd5b50600436106100885760003560e01c806350baa6221161005b57806350baa62214610102578063a60e76321461011e578063c84c03871461013a578063dbd3cd621461015857610088565b806301339c211461008d5780632121dc75146100975780632afcf480146100b5578063454f456f146100d1575b600080fd5b610095610174565b005b61009f6103df565b6040516100ac9190611c3f565b60405180910390f35b6100cf60048036038101906100ca9190611878565b610498565b005b6100eb60048036038101906100e691906116cc565b61095f565b6040516100f9929190611c9a565b60405180910390f35b61011c60048036038101906101179190611878565b610c69565b005b610138600480360381019061013391906117e6565b610ed9565b005b610142610f70565b60405161014f9190611cc3565b60405180910390f35b610172600480360381019061016d9190611878565b610f76565b005b60008054906101000a900473ffffffffffffffffffffffffffffffffffffffff1673ffffffffffffffffffffffffffffffffffffffff166304ad83a26001546040518263ffffffff1660e01b81526004016101cf9190611cc3565b6101a06040518083038186803b1580156101e857600080fd5b505afa1580156101fc573d6000803e3d6000fd5b505050506040513d601f19601f8201168201806040525081019061022091906117bc565b6060015173ffffffffffffffffffffffffffffffffffffffff163373ffffffffffffffffffffffffffffffffffffffff1614610291576040517f08c379a000000000000000000000000000000000000000000000000000000000815260040161028890611c5a565b60405180910390fd5b60008060008060009054906101000a900473ffffffffffffffffffffffffffffffffffffffff1673ffffffffffffffffffffffffffffffffffffffff16635d1d37c36001546040518263ffffffff1660e01b81526004016102f29190611cc3565b606060405180830381600087803b15801561030c57600080fd5b505af1158015610320573d6000803e3d6000fd5b505050506040513d601f19601f820116820180604052508101906103449190611731565b9250925092508273ffffffffffffffffffffffffffffffffffffffff166323b872dd8330846040518463ffffffff1660e01b815260040161038793929190611b9a565b602060405180830381600087803b1580156103a157600080fd5b505af11580156103b5573d6000803e3d6000fd5b505050506040513d601f19601f820116820180604052508101906103d99190611708565b50505050565b60008060009054906101000a900473ffffffffffffffffffffffffffffffffffffffff1673ffffffffffffffffffffffffffffffffffffffff166304ad83a26001546040518263ffffffff1660e01b815260040161043d9190611cc3565b6101a06040518083038186803b15801561045657600080fd5b505afa15801561046a573d6000803e3d6000fd5b505050506040513d601f19601f8201168201806040525081019061048e91906117bc565b6101800151905090565b60008060009054906101000a900473ffffffffffffffffffffffffffffffffffffffff1673ffffffffffffffffffffffffffffffffffffffff166304ad83a26001546040518263ffffffff1660e01b81526004016104f69190611cc3565b6101a06040518083038186803b15801561050f57600080fd5b505afa158015610523573d6000803e3d6000fd5b505050506040513d601f19601f8201168201806040525081019061054791906117bc565b905060008060008060009054906101000a900473ffffffffffffffffffffffffffffffffffffffff1673ffffffffffffffffffffffffffffffffffffffff1663ef0c1dec60015433886040518463ffffffff1660e01b81526004016105ae93929190611d2c565b606060405180830381600087803b1580156105c857600080fd5b505af11580156105dc573d6000803e3d6000fd5b505050506040513d601f19601f8201168201806040525081019061060091906118a1565b925092509250836040015173ffffffffffffffffffffffffffffffffffffffff166323b872dd3360008054906101000a900473ffffffffffffffffffffffffffffffffffffffff1673ffffffffffffffffffffffffffffffffffffffff16632ea03f2f6040518163ffffffff1660e01b815260040160206040518083038186803b15801561068d57600080fd5b505afa1580156106a1573d6000803e3d6000fd5b505050506040513d601f19601f820116820180604052508101906106c591906116a3565b856040518463ffffffff1660e01b81526004016106e493929190611b9a565b602060405180830381600087803b1580156106fe57600080fd5b505af1158015610712573d6000803e3d6000fd5b505050506040513d601f19601f820116820180604052508101906107369190611708565b50836040015173ffffffffffffffffffffffffffffffffffffffff166323b872dd3330866040518463ffffffff1660e01b815260040161077893929190611b9a565b602060405180830381600087803b15801561079257600080fd5b505af11580156107a6573d6000803e3d6000fd5b505050506040513d601f19601f820116820180604052508101906107ca9190611708565b506000846000015190508073ffffffffffffffffffffffffffffffffffffffff1663f4c959ab3360008960006040518563ffffffff1660e01b81526004016108159493929190611bd1565b600060405180830381600087803b15801561082f57600080fd5b505af1158015610843573d6000803e3d6000fd5b505050508073ffffffffffffffffffffffffffffffffffffffff1663f4c959ab60008054906101000a900473ffffffffffffffffffffffffffffffffffffffff1673ffffffffffffffffffffffffffffffffffffffff16632ea03f2f6040518163ffffffff1660e01b815260040160206040518083038186803b1580156108c957600080fd5b505afa1580156108dd573d6000803e3d6000fd5b505050506040513d601f19601f8201168201806040525081019061090191906116a3565b60008560006040518563ffffffff1660e01b81526004016109259493929190611bd1565b600060405180830381600087803b15801561093f57600080fd5b505af1158015610953573d6000803e3d6000fd5b50505050505050505050565b60008060008060009054906101000a900473ffffffffffffffffffffffffffffffffffffffff1673ffffffffffffffffffffffffffffffffffffffff166304ad83a26001546040518263ffffffff1660e01b81526004016109c09190611cc3565b6101a06040518083038186803b1580156109d957600080fd5b505afa1580156109ed573d6000803e3d6000fd5b505050506040513d601f19601f82011682018060405250810190610a1191906117bc565b90506000816000015190508073ffffffffffffffffffffffffffffffffffffffff1663150603146040518163ffffffff1660e01b815260040160206040518083038186803b158015610a6257600080fd5b505afa158015610a76573d6000803e3d6000fd5b505050506040513d601f19601f82011682018060405250810190610a9a91906116a3565b73ffffffffffffffffffffffffffffffffffffffff163373ffffffffffffffffffffffffffffffffffffffff1614610b07576040517f08c379a0000000000000000000000000000000000000000000000000000000008152600401610afe90611c7a565b60405180910390fd5b60008060008054906101000a900473ffffffffffffffffffffffffffffffffffffffff1673ffffffffffffffffffffffffffffffffffffffff1663de89f61660015489604001518a602001516040518463ffffffff1660e01b8152600401610b7193929190611d63565b6040805180830381600087803b158015610b8a57600080fd5b505af1158015610b9e573d6000803e3d6000fd5b505050506040513d601f19601f82011682018060405250810190610bc2919061183c565b91509150836020015173ffffffffffffffffffffffffffffffffffffffff1663a9059cbb89836040518363ffffffff1660e01b8152600401610c05929190611c16565b602060405180830381600087803b158015610c1f57600080fd5b505af1158015610c33573d6000803e3d6000fd5b505050506040513d601f19601f82011682018060405250810190610c579190611708565b50818195509550505050509250929050565b60008054906101000a900473ffffffffffffffffffffffffffffffffffffffff1673ffffffffffffffffffffffffffffffffffffffff166304ad83a26001546040518263ffffffff1660e01b8152600401610cc49190611cc3565b6101a06040518083038186803b158015610cdd57600080fd5b505afa158015610cf1573d6000803e3d6000fd5b505050506040513d601f19601f82011682018060405250810190610d1591906117bc565b6060015173ffffffffffffffffffffffffffffffffffffffff163373ffffffffffffffffffffffffffffffffffffffff1614610d86576040517f08c379a0000000000000000000000000000000000000000000000000000000008152600401610d7d90611c5a565b60405180910390fd5b60008060008054906101000a900473ffffffffffffffffffffffffffffffffffffffff1673ffffffffffffffffffffffffffffffffffffffff166339a2070a600154856040518363ffffffff1660e01b8152600401610de6929190611d9a565b6040805180830381600087803b158015610dff57600080fd5b505af1158015610e13573d6000803e3d6000fd5b505050506040513d601f19601f82011682018060405250810190610e379190611780565b915091508173ffffffffffffffffffffffffffffffffffffffff1663a9059cbb338386610e649190611e5e565b6040518363ffffffff1660e01b8152600401610e81929190611c16565b602060405180830381600087803b158015610e9b57600080fd5b505af1158015610eaf573d6000803e3d6000fd5b505050506040513d601f19601f82011682018060405250810190610ed39190611708565b50505050565b60008054906101000a900473ffffffffffffffffffffffffffffffffffffffff1673ffffffffffffffffffffffffffffffffffffffff16630c5dfb606001543085856040518563ffffffff1660e01b8152600401610f3a9493929190611cde565b600060405180830381600087803b158015610f5457600080fd5b505af1158015610f68573d6000803e3d6000fd5b505050505050565b60015481565b60008054906101000a900473ffffffffffffffffffffffffffffffffffffffff1673ffffffffffffffffffffffffffffffffffffffff166304ad83a26001546040518263ffffffff1660e01b8152600401610fd19190611cc3565b6101a06040518083038186803b158015610fea57600080fd5b505afa158015610ffe573d6000803e3d6000fd5b505050506040513d601f19601f8201168201806040525081019061102291906117bc565b6060015173ffffffffffffffffffffffffffffffffffffffff163373ffffffffffffffffffffffffffffffffffffffff1614611093576040517f08c379a000000000000000000000000000000000000000000000000000000000815260040161108a90611c5a565b60405180910390fd5b60008054906101000a900473ffffffffffffffffffffffffffffffffffffffff1673ffffffffffffffffffffffffffffffffffffffff166304ad83a26001546040518263ffffffff1660e01b81526004016110ee9190611cc3565b6101a06040518083038186803b15801561110757600080fd5b505afa15801561111b573d6000803e3d6000fd5b505050506040513d601f19601f8201168201806040525081019061113f91906117bc565b6040015173ffffffffffffffffffffffffffffffffffffffff1663a9059cbb33836040518363ffffffff1660e01b815260040161117d929190611c16565b602060405180830381600087803b15801561119757600080fd5b505af11580156111ab573d6000803e3d6000fd5b505050506040513d601f19601f820116820180604052508101906111cf9190611708565b5050565b60006111e66111e184611de8565b611dc3565b9050808382526020820190508285604086028201111561120557600080fd5b60005b85811015611235578161121b88826115d9565b845260208401935060408301925050600181019050611208565b5050509392505050565b60008135905061124e816120c2565b92915050565b600081519050611263816120c2565b92915050565b600082601f83011261127a57600080fd5b813561128a8482602086016111d3565b91505092915050565b6000813590506112a2816120d9565b92915050565b6000815190506112b7816120d9565b92915050565b6000813590506112cc816120f0565b92915050565b6000815190506112e1816120f0565b92915050565b6000813590506112f681612107565b92915050565b60008151905061130b81612107565b92915050565b60006060828403121561132357600080fd5b61132d6060611dc3565b9050600061133d8482850161123f565b60008301525060206113518482850161164f565b602083015250604061136584828501611625565b60408301525092915050565b60006101a0828403121561138457600080fd5b61138f6101a0611dc3565b9050600061139f848285016112e7565b60008301525060206113b3848285016112bd565b60208301525060406113c7848285016112bd565b60408301525060606113db8482850161123f565b60608301525060806113ef8482850161164f565b60808301525060a061140384828501611679565b60a08301525060c061141784828501611679565b60c08301525060e061142b84828501611679565b60e08301525061010061144084828501611679565b6101008301525061012061145684828501611679565b6101208301525061014061146c84828501611679565b6101408301525061016061148284828501611679565b6101608301525061018061149884828501611293565b6101808301525092915050565b60006101a082840312156114b857600080fd5b6114c36101a0611dc3565b905060006114d3848285016112fc565b60008301525060206114e7848285016112d2565b60208301525060406114fb848285016112d2565b604083015250606061150f84828501611254565b606083015250608061152384828501611664565b60808301525060a06115378482850161168e565b60a08301525060c061154b8482850161168e565b60c08301525060e061155f8482850161168e565b60e0830152506101006115748482850161168e565b6101008301525061012061158a8482850161168e565b610120830152506101406115a08482850161168e565b610140830152506101606115b68482850161168e565b610160830152506101806115cc848285016112a8565b6101808301525092915050565b6000604082840312156115eb57600080fd5b6115f56040611dc3565b9050600061160584828501611625565b600083015250602061161984828501611625565b60208301525092915050565b6000813590506116348161211e565b92915050565b6000815190506116498161211e565b92915050565b60008135905061165e81612135565b92915050565b60008151905061167381612135565b92915050565b6000813590506116888161214c565b92915050565b60008151905061169d8161214c565b92915050565b6000602082840312156116b557600080fd5b60006116c384828501611254565b91505092915050565b600080608083850312156116df57600080fd5b60006116ed8582860161123f565b92505060206116fe85828601611311565b9150509250929050565b60006020828403121561171a57600080fd5b6000611728848285016112a8565b91505092915050565b60008060006060848603121561174657600080fd5b6000611754868287016112d2565b935050602061176586828701611254565b925050604061177686828701611664565b9150509250925092565b6000806040838503121561179357600080fd5b60006117a1858286016112d2565b92505060206117b285828601611664565b9150509250929050565b60006101a082840312156117cf57600080fd5b60006117dd848285016114a5565b91505092915050565b6000806101c083850312156117fa57600080fd5b600061180885828601611371565b9250506101a083013567ffffffffffffffff81111561182657600080fd5b61183285828601611269565b9150509250929050565b6000806040838503121561184f57600080fd5b600061185d8582860161163a565b925050602061186e85828601611664565b9150509250929050565b60006020828403121561188a57600080fd5b60006118988482850161164f565b91505092915050565b6000806000606084860312156118b657600080fd5b60006118c486828701611664565b93505060206118d586828701611664565b92505060406118e686828701611664565b9150509250925092565b60006118fc8383611b20565b60408301905092915050565b61191181611eb4565b82525050565b61192081611eb4565b82525050565b600061193182611e24565b61193b8185611e3c565b935061194683611e14565b8060005b8381101561197757815161195e88826118f0565b975061196983611e2f565b92505060018101905061194a565b5085935050505092915050565b61198d81611ec6565b82525050565b61199c81611ec6565b82525050565b6119ab81611f50565b82525050565b6119ba81611f74565b82525050565b6119c981611f98565b82525050565b60006119dc601d83611e4d565b91506119e78261204a565b602082019050919050565b60006119ff602683611e4d565b9150611a0a82612073565b604082019050919050565b6101a082016000820151611a2c60008501826119b1565b506020820151611a3f60208501826119a2565b506040820151611a5260408501826119a2565b506060820151611a656060850182611908565b506080820151611a786080850182611b6d565b5060a0820151611a8b60a0850182611b8b565b5060c0820151611a9e60c0850182611b8b565b5060e0820151611ab160e0850182611b8b565b50610100820151611ac6610100850182611b8b565b50610120820151611adb610120850182611b8b565b50610140820151611af0610140850182611b8b565b50610160820151611b05610160850182611b8b565b50610180820151611b1a610180850182611984565b50505050565b604082016000820151611b366000850182611b4f565b506020820151611b496020850182611b4f565b50505050565b611b5881611ef6565b82525050565b611b6781611ef6565b82525050565b611b7681611f32565b82525050565b611b8581611f32565b82525050565b611b9481611f3c565b82525050565b6000606082019050611baf6000830186611917565b611bbc6020830185611917565b611bc96040830184611b7c565b949350505050565b6000608082019050611be66000830187611917565b611bf36020830186611917565b611c006040830185611b7c565b611c0d60608301846119c0565b95945050505050565b6000604082019050611c2b6000830185611917565b611c386020830184611b7c565b9392505050565b6000602082019050611c546000830184611993565b92915050565b60006020820190508181036000830152611c73816119cf565b9050919050565b60006020820190508181036000830152611c93816119f2565b9050919050565b6000604082019050611caf6000830185611b5e565b611cbc6020830184611b7c565b9392505050565b6000602082019050611cd86000830184611b7c565b92915050565b600061020082019050611cf46000830187611b7c565b611d016020830186611917565b611d0e6040830185611a15565b8181036101e0830152611d218184611926565b905095945050505050565b6000606082019050611d416000830186611b7c565b611d4e6020830185611917565b611d5b6040830184611b7c565b949350505050565b6000606082019050611d786000830186611b7c565b611d856020830185611b5e565b611d926040830184611b7c565b949350505050565b6000604082019050611daf6000830185611b7c565b611dbc6020830184611b7c565b9392505050565b6000611dcd611dde565b9050611dd98282611faa565b919050565b6000604051905090565b600067ffffffffffffffff821115611e0357611e0261200a565b5b602082029050602081019050919050565b6000819050602082019050919050565b600081519050919050565b6000602082019050919050565b600082825260208201905092915050565b600082825260208201905092915050565b6000611e6982611f32565b9150611e7483611f32565b9250827fffffffffffffffffffffffffffffffffffffffffffffffffffffffffffffffff03821115611ea957611ea8611fdb565b5b828201905092915050565b6000611ebf82611f12565b9050919050565b60008115159050919050565b6000611edd82611eb4565b9050919050565b6000611eef82611eb4565b9050919050565b60006fffffffffffffffffffffffffffffffff82169050919050565b600073ffffffffffffffffffffffffffffffffffffffff82169050919050565b6000819050919050565b600067ffffffffffffffff82169050919050565b6000611f5b82611f62565b9050919050565b6000611f6d82611f12565b9050919050565b6000611f7f82611f86565b9050919050565b6000611f9182611f12565b9050919050565b6000611fa382611ef6565b9050919050565b611fb382612039565b810181811067ffffffffffffffff82111715611fd257611fd161200a565b5b80604052505050565b7f4e487b7100000000000000000000000000000000000000000000000000000000600052601160045260246000fd5b7f4e487b7100000000000000000000000000000000000000000000000000000000600052604160045260246000fd5b6000601f19601f8301169050919050565b7f53616c653a2063616c6c6572206973206e6f7420746865206f776e6572000000600082015250565b7f53616c653a206f6e6c79205341546f6b656e4578747261732063616e2063616c60008201527f6c20766573740000000000000000000000000000000000000000000000000000602082015250565b6120cb81611eb4565b81146120d657600080fd5b50565b6120e281611ec6565b81146120ed57600080fd5b50565b6120f981611ed2565b811461210457600080fd5b50565b61211081611ee4565b811461211b57600080fd5b50565b61212781611ef6565b811461213257600080fd5b50565b61213e81611f32565b811461214957600080fd5b50565b61215581611f3c565b811461216057600080fd5b5056fea2646970667358221220c6935175f81be195b8eb31921ce68ffd5422f193e4a8fafdd7818d3f19e5b4bb64736f6c63430008030033a2646970667358221220e62e5ff40cd22fee63abe2340dc869e4f1ea1662c5f9556d4ae61756819f5aae64736f6c63430008030033",
  "linkReferences": {},
  "deployedLinkReferences": {}
}