{
  "_format": "hh-sol-artifact-1",
  "contractName": "Ape",
  "sourceName": "contracts/Ape.sol",
  "abi": [
    {
      "inputs": [],
      "stateMutability": "nonpayable",
      "type": "constructor"
    },
    {
      "anonymous": false,
      "inputs": [
        {
          "indexed": true,
          "internalType": "address",
          "name": "owner",
          "type": "address"
        },
        {
          "indexed": true,
          "internalType": "address",
          "name": "spender",
          "type": "address"
        },
        {
          "indexed": false,
          "internalType": "uint256",
          "name": "value",
          "type": "uint256"
        }
      ],
      "name": "Approval",
      "type": "event"
    },
    {
      "anonymous": false,
      "inputs": [
        {
          "indexed": true,
          "internalType": "address",
          "name": "from",
          "type": "address"
        },
        {
          "indexed": true,
          "internalType": "address",
          "name": "to",
          "type": "address"
        },
        {
          "indexed": false,
          "internalType": "uint256",
          "name": "value",
          "type": "uint256"
        }
      ],
      "name": "Transfer",
      "type": "event"
    },
    {
      "inputs": [
        {
          "internalType": "address",
          "name": "owner",
          "type": "address"
        },
        {
          "internalType": "address",
          "name": "spender",
          "type": "address"
        }
      ],
      "name": "allowance",
      "outputs": [
        {
          "internalType": "uint256",
          "name": "",
          "type": "uint256"
        }
      ],
      "stateMutability": "view",
      "type": "function"
    },
    {
      "inputs": [
        {
          "internalType": "address",
          "name": "spender",
          "type": "address"
        },
        {
          "internalType": "uint256",
          "name": "amount",
          "type": "uint256"
        }
      ],
      "name": "approve",
      "outputs": [
        {
          "internalType": "bool",
          "name": "",
          "type": "bool"
        }
      ],
      "stateMutability": "nonpayable",
      "type": "function"
    },
    {
      "inputs": [
        {
          "internalType": "address",
          "name": "account",
          "type": "address"
        }
      ],
      "name": "balanceOf",
      "outputs": [
        {
          "internalType": "uint256",
          "name": "",
          "type": "uint256"
        }
      ],
      "stateMutability": "view",
      "type": "function"
    },
    {
      "inputs": [],
      "name": "currentTokenPrice",
      "outputs": [
        {
          "internalType": "uint256",
          "name": "",
          "type": "uint256"
        }
      ],
      "stateMutability": "view",
      "type": "function"
    },
    {
      "inputs": [],
      "name": "decimals",
      "outputs": [
        {
          "internalType": "uint8",
          "name": "",
          "type": "uint8"
        }
      ],
      "stateMutability": "view",
      "type": "function"
    },
    {
      "inputs": [
        {
          "internalType": "address",
          "name": "spender",
          "type": "address"
        },
        {
          "internalType": "uint256",
          "name": "subtractedValue",
          "type": "uint256"
        }
      ],
      "name": "decreaseAllowance",
      "outputs": [
        {
          "internalType": "bool",
          "name": "",
          "type": "bool"
        }
      ],
      "stateMutability": "nonpayable",
      "type": "function"
    },
    {
      "inputs": [
        {
          "internalType": "address",
          "name": "spender",
          "type": "address"
        },
        {
          "internalType": "uint256",
          "name": "addedValue",
          "type": "uint256"
        }
      ],
      "name": "increaseAllowance",
      "outputs": [
        {
          "internalType": "bool",
          "name": "",
          "type": "bool"
        }
      ],
      "stateMutability": "nonpayable",
      "type": "function"
    },
    {
      "inputs": [],
      "name": "name",
      "outputs": [
        {
          "internalType": "string",
          "name": "",
          "type": "string"
        }
      ],
      "stateMutability": "view",
      "type": "function"
    },
    {
      "inputs": [
        {
          "internalType": "uint256",
          "name": "price",
          "type": "uint256"
        }
      ],
      "name": "setTokenPrice",
      "outputs": [],
      "stateMutability": "nonpayable",
      "type": "function"
    },
    {
      "inputs": [],
      "name": "symbol",
      "outputs": [
        {
          "internalType": "string",
          "name": "",
          "type": "string"
        }
      ],
      "stateMutability": "view",
      "type": "function"
    },
    {
      "inputs": [],
      "name": "totalSupply",
      "outputs": [
        {
          "internalType": "uint256",
          "name": "",
          "type": "uint256"
        }
      ],
      "stateMutability": "view",
      "type": "function"
    },
    {
      "inputs": [
        {
          "internalType": "address",
          "name": "recipient",
          "type": "address"
        },
        {
          "internalType": "uint256",
          "name": "amount",
          "type": "uint256"
        }
      ],
      "name": "transfer",
      "outputs": [
        {
          "internalType": "bool",
          "name": "",
          "type": "bool"
        }
      ],
      "stateMutability": "nonpayable",
      "type": "function"
    },
    {
      "inputs": [
        {
          "internalType": "address",
          "name": "sender",
          "type": "address"
        },
        {
          "internalType": "address",
          "name": "recipient",
          "type": "address"
        },
        {
          "internalType": "uint256",
          "name": "amount",
          "type": "uint256"
        }
      ],
      "name": "transferFrom",
      "outputs": [
        {
          "internalType": "bool",
          "name": "",
          "type": "bool"
        }
      ],
      "stateMutability": "nonpayable",
      "type": "function"
    }
  ],
  "bytecode": "0x60806040523480156200001157600080fd5b506040518060400160405280600981526020017f41504520546f6b656e00000000000000000000000000000000000000000000008152506040518060400160405280600381526020017f415045000000000000000000000000000000000000000000000000000000000081525081600390805190602001906200009692919062000257565b508060049080519060200190620000af92919062000257565b505050620000c633612710620000d460201b60201c565b6001600581905550620004b3565b600073ffffffffffffffffffffffffffffffffffffffff168273ffffffffffffffffffffffffffffffffffffffff16141562000147576040517f08c379a00000000000000000000000000000000000000000000000000000000081526004016200013e906200033f565b60405180910390fd5b6200015b600083836200024d60201b60201c565b80600260008282546200016f91906200038f565b92505081905550806000808473ffffffffffffffffffffffffffffffffffffffff1673ffffffffffffffffffffffffffffffffffffffff1681526020019081526020016000206000828254620001c691906200038f565b925050819055508173ffffffffffffffffffffffffffffffffffffffff16600073ffffffffffffffffffffffffffffffffffffffff167fddf252ad1be2c89b69c2b068fc378daa952ba7f163c4a11628f55a4df523b3ef836040516200022d919062000361565b60405180910390a362000249600083836200025260201b60201c565b5050565b505050565b505050565b8280546200026590620003f6565b90600052602060002090601f016020900481019282620002895760008555620002d5565b82601f10620002a457805160ff1916838001178555620002d5565b82800160010185558215620002d5579182015b82811115620002d4578251825591602001919060010190620002b7565b5b509050620002e49190620002e8565b5090565b5b8082111562000303576000816000905550600101620002e9565b5090565b600062000316601f836200037e565b915062000323826200048a565b602082019050919050565b6200033981620003ec565b82525050565b600060208201905081810360008301526200035a8162000307565b9050919050565b60006020820190506200037860008301846200032e565b92915050565b600082825260208201905092915050565b60006200039c82620003ec565b9150620003a983620003ec565b9250827fffffffffffffffffffffffffffffffffffffffffffffffffffffffffffffffff03821115620003e157620003e06200042c565b5b828201905092915050565b6000819050919050565b600060028204905060018216806200040f57607f821691505b602082108114156200042657620004256200045b565b5b50919050565b7f4e487b7100000000000000000000000000000000000000000000000000000000600052601160045260246000fd5b7f4e487b7100000000000000000000000000000000000000000000000000000000600052602260045260246000fd5b7f45524332303a206d696e7420746f20746865207a65726f206164647265737300600082015250565b61143280620004c36000396000f3fe608060405234801561001057600080fd5b50600436106100cf5760003560e01c80636a61e5fc1161008c57806395d89b411161006657806395d89b4114610228578063a457c2d714610246578063a9059cbb14610276578063dd62ed3e146102a6576100cf565b80636a61e5fc146101be57806370a08231146101da57806371b3659e1461020a576100cf565b806306fdde03146100d4578063095ea7b3146100f257806318160ddd1461012257806323b872dd14610140578063313ce56714610170578063395093511461018e575b600080fd5b6100dc6102d6565b6040516100e99190610ed2565b60405180910390f35b61010c60048036038101906101079190610cf7565b610368565b6040516101199190610eb7565b60405180910390f35b61012a610386565b6040516101379190610fd4565b60405180910390f35b61015a60048036038101906101559190610ca8565b610390565b6040516101679190610eb7565b60405180910390f35b610178610488565b6040516101859190610fef565b60405180910390f35b6101a860048036038101906101a39190610cf7565b610491565b6040516101b59190610eb7565b60405180910390f35b6101d860048036038101906101d39190610d33565b61053d565b005b6101f460048036038101906101ef9190610c43565b610547565b6040516102019190610fd4565b60405180910390f35b61021261058f565b60405161021f9190610fd4565b60405180910390f35b610230610599565b60405161023d9190610ed2565b60405180910390f35b610260600480360381019061025b9190610cf7565b61062b565b60405161026d9190610eb7565b60405180910390f35b610290600480360381019061028b9190610cf7565b610716565b60405161029d9190610eb7565b60405180910390f35b6102c060048036038101906102bb9190610c6c565b610734565b6040516102cd9190610fd4565b60405180910390f35b6060600380546102e590611104565b80601f016020809104026020016040519081016040528092919081815260200182805461031190611104565b801561035e5780601f106103335761010080835404028352916020019161035e565b820191906000526020600020905b81548152906001019060200180831161034157829003601f168201915b5050505050905090565b600061037c6103756107bb565b84846107c3565b6001905092915050565b6000600254905090565b600061039d84848461098e565b6000600160008673ffffffffffffffffffffffffffffffffffffffff1673ffffffffffffffffffffffffffffffffffffffff16815260200190815260200160002060006103e86107bb565b73ffffffffffffffffffffffffffffffffffffffff1673ffffffffffffffffffffffffffffffffffffffff16815260200190815260200160002054905082811015610468576040517f08c379a000000000000000000000000000000000000000000000000000000000815260040161045f90610f54565b60405180910390fd5b61047c856104746107bb565b8584036107c3565b60019150509392505050565b60006012905090565b600061053361049e6107bb565b8484600160006104ac6107bb565b73ffffffffffffffffffffffffffffffffffffffff1673ffffffffffffffffffffffffffffffffffffffff16815260200190815260200160002060008873ffffffffffffffffffffffffffffffffffffffff1673ffffffffffffffffffffffffffffffffffffffff1681526020019081526020016000205461052e9190611026565b6107c3565b6001905092915050565b8060058190555050565b60008060008373ffffffffffffffffffffffffffffffffffffffff1673ffffffffffffffffffffffffffffffffffffffff168152602001908152602001600020549050919050565b6000600554905090565b6060600480546105a890611104565b80601f01602080910402602001604051908101604052809291908181526020018280546105d490611104565b80156106215780601f106105f657610100808354040283529160200191610621565b820191906000526020600020905b81548152906001019060200180831161060457829003601f168201915b5050505050905090565b6000806001600061063a6107bb565b73ffffffffffffffffffffffffffffffffffffffff1673ffffffffffffffffffffffffffffffffffffffff16815260200190815260200160002060008573ffffffffffffffffffffffffffffffffffffffff1673ffffffffffffffffffffffffffffffffffffffff168152602001908152602001600020549050828110156106f7576040517f08c379a00000000000000000000000000000000000000000000000000000000081526004016106ee90610fb4565b60405180910390fd5b61070b6107026107bb565b858584036107c3565b600191505092915050565b600061072a6107236107bb565b848461098e565b6001905092915050565b6000600160008473ffffffffffffffffffffffffffffffffffffffff1673ffffffffffffffffffffffffffffffffffffffff16815260200190815260200160002060008373ffffffffffffffffffffffffffffffffffffffff1673ffffffffffffffffffffffffffffffffffffffff16815260200190815260200160002054905092915050565b600033905090565b600073ffffffffffffffffffffffffffffffffffffffff168373ffffffffffffffffffffffffffffffffffffffff161415610833576040517f08c379a000000000000000000000000000000000000000000000000000000000815260040161082a90610f94565b60405180910390fd5b600073ffffffffffffffffffffffffffffffffffffffff168273ffffffffffffffffffffffffffffffffffffffff1614156108a3576040517f08c379a000000000000000000000000000000000000000000000000000000000815260040161089a90610f14565b60405180910390fd5b80600160008573ffffffffffffffffffffffffffffffffffffffff1673ffffffffffffffffffffffffffffffffffffffff16815260200190815260200160002060008473ffffffffffffffffffffffffffffffffffffffff1673ffffffffffffffffffffffffffffffffffffffff168152602001908152602001600020819055508173ffffffffffffffffffffffffffffffffffffffff168373ffffffffffffffffffffffffffffffffffffffff167f8c5be1e5ebec7d5bd14f71427d1e84f3dd0314c0f7b2291e5b200ac8c7c3b925836040516109819190610fd4565b60405180910390a3505050565b600073ffffffffffffffffffffffffffffffffffffffff168373ffffffffffffffffffffffffffffffffffffffff1614156109fe576040517f08c379a00000000000000000000000000000000000000000000000000000000081526004016109f590610f74565b60405180910390fd5b600073ffffffffffffffffffffffffffffffffffffffff168273ffffffffffffffffffffffffffffffffffffffff161415610a6e576040517f08c379a0000000000000000000000000000000000000000000000000000000008152600401610a6590610ef4565b60405180910390fd5b610a79838383610c0f565b60008060008573ffffffffffffffffffffffffffffffffffffffff1673ffffffffffffffffffffffffffffffffffffffff16815260200190815260200160002054905081811015610aff576040517f08c379a0000000000000000000000000000000000000000000000000000000008152600401610af690610f34565b60405180910390fd5b8181036000808673ffffffffffffffffffffffffffffffffffffffff1673ffffffffffffffffffffffffffffffffffffffff16815260200190815260200160002081905550816000808573ffffffffffffffffffffffffffffffffffffffff1673ffffffffffffffffffffffffffffffffffffffff1681526020019081526020016000206000828254610b929190611026565b925050819055508273ffffffffffffffffffffffffffffffffffffffff168473ffffffffffffffffffffffffffffffffffffffff167fddf252ad1be2c89b69c2b068fc378daa952ba7f163c4a11628f55a4df523b3ef84604051610bf69190610fd4565b60405180910390a3610c09848484610c14565b50505050565b505050565b505050565b600081359050610c28816113ce565b92915050565b600081359050610c3d816113e5565b92915050565b600060208284031215610c5557600080fd5b6000610c6384828501610c19565b91505092915050565b60008060408385031215610c7f57600080fd5b6000610c8d85828601610c19565b9250506020610c9e85828601610c19565b9150509250929050565b600080600060608486031215610cbd57600080fd5b6000610ccb86828701610c19565b9350506020610cdc86828701610c19565b9250506040610ced86828701610c2e565b9150509250925092565b60008060408385031215610d0a57600080fd5b6000610d1885828601610c19565b9250506020610d2985828601610c2e565b9150509250929050565b600060208284031215610d4557600080fd5b6000610d5384828501610c2e565b91505092915050565b610d658161108e565b82525050565b6000610d768261100a565b610d808185611015565b9350610d908185602086016110d1565b610d9981611194565b840191505092915050565b6000610db1602383611015565b9150610dbc826111a5565b604082019050919050565b6000610dd4602283611015565b9150610ddf826111f4565b604082019050919050565b6000610df7602683611015565b9150610e0282611243565b604082019050919050565b6000610e1a602883611015565b9150610e2582611292565b604082019050919050565b6000610e3d602583611015565b9150610e48826112e1565b604082019050919050565b6000610e60602483611015565b9150610e6b82611330565b604082019050919050565b6000610e83602583611015565b9150610e8e8261137f565b604082019050919050565b610ea2816110ba565b82525050565b610eb1816110c4565b82525050565b6000602082019050610ecc6000830184610d5c565b92915050565b60006020820190508181036000830152610eec8184610d6b565b905092915050565b60006020820190508181036000830152610f0d81610da4565b9050919050565b60006020820190508181036000830152610f2d81610dc7565b9050919050565b60006020820190508181036000830152610f4d81610dea565b9050919050565b60006020820190508181036000830152610f6d81610e0d565b9050919050565b60006020820190508181036000830152610f8d81610e30565b9050919050565b60006020820190508181036000830152610fad81610e53565b9050919050565b60006020820190508181036000830152610fcd81610e76565b9050919050565b6000602082019050610fe96000830184610e99565b92915050565b60006020820190506110046000830184610ea8565b92915050565b600081519050919050565b600082825260208201905092915050565b6000611031826110ba565b915061103c836110ba565b9250827fffffffffffffffffffffffffffffffffffffffffffffffffffffffffffffffff0382111561107157611070611136565b5b828201905092915050565b60006110878261109a565b9050919050565b60008115159050919050565b600073ffffffffffffffffffffffffffffffffffffffff82169050919050565b6000819050919050565b600060ff82169050919050565b60005b838110156110ef5780820151818401526020810190506110d4565b838111156110fe576000848401525b50505050565b6000600282049050600182168061111c57607f821691505b602082108114156111305761112f611165565b5b50919050565b7f4e487b7100000000000000000000000000000000000000000000000000000000600052601160045260246000fd5b7f4e487b7100000000000000000000000000000000000000000000000000000000600052602260045260246000fd5b6000601f19601f8301169050919050565b7f45524332303a207472616e7366657220746f20746865207a65726f206164647260008201527f6573730000000000000000000000000000000000000000000000000000000000602082015250565b7f45524332303a20617070726f766520746f20746865207a65726f20616464726560008201527f7373000000000000000000000000000000000000000000000000000000000000602082015250565b7f45524332303a207472616e7366657220616d6f756e742065786365656473206260008201527f616c616e63650000000000000000000000000000000000000000000000000000602082015250565b7f45524332303a207472616e7366657220616d6f756e742065786365656473206160008201527f6c6c6f77616e6365000000000000000000000000000000000000000000000000602082015250565b7f45524332303a207472616e736665722066726f6d20746865207a65726f20616460008201527f6472657373000000000000000000000000000000000000000000000000000000602082015250565b7f45524332303a20617070726f76652066726f6d20746865207a65726f2061646460008201527f7265737300000000000000000000000000000000000000000000000000000000602082015250565b7f45524332303a2064656372656173656420616c6c6f77616e63652062656c6f7760008201527f207a65726f000000000000000000000000000000000000000000000000000000602082015250565b6113d78161107c565b81146113e257600080fd5b50565b6113ee816110ba565b81146113f957600080fd5b5056fea2646970667358221220140250ade1a6371c9b716deeafddace2957427acf964c9daeb7c4d943afc184564736f6c63430008030033",
  "linkReferences": {},
  "deployedLinkReferences": {}
}