{
  "_format": "hh-sol-artifact-1",
  "contractName": "Sale",
  "sourceName": "contracts/sale/Sale.sol",
  "abi": [
    {
      "inputs": [
        {
          "internalType": "uint256",
          "name": "saleId_",
          "type": "uint256"
        },
        {
          "internalType": "address",
          "name": "saleDataAddress",
          "type": "address"
        }
      ],
      "stateMutability": "nonpayable",
      "type": "constructor"
    },
    {
      "inputs": [
        {
          "components": [
            {
              "internalType": "contract ISAToken",
              "name": "satoken",
              "type": "address"
            },
            {
              "internalType": "contract IERC20Min",
              "name": "sellingToken",
              "type": "address"
            },
            {
              "internalType": "contract IERC20Min",
              "name": "paymentToken",
              "type": "address"
            },
            {
              "internalType": "address",
              "name": "owner",
              "type": "address"
            },
            {
              "internalType": "uint256",
              "name": "remainingAmount",
              "type": "uint256"
            },
            {
              "internalType": "uint64",
              "name": "minAmount",
              "type": "uint64"
            },
            {
              "internalType": "uint64",
              "name": "capAmount",
              "type": "uint64"
            },
            {
              "internalType": "uint64",
              "name": "pricingToken",
              "type": "uint64"
            },
            {
              "internalType": "uint64",
              "name": "pricingPayment",
              "type": "uint64"
            },
            {
              "internalType": "uint64",
              "name": "tokenListTimestamp",
              "type": "uint64"
            },
            {
              "internalType": "uint64",
              "name": "tokenFeePercentage",
              "type": "uint64"
            },
            {
              "internalType": "uint64",
              "name": "paymentFeePercentage",
              "type": "uint64"
            },
            {
              "internalType": "bool",
              "name": "isTokenTransferable",
              "type": "bool"
            }
          ],
          "internalType": "struct ISaleData.Setup",
          "name": "setup_",
          "type": "tuple"
        },
        {
          "components": [
            {
              "internalType": "uint128",
              "name": "timestamp",
              "type": "uint128"
            },
            {
              "internalType": "uint128",
              "name": "percentage",
              "type": "uint128"
            }
          ],
          "internalType": "struct ISaleData.VestingStep[]",
          "name": "schedule",
          "type": "tuple[]"
        }
      ],
      "name": "initialize",
      "outputs": [],
      "stateMutability": "nonpayable",
      "type": "function"
    },
    {
      "inputs": [
        {
          "internalType": "uint256",
          "name": "amount",
          "type": "uint256"
        }
      ],
      "name": "invest",
      "outputs": [],
      "stateMutability": "nonpayable",
      "type": "function"
    },
    {
      "inputs": [],
      "name": "isTransferable",
      "outputs": [
        {
          "internalType": "bool",
          "name": "",
          "type": "bool"
        }
      ],
      "stateMutability": "view",
      "type": "function"
    },
    {
      "inputs": [],
      "name": "launch",
      "outputs": [],
      "stateMutability": "nonpayable",
      "type": "function"
    },
    {
      "inputs": [],
      "name": "saleId",
      "outputs": [
        {
          "internalType": "uint256",
          "name": "",
          "type": "uint256"
        }
      ],
      "stateMutability": "view",
      "type": "function"
    },
    {
      "inputs": [
        {
          "internalType": "address",
          "name": "saOwner",
          "type": "address"
        },
        {
          "components": [
            {
              "internalType": "address",
              "name": "sale",
              "type": "address"
            },
            {
              "internalType": "uint256",
              "name": "remainingAmount",
              "type": "uint256"
            },
            {
              "internalType": "uint128",
              "name": "vestedPercentage",
              "type": "uint128"
            }
          ],
          "internalType": "struct ISAStorage.SA",
          "name": "sa",
          "type": "tuple"
        }
      ],
      "name": "vest",
      "outputs": [
        {
          "internalType": "uint128",
          "name": "",
          "type": "uint128"
        },
        {
          "internalType": "uint256",
          "name": "",
          "type": "uint256"
        }
      ],
      "stateMutability": "nonpayable",
      "type": "function"
    },
    {
      "inputs": [
        {
          "internalType": "uint256",
          "name": "amount",
          "type": "uint256"
        }
      ],
      "name": "withdrawPayment",
      "outputs": [],
      "stateMutability": "nonpayable",
      "type": "function"
    },
    {
      "inputs": [
        {
          "internalType": "uint256",
          "name": "amount",
          "type": "uint256"
        }
      ],
      "name": "withdrawToken",
      "outputs": [],
      "stateMutability": "nonpayable",
      "type": "function"
    }
  ],
  "bytecode": "0x60806040523480156200001157600080fd5b5060405162002310380380620023108339818101604052810190620000379190620000b4565b81600181905550806000806101000a81548173ffffffffffffffffffffffffffffffffffffffff021916908373ffffffffffffffffffffffffffffffffffffffff160217905550505062000167565b600081519050620000978162000133565b92915050565b600081519050620000ae816200014d565b92915050565b60008060408385031215620000c857600080fd5b6000620000d8858286016200009d565b9250506020620000eb8582860162000086565b9150509250929050565b6000620001028262000109565b9050919050565b600073ffffffffffffffffffffffffffffffffffffffff82169050919050565b6000819050919050565b6200013e81620000f5565b81146200014a57600080fd5b50565b620001588162000129565b81146200016457600080fd5b50565b61219980620001776000396000f3fe608060405234801561001057600080fd5b50600436106100885760003560e01c806350baa6221161005b57806350baa62214610102578063a60e76321461011e578063c84c03871461013a578063dbd3cd621461015857610088565b806301339c211461008d5780632121dc75146100975780632afcf480146100b5578063454f456f146100d1575b600080fd5b610095610174565b005b61009f6103df565b6040516100ac9190611c3f565b60405180910390f35b6100cf60048036038101906100ca9190611878565b610498565b005b6100eb60048036038101906100e691906116cc565b61095f565b6040516100f9929190611c9a565b60405180910390f35b61011c60048036038101906101179190611878565b610c69565b005b610138600480360381019061013391906117e6565b610ed9565b005b610142610f70565b60405161014f9190611cc3565b60405180910390f35b610172600480360381019061016d9190611878565b610f76565b005b60008054906101000a900473ffffffffffffffffffffffffffffffffffffffff1673ffffffffffffffffffffffffffffffffffffffff166304ad83a26001546040518263ffffffff1660e01b81526004016101cf9190611cc3565b6101a06040518083038186803b1580156101e857600080fd5b505afa1580156101fc573d6000803e3d6000fd5b505050506040513d601f19601f8201168201806040525081019061022091906117bc565b6060015173ffffffffffffffffffffffffffffffffffffffff163373ffffffffffffffffffffffffffffffffffffffff1614610291576040517f08c379a000000000000000000000000000000000000000000000000000000000815260040161028890611c5a565b60405180910390fd5b60008060008060009054906101000a900473ffffffffffffffffffffffffffffffffffffffff1673ffffffffffffffffffffffffffffffffffffffff16635d1d37c36001546040518263ffffffff1660e01b81526004016102f29190611cc3565b606060405180830381600087803b15801561030c57600080fd5b505af1158015610320573d6000803e3d6000fd5b505050506040513d601f19601f820116820180604052508101906103449190611731565b9250925092508273ffffffffffffffffffffffffffffffffffffffff166323b872dd8330846040518463ffffffff1660e01b815260040161038793929190611b9a565b602060405180830381600087803b1580156103a157600080fd5b505af11580156103b5573d6000803e3d6000fd5b505050506040513d601f19601f820116820180604052508101906103d99190611708565b50505050565b60008060009054906101000a900473ffffffffffffffffffffffffffffffffffffffff1673ffffffffffffffffffffffffffffffffffffffff166304ad83a26001546040518263ffffffff1660e01b815260040161043d9190611cc3565b6101a06040518083038186803b15801561045657600080fd5b505afa15801561046a573d6000803e3d6000fd5b505050506040513d601f19601f8201168201806040525081019061048e91906117bc565b6101800151905090565b60008060009054906101000a900473ffffffffffffffffffffffffffffffffffffffff1673ffffffffffffffffffffffffffffffffffffffff166304ad83a26001546040518263ffffffff1660e01b81526004016104f69190611cc3565b6101a06040518083038186803b15801561050f57600080fd5b505afa158015610523573d6000803e3d6000fd5b505050506040513d601f19601f8201168201806040525081019061054791906117bc565b905060008060008060009054906101000a900473ffffffffffffffffffffffffffffffffffffffff1673ffffffffffffffffffffffffffffffffffffffff1663ef0c1dec60015433886040518463ffffffff1660e01b81526004016105ae93929190611d2c565b606060405180830381600087803b1580156105c857600080fd5b505af11580156105dc573d6000803e3d6000fd5b505050506040513d601f19601f8201168201806040525081019061060091906118a1565b925092509250836040015173ffffffffffffffffffffffffffffffffffffffff166323b872dd3360008054906101000a900473ffffffffffffffffffffffffffffffffffffffff1673ffffffffffffffffffffffffffffffffffffffff16632ea03f2f6040518163ffffffff1660e01b815260040160206040518083038186803b15801561068d57600080fd5b505afa1580156106a1573d6000803e3d6000fd5b505050506040513d601f19601f820116820180604052508101906106c591906116a3565b856040518463ffffffff1660e01b81526004016106e493929190611b9a565b602060405180830381600087803b1580156106fe57600080fd5b505af1158015610712573d6000803e3d6000fd5b505050506040513d601f19601f820116820180604052508101906107369190611708565b50836040015173ffffffffffffffffffffffffffffffffffffffff166323b872dd3330866040518463ffffffff1660e01b815260040161077893929190611b9a565b602060405180830381600087803b15801561079257600080fd5b505af11580156107a6573d6000803e3d6000fd5b505050506040513d601f19601f820116820180604052508101906107ca9190611708565b506000846000015190508073ffffffffffffffffffffffffffffffffffffffff1663f4c959ab3360008960006040518563ffffffff1660e01b81526004016108159493929190611bd1565b600060405180830381600087803b15801561082f57600080fd5b505af1158015610843573d6000803e3d6000fd5b505050508073ffffffffffffffffffffffffffffffffffffffff1663f4c959ab60008054906101000a900473ffffffffffffffffffffffffffffffffffffffff1673ffffffffffffffffffffffffffffffffffffffff16632ea03f2f6040518163ffffffff1660e01b815260040160206040518083038186803b1580156108c957600080fd5b505afa1580156108dd573d6000803e3d6000fd5b505050506040513d601f19601f8201168201806040525081019061090191906116a3565b60008560006040518563ffffffff1660e01b81526004016109259493929190611bd1565b600060405180830381600087803b15801561093f57600080fd5b505af1158015610953573d6000803e3d6000fd5b50505050505050505050565b60008060008060009054906101000a900473ffffffffffffffffffffffffffffffffffffffff1673ffffffffffffffffffffffffffffffffffffffff166304ad83a26001546040518263ffffffff1660e01b81526004016109c09190611cc3565b6101a06040518083038186803b1580156109d957600080fd5b505afa1580156109ed573d6000803e3d6000fd5b505050506040513d601f19601f82011682018060405250810190610a1191906117bc565b90506000816000015190508073ffffffffffffffffffffffffffffffffffffffff1663150603146040518163ffffffff1660e01b815260040160206040518083038186803b158015610a6257600080fd5b505afa158015610a76573d6000803e3d6000fd5b505050506040513d601f19601f82011682018060405250810190610a9a91906116a3565b73ffffffffffffffffffffffffffffffffffffffff163373ffffffffffffffffffffffffffffffffffffffff1614610b07576040517f08c379a0000000000000000000000000000000000000000000000000000000008152600401610afe90611c7a565b60405180910390fd5b60008060008054906101000a900473ffffffffffffffffffffffffffffffffffffffff1673ffffffffffffffffffffffffffffffffffffffff1663de89f61660015489604001518a602001516040518463ffffffff1660e01b8152600401610b7193929190611d63565b6040805180830381600087803b158015610b8a57600080fd5b505af1158015610b9e573d6000803e3d6000fd5b505050506040513d601f19601f82011682018060405250810190610bc2919061183c565b91509150836020015173ffffffffffffffffffffffffffffffffffffffff1663a9059cbb89836040518363ffffffff1660e01b8152600401610c05929190611c16565b602060405180830381600087803b158015610c1f57600080fd5b505af1158015610c33573d6000803e3d6000fd5b505050506040513d601f19601f82011682018060405250810190610c579190611708565b50818195509550505050509250929050565b60008054906101000a900473ffffffffffffffffffffffffffffffffffffffff1673ffffffffffffffffffffffffffffffffffffffff166304ad83a26001546040518263ffffffff1660e01b8152600401610cc49190611cc3565b6101a06040518083038186803b158015610cdd57600080fd5b505afa158015610cf1573d6000803e3d6000fd5b505050506040513d601f19601f82011682018060405250810190610d1591906117bc565b6060015173ffffffffffffffffffffffffffffffffffffffff163373ffffffffffffffffffffffffffffffffffffffff1614610d86576040517f08c379a0000000000000000000000000000000000000000000000000000000008152600401610d7d90611c5a565b60405180910390fd5b60008060008054906101000a900473ffffffffffffffffffffffffffffffffffffffff1673ffffffffffffffffffffffffffffffffffffffff166339a2070a600154856040518363ffffffff1660e01b8152600401610de6929190611d9a565b6040805180830381600087803b158015610dff57600080fd5b505af1158015610e13573d6000803e3d6000fd5b505050506040513d601f19601f82011682018060405250810190610e379190611780565b915091508173ffffffffffffffffffffffffffffffffffffffff1663a9059cbb338386610e649190611e5e565b6040518363ffffffff1660e01b8152600401610e81929190611c16565b602060405180830381600087803b158015610e9b57600080fd5b505af1158015610eaf573d6000803e3d6000fd5b505050506040513d601f19601f82011682018060405250810190610ed39190611708565b50505050565b60008054906101000a900473ffffffffffffffffffffffffffffffffffffffff1673ffffffffffffffffffffffffffffffffffffffff16630c5dfb606001543085856040518563ffffffff1660e01b8152600401610f3a9493929190611cde565b600060405180830381600087803b158015610f5457600080fd5b505af1158015610f68573d6000803e3d6000fd5b505050505050565b60015481565b60008054906101000a900473ffffffffffffffffffffffffffffffffffffffff1673ffffffffffffffffffffffffffffffffffffffff166304ad83a26001546040518263ffffffff1660e01b8152600401610fd19190611cc3565b6101a06040518083038186803b158015610fea57600080fd5b505afa158015610ffe573d6000803e3d6000fd5b505050506040513d601f19601f8201168201806040525081019061102291906117bc565b6060015173ffffffffffffffffffffffffffffffffffffffff163373ffffffffffffffffffffffffffffffffffffffff1614611093576040517f08c379a000000000000000000000000000000000000000000000000000000000815260040161108a90611c5a565b60405180910390fd5b60008054906101000a900473ffffffffffffffffffffffffffffffffffffffff1673ffffffffffffffffffffffffffffffffffffffff166304ad83a26001546040518263ffffffff1660e01b81526004016110ee9190611cc3565b6101a06040518083038186803b15801561110757600080fd5b505afa15801561111b573d6000803e3d6000fd5b505050506040513d601f19601f8201168201806040525081019061113f91906117bc565b6040015173ffffffffffffffffffffffffffffffffffffffff1663a9059cbb33836040518363ffffffff1660e01b815260040161117d929190611c16565b602060405180830381600087803b15801561119757600080fd5b505af11580156111ab573d6000803e3d6000fd5b505050506040513d601f19601f820116820180604052508101906111cf9190611708565b5050565b60006111e66111e184611de8565b611dc3565b9050808382526020820190508285604086028201111561120557600080fd5b60005b85811015611235578161121b88826115d9565b845260208401935060408301925050600181019050611208565b5050509392505050565b60008135905061124e816120c2565b92915050565b600081519050611263816120c2565b92915050565b600082601f83011261127a57600080fd5b813561128a8482602086016111d3565b91505092915050565b6000813590506112a2816120d9565b92915050565b6000815190506112b7816120d9565b92915050565b6000813590506112cc816120f0565b92915050565b6000815190506112e1816120f0565b92915050565b6000813590506112f681612107565b92915050565b60008151905061130b81612107565b92915050565b60006060828403121561132357600080fd5b61132d6060611dc3565b9050600061133d8482850161123f565b60008301525060206113518482850161164f565b602083015250604061136584828501611625565b60408301525092915050565b60006101a0828403121561138457600080fd5b61138f6101a0611dc3565b9050600061139f848285016112e7565b60008301525060206113b3848285016112bd565b60208301525060406113c7848285016112bd565b60408301525060606113db8482850161123f565b60608301525060806113ef8482850161164f565b60808301525060a061140384828501611679565b60a08301525060c061141784828501611679565b60c08301525060e061142b84828501611679565b60e08301525061010061144084828501611679565b6101008301525061012061145684828501611679565b6101208301525061014061146c84828501611679565b6101408301525061016061148284828501611679565b6101608301525061018061149884828501611293565b6101808301525092915050565b60006101a082840312156114b857600080fd5b6114c36101a0611dc3565b905060006114d3848285016112fc565b60008301525060206114e7848285016112d2565b60208301525060406114fb848285016112d2565b604083015250606061150f84828501611254565b606083015250608061152384828501611664565b60808301525060a06115378482850161168e565b60a08301525060c061154b8482850161168e565b60c08301525060e061155f8482850161168e565b60e0830152506101006115748482850161168e565b6101008301525061012061158a8482850161168e565b610120830152506101406115a08482850161168e565b610140830152506101606115b68482850161168e565b610160830152506101806115cc848285016112a8565b6101808301525092915050565b6000604082840312156115eb57600080fd5b6115f56040611dc3565b9050600061160584828501611625565b600083015250602061161984828501611625565b60208301525092915050565b6000813590506116348161211e565b92915050565b6000815190506116498161211e565b92915050565b60008135905061165e81612135565b92915050565b60008151905061167381612135565b92915050565b6000813590506116888161214c565b92915050565b60008151905061169d8161214c565b92915050565b6000602082840312156116b557600080fd5b60006116c384828501611254565b91505092915050565b600080608083850312156116df57600080fd5b60006116ed8582860161123f565b92505060206116fe85828601611311565b9150509250929050565b60006020828403121561171a57600080fd5b6000611728848285016112a8565b91505092915050565b60008060006060848603121561174657600080fd5b6000611754868287016112d2565b935050602061176586828701611254565b925050604061177686828701611664565b9150509250925092565b6000806040838503121561179357600080fd5b60006117a1858286016112d2565b92505060206117b285828601611664565b9150509250929050565b60006101a082840312156117cf57600080fd5b60006117dd848285016114a5565b91505092915050565b6000806101c083850312156117fa57600080fd5b600061180885828601611371565b9250506101a083013567ffffffffffffffff81111561182657600080fd5b61183285828601611269565b9150509250929050565b6000806040838503121561184f57600080fd5b600061185d8582860161163a565b925050602061186e85828601611664565b9150509250929050565b60006020828403121561188a57600080fd5b60006118988482850161164f565b91505092915050565b6000806000606084860312156118b657600080fd5b60006118c486828701611664565b93505060206118d586828701611664565b92505060406118e686828701611664565b9150509250925092565b60006118fc8383611b20565b60408301905092915050565b61191181611eb4565b82525050565b61192081611eb4565b82525050565b600061193182611e24565b61193b8185611e3c565b935061194683611e14565b8060005b8381101561197757815161195e88826118f0565b975061196983611e2f565b92505060018101905061194a565b5085935050505092915050565b61198d81611ec6565b82525050565b61199c81611ec6565b82525050565b6119ab81611f50565b82525050565b6119ba81611f74565b82525050565b6119c981611f98565b82525050565b60006119dc601d83611e4d565b91506119e78261204a565b602082019050919050565b60006119ff602683611e4d565b9150611a0a82612073565b604082019050919050565b6101a082016000820151611a2c60008501826119b1565b506020820151611a3f60208501826119a2565b506040820151611a5260408501826119a2565b506060820151611a656060850182611908565b506080820151611a786080850182611b6d565b5060a0820151611a8b60a0850182611b8b565b5060c0820151611a9e60c0850182611b8b565b5060e0820151611ab160e0850182611b8b565b50610100820151611ac6610100850182611b8b565b50610120820151611adb610120850182611b8b565b50610140820151611af0610140850182611b8b565b50610160820151611b05610160850182611b8b565b50610180820151611b1a610180850182611984565b50505050565b604082016000820151611b366000850182611b4f565b506020820151611b496020850182611b4f565b50505050565b611b5881611ef6565b82525050565b611b6781611ef6565b82525050565b611b7681611f32565b82525050565b611b8581611f32565b82525050565b611b9481611f3c565b82525050565b6000606082019050611baf6000830186611917565b611bbc6020830185611917565b611bc96040830184611b7c565b949350505050565b6000608082019050611be66000830187611917565b611bf36020830186611917565b611c006040830185611b7c565b611c0d60608301846119c0565b95945050505050565b6000604082019050611c2b6000830185611917565b611c386020830184611b7c565b9392505050565b6000602082019050611c546000830184611993565b92915050565b60006020820190508181036000830152611c73816119cf565b9050919050565b60006020820190508181036000830152611c93816119f2565b9050919050565b6000604082019050611caf6000830185611b5e565b611cbc6020830184611b7c565b9392505050565b6000602082019050611cd86000830184611b7c565b92915050565b600061020082019050611cf46000830187611b7c565b611d016020830186611917565b611d0e6040830185611a15565b8181036101e0830152611d218184611926565b905095945050505050565b6000606082019050611d416000830186611b7c565b611d4e6020830185611917565b611d5b6040830184611b7c565b949350505050565b6000606082019050611d786000830186611b7c565b611d856020830185611b5e565b611d926040830184611b7c565b949350505050565b6000604082019050611daf6000830185611b7c565b611dbc6020830184611b7c565b9392505050565b6000611dcd611dde565b9050611dd98282611faa565b919050565b6000604051905090565b600067ffffffffffffffff821115611e0357611e0261200a565b5b602082029050602081019050919050565b6000819050602082019050919050565b600081519050919050565b6000602082019050919050565b600082825260208201905092915050565b600082825260208201905092915050565b6000611e6982611f32565b9150611e7483611f32565b9250827fffffffffffffffffffffffffffffffffffffffffffffffffffffffffffffffff03821115611ea957611ea8611fdb565b5b828201905092915050565b6000611ebf82611f12565b9050919050565b60008115159050919050565b6000611edd82611eb4565b9050919050565b6000611eef82611eb4565b9050919050565b60006fffffffffffffffffffffffffffffffff82169050919050565b600073ffffffffffffffffffffffffffffffffffffffff82169050919050565b6000819050919050565b600067ffffffffffffffff82169050919050565b6000611f5b82611f62565b9050919050565b6000611f6d82611f12565b9050919050565b6000611f7f82611f86565b9050919050565b6000611f9182611f12565b9050919050565b6000611fa382611ef6565b9050919050565b611fb382612039565b810181811067ffffffffffffffff82111715611fd257611fd161200a565b5b80604052505050565b7f4e487b7100000000000000000000000000000000000000000000000000000000600052601160045260246000fd5b7f4e487b7100000000000000000000000000000000000000000000000000000000600052604160045260246000fd5b6000601f19601f8301169050919050565b7f53616c653a2063616c6c6572206973206e6f7420746865206f776e6572000000600082015250565b7f53616c653a206f6e6c79205341546f6b656e4578747261732063616e2063616c60008201527f6c20766573740000000000000000000000000000000000000000000000000000602082015250565b6120cb81611eb4565b81146120d657600080fd5b50565b6120e281611ec6565b81146120ed57600080fd5b50565b6120f981611ed2565b811461210457600080fd5b50565b61211081611ee4565b811461211b57600080fd5b50565b61212781611ef6565b811461213257600080fd5b50565b61213e81611f32565b811461214957600080fd5b50565b61215581611f3c565b811461216057600080fd5b5056fea2646970667358221220c6935175f81be195b8eb31921ce68ffd5422f193e4a8fafdd7818d3f19e5b4bb64736f6c63430008030033",
  "linkReferences": {},
  "deployedLinkReferences": {}
}