{
  "_format": "hh-sol-artifact-1",
  "contractName": "Sale",
  "sourceName": "contracts/Sale.sol",
  "abi": [
    {
      "inputs": [
        {
          "components": [
            {
              "internalType": "contract SANFT",
              "name": "saNFT",
              "type": "address"
            },
            {
              "internalType": "uint256",
              "name": "saleBeginTime",
              "type": "uint256"
            },
            {
              "internalType": "uint256",
              "name": "duration",
              "type": "uint256"
            },
            {
              "internalType": "uint256",
              "name": "minAmount",
              "type": "uint256"
            },
            {
              "internalType": "uint256",
              "name": "capAmount",
              "type": "uint256"
            },
            {
              "internalType": "uint256",
              "name": "remainingAmount",
              "type": "uint256"
            },
            {
              "internalType": "uint256",
              "name": "price",
              "type": "uint256"
            },
            {
              "internalType": "contract IERC20",
              "name": "sellingToken",
              "type": "address"
            },
            {
              "internalType": "contract IERC20",
              "name": "paymentToken",
              "type": "address"
            },
            {
              "internalType": "address",
              "name": "owner",
              "type": "address"
            },
            {
              "internalType": "uint256",
              "name": "tokenListTimestamp",
              "type": "uint256"
            },
            {
              "internalType": "uint256",
              "name": "tokenFeePercentage",
              "type": "uint256"
            },
            {
              "internalType": "uint256",
              "name": "paymentFeePercentage",
              "type": "uint256"
            }
          ],
          "internalType": "struct Sale.Setup",
          "name": "setup",
          "type": "tuple"
        },
        {
          "components": [
            {
              "internalType": "uint256",
              "name": "timestamp",
              "type": "uint256"
            },
            {
              "internalType": "uint256",
              "name": "percentage",
              "type": "uint256"
            }
          ],
          "internalType": "struct Sale.VestingStep[]",
          "name": "schedule",
          "type": "tuple[]"
        }
      ],
      "stateMutability": "nonpayable",
      "type": "constructor"
    },
    {
      "inputs": [
        {
          "internalType": "address",
          "name": "investor",
          "type": "address"
        },
        {
          "internalType": "uint256",
          "name": "amount",
          "type": "uint256"
        }
      ],
      "name": "approveInvestor",
      "outputs": [],
      "stateMutability": "nonpayable",
      "type": "function"
    },
    {
      "inputs": [],
      "name": "currentBlockTimeStamp",
      "outputs": [
        {
          "internalType": "uint256",
          "name": "",
          "type": "uint256"
        }
      ],
      "stateMutability": "view",
      "type": "function"
    },
    {
      "inputs": [
        {
          "internalType": "uint256",
          "name": "vestedPercentage",
          "type": "uint256"
        },
        {
          "internalType": "uint256",
          "name": "lastVestedPercentage",
          "type": "uint256"
        },
        {
          "internalType": "uint256",
          "name": "lockedAmount",
          "type": "uint256"
        }
      ],
      "name": "getVestedAmount",
      "outputs": [
        {
          "internalType": "uint256",
          "name": "",
          "type": "uint256"
        }
      ],
      "stateMutability": "view",
      "type": "function"
    },
    {
      "inputs": [],
      "name": "getVestedPercentage",
      "outputs": [
        {
          "internalType": "uint256",
          "name": "",
          "type": "uint256"
        }
      ],
      "stateMutability": "view",
      "type": "function"
    },
    {
      "inputs": [
        {
          "internalType": "uint256",
          "name": "amount",
          "type": "uint256"
        }
      ],
      "name": "invest",
      "outputs": [],
      "stateMutability": "nonpayable",
      "type": "function"
    },
    {
      "inputs": [],
      "name": "isTokenListed",
      "outputs": [
        {
          "internalType": "bool",
          "name": "",
          "type": "bool"
        }
      ],
      "stateMutability": "view",
      "type": "function"
    },
    {
      "inputs": [],
      "name": "launch",
      "outputs": [],
      "stateMutability": "nonpayable",
      "type": "function"
    },
    {
      "inputs": [],
      "name": "triggerTokenListing",
      "outputs": [],
      "stateMutability": "nonpayable",
      "type": "function"
    },
    {
      "inputs": [
        {
          "internalType": "address",
          "name": "sa_owner",
          "type": "address"
        },
        {
          "internalType": "uint256",
          "name": "vestedAmount",
          "type": "uint256"
        }
      ],
      "name": "vest",
      "outputs": [],
      "stateMutability": "nonpayable",
      "type": "function"
    },
    {
      "inputs": [
        {
          "internalType": "uint256",
          "name": "amount",
          "type": "uint256"
        }
      ],
      "name": "withdrawPayment",
      "outputs": [],
      "stateMutability": "nonpayable",
      "type": "function"
    },
    {
      "inputs": [
        {
          "internalType": "uint256",
          "name": "amount",
          "type": "uint256"
        }
      ],
      "name": "withdrawToken",
      "outputs": [],
      "stateMutability": "nonpayable",
      "type": "function"
    }
  ],
  "bytecode": "0x60806040523480156200001157600080fd5b50604051620024d2380380620024d283398181016040528101906200003791906200054a565b81600160008201518160000160006101000a81548173ffffffffffffffffffffffffffffffffffffffff021916908373ffffffffffffffffffffffffffffffffffffffff1602179055506020820151816001015560408201518160020155606082015181600301556080820151816004015560a0820151816005015560c0820151816006015560e08201518160070160006101000a81548173ffffffffffffffffffffffffffffffffffffffff021916908373ffffffffffffffffffffffffffffffffffffffff1602179055506101008201518160080160006101000a81548173ffffffffffffffffffffffffffffffffffffffff021916908373ffffffffffffffffffffffffffffffffffffffff1602179055506101208201518160090160006101000a81548173ffffffffffffffffffffffffffffffffffffffff021916908373ffffffffffffffffffffffffffffffffffffffff16021790555061014082015181600a015561016082015181600b015561018082015181600c015590505060005b81518110156200025e57600082828151811062000201577f4e487b7100000000000000000000000000000000000000000000000000000000600052603260045260246000fd5b6020026020010151908060018154018082558091505060019003906000526020600020906002020160009091909190915060008201518160000155602082015181600101555050808062000255906200069a565b915050620001bb565b5033600e60006101000a81548173ffffffffffffffffffffffffffffffffffffffff021916908373ffffffffffffffffffffffffffffffffffffffff1602179055505050620007bf565b6000620002bf620002b984620005cf565b620005a6565b90508083825260208201905082856040860282011115620002df57600080fd5b60005b85811015620003135781620002f88882620004e0565b845260208401935060408301925050600181019050620002e2565b5050509392505050565b6000815190506200032e8162000757565b92915050565b600082601f8301126200034657600080fd5b815162000358848260208601620002a8565b91505092915050565b600081519050620003728162000771565b92915050565b60008151905062000389816200078b565b92915050565b60006101a08284031215620003a357600080fd5b620003b06101a0620005a6565b90506000620003c28482850162000378565b6000830152506020620003d88482850162000533565b6020830152506040620003ee8482850162000533565b6040830152506060620004048482850162000533565b60608301525060806200041a8482850162000533565b60808301525060a0620004308482850162000533565b60a08301525060c0620004468482850162000533565b60c08301525060e06200045c8482850162000361565b60e083015250610100620004738482850162000361565b610100830152506101206200048b848285016200031d565b61012083015250610140620004a38482850162000533565b61014083015250610160620004bb8482850162000533565b61016083015250610180620004d38482850162000533565b6101808301525092915050565b600060408284031215620004f357600080fd5b620004ff6040620005a6565b90506000620005118482850162000533565b6000830152506020620005278482850162000533565b60208301525092915050565b6000815190506200054481620007a5565b92915050565b6000806101c083850312156200055f57600080fd5b60006200056f858286016200038f565b9250506101a083015167ffffffffffffffff8111156200058e57600080fd5b6200059c8582860162000334565b9150509250929050565b6000620005b2620005c5565b9050620005c0828262000664565b919050565b6000604051905090565b600067ffffffffffffffff821115620005ed57620005ec62000717565b5b602082029050602081019050919050565b60006200060b826200063a565b9050919050565b60006200061f82620005fe565b9050919050565b60006200063382620005fe565b9050919050565b600073ffffffffffffffffffffffffffffffffffffffff82169050919050565b6000819050919050565b6200066f8262000746565b810181811067ffffffffffffffff8211171562000691576200069062000717565b5b80604052505050565b6000620006a7826200065a565b91507fffffffffffffffffffffffffffffffffffffffffffffffffffffffffffffffff821415620006dd57620006dc620006e8565b5b600182019050919050565b7f4e487b7100000000000000000000000000000000000000000000000000000000600052601160045260246000fd5b7f4e487b7100000000000000000000000000000000000000000000000000000000600052604160045260246000fd5b6000601f19601f8301169050919050565b6200076281620005fe565b81146200076e57600080fd5b50565b6200077c8162000612565b81146200078857600080fd5b50565b620007968162000626565b8114620007a257600080fd5b50565b620007b0816200065a565b8114620007bc57600080fd5b50565b611d0380620007cf6000396000f3fe608060405234801561001057600080fd5b50600436106100a95760003560e01c80634935f64f116100715780634935f64f1461013e57806350baa6221461015c5780636ea409ba146101785780637a494ca214610196578063dbd3cd62146101b2578063ed4b61c2146101ce576100a9565b806301339c21146100ae5780632797c6c8146100b857806327ba8bfb146100d45780632afcf48014610104578063461f3cc514610120575b600080fd5b6100b66101d8565b005b6100d260048036038101906100cd9190611399565b610372565b005b6100ee60048036038101906100e99190611427565b61053f565b6040516100fb9190611828565b60405180910390f35b61011e600480360381019061011991906113fe565b6105a4565b005b610128610c00565b6040516101359190611828565b60405180910390f35b610146610d8a565b60405161015391906116bd565b60405180910390f35b610176600480360381019061017191906113fe565b610d9a565b005b610180610f2a565b60405161018d9190611828565b60405180910390f35b6101b060048036038101906101ab9190611399565b610f32565b005b6101cc60048036038101906101c791906113fe565b61100d565b005b6101d6611156565b005b3373ffffffffffffffffffffffffffffffffffffffff16600160090160009054906101000a900473ffffffffffffffffffffffffffffffffffffffff1673ffffffffffffffffffffffffffffffffffffffff161461026b576040517f08c379a000000000000000000000000000000000000000000000000000000000815260040161026290611808565b60405180910390fd5b600160070160009054906101000a900473ffffffffffffffffffffffffffffffffffffffff1673ffffffffffffffffffffffffffffffffffffffff166323b872dd600160090160009054906101000a900473ffffffffffffffffffffffffffffffffffffffff16306001600401546040518463ffffffff1660e01b81526004016102f793929190611626565b602060405180830381600087803b15801561031157600080fd5b505af1158015610325573d6000803e3d6000fd5b505050506040513d601f19601f8201168201806040525081019061034991906113d5565b50600160040154600160050181905550600060018001541415610370574260018001819055505b565b600160000160009054906101000a900473ffffffffffffffffffffffffffffffffffffffff1673ffffffffffffffffffffffffffffffffffffffff163373ffffffffffffffffffffffffffffffffffffffff1614610405576040517f08c379a00000000000000000000000000000000000000000000000000000000081526004016103fc90611768565b60405180910390fd5b6104446040518060400160405280600a81526020017f626c6f636b2074696d65000000000000000000000000000000000000000000008152504261123d565b6104886040518060400160405280600a81526020017f6c697374696e67207473000000000000000000000000000000000000000000008152506001600a015461123d565b600160070160009054906101000a900473ffffffffffffffffffffffffffffffffffffffff1673ffffffffffffffffffffffffffffffffffffffff1663a9059cbb83836040518363ffffffff1660e01b81526004016104e8929190611694565b602060405180830381600087803b15801561050257600080fd5b505af1158015610516573d6000803e3d6000fd5b505050506040513d601f19601f8201168201806040525081019061053a91906113d5565b505050565b600080606485141561055357829050610599565b6105968460646105639190611940565b61058861057987896112d990919063ffffffff16565b866112ef90919063ffffffff16565b61130590919063ffffffff16565b90505b809150509392505050565b600180015442116105ea576040517f08c379a00000000000000000000000000000000000000000000000000000000081526004016105e190611708565b60405180910390fd5b60016002015460018001546105ff919061185f565b4210610640576040517f08c379a0000000000000000000000000000000000000000000000000000000008152600401610637906117e8565b60405180910390fd5b600160030154811015610688576040517f08c379a000000000000000000000000000000000000000000000000000000000815260040161067f90611728565b60405180910390fd5b6001600501548111156106d0576040517f08c379a00000000000000000000000000000000000000000000000000000000081526004016106c790611788565b60405180910390fd5b80600f60003373ffffffffffffffffffffffffffffffffffffffff1673ffffffffffffffffffffffffffffffffffffffff168152602001908152602001600020541015610752576040517f08c379a000000000000000000000000000000000000000000000000000000000815260040161074990611748565b60405180910390fd5b600061076c600160060154836112ef90919063ffffffff16565b9050600061079b606461078d6001600c0154856112ef90919063ffffffff16565b61130590919063ffffffff16565b905060006107ca60646107bc6001600b0154876112ef90919063ffffffff16565b61130590919063ffffffff16565b9050600160080160009054906101000a900473ffffffffffffffffffffffffffffffffffffffff1673ffffffffffffffffffffffffffffffffffffffff166323b872dd33600e60009054906101000a900473ffffffffffffffffffffffffffffffffffffffff16856040518463ffffffff1660e01b815260040161085093929190611626565b602060405180830381600087803b15801561086a57600080fd5b505af115801561087e573d6000803e3d6000fd5b505050506040513d601f19601f820116820180604052508101906108a291906113d5565b50600160080160009054906101000a900473ffffffffffffffffffffffffffffffffffffffff1673ffffffffffffffffffffffffffffffffffffffff166323b872dd33306108f986886112d990919063ffffffff16565b6040518463ffffffff1660e01b815260040161091793929190611626565b602060405180830381600087803b15801561093157600080fd5b505af1158015610945573d6000803e3d6000fd5b505050506040513d601f19601f8201168201806040525081019061096991906113d5565b50600160000160009054906101000a900473ffffffffffffffffffffffffffffffffffffffff1673ffffffffffffffffffffffffffffffffffffffff1663c6c3bbe633306109c085896112d990919063ffffffff16565b6040518463ffffffff1660e01b81526004016109de9392919061165d565b600060405180830381600087803b1580156109f857600080fd5b505af1158015610a0c573d6000803e3d6000fd5b50505050600160000160009054906101000a900473ffffffffffffffffffffffffffffffffffffffff1673ffffffffffffffffffffffffffffffffffffffff1663c6c3bbe6600e60009054906101000a900473ffffffffffffffffffffffffffffffffffffffff1630846040518463ffffffff1660e01b8152600401610a949392919061165d565b600060405180830381600087803b158015610aae57600080fd5b505af1158015610ac2573d6000803e3d6000fd5b50505050610ade846001600501546112d990919063ffffffff16565b600160050181905550610b3984600f60003373ffffffffffffffffffffffffffffffffffffffff1673ffffffffffffffffffffffffffffffffffffffff168152602001908152602001600020546112d990919063ffffffff16565b600f60003373ffffffffffffffffffffffffffffffffffffffff1673ffffffffffffffffffffffffffffffffffffffff16815260200190815260200160002081905550610bbb6040518060400160405280601081526020017f506179696e6720627579657220666565000000000000000000000000000000008152508361123d565b610bfa6040518060400160405280601181526020017f506179696e672073656c6c6572206665650000000000000000000000000000008152508261123d565b50505050565b6000806001600a01541415610c185760009050610d87565b60008080600090505b8280549050811015610d41576000610c91848381548110610c6b577f4e487b7100000000000000000000000000000000000000000000000000000000600052603260045260246000fd5b9060005260206000209060020201600001546001600a015461131b90919063ffffffff16565b9050610cd26040518060400160405280600a81526020017f76657374696e67207473000000000000000000000000000000000000000000008152508261123d565b42811115610ce05750610d41565b838281548110610d19577f4e487b7100000000000000000000000000000000000000000000000000000000600052603260045260246000fd5b9060005260206000209060020201600101549250508080610d3990611a13565b915050610c21565b50610d816040518060400160405280600e81526020017f7665737465642070657263656e740000000000000000000000000000000000008152508261123d565b80925050505b90565b6000806001600a01541415905090565b3373ffffffffffffffffffffffffffffffffffffffff16600160090160009054906101000a900473ffffffffffffffffffffffffffffffffffffffff1673ffffffffffffffffffffffffffffffffffffffff1614610e2d576040517f08c379a0000000000000000000000000000000000000000000000000000000008152600401610e2490611808565b60405180910390fd5b6001600501548110610e74576040517f08c379a0000000000000000000000000000000000000000000000000000000008152600401610e6b906117c8565b60405180910390fd5b600160070160009054906101000a900473ffffffffffffffffffffffffffffffffffffffff1673ffffffffffffffffffffffffffffffffffffffff1663a9059cbb33836040518363ffffffff1660e01b8152600401610ed4929190611694565b602060405180830381600087803b158015610eee57600080fd5b505af1158015610f02573d6000803e3d6000fd5b505050506040513d601f19601f82011682018060405250810190610f2691906113d5565b5050565b600042905090565b3373ffffffffffffffffffffffffffffffffffffffff16600160090160009054906101000a900473ffffffffffffffffffffffffffffffffffffffff1673ffffffffffffffffffffffffffffffffffffffff1614610fc5576040517f08c379a0000000000000000000000000000000000000000000000000000000008152600401610fbc90611808565b60405180910390fd5b80600f60008473ffffffffffffffffffffffffffffffffffffffff1673ffffffffffffffffffffffffffffffffffffffff168152602001908152602001600020819055505050565b3373ffffffffffffffffffffffffffffffffffffffff16600160090160009054906101000a900473ffffffffffffffffffffffffffffffffffffffff1673ffffffffffffffffffffffffffffffffffffffff16146110a0576040517f08c379a000000000000000000000000000000000000000000000000000000000815260040161109790611808565b60405180910390fd5b600160080160009054906101000a900473ffffffffffffffffffffffffffffffffffffffff1673ffffffffffffffffffffffffffffffffffffffff1663a9059cbb33836040518363ffffffff1660e01b8152600401611100929190611694565b602060405180830381600087803b15801561111a57600080fd5b505af115801561112e573d6000803e3d6000fd5b505050506040513d601f19601f8201168201806040525081019061115291906113d5565b5050565b3373ffffffffffffffffffffffffffffffffffffffff16600160090160009054906101000a900473ffffffffffffffffffffffffffffffffffffffff1673ffffffffffffffffffffffffffffffffffffffff16146111e9576040517f08c379a00000000000000000000000000000000000000000000000000000000081526004016111e090611808565b60405180910390fd5b60006001600a015414611231576040517f08c379a0000000000000000000000000000000000000000000000000000000008152600401611228906117a8565b60405180910390fd5b426001600a0181905550565b6112d582826040516024016112539291906116d8565b6040516020818303038152906040527f9710a9d0000000000000000000000000000000000000000000000000000000007bffffffffffffffffffffffffffffffffffffffffffffffffffffffff19166020820180517bffffffffffffffffffffffffffffffffffffffffffffffffffffffff8381831617835250505050611331565b5050565b600081836112e79190611940565b905092915050565b600081836112fd91906118e6565b905092915050565b6000818361131391906118b5565b905092915050565b60008183611329919061185f565b905092915050565b60008151905060006a636f6e736f6c652e6c6f679050602083016000808483855afa5050505050565b60008135905061136981611c88565b92915050565b60008151905061137e81611c9f565b92915050565b60008135905061139381611cb6565b92915050565b600080604083850312156113ac57600080fd5b60006113ba8582860161135a565b92505060206113cb85828601611384565b9150509250929050565b6000602082840312156113e757600080fd5b60006113f58482850161136f565b91505092915050565b60006020828403121561141057600080fd5b600061141e84828501611384565b91505092915050565b60008060006060848603121561143c57600080fd5b600061144a86828701611384565b935050602061145b86828701611384565b925050604061146c86828701611384565b9150509250925092565b61147f81611974565b82525050565b61148e81611986565b82525050565b61149d816119bc565b82525050565b60006114ae82611843565b6114b8818561184e565b93506114c88185602086016119e0565b6114d181611aba565b840191505092915050565b60006114e960148361184e565b91506114f482611acb565b602082019050919050565b600061150c60118361184e565b915061151782611af4565b602082019050919050565b600061152f60248361184e565b915061153a82611b1d565b604082019050919050565b600061155260188361184e565b915061155d82611b6c565b602082019050919050565b600061157560128361184e565b915061158082611b95565b602082019050919050565b600061159860148361184e565b91506115a382611bbe565b602082019050919050565b60006115bb60238361184e565b91506115c682611be7565b604082019050919050565b60006115de60128361184e565b91506115e982611c36565b602082019050919050565b600061160160188361184e565b915061160c82611c5f565b602082019050919050565b611620816119b2565b82525050565b600060608201905061163b6000830186611476565b6116486020830185611476565b6116556040830184611617565b949350505050565b60006060820190506116726000830186611476565b61167f6020830185611494565b61168c6040830184611617565b949350505050565b60006040820190506116a96000830185611476565b6116b66020830184611617565b9392505050565b60006020820190506116d26000830184611485565b92915050565b600060408201905081810360008301526116f281856114a3565b90506117016020830184611617565b9392505050565b60006020820190508181036000830152611721816114dc565b9050919050565b60006020820190508181036000830152611741816114ff565b9050919050565b6000602082019050818103600083015261176181611522565b9050919050565b6000602082019050818103600083015261178181611545565b9050919050565b600060208201905081810360008301526117a181611568565b9050919050565b600060208201905081810360008301526117c18161158b565b9050919050565b600060208201905081810360008301526117e1816115ae565b9050919050565b60006020820190508181036000830152611801816115d1565b9050919050565b60006020820190508181036000830152611821816115f4565b9050919050565b600060208201905061183d6000830184611617565b92915050565b600081519050919050565b600082825260208201905092915050565b600061186a826119b2565b9150611875836119b2565b9250827fffffffffffffffffffffffffffffffffffffffffffffffffffffffffffffffff038211156118aa576118a9611a5c565b5b828201905092915050565b60006118c0826119b2565b91506118cb836119b2565b9250826118db576118da611a8b565b5b828204905092915050565b60006118f1826119b2565b91506118fc836119b2565b9250817fffffffffffffffffffffffffffffffffffffffffffffffffffffffffffffffff048311821515161561193557611934611a5c565b5b828202905092915050565b600061194b826119b2565b9150611956836119b2565b92508282101561196957611968611a5c565b5b828203905092915050565b600061197f82611992565b9050919050565b60008115159050919050565b600073ffffffffffffffffffffffffffffffffffffffff82169050919050565b6000819050919050565b60006119c7826119ce565b9050919050565b60006119d982611992565b9050919050565b60005b838110156119fe5780820151818401526020810190506119e3565b83811115611a0d576000848401525b50505050565b6000611a1e826119b2565b91507fffffffffffffffffffffffffffffffffffffffffffffffffffffffffffffffff821415611a5157611a50611a5c565b5b600182019050919050565b7f4e487b7100000000000000000000000000000000000000000000000000000000600052601160045260246000fd5b7f4e487b7100000000000000000000000000000000000000000000000000000000600052601260045260246000fd5b6000601f19601f8301169050919050565b7f53616c65206e6f74207374617274656420796574000000000000000000000000600082015250565b7f416d6f756e7420697320746f6f206c6f77000000000000000000000000000000600082015250565b7f4e6f7420656e6f75676820617070726f76656420616d6f756e7420746f20696e60008201527f7665737400000000000000000000000000000000000000000000000000000000602082015250565b7f6f6e6c792053414e46542063616e2063616c6c20746869730000000000000000600082015250565b7f416d6f756e7420697320746f6f20686967680000000000000000000000000000600082015250565b7f546f6b656e20616c7265616479206c6973746564000000000000000000000000600082015250565b7f43616e6e6f74207769746864726177206d6f7265207468616e2072656d61696e60008201527f696e670000000000000000000000000000000000000000000000000000000000602082015250565b7f53616c6520656e64656420616c72656164790000000000000000000000000000600082015250565b7f43616c6c6572206973206e6f742073616c65206f776e65720000000000000000600082015250565b611c9181611974565b8114611c9c57600080fd5b50565b611ca881611986565b8114611cb357600080fd5b50565b611cbf816119b2565b8114611cca57600080fd5b5056fea26469706673582212205d1da7bcd234818f34eca0fc3ed82cf1fbd2e88427a16106afff9e02f3c680c564736f6c63430008030033",
  "linkReferences": {},
  "deployedLinkReferences": {}
}