{
  "_format": "hh-sol-artifact-1",
  "contractName": "Profile",
  "sourceName": "contracts/user/Profile.sol",
  "abi": [
    {
      "anonymous": false,
      "inputs": [
        {
          "indexed": false,
          "internalType": "address",
          "name": "addr1",
          "type": "address"
        },
        {
          "indexed": false,
          "internalType": "address",
          "name": "addr2",
          "type": "address"
        }
      ],
      "name": "AccountsAssociated",
      "type": "event"
    },
    {
      "anonymous": false,
      "inputs": [
        {
          "indexed": false,
          "internalType": "address",
          "name": "addr1",
          "type": "address"
        },
        {
          "indexed": false,
          "internalType": "address",
          "name": "addr2",
          "type": "address"
        }
      ],
      "name": "AccountsDissociated",
      "type": "event"
    },
    {
      "anonymous": false,
      "inputs": [
        {
          "indexed": true,
          "internalType": "address",
          "name": "previousOwner",
          "type": "address"
        },
        {
          "indexed": true,
          "internalType": "address",
          "name": "newOwner",
          "type": "address"
        }
      ],
      "name": "OwnershipTransferred",
      "type": "event"
    },
    {
      "anonymous": false,
      "inputs": [
        {
          "indexed": false,
          "internalType": "uint256",
          "name": "validity",
          "type": "uint256"
        }
      ],
      "name": "ValidityChanged",
      "type": "event"
    },
    {
      "inputs": [
        {
          "internalType": "address",
          "name": "addr1",
          "type": "address"
        },
        {
          "internalType": "address",
          "name": "addr2",
          "type": "address"
        }
      ],
      "name": "areAccountsAssociated",
      "outputs": [
        {
          "internalType": "bool",
          "name": "",
          "type": "bool"
        }
      ],
      "stateMutability": "view",
      "type": "function"
    },
    {
      "inputs": [
        {
          "internalType": "address",
          "name": "account",
          "type": "address"
        },
        {
          "internalType": "uint256",
          "name": "timestamp",
          "type": "uint256"
        },
        {
          "internalType": "bytes",
          "name": "signature",
          "type": "bytes"
        }
      ],
      "name": "associateAccount",
      "outputs": [],
      "stateMutability": "nonpayable",
      "type": "function"
    },
    {
      "inputs": [
        {
          "internalType": "uint256",
          "name": "validity",
          "type": "uint256"
        }
      ],
      "name": "changeValidity",
      "outputs": [],
      "stateMutability": "nonpayable",
      "type": "function"
    },
    {
      "inputs": [
        {
          "internalType": "address",
          "name": "account",
          "type": "address"
        }
      ],
      "name": "dissociateAccount",
      "outputs": [],
      "stateMutability": "nonpayable",
      "type": "function"
    },
    {
      "inputs": [
        {
          "internalType": "address",
          "name": "addr1",
          "type": "address"
        },
        {
          "internalType": "address",
          "name": "addr2",
          "type": "address"
        },
        {
          "internalType": "uint256",
          "name": "timestamp",
          "type": "uint256"
        }
      ],
      "name": "encodeForSignature",
      "outputs": [
        {
          "internalType": "bytes32",
          "name": "",
          "type": "bytes32"
        }
      ],
      "stateMutability": "pure",
      "type": "function"
    },
    {
      "inputs": [
        {
          "internalType": "address",
          "name": "addr",
          "type": "address"
        }
      ],
      "name": "isMyAssociated",
      "outputs": [
        {
          "internalType": "bool",
          "name": "",
          "type": "bool"
        }
      ],
      "stateMutability": "view",
      "type": "function"
    },
    {
      "inputs": [],
      "name": "owner",
      "outputs": [
        {
          "internalType": "address",
          "name": "",
          "type": "address"
        }
      ],
      "stateMutability": "view",
      "type": "function"
    },
    {
      "inputs": [],
      "name": "renounceOwnership",
      "outputs": [],
      "stateMutability": "nonpayable",
      "type": "function"
    },
    {
      "inputs": [
        {
          "internalType": "address",
          "name": "newOwner",
          "type": "address"
        }
      ],
      "name": "transferOwnership",
      "outputs": [],
      "stateMutability": "nonpayable",
      "type": "function"
    }
  ],
  "bytecode": "0x60806040526201518060025534801561001757600080fd5b5061003461002961003960201b60201c565b61004160201b60201c565b610105565b600033905090565b60008060009054906101000a900473ffffffffffffffffffffffffffffffffffffffff169050816000806101000a81548173ffffffffffffffffffffffffffffffffffffffff021916908373ffffffffffffffffffffffffffffffffffffffff1602179055508173ffffffffffffffffffffffffffffffffffffffff168173ffffffffffffffffffffffffffffffffffffffff167f8be0079c531659141344cd1fd0a4f28419497f9722a3daafe3b4186f6b6457e060405160405180910390a35050565b611631806101146000396000f3fe608060405234801561001057600080fd5b50600436106100935760003560e01c8063bfb2220b11610066578063bfb2220b146100f8578063cf44a79014610128578063f2fde38b14610144578063f7acfaee14610160578063fdeb0b641461019057610093565b80634faa4f5a14610098578063715018a6146100b45780638da5cb5b146100be578063b480547d146100dc575b600080fd5b6100b260048036038101906100ad9190610c9b565b6101c0565b005b6100bc6103d7565b005b6100c661045f565b6040516100d39190610f6d565b60405180910390f35b6100f660048036038101906100f19190610d02565b610488565b005b610112600480360381019061010d9190610c10565b610545565b60405161011f9190610fb1565b60405180910390f35b610142600480360381019061013d9190610be7565b6105a5565b005b61015e60048036038101906101599190610be7565b610682565b005b61017a60048036038101906101759190610c4c565b61077a565b6040516101879190610fcc565b60405180910390f35b6101aa60048036038101906101a59190610be7565b6107b0565b6040516101b79190610fb1565b60405180910390f35b600073ffffffffffffffffffffffffffffffffffffffff163373ffffffffffffffffffffffffffffffffffffffff161415801561022a5750600073ffffffffffffffffffffffffffffffffffffffff168373ffffffffffffffffffffffffffffffffffffffff1614155b610269576040517f08c379a0000000000000000000000000000000000000000000000000000000008152600401610260906110ac565b60405180910390fd5b426002548361027891906111f9565b116102b8576040517f08c379a00000000000000000000000000000000000000000000000000000000081526004016102af9061104c565b60405180910390fd5b8273ffffffffffffffffffffffffffffffffffffffff166102e36102dd85338661077a565b836107c3565b73ffffffffffffffffffffffffffffffffffffffff1614610339576040517f08c379a00000000000000000000000000000000000000000000000000000000081526004016103309061112c565b60405180910390fd5b60018060006103483387610872565b73ffffffffffffffffffffffffffffffffffffffff1673ffffffffffffffffffffffffffffffffffffffff16815260200190815260200160002060006101000a81548160ff0219169083151502179055507f568809035eca08e4c2fb9d11a342bf42c86da92cce4a3c71a41420ed2f0fab4a33846040516103ca929190610f88565b60405180910390a1505050565b6103df6108b4565b73ffffffffffffffffffffffffffffffffffffffff166103fd61045f565b73ffffffffffffffffffffffffffffffffffffffff1614610453576040517f08c379a000000000000000000000000000000000000000000000000000000000815260040161044a9061110c565b60405180910390fd5b61045d60006108bc565b565b60008060009054906101000a900473ffffffffffffffffffffffffffffffffffffffff16905090565b6104906108b4565b73ffffffffffffffffffffffffffffffffffffffff166104ae61045f565b73ffffffffffffffffffffffffffffffffffffffff1614610504576040517f08c379a00000000000000000000000000000000000000000000000000000000081526004016104fb9061110c565b60405180910390fd5b806002819055507f976cd1945d81cd733edb29f5dddaad575d6eb8feb74939555cc7b3a30aa282f98160405161053a919061116c565b60405180910390a150565b6000600160006105558585610872565b73ffffffffffffffffffffffffffffffffffffffff1673ffffffffffffffffffffffffffffffffffffffff16815260200190815260200160002060009054906101000a900460ff16905092915050565b6105af3382610545565b6105ee576040517f08c379a00000000000000000000000000000000000000000000000000000000081526004016105e59061114c565b60405180910390fd5b600160006105fc3384610872565b73ffffffffffffffffffffffffffffffffffffffff1673ffffffffffffffffffffffffffffffffffffffff16815260200190815260200160002060006101000a81549060ff02191690557fec05f3f9319731f026e41fde4470da355ac667ca0e0c4d06bb31f7e1307d6dab3382604051610677929190610f88565b60405180910390a150565b61068a6108b4565b73ffffffffffffffffffffffffffffffffffffffff166106a861045f565b73ffffffffffffffffffffffffffffffffffffffff16146106fe576040517f08c379a00000000000000000000000000000000000000000000000000000000081526004016106f59061110c565b60405180910390fd5b600073ffffffffffffffffffffffffffffffffffffffff168173ffffffffffffffffffffffffffffffffffffffff16141561076e576040517f08c379a00000000000000000000000000000000000000000000000000000000081526004016107659061108c565b60405180910390fd5b610777816108bc565b50565b600083838360405160200161079193929190610f25565b6040516020818303038152906040528051906020012090509392505050565b60006107bc3383610545565b9050919050565b60006041825114156108025760008060006020850151925060408501519150606085015160001a90506107f886828585610980565b935050505061086c565b604082511415610831576000806020840151915060408401519050610828858383610b0b565b9250505061086c565b6040517f08c379a00000000000000000000000000000000000000000000000000000000081526004016108639061106c565b60405180910390fd5b92915050565b60008173ffffffffffffffffffffffffffffffffffffffff168373ffffffffffffffffffffffffffffffffffffffff166108ac91906111f9565b905092915050565b600033905090565b60008060009054906101000a900473ffffffffffffffffffffffffffffffffffffffff169050816000806101000a81548173ffffffffffffffffffffffffffffffffffffffff021916908373ffffffffffffffffffffffffffffffffffffffff1602179055508173ffffffffffffffffffffffffffffffffffffffff168173ffffffffffffffffffffffffffffffffffffffff167f8be0079c531659141344cd1fd0a4f28419497f9722a3daafe3b4186f6b6457e060405160405180910390a35050565b60007f7fffffffffffffffffffffffffffffff5d576e7357a4501ddfe92f46681b20a08260001c11156109e8576040517f08c379a00000000000000000000000000000000000000000000000000000000081526004016109df906110cc565b60405180910390fd5b601b8460ff1614806109fd5750601c8460ff16145b610a3c576040517f08c379a0000000000000000000000000000000000000000000000000000000008152600401610a33906110ec565b60405180910390fd5b600060018686868660405160008152602001604052604051610a619493929190610fe7565b6020604051602081039080840390855afa158015610a83573d6000803e3d6000fd5b505050602060405103519050600073ffffffffffffffffffffffffffffffffffffffff168173ffffffffffffffffffffffffffffffffffffffff161415610aff576040517f08c379a0000000000000000000000000000000000000000000000000000000008152600401610af69061102c565b60405180910390fd5b80915050949350505050565b60008060007f7fffffffffffffffffffffffffffffffffffffffffffffffffffffffffffffff84169150601b8460ff1c019050610b4a86828785610980565b925050509392505050565b6000610b68610b63846111ac565b611187565b905082815260208101848484011115610b8057600080fd5b610b8b8482856112ae565b509392505050565b600081359050610ba2816115cd565b92915050565b600082601f830112610bb957600080fd5b8135610bc9848260208601610b55565b91505092915050565b600081359050610be1816115e4565b92915050565b600060208284031215610bf957600080fd5b6000610c0784828501610b93565b91505092915050565b60008060408385031215610c2357600080fd5b6000610c3185828601610b93565b9250506020610c4285828601610b93565b9150509250929050565b600080600060608486031215610c6157600080fd5b6000610c6f86828701610b93565b9350506020610c8086828701610b93565b9250506040610c9186828701610bd2565b9150509250925092565b600080600060608486031215610cb057600080fd5b6000610cbe86828701610b93565b9350506020610ccf86828701610bd2565b925050604084013567ffffffffffffffff811115610cec57600080fd5b610cf886828701610ba8565b9150509250925092565b600060208284031215610d1457600080fd5b6000610d2284828501610bd2565b91505092915050565b610d348161124f565b82525050565b610d4b610d468261124f565b6112ee565b82525050565b610d5a81611261565b82525050565b610d698161126d565b82525050565b6000610d7c6018836111dd565b9150610d8782611398565b602082019050919050565b6000610d9f601b836111dd565b9150610daa826113c1565b602082019050919050565b6000610dc2601f836111dd565b9150610dcd826113ea565b602082019050919050565b6000610de56026836111dd565b9150610df082611413565b604082019050919050565b6000610e08601c836111dd565b9150610e1382611462565b602082019050919050565b6000610e2b6022836111dd565b9150610e368261148b565b604082019050919050565b6000610e4e6002836111ee565b9150610e59826114da565b600282019050919050565b6000610e716022836111dd565b9150610e7c82611503565b604082019050919050565b6000610e946020836111dd565b9150610e9f82611552565b602082019050919050565b6000610eb7601a836111dd565b9150610ec28261157b565b602082019050919050565b6000610eda601e836111dd565b9150610ee5826115a4565b602082019050919050565b610ef981611297565b82525050565b610f10610f0b82611297565b611312565b82525050565b610f1f816112a1565b82525050565b6000610f3082610e41565b9150610f3c8286610d3a565b601482019150610f4c8285610d3a565b601482019150610f5c8284610eff565b602082019150819050949350505050565b6000602082019050610f826000830184610d2b565b92915050565b6000604082019050610f9d6000830185610d2b565b610faa6020830184610d2b565b9392505050565b6000602082019050610fc66000830184610d51565b92915050565b6000602082019050610fe16000830184610d60565b92915050565b6000608082019050610ffc6000830187610d60565b6110096020830186610f16565b6110166040830185610d60565b6110236060830184610d60565b95945050505050565b6000602082019050818103600083015261104581610d6f565b9050919050565b6000602082019050818103600083015261106581610d92565b9050919050565b6000602082019050818103600083015261108581610db5565b9050919050565b600060208201905081810360008301526110a581610dd8565b9050919050565b600060208201905081810360008301526110c581610dfb565b9050919050565b600060208201905081810360008301526110e581610e1e565b9050919050565b6000602082019050818103600083015261110581610e64565b9050919050565b6000602082019050818103600083015261112581610e87565b9050919050565b6000602082019050818103600083015261114581610eaa565b9050919050565b6000602082019050818103600083015261116581610ecd565b9050919050565b60006020820190506111816000830184610ef0565b92915050565b60006111916111a2565b905061119d82826112bd565b919050565b6000604051905090565b600067ffffffffffffffff8211156111c7576111c661134b565b5b6111d08261137a565b9050602081019050919050565b600082825260208201905092915050565b600081905092915050565b600061120482611297565b915061120f83611297565b9250827fffffffffffffffffffffffffffffffffffffffffffffffffffffffffffffffff038211156112445761124361131c565b5b828201905092915050565b600061125a82611277565b9050919050565b60008115159050919050565b6000819050919050565b600073ffffffffffffffffffffffffffffffffffffffff82169050919050565b6000819050919050565b600060ff82169050919050565b82818337600083830152505050565b6112c68261137a565b810181811067ffffffffffffffff821117156112e5576112e461134b565b5b80604052505050565b60006112f982611300565b9050919050565b600061130b8261138b565b9050919050565b6000819050919050565b7f4e487b7100000000000000000000000000000000000000000000000000000000600052601160045260246000fd5b7f4e487b7100000000000000000000000000000000000000000000000000000000600052604160045260246000fd5b6000601f19601f8301169050919050565b60008160601b9050919050565b7f45434453413a20696e76616c6964207369676e61747572650000000000000000600082015250565b7f50726f66696c653a207265717565737420697320657870697265640000000000600082015250565b7f45434453413a20696e76616c6964207369676e6174757265206c656e67746800600082015250565b7f4f776e61626c653a206e6577206f776e657220697320746865207a65726f206160008201527f6464726573730000000000000000000000000000000000000000000000000000602082015250565b7f50726f66696c653a206e6f20696e76616c6964206163636f756e747300000000600082015250565b7f45434453413a20696e76616c6964207369676e6174757265202773272076616c60008201527f7565000000000000000000000000000000000000000000000000000000000000602082015250565b7f1900000000000000000000000000000000000000000000000000000000000000600082015250565b7f45434453413a20696e76616c6964207369676e6174757265202776272076616c60008201527f7565000000000000000000000000000000000000000000000000000000000000602082015250565b7f4f776e61626c653a2063616c6c6572206973206e6f7420746865206f776e6572600082015250565b7f50726f66696c653a20696e76616c6964207369676e6174757265000000000000600082015250565b7f50726f66696c653a206173736f63696174696f6e206e6f7420666f756e640000600082015250565b6115d68161124f565b81146115e157600080fd5b50565b6115ed81611297565b81146115f857600080fd5b5056fea26469706673582212209fc68ad1446672870547defae652a5f1b6e3e128925743412bfe47e08352d31e64736f6c63430008030033",
  "linkReferences": {},
  "deployedLinkReferences": {}
}