{
  "_format": "hh-sol-artifact-1",
  "contractName": "SAStorageExtenderMock",
  "sourceName": "contracts/test/SAStorageExtenderMock.sol",
  "abi": [
    {
      "anonymous": false,
      "inputs": [
        {
          "indexed": false,
          "internalType": "uint256",
          "name": "bundleId",
          "type": "uint256"
        }
      ],
      "name": "BundleCreated",
      "type": "event"
    },
    {
      "anonymous": false,
      "inputs": [
        {
          "indexed": false,
          "internalType": "uint256",
          "name": "bundleId",
          "type": "uint256"
        }
      ],
      "name": "BundleDeleted",
      "type": "event"
    },
    {
      "anonymous": false,
      "inputs": [
        {
          "indexed": false,
          "internalType": "uint256",
          "name": "level",
          "type": "uint256"
        },
        {
          "indexed": false,
          "internalType": "address",
          "name": "account",
          "type": "address"
        },
        {
          "indexed": false,
          "internalType": "address",
          "name": "setter",
          "type": "address"
        }
      ],
      "name": "LevelSet",
      "type": "event"
    },
    {
      "inputs": [],
      "name": "MANAGER_LEVEL",
      "outputs": [
        {
          "internalType": "uint256",
          "name": "",
          "type": "uint256"
        }
      ],
      "stateMutability": "view",
      "type": "function"
    },
    {
      "inputs": [],
      "name": "OWNER_LEVEL",
      "outputs": [
        {
          "internalType": "uint256",
          "name": "",
          "type": "uint256"
        }
      ],
      "stateMutability": "view",
      "type": "function"
    },
    {
      "inputs": [
        {
          "internalType": "uint256",
          "name": "tokenId",
          "type": "uint256"
        },
        {
          "components": [
            {
              "internalType": "address",
              "name": "sale",
              "type": "address"
            },
            {
              "internalType": "uint256",
              "name": "remainingAmount",
              "type": "uint256"
            },
            {
              "internalType": "uint128",
              "name": "vestedPercentage",
              "type": "uint128"
            }
          ],
          "internalType": "struct ISAStorage.SA",
          "name": "newSA",
          "type": "tuple"
        }
      ],
      "name": "addSAToBundle",
      "outputs": [],
      "stateMutability": "nonpayable",
      "type": "function"
    },
    {
      "inputs": [
        {
          "internalType": "uint256",
          "name": "tokenId",
          "type": "uint256"
        }
      ],
      "name": "deleteBundle",
      "outputs": [],
      "stateMutability": "nonpayable",
      "type": "function"
    },
    {
      "inputs": [
        {
          "internalType": "uint256",
          "name": "tokenId",
          "type": "uint256"
        }
      ],
      "name": "getBundle",
      "outputs": [
        {
          "components": [
            {
              "components": [
                {
                  "internalType": "address",
                  "name": "sale",
                  "type": "address"
                },
                {
                  "internalType": "uint256",
                  "name": "remainingAmount",
                  "type": "uint256"
                },
                {
                  "internalType": "uint128",
                  "name": "vestedPercentage",
                  "type": "uint128"
                }
              ],
              "internalType": "struct ISAStorage.SA[]",
              "name": "sas",
              "type": "tuple[]"
            },
            {
              "internalType": "uint32",
              "name": "creationTime",
              "type": "uint32"
            },
            {
              "internalType": "uint32",
              "name": "acquisitionTime",
              "type": "uint32"
            }
          ],
          "internalType": "struct ISAStorage.Bundle",
          "name": "",
          "type": "tuple"
        }
      ],
      "stateMutability": "view",
      "type": "function"
    },
    {
      "inputs": [
        {
          "internalType": "uint256",
          "name": "level",
          "type": "uint256"
        },
        {
          "internalType": "address",
          "name": "addr",
          "type": "address"
        }
      ],
      "name": "grantLevel",
      "outputs": [],
      "stateMutability": "nonpayable",
      "type": "function"
    },
    {
      "inputs": [
        {
          "internalType": "uint256",
          "name": "tokenId",
          "type": "uint256"
        },
        {
          "internalType": "uint256",
          "name": "saIndex",
          "type": "uint256"
        },
        {
          "internalType": "uint256",
          "name": "diff",
          "type": "uint256"
        }
      ],
      "name": "increaseAmountInSA",
      "outputs": [],
      "stateMutability": "nonpayable",
      "type": "function"
    },
    {
      "inputs": [
        {
          "internalType": "address",
          "name": "",
          "type": "address"
        }
      ],
      "name": "levels",
      "outputs": [
        {
          "internalType": "uint256",
          "name": "",
          "type": "uint256"
        }
      ],
      "stateMutability": "view",
      "type": "function"
    },
    {
      "inputs": [
        {
          "internalType": "uint256",
          "name": "tokenId",
          "type": "uint256"
        },
        {
          "internalType": "address",
          "name": "saleAddress",
          "type": "address"
        },
        {
          "internalType": "uint256",
          "name": "remainingAmount",
          "type": "uint256"
        },
        {
          "internalType": "uint128",
          "name": "vestedPercentage",
          "type": "uint128"
        }
      ],
      "name": "newBundleWithSA",
      "outputs": [],
      "stateMutability": "nonpayable",
      "type": "function"
    },
    {
      "inputs": [
        {
          "internalType": "uint256",
          "name": "tokenId",
          "type": "uint256"
        }
      ],
      "name": "newEmptyBundle",
      "outputs": [],
      "stateMutability": "nonpayable",
      "type": "function"
    },
    {
      "inputs": [
        {
          "internalType": "address",
          "name": "addr",
          "type": "address"
        }
      ],
      "name": "revokeLevel",
      "outputs": [],
      "stateMutability": "nonpayable",
      "type": "function"
    }
  ],
  "bytecode": "0x60806040523480156200001157600080fd5b5060016000803373ffffffffffffffffffffffffffffffffffffffff1673ffffffffffffffffffffffffffffffffffffffff168152602001908152602001600020819055507f30113ad733c78bfd7b2fd05fa6982d156dda72dd2739fdc5ffbd71ecfc3124d260013360006040516200008d93929190620000bd565b60405180910390a162000138565b620000a681620000fa565b82525050565b620000b7816200012e565b82525050565b6000606082019050620000d46000830186620000ac565b620000e360208301856200009b565b620000f260408301846200009b565b949350505050565b600062000107826200010e565b9050919050565b600073ffffffffffffffffffffffffffffffffffffffff82169050919050565b6000819050919050565b61161680620001486000396000f3fe608060405234801561001057600080fd5b50600436106100a95760003560e01c80635dd4f114116100715780635dd4f11414610166578063824e3c02146101825780638a553da21461019e578063ba92376b146101ba578063f25ec213146101d6578063f7868724146101f2576100a9565b80631ce70581146100ae5780632d0821b7146100cc5780632edc555f146100fc5780633011b3f01461011a57806347082db314610136575b600080fd5b6100b661020e565b6040516100c391906112c9565b60405180910390f35b6100e660048036038101906100e19190610ee3565b610213565b6040516100f391906112a7565b60405180910390f35b610104610395565b60405161011191906112c9565b60405180910390f35b610134600480360381019061012f9190610fab565b61039a565b005b610150600480360381019061014b9190610eba565b61042b565b60405161015d91906112c9565b60405180910390f35b610180600480360381019061017b9190610f48565b610443565b005b61019c60048036038101906101979190610ee3565b610527565b005b6101b860048036038101906101b39190610eba565b6105b6565b005b6101d460048036038101906101cf9190610ee3565b6106ba565b005b6101f060048036038101906101eb9190610f0c565b610749565b005b61020c60048036038101906102079190610fe7565b61084e565b005b600181565b61021b610d61565b6001600083815260200190815260200160002060405180606001604052908160008201805480602002602001604051908101604052809291908181526020016000905b8282101561033a57838290600052602060002090600302016040518060600160405290816000820160009054906101000a900473ffffffffffffffffffffffffffffffffffffffff1673ffffffffffffffffffffffffffffffffffffffff1673ffffffffffffffffffffffffffffffffffffffff168152602001600182015481526020016002820160009054906101000a90046fffffffffffffffffffffffffffffffff166fffffffffffffffffffffffffffffffff166fffffffffffffffffffffffffffffffff16815250508152602001906001019061025e565b5050505081526020016001820160009054906101000a900463ffffffff1663ffffffff1663ffffffff1681526020016001820160049054906101000a900463ffffffff1663ffffffff1663ffffffff16815250509050919050565b600181565b6001806000803373ffffffffffffffffffffffffffffffffffffffff1673ffffffffffffffffffffffffffffffffffffffff168152602001908152602001600020541461041c576040517f08c379a000000000000000000000000000000000000000000000000000000000815260040161041390611267565b60405180910390fd5b61042683836108e1565b505050565b60006020528060005260406000206000915090505481565b6001806000803373ffffffffffffffffffffffffffffffffffffffff1673ffffffffffffffffffffffffffffffffffffffff16815260200190815260200160002054146104c5576040517f08c379a00000000000000000000000000000000000000000000000000000000081526004016104bc90611267565b60405180910390fd5b6104ce85610a5e565b600060405180606001604052808673ffffffffffffffffffffffffffffffffffffffff168152602001858152602001846fffffffffffffffffffffffffffffffff16815250905061051f86826108e1565b505050505050565b6001806000803373ffffffffffffffffffffffffffffffffffffffff1673ffffffffffffffffffffffffffffffffffffffff16815260200190815260200160002054146105a9576040517f08c379a00000000000000000000000000000000000000000000000000000000081526004016105a090611267565b60405180910390fd5b6105b282610a5e565b5050565b6001806000803373ffffffffffffffffffffffffffffffffffffffff1673ffffffffffffffffffffffffffffffffffffffff1681526020019081526020016000205414610638576040517f08c379a000000000000000000000000000000000000000000000000000000000815260040161062f90611267565b60405180910390fd5b6000808373ffffffffffffffffffffffffffffffffffffffff1673ffffffffffffffffffffffffffffffffffffffff168152602001908152602001600020600090557f30113ad733c78bfd7b2fd05fa6982d156dda72dd2739fdc5ffbd71ecfc3124d2600083336040516106ae93929190611210565b60405180910390a15050565b6001806000803373ffffffffffffffffffffffffffffffffffffffff1673ffffffffffffffffffffffffffffffffffffffff168152602001908152602001600020541461073c576040517f08c379a000000000000000000000000000000000000000000000000000000000815260040161073390611267565b60405180910390fd5b61074582610b71565b5050565b6001806000803373ffffffffffffffffffffffffffffffffffffffff1673ffffffffffffffffffffffffffffffffffffffff16815260200190815260200160002054146107cb576040517f08c379a00000000000000000000000000000000000000000000000000000000081526004016107c290611267565b60405180910390fd5b826000808473ffffffffffffffffffffffffffffffffffffffff1673ffffffffffffffffffffffffffffffffffffffff168152602001908152602001600020819055507f30113ad733c78bfd7b2fd05fa6982d156dda72dd2739fdc5ffbd71ecfc3124d2838333604051610841939291906112e4565b60405180910390a1505050565b6001806000803373ffffffffffffffffffffffffffffffffffffffff1673ffffffffffffffffffffffffffffffffffffffff16815260200190815260200160002054146108d0576040517f08c379a00000000000000000000000000000000000000000000000000000000081526004016108c790611267565b60405180910390fd5b6108db848484610c71565b50505050565b8160006001600083815260200190815260200160002060010160009054906101000a900463ffffffff1663ffffffff161415610952576040517f08c379a000000000000000000000000000000000000000000000000000000000815260040161094990611287565b60405180910390fd5b6001600084815260200190815260200160002060000182908060018154018082558091505060019003906000526020600020906003020160009091909190915060008201518160000160006101000a81548173ffffffffffffffffffffffffffffffffffffffff021916908373ffffffffffffffffffffffffffffffffffffffff1602179055506020820151816001015560408201518160020160006101000a8154816fffffffffffffffffffffffffffffffff02191690836fffffffffffffffffffffffffffffffff1602179055505050426001600085815260200190815260200160002060010160046101000a81548163ffffffff021916908363ffffffff160217905550505050565b60006001600083815260200190815260200160002060010160009054906101000a900463ffffffff1663ffffffff1614610acd576040517f08c379a0000000000000000000000000000000000000000000000000000000008152600401610ac490611247565b60405180910390fd5b426001600083815260200190815260200160002060010160006101000a81548163ffffffff021916908363ffffffff160217905550426001600083815260200190815260200160002060010160046101000a81548163ffffffff021916908363ffffffff1602179055507f7370e5fd364eeb66c43589a6be4b5f96fbc9309ba87d4e62cf6dda72f48e244d81604051610b6691906112c9565b60405180910390a150565b8060006001600083815260200190815260200160002060010160009054906101000a900463ffffffff1663ffffffff161415610be2576040517f08c379a0000000000000000000000000000000000000000000000000000000008152600401610bd990611287565b60405180910390fd5b6001600083815260200190815260200160002060008082016000610c069190610d8e565b6001820160006101000a81549063ffffffff02191690556001820160046101000a81549063ffffffff021916905550507f3d2ae0795c4cc3ca7ccea6bb5283ff5de539631cc4e8080c71aa41de6e640eae82604051610c6591906112c9565b60405180910390a15050565b610ce381600160008681526020019081526020016000206000018481548110610cc3577f4e487b7100000000000000000000000000000000000000000000000000000000600052603260045260246000fd5b906000526020600020906003020160010154610d4b90919063ffffffff16565b600160008581526020019081526020016000206000018381548110610d31577f4e487b7100000000000000000000000000000000000000000000000000000000600052603260045260246000fd5b906000526020600020906003020160010181905550505050565b60008183610d59919061138a565b905092915050565b604051806060016040528060608152602001600063ffffffff168152602001600063ffffffff1681525090565b5080546000825560030290600052602060002090810190610daf9190610db2565b50565b5b80821115610e1757600080820160006101000a81549073ffffffffffffffffffffffffffffffffffffffff021916905560018201600090556002820160006101000a8154906fffffffffffffffffffffffffffffffff021916905550600301610db3565b5090565b600081359050610e2a8161159b565b92915050565b600060608284031215610e4257600080fd5b610e4c606061131b565b90506000610e5c84828501610e1b565b6000830152506020610e7084828501610ea5565b6020830152506040610e8484828501610e90565b60408301525092915050565b600081359050610e9f816115b2565b92915050565b600081359050610eb4816115c9565b92915050565b600060208284031215610ecc57600080fd5b6000610eda84828501610e1b565b91505092915050565b600060208284031215610ef557600080fd5b6000610f0384828501610ea5565b91505092915050565b60008060408385031215610f1f57600080fd5b6000610f2d85828601610ea5565b9250506020610f3e85828601610e1b565b9150509250929050565b60008060008060808587031215610f5e57600080fd5b6000610f6c87828801610ea5565b9450506020610f7d87828801610e1b565b9350506040610f8e87828801610ea5565b9250506060610f9f87828801610e90565b91505092959194509250565b60008060808385031215610fbe57600080fd5b6000610fcc85828601610ea5565b9250506020610fdd85828601610e30565b9150509250929050565b600080600060608486031215610ffc57600080fd5b600061100a86828701610ea5565b935050602061101b86828701610ea5565b925050604061102c86828701610ea5565b9150509250925092565b60006110428383611192565b60608301905092915050565b611057816113e0565b82525050565b611066816113e0565b82525050565b600061107782611350565b6110818185611368565b935061108c83611340565b8060005b838110156110bd5781516110a48882611036565b97506110af8361135b565b925050600181019050611090565b5085935050505092915050565b6110d381611448565b82525050565b60006110e6601f83611379565b91506110f1826114fa565b602082019050919050565b6000611109602383611379565b915061111482611523565b604082019050919050565b600061112c602083611379565b915061113782611572565b602082019050919050565b6000606083016000830151848203600086015261115f828261106c565b91505060208301516111746020860182611201565b5060408301516111876040860182611201565b508091505092915050565b6060820160008201516111a8600085018261104e565b5060208201516111bb60208501826111e3565b5060408201516111ce60408501826111d4565b50505050565b6111dd816113f2565b82525050565b6111ec8161142e565b82525050565b6111fb8161142e565b82525050565b61120a81611438565b82525050565b600060608201905061122560008301866110ca565b611232602083018561105d565b61123f604083018461105d565b949350505050565b60006020820190508181036000830152611260816110d9565b9050919050565b60006020820190508181036000830152611280816110fc565b9050919050565b600060208201905081810360008301526112a08161111f565b9050919050565b600060208201905081810360008301526112c18184611142565b905092915050565b60006020820190506112de60008301846111f2565b92915050565b60006060820190506112f960008301866111f2565b611306602083018561105d565b611313604083018461105d565b949350505050565b6000611325611336565b9050611331828261145a565b919050565b6000604051905090565b6000819050602082019050919050565b600081519050919050565b6000602082019050919050565b600082825260208201905092915050565b600082825260208201905092915050565b60006113958261142e565b91506113a08361142e565b9250827fffffffffffffffffffffffffffffffffffffffffffffffffffffffffffffffff038211156113d5576113d461148b565b5b828201905092915050565b60006113eb8261140e565b9050919050565b60006fffffffffffffffffffffffffffffffff82169050919050565b600073ffffffffffffffffffffffffffffffffffffffff82169050919050565b6000819050919050565b600063ffffffff82169050919050565b60006114538261142e565b9050919050565b611463826114e9565b810181811067ffffffffffffffff82111715611482576114816114ba565b5b80604052505050565b7f4e487b7100000000000000000000000000000000000000000000000000000000600052601160045260246000fd5b7f4e487b7100000000000000000000000000000000000000000000000000000000600052604160045260246000fd5b6000601f19601f8301169050919050565b7f534153746f726167653a2042756e646c6520616c726561647920616464656400600082015250565b7f4c6576656c4163636573733a2063616c6c6572206e6f7420617574686f72697a60008201527f65642e0000000000000000000000000000000000000000000000000000000000602082015250565b7f534153746f726167653a2042756e646c6520646f6573206e6f74206578697374600082015250565b6115a4816113e0565b81146115af57600080fd5b50565b6115bb816113f2565b81146115c657600080fd5b50565b6115d28161142e565b81146115dd57600080fd5b5056fea26469706673582212200d6250ac28eb37ce38b4dc447fae05d5cf473321181033814b1fba4c1c4d2a8b64736f6c63430008030033",
  "linkReferences": {},
  "deployedLinkReferences": {}
}